{
  "contractName": "entry6",
  "abi": [
    {
      "inputs": [
        {
          "internalType": "address",
          "name": "storageAddr",
          "type": "address"
        }
      ],
      "payable": false,
      "stateMutability": "nonpayable",
      "type": "constructor"
    },
    {
      "constant": false,
      "inputs": [
        {
          "internalType": "address",
          "name": "_newStorageContractAddress",
          "type": "address"
        }
      ],
      "name": "_setStorageContract",
      "outputs": [],
      "payable": false,
      "stateMutability": "nonpayable",
      "type": "function"
    },
    {
      "constant": false,
      "inputs": [],
      "name": "enter",
      "outputs": [],
      "payable": false,
      "stateMutability": "nonpayable",
      "type": "function"
    }
  ],
  "bytecode": "0x60806040523480156200001157600080fd5b5060405162002d8d38038062002d8d833981810160405260208110156200003757600080fd5b810190808051906020019092919050505062000059816200006060201b60201c565b5062000106565b80600160006101000a81548173ffffffffffffffffffffffffffffffffffffffff021916908373ffffffffffffffffffffffffffffffffffffffff160217905550600160009054906101000a900473ffffffffffffffffffffffffffffffffffffffff166000806101000a81548173ffffffffffffffffffffffffffffffffffffffff021916908373ffffffffffffffffffffffffffffffffffffffff16021790555050565b612c7780620001166000396000f3fe608060405234801561001057600080fd5b50600436106100365760003560e01c8063a473c6101461003b578063e97dcb621461007f575b600080fd5b61007d6004803603602081101561005157600080fd5b81019080803573ffffffffffffffffffffffffffffffffffffffff169060200190929190505050610089565b005b61008761012f565b005b80600160006101000a81548173ffffffffffffffffffffffffffffffffffffffff021916908373ffffffffffffffffffffffffffffffffffffffff160217905550600160009054906101000a900473ffffffffffffffffffffffffffffffffffffffff166000806101000a81548173ffffffffffffffffffffffffffffffffffffffff021916908373ffffffffffffffffffffffffffffffffffffffff16021790555050565b600073ffffffffffffffffffffffffffffffffffffffff16600160009054906101000a900473ffffffffffffffffffffffffffffffffffffffff1673ffffffffffffffffffffffffffffffffffffffff1614156101d7576040517f08c379a0000000000000000000000000000000000000000000000000000000008152600401808060200182810382526033815260200180612c106033913960400191505060405180910390fd5b6000809054906101000a900473ffffffffffffffffffffffffffffffffffffffff1673ffffffffffffffffffffffffffffffffffffffff1663214d9b2b607c6040518263ffffffff1660e01b815260040180806020018060200180602001858152602001848103845260088152602001807f434f5649442d31390000000000000000000000000000000000000000000000008152506020018481038352600a8152602001807f4d61646167617363617200000000000000000000000000000000000000000000815250602001848103825260108152602001807f2d31382e373636392c34362e3836393100000000000000000000000000000000815250602001945050505050602060405180830381600087803b1580156102f757600080fd5b505af115801561030b573d6000803e3d6000fd5b505050506040513d602081101561032157600080fd5b8101908080519060200190929190505050506000809054906101000a900473ffffffffffffffffffffffffffffffffffffffff1673ffffffffffffffffffffffffffffffffffffffff1663214d9b2b6116946040518263ffffffff1660e01b815260040180806020018060200180602001858152602001848103845260088152602001807f434f5649442d3139000000000000000000000000000000000000000000000000815250602001848103835260088152602001807f4d616c6179736961000000000000000000000000000000000000000000000000815250602001848103825260098152602001807f322e352c3131322e350000000000000000000000000000000000000000000000815250602001945050505050602060405180830381600087803b15801561045457600080fd5b505af1158015610468573d6000803e3d6000fd5b505050506040513d602081101561047e57600080fd5b8101908080519060200190929190505050506000809054906101000a900473ffffffffffffffffffffffffffffffffffffffff1673ffffffffffffffffffffffffffffffffffffffff1663214d9b2b60d66040518263ffffffff1660e01b815260040180806020018060200180602001858152602001848103845260088152602001807f434f5649442d3139000000000000000000000000000000000000000000000000815250602001848103835260088152602001807f4d616c64697665730000000000000000000000000000000000000000000000008152506020018481038252600e8152602001807f332e323032382c37332e32323037000000000000000000000000000000000000815250602001945050505050602060405180830381600087803b1580156105b057600080fd5b505af11580156105c4573d6000803e3d6000fd5b505050506040513d60208110156105da57600080fd5b8101908080519060200190929190505050506000809054906101000a900473ffffffffffffffffffffffffffffffffffffffff1673ffffffffffffffffffffffffffffffffffffffff1663214d9b2b6101c06040518263ffffffff1660e01b815260040180806020018060200180602001858152602001848103845260088152602001807f434f5649442d3139000000000000000000000000000000000000000000000000815250602001848103835260058152602001807f4d616c74610000000000000000000000000000000000000000000000000000008152506020018481038252600f8152602001807f33352e393337352c31342e333735340000000000000000000000000000000000815250602001945050505050602060405180830381600087803b15801561070d57600080fd5b505af1158015610721573d6000803e3d6000fd5b505050506040513d602081101561073757600080fd5b8101908080519060200190929190505050506000809054906101000a900473ffffffffffffffffffffffffffffffffffffffff1673ffffffffffffffffffffffffffffffffffffffff1663214d9b2b60076040518263ffffffff1660e01b815260040180806020018060200180602001858152602001848103845260088152602001807f434f5649442d31390000000000000000000000000000000000000000000000008152506020018481038352600a8152602001807f4d6175726974616e6961000000000000000000000000000000000000000000008152506020018481038252600f8152602001807f32312e303037392c31302e393430380000000000000000000000000000000000815250602001945050505050602060405180830381600087803b15801561086957600080fd5b505af115801561087d573d6000803e3d6000fd5b505050506040513d602081101561089357600080fd5b8101908080519060200190929190505050506000809054906101000a900473ffffffffffffffffffffffffffffffffffffffff1673ffffffffffffffffffffffffffffffffffffffff1663214d9b2b61014c6040518263ffffffff1660e01b815260040180806020018060200180602001858152602001848103845260088152602001807f434f5649442d3139000000000000000000000000000000000000000000000000815250602001848103835260098152602001807f4d617572697469757300000000000000000000000000000000000000000000008152506020018481038252600a8152602001807f2d32302e322c35372e3500000000000000000000000000000000000000000000815250602001945050505050602060405180830381600087803b1580156109c657600080fd5b505af11580156109da573d6000803e3d6000fd5b505050506040513d60208110156109f057600080fd5b8101908080519060200190929190505050506000809054906101000a900473ffffffffffffffffffffffffffffffffffffffff1673ffffffffffffffffffffffffffffffffffffffff1663214d9b2b6139556040518263ffffffff1660e01b815260040180806020018060200180602001858152602001848103845260088152602001807f434f5649442d3139000000000000000000000000000000000000000000000000815250602001848103835260068152602001807f4d657869636f0000000000000000000000000000000000000000000000000000815250602001848103825260118152602001807f32332e363334352c2d3130322e35353238000000000000000000000000000000815250602001945050505050602060405180830381600087803b158015610b2357600080fd5b505af1158015610b37573d6000803e3d6000fd5b505050506040513d6020811015610b4d57600080fd5b8101908080519060200190929190505050506000809054906101000a900473ffffffffffffffffffffffffffffffffffffffff1673ffffffffffffffffffffffffffffffffffffffff1663214d9b2b610d506040518263ffffffff1660e01b815260040180806020018060200180602001858152602001848103845260088152602001807f434f5649442d3139000000000000000000000000000000000000000000000000815250602001848103835260078152602001807f4d6f6c646f7661000000000000000000000000000000000000000000000000008152506020018481038252600f8152602001807f34372e343131362c32382e333639390000000000000000000000000000000000815250602001945050505050602060405180830381600087803b158015610c8057600080fd5b505af1158015610c94573d6000803e3d6000fd5b505050506040513d6020811015610caa57600080fd5b8101908080519060200190929190505050506000809054906101000a900473ffffffffffffffffffffffffffffffffffffffff1673ffffffffffffffffffffffffffffffffffffffff1663214d9b2b605e6040518263ffffffff1660e01b815260040180806020018060200180602001858152602001848103845260088152602001807f434f5649442d3139000000000000000000000000000000000000000000000000815250602001848103835260068152602001807f4d6f6e61636f00000000000000000000000000000000000000000000000000008152506020018481038252600e8152602001807f34332e373333332c372e34313637000000000000000000000000000000000000815250602001945050505050602060405180830381600087803b158015610ddc57600080fd5b505af1158015610df0573d6000803e3d6000fd5b505050506040513d6020811015610e0657600080fd5b8101908080519060200190929190505050506000809054906101000a900473ffffffffffffffffffffffffffffffffffffffff1673ffffffffffffffffffffffffffffffffffffffff1663214d9b2b60266040518263ffffffff1660e01b815260040180806020018060200180602001858152602001848103845260088152602001807f434f5649442d3139000000000000000000000000000000000000000000000000815250602001848103835260088152602001807f4d6f6e676f6c6961000000000000000000000000000000000000000000000000815250602001848103825260108152602001807f34362e383632352c3130332e3834363700000000000000000000000000000000815250602001945050505050602060405180830381600087803b158015610f3857600080fd5b505af1158015610f4c573d6000803e3d6000fd5b505050506040513d6020811015610f6257600080fd5b8101908080519060200190929190505050506000809054906101000a900473ffffffffffffffffffffffffffffffffffffffff1673ffffffffffffffffffffffffffffffffffffffff1663214d9b2b6101416040518263ffffffff1660e01b815260040180806020018060200180602001858152602001848103845260088152602001807f434f5649442d31390000000000000000000000000000000000000000000000008152506020018481038352600a8152602001807f4d6f6e74656e6567726f00000000000000000000000000000000000000000000815250602001848103825260098152602001807f34322e352c31392e330000000000000000000000000000000000000000000000815250602001945050505050602060405180830381600087803b15801561109557600080fd5b505af11580156110a9573d6000803e3d6000fd5b505050506040513d60208110156110bf57600080fd5b8101908080519060200190929190505050506000809054906101000a900473ffffffffffffffffffffffffffffffffffffffff1673ffffffffffffffffffffffffffffffffffffffff1663214d9b2b610fe16040518263ffffffff1660e01b815260040180806020018060200180602001858152602001848103845260088152602001807f434f5649442d3139000000000000000000000000000000000000000000000000815250602001848103835260078152602001807f4d6f726f63636f000000000000000000000000000000000000000000000000008152506020018481038252600f8152602001807f33312e373931372c2d372e303932360000000000000000000000000000000000815250602001945050505050602060405180830381600087803b1580156111f257600080fd5b505af1158015611206573d6000803e3d6000fd5b505050506040513d602081101561121c57600080fd5b8101908080519060200190929190505050506000809054906101000a900473ffffffffffffffffffffffffffffffffffffffff1673ffffffffffffffffffffffffffffffffffffffff1663214d9b2b60106040518263ffffffff1660e01b815260040180806020018060200180602001858152602001848103845260088152602001807f434f5649442d3139000000000000000000000000000000000000000000000000815250602001848103835260078152602001807f4e616d6962696100000000000000000000000000000000000000000000000000815250602001848103825260108152602001807f2d32322e393537362c31382e3439303400000000000000000000000000000000815250602001945050505050602060405180830381600087803b15801561134e57600080fd5b505af1158015611362573d6000803e3d6000fd5b505050506040513d602081101561137857600080fd5b8101908080519060200190929190505050506000809054906101000a900473ffffffffffffffffffffffffffffffffffffffff1673ffffffffffffffffffffffffffffffffffffffff1663214d9b2b60346040518263ffffffff1660e01b815260040180806020018060200180602001858152602001848103845260088152602001807f434f5649442d3139000000000000000000000000000000000000000000000000815250602001848103835260058152602001807f4e6570616c0000000000000000000000000000000000000000000000000000008152506020018481038252600d8152602001807f32382e313636372c38342e323500000000000000000000000000000000000000815250602001945050505050602060405180830381600087803b1580156114aa57600080fd5b505af11580156114be573d6000803e3d6000fd5b505050506040513d60208110156114d457600080fd5b8101908080519060200190929190505050506000809054906101000a900473ffffffffffffffffffffffffffffffffffffffff1673ffffffffffffffffffffffffffffffffffffffff1663214d9b2b60646040518263ffffffff1660e01b815260040180806020018060200180602001858152602001848103845260088152602001807f434f5649442d31390000000000000000000000000000000000000000000000008152506020018481038352600b8152602001807f4e65746865726c616e6473000000000000000000000000000000000000000000815250602001848103825260108152602001807f31322e353138362c2d37302e3033353800000000000000000000000000000000815250602001945050505050602060405180830381600087803b15801561160657600080fd5b505af115801561161a573d6000803e3d6000fd5b505050506040513d602081101561163057600080fd5b8101908080519060200190929190505050506000809054906101000a900473ffffffffffffffffffffffffffffffffffffffff1673ffffffffffffffffffffffffffffffffffffffff1663214d9b2b60106040518263ffffffff1660e01b815260040180806020018060200180602001858152602001848103845260088152602001807f434f5649442d31390000000000000000000000000000000000000000000000008152506020018481038352600b8152602001807f4e65746865726c616e64730000000000000000000000000000000000000000008152506020018481038252600e8152602001807f31322e313639362c2d36382e3939000000000000000000000000000000000000815250602001945050505050602060405180830381600087803b15801561176257600080fd5b505af1158015611776573d6000803e3d6000fd5b505050506040513d602081101561178c57600080fd5b8101908080519060200190929190505050506000809054906101000a900473ffffffffffffffffffffffffffffffffffffffff1673ffffffffffffffffffffffffffffffffffffffff1663214d9b2b604a6040518263ffffffff1660e01b815260040180806020018060200180602001858152602001848103845260088152602001807f434f5649442d31390000000000000000000000000000000000000000000000008152506020018481038352600b8152602001807f4e65746865726c616e6473000000000000000000000000000000000000000000815250602001848103825260108152602001807f31382e303432352c2d36332e3035343800000000000000000000000000000000815250602001945050505050602060405180830381600087803b1580156118be57600080fd5b505af11580156118d2573d6000803e3d6000fd5b505050506040513d60208110156118e857600080fd5b8101908080519060200190929190505050506000809054906101000a900473ffffffffffffffffffffffffffffffffffffffff1673ffffffffffffffffffffffffffffffffffffffff1663214d9b2b6193d56040518263ffffffff1660e01b815260040180806020018060200180602001858152602001848103845260088152602001807f434f5649442d31390000000000000000000000000000000000000000000000008152506020018481038352600b8152602001807f4e65746865726c616e64730000000000000000000000000000000000000000008152506020018481038252600e8152602001807f35322e313332362c352e32393133000000000000000000000000000000000000815250602001945050505050602060405180830381600087803b158015611a1b57600080fd5b505af1158015611a2f573d6000803e3d6000fd5b505050506040513d6020811015611a4557600080fd5b8101908080519060200190929190505050506000809054906101000a900473ffffffffffffffffffffffffffffffffffffffff1673ffffffffffffffffffffffffffffffffffffffff1663214d9b2b6105bd6040518263ffffffff1660e01b815260040180806020018060200180602001858152602001848103845260088152602001807f434f5649442d31390000000000000000000000000000000000000000000000008152506020018481038352600b8152602001807f4e6577205a65616c616e64000000000000000000000000000000000000000000815250602001848103825260108152602001807f2d34302e393030362c3137342e38383600000000000000000000000000000000815250602001945050505050602060405180830381600087803b158015611b7857600080fd5b505af1158015611b8c573d6000803e3d6000fd5b505050506040513d6020811015611ba257600080fd5b8101908080519060200190929190505050506000809054906101000a900473ffffffffffffffffffffffffffffffffffffffff1673ffffffffffffffffffffffffffffffffffffffff1663214d9b2b600d6040518263ffffffff1660e01b815260040180806020018060200180602001858152602001848103845260088152602001807f434f5649442d3139000000000000000000000000000000000000000000000000815250602001848103835260098152602001807f4e69636172616775610000000000000000000000000000000000000000000000815250602001848103825260108152602001807f31322e383635342c2d38352e3230373200000000000000000000000000000000815250602001945050505050602060405180830381600087803b158015611cd457600080fd5b505af1158015611ce8573d6000803e3d6000fd5b505050506040513d6020811015611cfe57600080fd5b8101908080519060200190929190505050506000809054906101000a900473ffffffffffffffffffffffffffffffffffffffff1673ffffffffffffffffffffffffffffffffffffffff1663214d9b2b6102b86040518263ffffffff1660e01b815260040180806020018060200180602001858152602001848103845260088152602001807f434f5649442d3139000000000000000000000000000000000000000000000000815250602001848103835260058152602001807f4e696765720000000000000000000000000000000000000000000000000000008152506020018481038252600e8152602001807f31372e363037382c382e30383137000000000000000000000000000000000000815250602001945050505050602060405180830381600087803b158015611e3157600080fd5b505af1158015611e45573d6000803e3d6000fd5b505050506040513d6020811015611e5b57600080fd5b8101908080519060200190929190505050506000809054906101000a900473ffffffffffffffffffffffffffffffffffffffff1673ffffffffffffffffffffffffffffffffffffffff1663214d9b2b6104f96040518263ffffffff1660e01b815260040180806020018060200180602001858152602001848103845260088152602001807f434f5649442d3139000000000000000000000000000000000000000000000000815250602001848103835260078152602001807f4e696765726961000000000000000000000000000000000000000000000000008152506020018481038252600c8152602001807f392e3038322c382e363735330000000000000000000000000000000000000000815250602001945050505050602060405180830381600087803b158015611f8e57600080fd5b505af1158015611fa2573d6000803e3d6000fd5b505050506040513d6020811015611fb857600080fd5b8101908080519060200190929190505050506000809054906101000a900473ffffffffffffffffffffffffffffffffffffffff1673ffffffffffffffffffffffffffffffffffffffff1663214d9b2b61056a6040518263ffffffff1660e01b815260040180806020018060200180602001858152602001848103845260088152602001807f434f5649442d31390000000000000000000000000000000000000000000000008152506020018481038352600f8152602001807f4e6f727468204d616365646f6e696100000000000000000000000000000000008152506020018481038252600f8152602001807f34312e363038362c32312e373435330000000000000000000000000000000000815250602001945050505050602060405180830381600087803b1580156120eb57600080fd5b505af11580156120ff573d6000803e3d6000fd5b505050506040513d602081101561211557600080fd5b8101908080519060200190929190505050506000809054906101000a900473ffffffffffffffffffffffffffffffffffffffff1673ffffffffffffffffffffffffffffffffffffffff1663214d9b2b611d676040518263ffffffff1660e01b815260040180806020018060200180602001858152602001848103845260088152602001807f434f5649442d3139000000000000000000000000000000000000000000000000815250602001848103835260068152602001807f4e6f7277617900000000000000000000000000000000000000000000000000008152506020018481038252600d8152602001807f36302e3437322c382e3436383900000000000000000000000000000000000000815250602001945050505050602060405180830381600087803b15801561224857600080fd5b505af115801561225c573d6000803e3d6000fd5b505050506040513d602081101561227257600080fd5b8101908080519060200190929190505050506000809054906101000a900473ffffffffffffffffffffffffffffffffffffffff1673ffffffffffffffffffffffffffffffffffffffff1663214d9b2b6107ce6040518263ffffffff1660e01b815260040180806020018060200180602001858152602001848103845260088152602001807f434f5649442d3139000000000000000000000000000000000000000000000000815250602001848103835260048152602001807f4f6d616e00000000000000000000000000000000000000000000000000000000815250602001848103825260058152602001807f32312c3537000000000000000000000000000000000000000000000000000000815250602001945050505050602060405180830381600087803b1580156123a557600080fd5b505af11580156123b9573d6000803e3d6000fd5b505050506040513d60208110156123cf57600080fd5b8101908080519060200190929190505050506000809054906101000a900473ffffffffffffffffffffffffffffffffffffffff1673ffffffffffffffffffffffffffffffffffffffff1663214d9b2b6134106040518263ffffffff1660e01b815260040180806020018060200180602001858152602001848103845260088152602001807f434f5649442d3139000000000000000000000000000000000000000000000000815250602001848103835260088152602001807f50616b697374616e0000000000000000000000000000000000000000000000008152506020018481038252600f8152602001807f33302e333735332c36392e333435310000000000000000000000000000000000815250602001945050505050602060405180830381600087803b15801561250257600080fd5b505af1158015612516573d6000803e3d6000fd5b505050506040513d602081101561252c57600080fd5b8101908080519060200190929190505050506000809054906101000a900473ffffffffffffffffffffffffffffffffffffffff1673ffffffffffffffffffffffffffffffffffffffff1663214d9b2b6116936040518263ffffffff1660e01b815260040180806020018060200180602001858152602001848103845260088152602001807f434f5649442d3139000000000000000000000000000000000000000000000000815250602001848103835260068152602001807f50616e616d6100000000000000000000000000000000000000000000000000008152506020018481038252600e8152602001807f382e3533382c2d38302e37383231000000000000000000000000000000000000815250602001945050505050602060405180830381600087803b15801561265f57600080fd5b505af1158015612673573d6000803e3d6000fd5b505050506040513d602081101561268957600080fd5b8101908080519060200190929190505050506000809054906101000a900473ffffffffffffffffffffffffffffffffffffffff1673ffffffffffffffffffffffffffffffffffffffff1663214d9b2b60086040518263ffffffff1660e01b815260040180806020018060200180602001858152602001848103845260088152602001807f434f5649442d3139000000000000000000000000000000000000000000000000815250602001848103835260108152602001807f5061707561204e6577204775696e6561000000000000000000000000000000008152506020018481038252600f8152602001807f2d362e3331352c3134332e393535350000000000000000000000000000000000815250602001945050505050602060405180830381600087803b1580156127bb57600080fd5b505af11580156127cf573d6000803e3d6000fd5b505050506040513d60208110156127e557600080fd5b8101908080519060200190929190505050506000809054906101000a900473ffffffffffffffffffffffffffffffffffffffff1673ffffffffffffffffffffffffffffffffffffffff1663214d9b2b60e46040518263ffffffff1660e01b815260040180806020018060200180602001858152602001848103845260088152602001807f434f5649442d3139000000000000000000000000000000000000000000000000815250602001848103835260088152602001807f5061726167756179000000000000000000000000000000000000000000000000815250602001848103825260118152602001807f2d32332e343432352c2d35382e34343338000000000000000000000000000000815250602001945050505050602060405180830381600087803b15801561291757600080fd5b505af115801561292b573d6000803e3d6000fd5b505050506040513d602081101561294157600080fd5b8101908080519060200190929190505050506000809054906101000a900473ffffffffffffffffffffffffffffffffffffffff1673ffffffffffffffffffffffffffffffffffffffff1663214d9b2b616b7d6040518263ffffffff1660e01b815260040180806020018060200180602001858152602001848103845260088152602001807f434f5649442d3139000000000000000000000000000000000000000000000000815250602001848103835260048152602001807f50657275000000000000000000000000000000000000000000000000000000008152506020018481038252600e8152602001807f2d392e31392c2d37352e30313532000000000000000000000000000000000000815250602001945050505050602060405180830381600087803b158015612a7457600080fd5b505af1158015612a88573d6000803e3d6000fd5b505050506040513d6020811015612a9e57600080fd5b8101908080519060200190929190505050506000809054906101000a900473ffffffffffffffffffffffffffffffffffffffff1673ffffffffffffffffffffffffffffffffffffffff1663214d9b2b611d9b6040518263ffffffff1660e01b815260040180806020018060200180602001858152602001848103845260088152602001807f434f5649442d31390000000000000000000000000000000000000000000000008152506020018481038352600b8152602001807f5068696c697070696e6573000000000000000000000000000000000000000000815250602001848103825260068152602001807f31332c3132320000000000000000000000000000000000000000000000000000815250602001945050505050602060405180830381600087803b158015612bd157600080fd5b505af1158015612be5573d6000803e3d6000fd5b505050506040513d6020811015612bfb57600080fd5b81019080805190602001909291905050505056fe596f75206861766520746f20736574207468652073746f7261676520636f6e747261637420616464726573732066697273742ea265627a7a7231582097efdcdb7473c7041478d6c4940c3412923bc09036db86bb125ebd20bee413f164736f6c63430005100032",
  "source": "pragma solidity >=0.5.0 <0.6.0;\n\nimport \"../Storage.sol\";\n\n/*\n    Note: this entire contract is embarassing\n    All of this nonsense is an attempt to get around the various limitations of the underlying technology.\n    Contract length limitations, gas cost per transaction limitations\n\n    IMPORTANT:\n        1) You must update storageContractAddress by calling _setStorageContract if necessary\n        2) You will need to copy/paste functions f1-f9 individually such that you are deploying only one of these functions at a time\n        Otherwise you will exceed contract length and transaction limitations.\n        3) The contract at 0x7AF30bdddBD23EFbe533d27e89c4b8c6eC5D149B has historical data through 4/28.\n        PLEASE DO NOT ADD TO IT UNLESS ADDING NEW DAYS. Otherwise we will need to deploy 9 versions of this contract to rebuild the dataset on chain.\n\n    Data Source: Johns Hopkins School of Public Health\n    https://data.humdata.org/dataset/novel-coronavirus-2019-ncov-cases\n*/\n\ncontract entry6 {\n\n    Storage storageContract;\n    address storageContractAddress; // You probably want to initialize this here rather than calling _setStorageContract for every deployment...\n\n    /*constructor() public{\n        storageContract = Storage(storageContractAddress);\n    }*/\n\n    constructor (address storageAddr) public {\n        _setStorageContract(storageAddr);\n    }\n\n    function _setStorageContract(address _newStorageContractAddress) public {\n        storageContractAddress = _newStorageContractAddress;\n        storageContract = Storage(storageContractAddress);\n    }\n\n    function enter() public {\n        require(storageContractAddress != address(0), \"You have to set the storage contract address first.\");\n\n        storageContract.addHistoricalRecord(\"COVID-19\",\"Madagascar\",\"-18.7669,46.8691\",124);\n        storageContract.addHistoricalRecord(\"COVID-19\",\"Malaysia\",\"2.5,112.5\",5780);\n        storageContract.addHistoricalRecord(\"COVID-19\",\"Maldives\",\"3.2028,73.2207\",214);\n        storageContract.addHistoricalRecord(\"COVID-19\",\"Malta\",\"35.9375,14.3754\",448);\n        storageContract.addHistoricalRecord(\"COVID-19\",\"Mauritania\",\"21.0079,10.9408\",7);\n        storageContract.addHistoricalRecord(\"COVID-19\",\"Mauritius\",\"-20.2,57.5\",332);\n        storageContract.addHistoricalRecord(\"COVID-19\",\"Mexico\",\"23.6345,-102.5528\",14677);\n        storageContract.addHistoricalRecord(\"COVID-19\",\"Moldova\",\"47.4116,28.3699\",3408);\n        storageContract.addHistoricalRecord(\"COVID-19\",\"Monaco\",\"43.7333,7.4167\",94);\n        storageContract.addHistoricalRecord(\"COVID-19\",\"Mongolia\",\"46.8625,103.8467\",38);\n        storageContract.addHistoricalRecord(\"COVID-19\",\"Montenegro\",\"42.5,19.3\",321);\n        storageContract.addHistoricalRecord(\"COVID-19\",\"Morocco\",\"31.7917,-7.0926\",4065);\n        storageContract.addHistoricalRecord(\"COVID-19\",\"Namibia\",\"-22.9576,18.4904\",16);\n        storageContract.addHistoricalRecord(\"COVID-19\",\"Nepal\",\"28.1667,84.25\",52);\n        storageContract.addHistoricalRecord(\"COVID-19\",\"Netherlands\",\"12.5186,-70.0358\",100);\n        storageContract.addHistoricalRecord(\"COVID-19\",\"Netherlands\",\"12.1696,-68.99\",16);\n        storageContract.addHistoricalRecord(\"COVID-19\",\"Netherlands\",\"18.0425,-63.0548\",74);\n        storageContract.addHistoricalRecord(\"COVID-19\",\"Netherlands\",\"52.1326,5.2913\",37845);\n        storageContract.addHistoricalRecord(\"COVID-19\",\"New Zealand\",\"-40.9006,174.886\",1469);\n        storageContract.addHistoricalRecord(\"COVID-19\",\"Nicaragua\",\"12.8654,-85.2072\",13);\n        storageContract.addHistoricalRecord(\"COVID-19\",\"Niger\",\"17.6078,8.0817\",696);\n        storageContract.addHistoricalRecord(\"COVID-19\",\"Nigeria\",\"9.082,8.6753\",1273);\n        storageContract.addHistoricalRecord(\"COVID-19\",\"North Macedonia\",\"41.6086,21.7453\",1386);\n        storageContract.addHistoricalRecord(\"COVID-19\",\"Norway\",\"60.472,8.4689\",7527);\n        storageContract.addHistoricalRecord(\"COVID-19\",\"Oman\",\"21,57\",1998);\n        storageContract.addHistoricalRecord(\"COVID-19\",\"Pakistan\",\"30.3753,69.3451\",13328);\n        storageContract.addHistoricalRecord(\"COVID-19\",\"Panama\",\"8.538,-80.7821\",5779);\n        storageContract.addHistoricalRecord(\"COVID-19\",\"Papua New Guinea\",\"-6.315,143.9555\",8);\n        storageContract.addHistoricalRecord(\"COVID-19\",\"Paraguay\",\"-23.4425,-58.4438\",228);\n        storageContract.addHistoricalRecord(\"COVID-19\",\"Peru\",\"-9.19,-75.0152\",27517);\n        storageContract.addHistoricalRecord(\"COVID-19\",\"Philippines\",\"13,122\",7579);\n    }\n}",
  "sourcePath": "/home/t8/WebstormProjects/cs481a3TermProject/contracts/MassDataEntry/entry6.sol",
  "compiler": {
    "name": "solc",
    "version": "0.5.16+commit.9c3226ce.Emscripten.clang"
  },
  "schemaVersion": "3.1.0",
  "updatedAt": "2020-05-03T17:20:44.571Z",
  "networkType": "ethereum",
  "devdoc": {
    "methods": {}
  },
  "userdoc": {
    "methods": {}
  }
}