{
  "contractName": "PatientData",
  "abi": [
    {
      "inputs": [
        {
          "internalType": "address",
          "name": "storageAddr",
          "type": "address"
        }
      ],
      "payable": false,
      "stateMutability": "nonpayable",
      "type": "constructor"
    },
    {
      "anonymous": false,
      "inputs": [
        {
          "indexed": false,
          "internalType": "string",
          "name": "virus",
          "type": "string"
        },
        {
          "indexed": false,
          "internalType": "string",
          "name": "location",
          "type": "string"
        },
        {
          "indexed": false,
          "internalType": "string",
          "name": "latLon",
          "type": "string"
        }
      ],
      "name": "NewPatient",
      "type": "event"
    },
    {
      "constant": true,
      "inputs": [
        {
          "internalType": "address",
          "name": "",
          "type": "address"
        }
      ],
      "name": "authorizedEntity",
      "outputs": [
        {
          "internalType": "bool",
          "name": "",
          "type": "bool"
        }
      ],
      "payable": false,
      "stateMutability": "view",
      "type": "function"
    },
    {
      "constant": false,
      "inputs": [],
      "name": "_addUser",
      "outputs": [],
      "payable": false,
      "stateMutability": "nonpayable",
      "type": "function"
    },
    {
      "constant": false,
      "inputs": [
        {
          "internalType": "address",
          "name": "_newStorageContractAddress",
          "type": "address"
        }
      ],
      "name": "_setStorageContract",
      "outputs": [],
      "payable": false,
      "stateMutability": "nonpayable",
      "type": "function"
    },
    {
      "constant": false,
      "inputs": [
        {
          "internalType": "string",
          "name": "_virus",
          "type": "string"
        },
        {
          "internalType": "string",
          "name": "_location",
          "type": "string"
        },
        {
          "internalType": "string",
          "name": "_latLon",
          "type": "string"
        }
      ],
      "name": "_createPatient",
      "outputs": [],
      "payable": false,
      "stateMutability": "nonpayable",
      "type": "function"
    },
    {
      "constant": true,
      "inputs": [
        {
          "internalType": "string",
          "name": "location",
          "type": "string"
        }
      ],
      "name": "patientsPerLocation",
      "outputs": [
        {
          "internalType": "uint256",
          "name": "",
          "type": "uint256"
        }
      ],
      "payable": false,
      "stateMutability": "view",
      "type": "function"
    },
    {
      "constant": true,
      "inputs": [
        {
          "internalType": "string",
          "name": "virus",
          "type": "string"
        }
      ],
      "name": "totalPatientsPerVirus",
      "outputs": [
        {
          "internalType": "uint256",
          "name": "",
          "type": "uint256"
        }
      ],
      "payable": false,
      "stateMutability": "view",
      "type": "function"
    }
  ],
  "bytecode": "0x608060405234801561001057600080fd5b50604051610c9f380380610c9f8339818101604052602081101561003357600080fd5b81019080805190602001909291905050506100538161005960201b60201c565b50610100565b80600160006101000a81548173ffffffffffffffffffffffffffffffffffffffff021916908373ffffffffffffffffffffffffffffffffffffffff160217905550600160009054906101000a900473ffffffffffffffffffffffffffffffffffffffff16600260006101000a81548173ffffffffffffffffffffffffffffffffffffffff021916908373ffffffffffffffffffffffffffffffffffffffff16021790555050565b610b908061010f6000396000f3fe608060405234801561001057600080fd5b50600436106100625760003560e01c8063361833c3146100675780633b7f8f5d146101365780634b1e40cb1461031f578063532910921461037b578063a473c6101461044a578063ce6f683b1461048e575b600080fd5b6101206004803603602081101561007d57600080fd5b810190808035906020019064010000000081111561009a57600080fd5b8201836020820111156100ac57600080fd5b803590602001918460018302840111640100000000831117156100ce57600080fd5b91908080601f016020809104026020016040519081016040528093929190818152602001838380828437600081840152601f19601f820116905080830192505050505050509192919290505050610498565b6040518082815260200191505060405180910390f35b61031d6004803603606081101561014c57600080fd5b810190808035906020019064010000000081111561016957600080fd5b82018360208201111561017b57600080fd5b8035906020019184600183028401116401000000008311171561019d57600080fd5b91908080601f016020809104026020016040519081016040528093929190818152602001838380828437600081840152601f19601f8201169050808301925050505050505091929192908035906020019064010000000081111561020057600080fd5b82018360208201111561021257600080fd5b8035906020019184600183028401116401000000008311171561023457600080fd5b91908080601f016020809104026020016040519081016040528093929190818152602001838380828437600081840152601f19601f8201169050808301925050505050505091929192908035906020019064010000000081111561029757600080fd5b8201836020820111156102a957600080fd5b803590602001918460018302840111640100000000831117156102cb57600080fd5b91908080601f016020809104026020016040519081016040528093929190818152602001838380828437600081840152601f19601f8201169050808301925050505050505091929192905050506105b4565b005b6103616004803603602081101561033557600080fd5b81019080803573ffffffffffffffffffffffffffffffffffffffff16906020019092919050505061091f565b604051808215151515815260200191505060405180910390f35b6104346004803603602081101561039157600080fd5b81019080803590602001906401000000008111156103ae57600080fd5b8201836020820111156103c057600080fd5b803590602001918460018302840111640100000000831117156103e257600080fd5b91908080601f016020809104026020016040519081016040528093929190818152602001838380828437600081840152601f19601f82011690508083019250505050505050919291929050505061093f565b6040518082815260200191505060405180910390f35b61048c6004803603602081101561046057600080fd5b81019080803573ffffffffffffffffffffffffffffffffffffffff169060200190929190505050610a5b565b005b610496610b02565b005b6000600260009054906101000a900473ffffffffffffffffffffffffffffffffffffffff1673ffffffffffffffffffffffffffffffffffffffff1663609d1bea836040518263ffffffff1660e01b81526004018080602001828103825283818151815260200191508051906020019080838360005b8381101561052857808201518184015260208101905061050d565b50505050905090810190601f1680156105555780820380516001836020036101000a031916815260200191505b509250505060206040518083038186803b15801561057257600080fd5b505afa158015610586573d6000803e3d6000fd5b505050506040513d602081101561059c57600080fd5b81019080805190602001909291905050509050919050565b600260009054906101000a900473ffffffffffffffffffffffffffffffffffffffff1673ffffffffffffffffffffffffffffffffffffffff16633f723c628484846040518463ffffffff1660e01b815260040180806020018060200180602001848103845287818151815260200191508051906020019080838360005b8381101561064c578082015181840152602081019050610631565b50505050905090810190601f1680156106795780820380516001836020036101000a031916815260200191505b50848103835286818151815260200191508051906020019080838360005b838110156106b2578082015181840152602081019050610697565b50505050905090810190601f1680156106df5780820380516001836020036101000a031916815260200191505b50848103825285818151815260200191508051906020019080838360005b838110156107185780820151818401526020810190506106fd565b50505050905090810190601f1680156107455780820380516001836020036101000a031916815260200191505b509650505050505050602060405180830381600087803b15801561076857600080fd5b505af115801561077c573d6000803e3d6000fd5b505050506040513d602081101561079257600080fd5b8101908080519060200190929190505050507fe584b4b5d7376324d964e1605d64825855d46f57bb5c17ec9687e23e4e4a861683838360405180806020018060200180602001848103845287818151815260200191508051906020019080838360005b838110156108105780820151818401526020810190506107f5565b50505050905090810190601f16801561083d5780820380516001836020036101000a031916815260200191505b50848103835286818151815260200191508051906020019080838360005b8381101561087657808201518184015260208101905061085b565b50505050905090810190601f1680156108a35780820380516001836020036101000a031916815260200191505b50848103825285818151815260200191508051906020019080838360005b838110156108dc5780820151818401526020810190506108c1565b50505050905090810190601f1680156109095780820380516001836020036101000a031916815260200191505b50965050505050505060405180910390a1505050565b60006020528060005260406000206000915054906101000a900460ff1681565b6000600260009054906101000a900473ffffffffffffffffffffffffffffffffffffffff1673ffffffffffffffffffffffffffffffffffffffff166353291092836040518263ffffffff1660e01b81526004018080602001828103825283818151815260200191508051906020019080838360005b838110156109cf5780820151818401526020810190506109b4565b50505050905090810190601f1680156109fc5780820380516001836020036101000a031916815260200191505b509250505060206040518083038186803b158015610a1957600080fd5b505afa158015610a2d573d6000803e3d6000fd5b505050506040513d6020811015610a4357600080fd5b81019080805190602001909291905050509050919050565b80600160006101000a81548173ffffffffffffffffffffffffffffffffffffffff021916908373ffffffffffffffffffffffffffffffffffffffff160217905550600160009054906101000a900473ffffffffffffffffffffffffffffffffffffffff16600260006101000a81548173ffffffffffffffffffffffffffffffffffffffff021916908373ffffffffffffffffffffffffffffffffffffffff16021790555050565b60016000803373ffffffffffffffffffffffffffffffffffffffff1673ffffffffffffffffffffffffffffffffffffffff16815260200190815260200160002060006101000a81548160ff02191690831515021790555056fea265627a7a7231582074976dc36a4664fe0b8a1c98a08b4fc4a4a6722375b71907dbdec58f70e9168d64736f6c63430005100032",
  "source": "pragma solidity >=0.5.0 <0.6.0;\n\nimport \"./Storage.sol\";\n\ncontract PatientData {\n    using SafeMath for uint256;\n    using SafeMath for uint32;\n    using SafeMath for uint16;\n\n    event NewPatient(string virus, string location, string latLon);\n\n    mapping(address => bool) public authorizedEntity;\n    address storageAddress;\n    Storage storageContract;\n\n    constructor(address storageAddr) public {\n        _setStorageContract(storageAddr);\n    }\n\n    // Modifier for permissible reporting entities\n    modifier isAuthorized(){\n        require(authorizedEntity[msg.sender], \"You do not have authorization to modify patient records.\");\n        _;\n    }\n    \n    // This needs to be onlyOwner\n    function _addUser() public {\n        authorizedEntity[msg.sender] = true;\n    }\n    \n    // This needs to be onlyOwner\n    function _setStorageContract(address _newStorageContractAddress) public {\n        storageAddress = _newStorageContractAddress;\n        storageContract = Storage(storageAddress);\n    }\n    \n    // This is now merely a proxy function to the storage\n    // This needs to have an authorization modifier, or let Storage.sol take care of this too\n    function _createPatient(string memory _virus, string memory _location, string memory _latLon) public {\n        storageContract.addRecord(_virus, _location, _latLon);\n        emit NewPatient(_virus, _location, _latLon);\n    }\n\n    function patientsPerLocation(string memory location) public view returns(uint) {\n        return storageContract.totalPatientsPerLocation(location);\n    }\n\n    function totalPatientsPerVirus(string memory virus) public view returns(uint) {\n        return storageContract.totalPatientsPerVirus(virus);\n    }\n\n}\n",
  "sourcePath": "/home/t8/WebstormProjects/cs481a3TermProject/contracts/PatientData.sol",
  "compiler": {
    "name": "solc",
    "version": "0.5.16+commit.9c3226ce.Emscripten.clang"
  },
  "schemaVersion": "3.1.0",
  "updatedAt": "2020-05-02T17:29:59.554Z",
  "networkType": "ethereum",
  "devdoc": {
    "methods": {}
  },
  "userdoc": {
    "methods": {}
  }
}