{
  "contractName": "PatientData",
  "abi": [
    {
      "inputs": [
        {
          "internalType": "address",
          "name": "storageAddr",
          "type": "address"
        }
      ],
      "payable": false,
      "stateMutability": "nonpayable",
      "type": "constructor"
    },
    {
      "anonymous": false,
      "inputs": [
        {
          "indexed": false,
          "internalType": "string",
          "name": "virus",
          "type": "string"
        },
        {
          "indexed": false,
          "internalType": "string",
          "name": "location",
          "type": "string"
        },
        {
          "indexed": false,
          "internalType": "string",
          "name": "latLon",
          "type": "string"
        }
      ],
      "name": "NewPatient",
      "type": "event"
    },
    {
      "constant": true,
      "inputs": [
        {
          "internalType": "address",
          "name": "",
          "type": "address"
        }
      ],
      "name": "authorizedEntity",
      "outputs": [
        {
          "internalType": "bool",
          "name": "",
          "type": "bool"
        }
      ],
      "payable": false,
      "stateMutability": "view",
      "type": "function"
    },
    {
      "constant": false,
      "inputs": [],
      "name": "_addUser",
      "outputs": [],
      "payable": false,
      "stateMutability": "nonpayable",
      "type": "function"
    },
    {
      "constant": false,
      "inputs": [
        {
          "internalType": "address",
          "name": "_newStorageContractAddress",
          "type": "address"
        }
      ],
      "name": "_setStorageContract",
      "outputs": [],
      "payable": false,
      "stateMutability": "nonpayable",
      "type": "function"
    },
    {
      "constant": false,
      "inputs": [
        {
          "internalType": "string",
          "name": "_virus",
          "type": "string"
        },
        {
          "internalType": "string",
          "name": "_location",
          "type": "string"
        },
        {
          "internalType": "string",
          "name": "_latLon",
          "type": "string"
        }
      ],
      "name": "_createPatient",
      "outputs": [],
      "payable": false,
      "stateMutability": "nonpayable",
      "type": "function"
    },
    {
      "constant": true,
      "inputs": [
        {
          "internalType": "string",
          "name": "location",
          "type": "string"
        }
      ],
      "name": "patientsPerLocation",
      "outputs": [
        {
          "internalType": "uint256",
          "name": "",
          "type": "uint256"
        }
      ],
      "payable": false,
      "stateMutability": "view",
      "type": "function"
    },
    {
      "constant": true,
      "inputs": [
        {
          "internalType": "string",
          "name": "virus",
          "type": "string"
        }
      ],
      "name": "totalPatientsPerVirus",
      "outputs": [
        {
          "internalType": "uint256",
          "name": "",
          "type": "uint256"
        }
      ],
      "payable": false,
      "stateMutability": "view",
      "type": "function"
    },
    {
      "constant": true,
      "inputs": [],
      "name": "getRecords",
      "outputs": [
        {
          "components": [
            {
              "internalType": "string",
              "name": "virus",
              "type": "string"
            },
            {
              "internalType": "string",
              "name": "location",
              "type": "string"
            },
            {
              "internalType": "string",
              "name": "latLon",
              "type": "string"
            },
            {
              "internalType": "uint256",
              "name": "count",
              "type": "uint256"
            }
          ],
          "internalType": "struct shared.Record[]",
          "name": "",
          "type": "tuple[]"
        }
      ],
      "payable": false,
      "stateMutability": "view",
      "type": "function"
    }
  ],
  "bytecode": "0x608060405234801561001057600080fd5b50604051610f12380380610f1283398181016040526100329190810190610103565b6100418161004760201b60201c565b50610175565b80600160006101000a81548173ffffffffffffffffffffffffffffffffffffffff021916908373ffffffffffffffffffffffffffffffffffffffff160217905550600160009054906101000a900473ffffffffffffffffffffffffffffffffffffffff16600260006101000a81548173ffffffffffffffffffffffffffffffffffffffff021916908373ffffffffffffffffffffffffffffffffffffffff16021790555050565b6000815190506100fd8161015e565b92915050565b60006020828403121561011557600080fd5b6000610123848285016100ee565b91505092915050565b60006101378261013e565b9050919050565b600073ffffffffffffffffffffffffffffffffffffffff82169050919050565b6101678161012c565b811461017257600080fd5b50565b610d8e806101846000396000f3fe608060405234801561001057600080fd5b506004361061007d5760003560e01c8063532910921161005b57806353291092146100fe5780638eff3c291461012e578063a473c6101461014c578063ce6f683b146101685761007d565b8063361833c3146100825780633b7f8f5d146100b25780634b1e40cb146100ce575b600080fd5b61009c60048036036100979190810190610804565b610172565b6040516100a99190610b49565b60405180910390f35b6100cc60048036036100c79190810190610845565b610226565b005b6100e860048036036100e3919081019061079a565b610318565b6040516100f59190610ac0565b60405180910390f35b61011860048036036101139190810190610804565b610338565b6040516101259190610b49565b60405180910390f35b6101366103ec565b6040516101439190610a9e565b60405180910390f35b6101666004803603610161919081019061079a565b610498565b005b61017061053f565b005b6000600260009054906101000a900473ffffffffffffffffffffffffffffffffffffffff1673ffffffffffffffffffffffffffffffffffffffff1663609d1bea836040518263ffffffff1660e01b81526004016101cf9190610adb565b60206040518083038186803b1580156101e757600080fd5b505afa1580156101fb573d6000803e3d6000fd5b505050506040513d601f19601f8201168201806040525061021f91908101906108dc565b9050919050565b600260009054906101000a900473ffffffffffffffffffffffffffffffffffffffff1673ffffffffffffffffffffffffffffffffffffffff16633f723c628484846040518463ffffffff1660e01b815260040161028593929190610afd565b602060405180830381600087803b15801561029f57600080fd5b505af11580156102b3573d6000803e3d6000fd5b505050506040513d601f19601f820116820180604052506102d791908101906108dc565b507fe584b4b5d7376324d964e1605d64825855d46f57bb5c17ec9687e23e4e4a861683838360405161030b93929190610afd565b60405180910390a1505050565b60006020528060005260406000206000915054906101000a900460ff1681565b6000600260009054906101000a900473ffffffffffffffffffffffffffffffffffffffff1673ffffffffffffffffffffffffffffffffffffffff166353291092836040518263ffffffff1660e01b81526004016103959190610adb565b60206040518083038186803b1580156103ad57600080fd5b505afa1580156103c1573d6000803e3d6000fd5b505050506040513d601f19601f820116820180604052506103e591908101906108dc565b9050919050565b6060600260009054906101000a900473ffffffffffffffffffffffffffffffffffffffff1673ffffffffffffffffffffffffffffffffffffffff16638eff3c296040518163ffffffff1660e01b815260040160006040518083038186803b15801561045657600080fd5b505afa15801561046a573d6000803e3d6000fd5b505050506040513d6000823e3d601f19601f8201168201806040525061049391908101906107c3565b905090565b80600160006101000a81548173ffffffffffffffffffffffffffffffffffffffff021916908373ffffffffffffffffffffffffffffffffffffffff160217905550600160009054906101000a900473ffffffffffffffffffffffffffffffffffffffff16600260006101000a81548173ffffffffffffffffffffffffffffffffffffffff021916908373ffffffffffffffffffffffffffffffffffffffff16021790555050565b60016000803373ffffffffffffffffffffffffffffffffffffffff1673ffffffffffffffffffffffffffffffffffffffff16815260200190815260200160002060006101000a81548160ff021916908315150217905550565b6000813590506105a781610d1d565b92915050565b600082601f8301126105be57600080fd5b81516105d16105cc82610b91565b610b64565b9150818183526020840193506020810190508360005b8381101561061757815186016105fd88826106c9565b8452602084019350602083019250506001810190506105e7565b5050505092915050565b600082601f83011261063257600080fd5b815161064561064082610bb9565b610b64565b9150808252602083016020830185838301111561066157600080fd5b61066c838284610cd9565b50505092915050565b600082601f83011261068657600080fd5b813561069961069482610be5565b610b64565b915080825260208301602083018583830111156106b557600080fd5b6106c0838284610cca565b50505092915050565b6000608082840312156106db57600080fd5b6106e56080610b64565b9050600082015167ffffffffffffffff81111561070157600080fd5b61070d84828501610621565b600083015250602082015167ffffffffffffffff81111561072d57600080fd5b61073984828501610621565b602083015250604082015167ffffffffffffffff81111561075957600080fd5b61076584828501610621565b604083015250606061077984828501610785565b60608301525092915050565b60008151905061079481610d34565b92915050565b6000602082840312156107ac57600080fd5b60006107ba84828501610598565b91505092915050565b6000602082840312156107d557600080fd5b600082015167ffffffffffffffff8111156107ef57600080fd5b6107fb848285016105ad565b91505092915050565b60006020828403121561081657600080fd5b600082013567ffffffffffffffff81111561083057600080fd5b61083c84828501610675565b91505092915050565b60008060006060848603121561085a57600080fd5b600084013567ffffffffffffffff81111561087457600080fd5b61088086828701610675565b935050602084013567ffffffffffffffff81111561089d57600080fd5b6108a986828701610675565b925050604084013567ffffffffffffffff8111156108c657600080fd5b6108d286828701610675565b9150509250925092565b6000602082840312156108ee57600080fd5b60006108fc84828501610785565b91505092915050565b60006109118383610a0f565b905092915050565b600061092482610c21565b61092e8185610c4f565b93508360208202850161094085610c11565b8060005b8581101561097c578484038952815161095d8582610905565b945061096883610c42565b925060208a01995050600181019050610944565b50829750879550505050505092915050565b61099781610c94565b82525050565b60006109a882610c37565b6109b28185610c71565b93506109c2818560208601610cd9565b6109cb81610d0c565b840191505092915050565b60006109e182610c2c565b6109eb8185610c60565b93506109fb818560208601610cd9565b610a0481610d0c565b840191505092915050565b60006080830160008301518482036000860152610a2c82826109d6565b91505060208301518482036020860152610a4682826109d6565b91505060408301518482036040860152610a6082826109d6565b9150506060830151610a756060860182610a80565b508091505092915050565b610a8981610cc0565b82525050565b610a9881610cc0565b82525050565b60006020820190508181036000830152610ab88184610919565b905092915050565b6000602082019050610ad5600083018461098e565b92915050565b60006020820190508181036000830152610af5818461099d565b905092915050565b60006060820190508181036000830152610b17818661099d565b90508181036020830152610b2b818561099d565b90508181036040830152610b3f818461099d565b9050949350505050565b6000602082019050610b5e6000830184610a8f565b92915050565b6000604051905081810181811067ffffffffffffffff82111715610b8757600080fd5b8060405250919050565b600067ffffffffffffffff821115610ba857600080fd5b602082029050602081019050919050565b600067ffffffffffffffff821115610bd057600080fd5b601f19601f8301169050602081019050919050565b600067ffffffffffffffff821115610bfc57600080fd5b601f19601f8301169050602081019050919050565b6000819050602082019050919050565b600081519050919050565b600081519050919050565b600081519050919050565b6000602082019050919050565b600082825260208201905092915050565b600082825260208201905092915050565b600082825260208201905092915050565b6000610c8d82610ca0565b9050919050565b60008115159050919050565b600073ffffffffffffffffffffffffffffffffffffffff82169050919050565b6000819050919050565b82818337600083830152505050565b60005b83811015610cf7578082015181840152602081019050610cdc565b83811115610d06576000848401525b50505050565b6000601f19601f8301169050919050565b610d2681610c82565b8114610d3157600080fd5b50565b610d3d81610cc0565b8114610d4857600080fd5b5056fea365627a7a723158207813afb0c57b08fc555bd27f356c98605c1d68a6c99ef758cd1b2ddeb3774dbf6c6578706572696d656e74616cf564736f6c63430005100040",
  "source": "pragma solidity >=0.5.0 <0.6.0;\npragma experimental ABIEncoderV2;\n\nimport \"./Storage.sol\";\n\ncontract PatientData {\n    using SafeMath for uint256;\n    using SafeMath for uint32;\n    using SafeMath for uint16;\n\n    event NewPatient(string virus, string location, string latLon);\n\n    mapping(address => bool) public authorizedEntity;\n    address storageAddress;\n    Storage storageContract;\n\n    constructor (address storageAddr) public {\n        _setStorageContract(storageAddr);\n    }\n\n    // Modifier for permissible reporting entities\n    modifier isAuthorized(){\n        require(authorizedEntity[msg.sender], \"You do not have authorization to modify patient records.\");\n        _;\n    }\n\n    // This needs to be onlyOwner\n    function _addUser() public {\n        authorizedEntity[msg.sender] = true;\n    }\n\n    // This needs to be onlyOwner\n    function _setStorageContract(address _newStorageContractAddress) public {\n        storageAddress = _newStorageContractAddress;\n        storageContract = Storage(storageAddress);\n    }\n\n    // This is now merely a proxy function to the storage\n    // This needs to have an authorization modifier, or let Storage.sol take care of this too\n    function _createPatient(string memory _virus, string memory _location, string memory _latLon) public {\n        storageContract.addRecord(_virus, _location, _latLon);\n        emit NewPatient(_virus, _location, _latLon);\n    }\n\n    function patientsPerLocation(string memory location) public view returns(uint) {\n        return storageContract.totalPatientsPerLocation(location);\n    }\n\n    function totalPatientsPerVirus(string memory virus) public view returns(uint) {\n        return storageContract.totalPatientsPerVirus(virus);\n    }\n\n    function getRecords() public view returns (shared.Record[] memory){\n        return storageContract.getRecords();\n    }\n\n}",
  "sourcePath": "/home/t8/WebstormProjects/cs481a3TermProject/contracts/PatientData.sol",
  "compiler": {
    "name": "solc",
    "version": "0.5.16+commit.9c3226ce.Emscripten.clang"
  },
  "schemaVersion": "3.1.0",
  "updatedAt": "2020-05-02T19:22:59.918Z",
  "networkType": "ethereum",
  "devdoc": {
    "methods": {}
  },
  "userdoc": {
    "methods": {}
  }
}