{
  "contractName": "entry5",
  "abi": [
    {
      "inputs": [
        {
          "internalType": "address",
          "name": "storageAddr",
          "type": "address"
        }
      ],
      "payable": false,
      "stateMutability": "nonpayable",
      "type": "constructor"
    },
    {
      "constant": false,
      "inputs": [
        {
          "internalType": "address",
          "name": "_newStorageContractAddress",
          "type": "address"
        }
      ],
      "name": "_setStorageContract",
      "outputs": [],
      "payable": false,
      "stateMutability": "nonpayable",
      "type": "function"
    },
    {
      "constant": false,
      "inputs": [],
      "name": "enter",
      "outputs": [],
      "payable": false,
      "stateMutability": "nonpayable",
      "type": "function"
    }
  ],
  "bytecode": "0x60806040523480156200001157600080fd5b5060405162002d9738038062002d97833981810160405260208110156200003757600080fd5b810190808051906020019092919050505062000059816200006060201b60201c565b5062000106565b80600160006101000a81548173ffffffffffffffffffffffffffffffffffffffff021916908373ffffffffffffffffffffffffffffffffffffffff160217905550600160009054906101000a900473ffffffffffffffffffffffffffffffffffffffff166000806101000a81548173ffffffffffffffffffffffffffffffffffffffff021916908373ffffffffffffffffffffffffffffffffffffffff16021790555050565b612c8180620001166000396000f3fe608060405234801561001057600080fd5b50600436106100365760003560e01c8063a473c6101461003b578063e97dcb621461007f575b600080fd5b61007d6004803603602081101561005157600080fd5b81019080803573ffffffffffffffffffffffffffffffffffffffff169060200190929190505050610089565b005b61008761012f565b005b80600160006101000a81548173ffffffffffffffffffffffffffffffffffffffff021916908373ffffffffffffffffffffffffffffffffffffffff160217905550600160009054906101000a900473ffffffffffffffffffffffffffffffffffffffff166000806101000a81548173ffffffffffffffffffffffffffffffffffffffff021916908373ffffffffffffffffffffffffffffffffffffffff16021790555050565b600073ffffffffffffffffffffffffffffffffffffffff16600160009054906101000a900473ffffffffffffffffffffffffffffffffffffffff1673ffffffffffffffffffffffffffffffffffffffff1614156101d7576040517f08c379a0000000000000000000000000000000000000000000000000000000008152600401808060200182810382526033815260200180612c1a6033913960400191505060405180910390fd5b6000809054906101000a900473ffffffffffffffffffffffffffffffffffffffff1673ffffffffffffffffffffffffffffffffffffffff1663214d9b2b61060e6040518263ffffffff1660e01b815260040180806020018060200180602001858152602001848103845260088152602001807f434f5649442d3139000000000000000000000000000000000000000000000000815250602001848103835260058152602001807f4768616e610000000000000000000000000000000000000000000000000000008152506020018481038252600e8152602001807f372e393436352c2d312e30323332000000000000000000000000000000000000815250602001945050505050602060405180830381600087803b1580156102f857600080fd5b505af115801561030c573d6000803e3d6000fd5b505050506040513d602081101561032257600080fd5b8101908080519060200190929190505050506000809054906101000a900473ffffffffffffffffffffffffffffffffffffffff1673ffffffffffffffffffffffffffffffffffffffff1663214d9b2b6109d56040518263ffffffff1660e01b815260040180806020018060200180602001858152602001848103845260088152602001807f434f5649442d3139000000000000000000000000000000000000000000000000815250602001848103835260068152602001807f47726565636500000000000000000000000000000000000000000000000000008152506020018481038252600f8152602001807f33392e303734322c32312e383234330000000000000000000000000000000000815250602001945050505050602060405180830381600087803b15801561045557600080fd5b505af1158015610469573d6000803e3d6000fd5b505050506040513d602081101561047f57600080fd5b8101908080519060200190929190505050506000809054906101000a900473ffffffffffffffffffffffffffffffffffffffff1673ffffffffffffffffffffffffffffffffffffffff1663214d9b2b6101f46040518263ffffffff1660e01b815260040180806020018060200180602001858152602001848103845260088152602001807f434f5649442d3139000000000000000000000000000000000000000000000000815250602001848103835260098152602001807f47756174656d616c610000000000000000000000000000000000000000000000815250602001848103825260108152602001807f31352e373833352c2d39302e3233303800000000000000000000000000000000815250602001945050505050602060405180830381600087803b1580156105b257600080fd5b505af11580156105c6573d6000803e3d6000fd5b505050506040513d60208110156105dc57600080fd5b8101908080519060200190929190505050506000809054906101000a900473ffffffffffffffffffffffffffffffffffffffff1673ffffffffffffffffffffffffffffffffffffffff1663214d9b2b6103e46040518263ffffffff1660e01b815260040180806020018060200180602001858152602001848103845260088152602001807f434f5649442d3139000000000000000000000000000000000000000000000000815250602001848103835260068152602001807f4775696e656100000000000000000000000000000000000000000000000000008152506020018481038252600e8152602001807f392e393435362c2d392e36393636000000000000000000000000000000000000815250602001945050505050602060405180830381600087803b15801561070f57600080fd5b505af1158015610723573d6000803e3d6000fd5b505050506040513d602081101561073957600080fd5b8101908080519060200190929190505050506000809054906101000a900473ffffffffffffffffffffffffffffffffffffffff1673ffffffffffffffffffffffffffffffffffffffff1663214d9b2b604a6040518263ffffffff1660e01b815260040180806020018060200180602001858152602001848103845260088152602001807f434f5649442d3139000000000000000000000000000000000000000000000000815250602001848103835260068152602001807f477579616e610000000000000000000000000000000000000000000000000000815250602001848103825260088152602001807f352c2d35382e3735000000000000000000000000000000000000000000000000815250602001945050505050602060405180830381600087803b15801561086b57600080fd5b505af115801561087f573d6000803e3d6000fd5b505050506040513d602081101561089557600080fd5b8101908080519060200190929190505050506000809054906101000a900473ffffffffffffffffffffffffffffffffffffffff1673ffffffffffffffffffffffffffffffffffffffff1663214d9b2b604a6040518263ffffffff1660e01b815260040180806020018060200180602001858152602001848103845260088152602001807f434f5649442d3139000000000000000000000000000000000000000000000000815250602001848103835260058152602001807f4861697469000000000000000000000000000000000000000000000000000000815250602001848103825260108152602001807f31382e393731322c2d37322e3238353200000000000000000000000000000000815250602001945050505050602060405180830381600087803b1580156109c757600080fd5b505af11580156109db573d6000803e3d6000fd5b505050506040513d60208110156109f157600080fd5b8101908080519060200190929190505050506000809054906101000a900473ffffffffffffffffffffffffffffffffffffffff1673ffffffffffffffffffffffffffffffffffffffff1663214d9b2b60096040518263ffffffff1660e01b815260040180806020018060200180602001858152602001848103845260088152602001807f434f5649442d3139000000000000000000000000000000000000000000000000815250602001848103835260088152602001807f486f6c79205365650000000000000000000000000000000000000000000000008152506020018481038252600f8152602001807f34312e393032392c31322e343533340000000000000000000000000000000000815250602001945050505050602060405180830381600087803b158015610b2357600080fd5b505af1158015610b37573d6000803e3d6000fd5b505050506040513d6020811015610b4d57600080fd5b8101908080519060200190929190505050506000809054906101000a900473ffffffffffffffffffffffffffffffffffffffff1673ffffffffffffffffffffffffffffffffffffffff1663214d9b2b6102736040518263ffffffff1660e01b815260040180806020018060200180602001858152602001848103845260088152602001807f434f5649442d3139000000000000000000000000000000000000000000000000815250602001848103835260088152602001807f486f6e64757261730000000000000000000000000000000000000000000000008152506020018481038252600d8152602001807f31352e322c2d38362e3234313900000000000000000000000000000000000000815250602001945050505050602060405180830381600087803b158015610c8057600080fd5b505af1158015610c94573d6000803e3d6000fd5b505050506040513d6020811015610caa57600080fd5b8101908080519060200190929190505050506000809054906101000a900473ffffffffffffffffffffffffffffffffffffffff1673ffffffffffffffffffffffffffffffffffffffff1663214d9b2b6109c46040518263ffffffff1660e01b815260040180806020018060200180602001858152602001848103845260088152602001807f434f5649442d3139000000000000000000000000000000000000000000000000815250602001848103835260078152602001807f48756e67617279000000000000000000000000000000000000000000000000008152506020018481038252600f8152602001807f34372e313632352c31392e353033330000000000000000000000000000000000815250602001945050505050602060405180830381600087803b158015610ddd57600080fd5b505af1158015610df1573d6000803e3d6000fd5b505050506040513d6020811015610e0757600080fd5b8101908080519060200190929190505050506000809054906101000a900473ffffffffffffffffffffffffffffffffffffffff1673ffffffffffffffffffffffffffffffffffffffff1663214d9b2b6107006040518263ffffffff1660e01b815260040180806020018060200180602001858152602001848103845260088152602001807f434f5649442d3139000000000000000000000000000000000000000000000000815250602001848103835260078152602001807f4963656c616e6400000000000000000000000000000000000000000000000000815250602001848103825260108152602001807f36342e393633312c2d31392e3032303800000000000000000000000000000000815250602001945050505050602060405180830381600087803b158015610f3a57600080fd5b505af1158015610f4e573d6000803e3d6000fd5b505050506040513d6020811015610f6457600080fd5b8101908080519060200190929190505050506000809054906101000a900473ffffffffffffffffffffffffffffffffffffffff1673ffffffffffffffffffffffffffffffffffffffff1663214d9b2b616cf26040518263ffffffff1660e01b815260040180806020018060200180602001858152602001848103845260088152602001807f434f5649442d3139000000000000000000000000000000000000000000000000815250602001848103835260058152602001807f496e646961000000000000000000000000000000000000000000000000000000815250602001848103825260058152602001807f32312c3738000000000000000000000000000000000000000000000000000000815250602001945050505050602060405180830381600087803b15801561109757600080fd5b505af11580156110ab573d6000803e3d6000fd5b505050506040513d60208110156110c157600080fd5b8101908080519060200190929190505050506000809054906101000a900473ffffffffffffffffffffffffffffffffffffffff1673ffffffffffffffffffffffffffffffffffffffff1663214d9b2b6122b26040518263ffffffff1660e01b815260040180806020018060200180602001858152602001848103845260088152602001807f434f5649442d3139000000000000000000000000000000000000000000000000815250602001848103835260098152602001807f496e646f6e657369610000000000000000000000000000000000000000000000815250602001848103825260108152602001807f2d302e373839332c3131332e3932313300000000000000000000000000000000815250602001945050505050602060405180830381600087803b1580156111f457600080fd5b505af1158015611208573d6000803e3d6000fd5b505050506040513d602081101561121e57600080fd5b8101908080519060200190929190505050506000809054906101000a900473ffffffffffffffffffffffffffffffffffffffff1673ffffffffffffffffffffffffffffffffffffffff1663214d9b2b620161716040518263ffffffff1660e01b815260040180806020018060200180602001858152602001848103845260088152602001807f434f5649442d3139000000000000000000000000000000000000000000000000815250602001848103835260048152602001807f4972616e00000000000000000000000000000000000000000000000000000000815250602001848103825260058152602001807f33322c3533000000000000000000000000000000000000000000000000000000815250602001945050505050602060405180830381600087803b15801561135257600080fd5b505af1158015611366573d6000803e3d6000fd5b505050506040513d602081101561137c57600080fd5b8101908080519060200190929190505050506000809054906101000a900473ffffffffffffffffffffffffffffffffffffffff1673ffffffffffffffffffffffffffffffffffffffff1663214d9b2b61071c6040518263ffffffff1660e01b815260040180806020018060200180602001858152602001848103845260088152602001807f434f5649442d3139000000000000000000000000000000000000000000000000815250602001848103835260048152602001807f4972617100000000000000000000000000000000000000000000000000000000815250602001848103825260058152602001807f33332c3434000000000000000000000000000000000000000000000000000000815250602001945050505050602060405180830381600087803b1580156114af57600080fd5b505af11580156114c3573d6000803e3d6000fd5b505050506040513d60208110156114d957600080fd5b8101908080519060200190929190505050506000809054906101000a900473ffffffffffffffffffffffffffffffffffffffff1673ffffffffffffffffffffffffffffffffffffffff1663214d9b2b614b3e6040518263ffffffff1660e01b815260040180806020018060200180602001858152602001848103845260088152602001807f434f5649442d3139000000000000000000000000000000000000000000000000815250602001848103835260078152602001807f4972656c616e64000000000000000000000000000000000000000000000000008152506020018481038252600f8152602001807f35332e313432342c2d372e363932310000000000000000000000000000000000815250602001945050505050602060405180830381600087803b15801561160c57600080fd5b505af1158015611620573d6000803e3d6000fd5b505050506040513d602081101561163657600080fd5b8101908080519060200190929190505050506000809054906101000a900473ffffffffffffffffffffffffffffffffffffffff1673ffffffffffffffffffffffffffffffffffffffff1663214d9b2b613c536040518263ffffffff1660e01b815260040180806020018060200180602001858152602001848103845260088152602001807f434f5649442d3139000000000000000000000000000000000000000000000000815250602001848103835260068152602001807f49737261656c0000000000000000000000000000000000000000000000000000815250602001848103825260058152602001807f33312c3335000000000000000000000000000000000000000000000000000000815250602001945050505050602060405180830381600087803b15801561176957600080fd5b505af115801561177d573d6000803e3d6000fd5b505050506040513d602081101561179357600080fd5b8101908080519060200190929190505050506000809054906101000a900473ffffffffffffffffffffffffffffffffffffffff1673ffffffffffffffffffffffffffffffffffffffff1663214d9b2b6203042b6040518263ffffffff1660e01b815260040180806020018060200180602001858152602001848103845260088152602001807f434f5649442d3139000000000000000000000000000000000000000000000000815250602001848103835260058152602001807f4974616c79000000000000000000000000000000000000000000000000000000815250602001848103825260058152602001807f34332c3132000000000000000000000000000000000000000000000000000000815250602001945050505050602060405180830381600087803b1580156118c757600080fd5b505af11580156118db573d6000803e3d6000fd5b505050506040513d60208110156118f157600080fd5b8101908080519060200190929190505050506000809054906101000a900473ffffffffffffffffffffffffffffffffffffffff1673ffffffffffffffffffffffffffffffffffffffff1663214d9b2b61015e6040518263ffffffff1660e01b815260040180806020018060200180602001858152602001848103845260088152602001807f434f5649442d3139000000000000000000000000000000000000000000000000815250602001848103835260078152602001807f4a616d6169636100000000000000000000000000000000000000000000000000815250602001848103825260108152602001807f31382e313039362c2d37372e3239373500000000000000000000000000000000815250602001945050505050602060405180830381600087803b158015611a2457600080fd5b505af1158015611a38573d6000803e3d6000fd5b505050506040513d6020811015611a4e57600080fd5b8101908080519060200190929190505050506000809054906101000a900473ffffffffffffffffffffffffffffffffffffffff1673ffffffffffffffffffffffffffffffffffffffff1663214d9b2b6134816040518263ffffffff1660e01b815260040180806020018060200180602001858152602001848103845260088152602001807f434f5649442d3139000000000000000000000000000000000000000000000000815250602001848103835260058152602001807f4a6170616e000000000000000000000000000000000000000000000000000000815250602001848103825260068152602001807f33362c3133380000000000000000000000000000000000000000000000000000815250602001945050505050602060405180830381600087803b158015611b8157600080fd5b505af1158015611b95573d6000803e3d6000fd5b505050506040513d6020811015611bab57600080fd5b8101908080519060200190929190505050506000809054906101000a900473ffffffffffffffffffffffffffffffffffffffff1673ffffffffffffffffffffffffffffffffffffffff1663214d9b2b6101bf6040518263ffffffff1660e01b815260040180806020018060200180602001858152602001848103845260088152602001807f434f5649442d3139000000000000000000000000000000000000000000000000815250602001848103835260068152602001807f4a6f7264616e00000000000000000000000000000000000000000000000000008152506020018481038252600b8152602001807f33312e32342c33362e3531000000000000000000000000000000000000000000815250602001945050505050602060405180830381600087803b158015611cde57600080fd5b505af1158015611cf2573d6000803e3d6000fd5b505050506040513d6020811015611d0857600080fd5b8101908080519060200190929190505050506000809054906101000a900473ffffffffffffffffffffffffffffffffffffffff1673ffffffffffffffffffffffffffffffffffffffff1663214d9b2b610a9d6040518263ffffffff1660e01b815260040180806020018060200180602001858152602001848103845260088152602001807f434f5649442d31390000000000000000000000000000000000000000000000008152506020018481038352600a8152602001807f4b617a616b687374616e000000000000000000000000000000000000000000008152506020018481038252600f8152602001807f34382e303139362c36362e393233370000000000000000000000000000000000815250602001945050505050602060405180830381600087803b158015611e3b57600080fd5b505af1158015611e4f573d6000803e3d6000fd5b505050506040513d6020811015611e6557600080fd5b8101908080519060200190929190505050506000809054906101000a900473ffffffffffffffffffffffffffffffffffffffff1673ffffffffffffffffffffffffffffffffffffffff1663214d9b2b6101636040518263ffffffff1660e01b815260040180806020018060200180602001858152602001848103845260088152602001807f434f5649442d3139000000000000000000000000000000000000000000000000815250602001848103835260058152602001807f4b656e79610000000000000000000000000000000000000000000000000000008152506020018481038252600f8152602001807f2d302e303233362c33372e393036320000000000000000000000000000000000815250602001945050505050602060405180830381600087803b158015611f9857600080fd5b505af1158015611fac573d6000803e3d6000fd5b505050506040513d6020811015611fc257600080fd5b8101908080519060200190929190505050506000809054906101000a900473ffffffffffffffffffffffffffffffffffffffff1673ffffffffffffffffffffffffffffffffffffffff1663214d9b2b6129f26040518263ffffffff1660e01b815260040180806020018060200180602001858152602001848103845260088152602001807f434f5649442d31390000000000000000000000000000000000000000000000008152506020018481038352600c8152602001807f4b6f7265612c20536f7574680000000000000000000000000000000000000000815250602001848103825260068152602001807f33362c3132380000000000000000000000000000000000000000000000000000815250602001945050505050602060405180830381600087803b1580156120f557600080fd5b505af1158015612109573d6000803e3d6000fd5b505050506040513d602081101561211f57600080fd5b8101908080519060200190929190505050506000809054906101000a900473ffffffffffffffffffffffffffffffffffffffff1673ffffffffffffffffffffffffffffffffffffffff1663214d9b2b610c036040518263ffffffff1660e01b815260040180806020018060200180602001858152602001848103845260088152602001807f434f5649442d3139000000000000000000000000000000000000000000000000815250602001848103835260068152602001807f4b757761697400000000000000000000000000000000000000000000000000008152506020018481038252600a8152602001807f32392e352c34372e373500000000000000000000000000000000000000000000815250602001945050505050602060405180830381600087803b15801561225257600080fd5b505af1158015612266573d6000803e3d6000fd5b505050506040513d602081101561227c57600080fd5b8101908080519060200190929190505050506000809054906101000a900473ffffffffffffffffffffffffffffffffffffffff1673ffffffffffffffffffffffffffffffffffffffff1663214d9b2b6102aa6040518263ffffffff1660e01b815260040180806020018060200180602001858152602001848103845260088152602001807f434f5649442d31390000000000000000000000000000000000000000000000008152506020018481038352600a8152602001807f4b797267797a7374616e000000000000000000000000000000000000000000008152506020018481038252600f8152602001807f34312e323034342c37342e373636310000000000000000000000000000000000815250602001945050505050602060405180830381600087803b1580156123af57600080fd5b505af11580156123c3573d6000803e3d6000fd5b505050506040513d60208110156123d957600080fd5b8101908080519060200190929190505050506000809054906101000a900473ffffffffffffffffffffffffffffffffffffffff1673ffffffffffffffffffffffffffffffffffffffff1663214d9b2b61032c6040518263ffffffff1660e01b815260040180806020018060200180602001858152602001848103845260088152602001807f434f5649442d3139000000000000000000000000000000000000000000000000815250602001848103835260068152602001807f4c617476696100000000000000000000000000000000000000000000000000008152506020018481038252600f8152602001807f35362e383739362c32342e363033320000000000000000000000000000000000815250602001945050505050602060405180830381600087803b15801561250c57600080fd5b505af1158015612520573d6000803e3d6000fd5b505050506040513d602081101561253657600080fd5b8101908080519060200190929190505050506000809054906101000a900473ffffffffffffffffffffffffffffffffffffffff1673ffffffffffffffffffffffffffffffffffffffff1663214d9b2b6102c36040518263ffffffff1660e01b815260040180806020018060200180602001858152602001848103845260088152602001807f434f5649442d3139000000000000000000000000000000000000000000000000815250602001848103835260078152602001807f4c6562616e6f6e000000000000000000000000000000000000000000000000008152506020018481038252600f8152602001807f33332e383534372c33352e383632330000000000000000000000000000000000815250602001945050505050602060405180830381600087803b15801561266957600080fd5b505af115801561267d573d6000803e3d6000fd5b505050506040513d602081101561269357600080fd5b8101908080519060200190929190505050506000809054906101000a900473ffffffffffffffffffffffffffffffffffffffff1673ffffffffffffffffffffffffffffffffffffffff1663214d9b2b607c6040518263ffffffff1660e01b815260040180806020018060200180602001858152602001848103845260088152602001807f434f5649442d3139000000000000000000000000000000000000000000000000815250602001848103835260078152602001807f4c696265726961000000000000000000000000000000000000000000000000008152506020018481038252600e8152602001807f362e343238312c2d392e34323935000000000000000000000000000000000000815250602001945050505050602060405180830381600087803b1580156127c557600080fd5b505af11580156127d9573d6000803e3d6000fd5b505050506040513d60208110156127ef57600080fd5b8101908080519060200190929190505050506000809054906101000a900473ffffffffffffffffffffffffffffffffffffffff1673ffffffffffffffffffffffffffffffffffffffff1663214d9b2b60526040518263ffffffff1660e01b815260040180806020018060200180602001858152602001848103845260088152602001807f434f5649442d31390000000000000000000000000000000000000000000000008152506020018481038352600d8152602001807f4c6965636874656e737465696e000000000000000000000000000000000000008152506020018481038252600a8152602001807f34372e31342c392e353500000000000000000000000000000000000000000000815250602001945050505050602060405180830381600087803b15801561292157600080fd5b505af1158015612935573d6000803e3d6000fd5b505050506040513d602081101561294b57600080fd5b8101908080519060200190929190505050506000809054906101000a900473ffffffffffffffffffffffffffffffffffffffff1673ffffffffffffffffffffffffffffffffffffffff1663214d9b2b61059e6040518263ffffffff1660e01b815260040180806020018060200180602001858152602001848103845260088152602001807f434f5649442d3139000000000000000000000000000000000000000000000000815250602001848103835260098152602001807f4c69746875616e696100000000000000000000000000000000000000000000008152506020018481038252600f8152602001807f35352e313639342c32332e383831330000000000000000000000000000000000815250602001945050505050602060405180830381600087803b158015612a7e57600080fd5b505af1158015612a92573d6000803e3d6000fd5b505050506040513d6020811015612aa857600080fd5b8101908080519060200190929190505050506000809054906101000a900473ffffffffffffffffffffffffffffffffffffffff1673ffffffffffffffffffffffffffffffffffffffff1663214d9b2b610e8b6040518263ffffffff1660e01b815260040180806020018060200180602001858152602001848103845260088152602001807f434f5649442d31390000000000000000000000000000000000000000000000008152506020018481038352600a8152602001807f4c7578656d626f757267000000000000000000000000000000000000000000008152506020018481038252600e8152602001807f34392e383135332c362e31323936000000000000000000000000000000000000815250602001945050505050602060405180830381600087803b158015612bdb57600080fd5b505af1158015612bef573d6000803e3d6000fd5b505050506040513d6020811015612c0557600080fd5b81019080805190602001909291905050505056fe596f75206861766520746f20736574207468652073746f7261676520636f6e747261637420616464726573732066697273742ea265627a7a7231582095c2cc8bf4e82fe478b122296c0675c9555565c008af77282eae41b52e01e65c64736f6c63430005100032",
  "source": "pragma solidity >=0.5.0 <0.6.0;\n\nimport \"../Storage.sol\";\n\n/*\n    Note: this entire contract is embarassing\n    All of this nonsense is an attempt to get around the various limitations of the underlying technology.\n    Contract length limitations, gas cost per transaction limitations\n\n    IMPORTANT:\n        1) You must update storageContractAddress by calling _setStorageContract if necessary\n        2) You will need to copy/paste functions f1-f9 individually such that you are deploying only one of these functions at a time\n        Otherwise you will exceed contract length and transaction limitations.\n        3) The contract at 0x7AF30bdddBD23EFbe533d27e89c4b8c6eC5D149B has historical data through 4/28.\n        PLEASE DO NOT ADD TO IT UNLESS ADDING NEW DAYS. Otherwise we will need to deploy 9 versions of this contract to rebuild the dataset on chain.\n\n    Data Source: Johns Hopkins School of Public Health\n    https://data.humdata.org/dataset/novel-coronavirus-2019-ncov-cases\n*/\n\ncontract entry5 {\n\n    Storage storageContract;\n    address storageContractAddress; // You probably want to initialize this here rather than calling _setStorageContract for every deployment...\n\n    /*constructor() public{\n        storageContract = Storage(storageContractAddress);\n    }*/\n\n    constructor (address storageAddr) public {\n        _setStorageContract(storageAddr);\n    }\n\n    function _setStorageContract(address _newStorageContractAddress) public {\n        storageContractAddress = _newStorageContractAddress;\n        storageContract = Storage(storageContractAddress);\n    }\n\n    function enter() public {\n        require(storageContractAddress != address(0), \"You have to set the storage contract address first.\");\n\n        storageContract.addHistoricalRecord(\"COVID-19\",\"Ghana\",\"7.9465,-1.0232\",1550);\n        storageContract.addHistoricalRecord(\"COVID-19\",\"Greece\",\"39.0742,21.8243\",2517);\n        storageContract.addHistoricalRecord(\"COVID-19\",\"Guatemala\",\"15.7835,-90.2308\",500);\n        storageContract.addHistoricalRecord(\"COVID-19\",\"Guinea\",\"9.9456,-9.6966\",996);\n        storageContract.addHistoricalRecord(\"COVID-19\",\"Guyana\",\"5,-58.75\",74);\n        storageContract.addHistoricalRecord(\"COVID-19\",\"Haiti\",\"18.9712,-72.2852\",74);\n        storageContract.addHistoricalRecord(\"COVID-19\",\"Holy See\",\"41.9029,12.4534\",9);\n        storageContract.addHistoricalRecord(\"COVID-19\",\"Honduras\",\"15.2,-86.2419\",627);\n        storageContract.addHistoricalRecord(\"COVID-19\",\"Hungary\",\"47.1625,19.5033\",2500);\n        storageContract.addHistoricalRecord(\"COVID-19\",\"Iceland\",\"64.9631,-19.0208\",1792);\n        storageContract.addHistoricalRecord(\"COVID-19\",\"India\",\"21,78\",27890);\n        storageContract.addHistoricalRecord(\"COVID-19\",\"Indonesia\",\"-0.7893,113.9213\",8882);\n        storageContract.addHistoricalRecord(\"COVID-19\",\"Iran\",\"32,53\",90481);\n        storageContract.addHistoricalRecord(\"COVID-19\",\"Iraq\",\"33,44\",1820);\n        storageContract.addHistoricalRecord(\"COVID-19\",\"Ireland\",\"53.1424,-7.6921\",19262);\n        storageContract.addHistoricalRecord(\"COVID-19\",\"Israel\",\"31,35\",15443);\n        storageContract.addHistoricalRecord(\"COVID-19\",\"Italy\",\"43,12\",197675);\n        storageContract.addHistoricalRecord(\"COVID-19\",\"Jamaica\",\"18.1096,-77.2975\",350);\n        storageContract.addHistoricalRecord(\"COVID-19\",\"Japan\",\"36,138\",13441);\n        storageContract.addHistoricalRecord(\"COVID-19\",\"Jordan\",\"31.24,36.51\",447);\n        storageContract.addHistoricalRecord(\"COVID-19\",\"Kazakhstan\",\"48.0196,66.9237\",2717);\n        storageContract.addHistoricalRecord(\"COVID-19\",\"Kenya\",\"-0.0236,37.9062\",355);\n        storageContract.addHistoricalRecord(\"COVID-19\",\"Korea, South\",\"36,128\",10738);\n        storageContract.addHistoricalRecord(\"COVID-19\",\"Kuwait\",\"29.5,47.75\",3075);\n        storageContract.addHistoricalRecord(\"COVID-19\",\"Kyrgyzstan\",\"41.2044,74.7661\",682);\n        storageContract.addHistoricalRecord(\"COVID-19\",\"Latvia\",\"56.8796,24.6032\",812);\n        storageContract.addHistoricalRecord(\"COVID-19\",\"Lebanon\",\"33.8547,35.8623\",707);\n        storageContract.addHistoricalRecord(\"COVID-19\",\"Liberia\",\"6.4281,-9.4295\",124);\n        storageContract.addHistoricalRecord(\"COVID-19\",\"Liechtenstein\",\"47.14,9.55\",82);\n        storageContract.addHistoricalRecord(\"COVID-19\",\"Lithuania\",\"55.1694,23.8813\",1438);\n        storageContract.addHistoricalRecord(\"COVID-19\",\"Luxembourg\",\"49.8153,6.1296\",3723);\n    }\n}",
  "sourcePath": "/home/t8/WebstormProjects/cs481a3TermProject/contracts/MassDataEntry/entry5.sol",
  "compiler": {
    "name": "solc",
    "version": "0.5.16+commit.9c3226ce.Emscripten.clang"
  },
  "schemaVersion": "3.1.0",
  "updatedAt": "2020-05-03T17:20:44.566Z",
  "networkType": "ethereum",
  "devdoc": {
    "methods": {}
  },
  "userdoc": {
    "methods": {}
  }
}