{
  "contractName": "massEntry",
  "abi": [
    {
      "inputs": [
        {
          "internalType": "address",
          "name": "storageAddr",
          "type": "address"
        }
      ],
      "payable": false,
      "stateMutability": "nonpayable",
      "type": "constructor"
    },
    {
      "constant": false,
      "inputs": [
        {
          "internalType": "address",
          "name": "_newStorageContractAddress",
          "type": "address"
        }
      ],
      "name": "_setStorageContract",
      "outputs": [],
      "payable": false,
      "stateMutability": "nonpayable",
      "type": "function"
    },
    {
      "constant": false,
      "inputs": [],
      "name": "f1",
      "outputs": [],
      "payable": false,
      "stateMutability": "nonpayable",
      "type": "function"
    },
    {
      "constant": false,
      "inputs": [],
      "name": "f2",
      "outputs": [],
      "payable": false,
      "stateMutability": "nonpayable",
      "type": "function"
    },
    {
      "constant": false,
      "inputs": [],
      "name": "f3",
      "outputs": [],
      "payable": false,
      "stateMutability": "nonpayable",
      "type": "function"
    },
    {
      "constant": false,
      "inputs": [],
      "name": "f4",
      "outputs": [],
      "payable": false,
      "stateMutability": "nonpayable",
      "type": "function"
    },
    {
      "constant": false,
      "inputs": [],
      "name": "f5",
      "outputs": [],
      "payable": false,
      "stateMutability": "nonpayable",
      "type": "function"
    },
    {
      "constant": false,
      "inputs": [],
      "name": "f6",
      "outputs": [],
      "payable": false,
      "stateMutability": "nonpayable",
      "type": "function"
    },
    {
      "constant": false,
      "inputs": [],
      "name": "f7",
      "outputs": [],
      "payable": false,
      "stateMutability": "nonpayable",
      "type": "function"
    },
    {
      "constant": false,
      "inputs": [],
      "name": "f8",
      "outputs": [],
      "payable": false,
      "stateMutability": "nonpayable",
      "type": "function"
    },
    {
      "constant": false,
      "inputs": [],
      "name": "f9",
      "outputs": [],
      "payable": false,
      "stateMutability": "nonpayable",
      "type": "function"
    }
  ],
  "bytecode": "0x60806040523480156200001157600080fd5b506040516201742f3803806201742f833981810160405260208110156200003757600080fd5b810190808051906020019092919050505062000059816200006060201b60201c565b5062000106565b80600160006101000a81548173ffffffffffffffffffffffffffffffffffffffff021916908373ffffffffffffffffffffffffffffffffffffffff160217905550600160009054906101000a900473ffffffffffffffffffffffffffffffffffffffff166000806101000a81548173ffffffffffffffffffffffffffffffffffffffff021916908373ffffffffffffffffffffffffffffffffffffffff16021790555050565b6201731880620001176000396000f3fe60806040523480156200001157600080fd5b5060043610620000ac5760003560e01c8063c27fc305116200006f578063c27fc3051462000128578063c3f902021462000134578063c9ff79aa1462000140578063df2025dc146200014c578063e7025593146200015857620000ac565b80633c9d377d14620000b15780637c396b8314620000bd5780639942ec6f14620000c9578063a473c61014620000d5578063aaf05f3d146200011c575b600080fd5b620000bb62000164565b005b620000c762002cad565b005b620000d3620057ec565b005b6200011a60048036036020811015620000ed57600080fd5b81019080803573ffffffffffffffffffffffffffffffffffffffff1690602001909291905050506200832c565b005b62000126620083d2565b005b620001326200af13565b005b6200013e6200d635565b005b6200014a62010174565b005b6200015662012caf565b005b62000162620157f6565b005b600073ffffffffffffffffffffffffffffffffffffffff16600160009054906101000a900473ffffffffffffffffffffffffffffffffffffffff1673ffffffffffffffffffffffffffffffffffffffff1614156200020e576040517f08c379a0000000000000000000000000000000000000000000000000000000008152600401808060200182810382526033815260200180620172b16033913960400191505060405180910390fd5b6000809054906101000a900473ffffffffffffffffffffffffffffffffffffffff1673ffffffffffffffffffffffffffffffffffffffff1663214d9b2b61060e6040518263ffffffff1660e01b815260040180806020018060200180602001858152602001848103845260088152602001807f434f5649442d3139000000000000000000000000000000000000000000000000815250602001848103835260058152602001807f4768616e610000000000000000000000000000000000000000000000000000008152506020018481038252600e8152602001807f372e393436352c2d312e30323332000000000000000000000000000000000000815250602001945050505050602060405180830381600087803b1580156200033057600080fd5b505af115801562000345573d6000803e3d6000fd5b505050506040513d60208110156200035c57600080fd5b8101908080519060200190929190505050506000809054906101000a900473ffffffffffffffffffffffffffffffffffffffff1673ffffffffffffffffffffffffffffffffffffffff1663214d9b2b6109d56040518263ffffffff1660e01b815260040180806020018060200180602001858152602001848103845260088152602001807f434f5649442d3139000000000000000000000000000000000000000000000000815250602001848103835260068152602001807f47726565636500000000000000000000000000000000000000000000000000008152506020018481038252600f8152602001807f33392e303734322c32312e383234330000000000000000000000000000000000815250602001945050505050602060405180830381600087803b1580156200049057600080fd5b505af1158015620004a5573d6000803e3d6000fd5b505050506040513d6020811015620004bc57600080fd5b8101908080519060200190929190505050506000809054906101000a900473ffffffffffffffffffffffffffffffffffffffff1673ffffffffffffffffffffffffffffffffffffffff1663214d9b2b6101f46040518263ffffffff1660e01b815260040180806020018060200180602001858152602001848103845260088152602001807f434f5649442d3139000000000000000000000000000000000000000000000000815250602001848103835260098152602001807f47756174656d616c610000000000000000000000000000000000000000000000815250602001848103825260108152602001807f31352e373833352c2d39302e3233303800000000000000000000000000000000815250602001945050505050602060405180830381600087803b158015620005f057600080fd5b505af115801562000605573d6000803e3d6000fd5b505050506040513d60208110156200061c57600080fd5b8101908080519060200190929190505050506000809054906101000a900473ffffffffffffffffffffffffffffffffffffffff1673ffffffffffffffffffffffffffffffffffffffff1663214d9b2b6103e46040518263ffffffff1660e01b815260040180806020018060200180602001858152602001848103845260088152602001807f434f5649442d3139000000000000000000000000000000000000000000000000815250602001848103835260068152602001807f4775696e656100000000000000000000000000000000000000000000000000008152506020018481038252600e8152602001807f392e393435362c2d392e36393636000000000000000000000000000000000000815250602001945050505050602060405180830381600087803b1580156200075057600080fd5b505af115801562000765573d6000803e3d6000fd5b505050506040513d60208110156200077c57600080fd5b8101908080519060200190929190505050506000809054906101000a900473ffffffffffffffffffffffffffffffffffffffff1673ffffffffffffffffffffffffffffffffffffffff1663214d9b2b604a6040518263ffffffff1660e01b815260040180806020018060200180602001858152602001848103845260088152602001807f434f5649442d3139000000000000000000000000000000000000000000000000815250602001848103835260068152602001807f477579616e610000000000000000000000000000000000000000000000000000815250602001848103825260088152602001807f352c2d35382e3735000000000000000000000000000000000000000000000000815250602001945050505050602060405180830381600087803b158015620008af57600080fd5b505af1158015620008c4573d6000803e3d6000fd5b505050506040513d6020811015620008db57600080fd5b8101908080519060200190929190505050506000809054906101000a900473ffffffffffffffffffffffffffffffffffffffff1673ffffffffffffffffffffffffffffffffffffffff1663214d9b2b604a6040518263ffffffff1660e01b815260040180806020018060200180602001858152602001848103845260088152602001807f434f5649442d3139000000000000000000000000000000000000000000000000815250602001848103835260058152602001807f4861697469000000000000000000000000000000000000000000000000000000815250602001848103825260108152602001807f31382e393731322c2d37322e3238353200000000000000000000000000000000815250602001945050505050602060405180830381600087803b15801562000a0e57600080fd5b505af115801562000a23573d6000803e3d6000fd5b505050506040513d602081101562000a3a57600080fd5b8101908080519060200190929190505050506000809054906101000a900473ffffffffffffffffffffffffffffffffffffffff1673ffffffffffffffffffffffffffffffffffffffff1663214d9b2b60096040518263ffffffff1660e01b815260040180806020018060200180602001858152602001848103845260088152602001807f434f5649442d3139000000000000000000000000000000000000000000000000815250602001848103835260088152602001807f486f6c79205365650000000000000000000000000000000000000000000000008152506020018481038252600f8152602001807f34312e393032392c31322e343533340000000000000000000000000000000000815250602001945050505050602060405180830381600087803b15801562000b6d57600080fd5b505af115801562000b82573d6000803e3d6000fd5b505050506040513d602081101562000b9957600080fd5b8101908080519060200190929190505050506000809054906101000a900473ffffffffffffffffffffffffffffffffffffffff1673ffffffffffffffffffffffffffffffffffffffff1663214d9b2b6102736040518263ffffffff1660e01b815260040180806020018060200180602001858152602001848103845260088152602001807f434f5649442d3139000000000000000000000000000000000000000000000000815250602001848103835260088152602001807f486f6e64757261730000000000000000000000000000000000000000000000008152506020018481038252600d8152602001807f31352e322c2d38362e3234313900000000000000000000000000000000000000815250602001945050505050602060405180830381600087803b15801562000ccd57600080fd5b505af115801562000ce2573d6000803e3d6000fd5b505050506040513d602081101562000cf957600080fd5b8101908080519060200190929190505050506000809054906101000a900473ffffffffffffffffffffffffffffffffffffffff1673ffffffffffffffffffffffffffffffffffffffff1663214d9b2b6109c46040518263ffffffff1660e01b815260040180806020018060200180602001858152602001848103845260088152602001807f434f5649442d3139000000000000000000000000000000000000000000000000815250602001848103835260078152602001807f48756e67617279000000000000000000000000000000000000000000000000008152506020018481038252600f8152602001807f34372e313632352c31392e353033330000000000000000000000000000000000815250602001945050505050602060405180830381600087803b15801562000e2d57600080fd5b505af115801562000e42573d6000803e3d6000fd5b505050506040513d602081101562000e5957600080fd5b8101908080519060200190929190505050506000809054906101000a900473ffffffffffffffffffffffffffffffffffffffff1673ffffffffffffffffffffffffffffffffffffffff1663214d9b2b6107006040518263ffffffff1660e01b815260040180806020018060200180602001858152602001848103845260088152602001807f434f5649442d3139000000000000000000000000000000000000000000000000815250602001848103835260078152602001807f4963656c616e6400000000000000000000000000000000000000000000000000815250602001848103825260108152602001807f36342e393633312c2d31392e3032303800000000000000000000000000000000815250602001945050505050602060405180830381600087803b15801562000f8d57600080fd5b505af115801562000fa2573d6000803e3d6000fd5b505050506040513d602081101562000fb957600080fd5b8101908080519060200190929190505050506000809054906101000a900473ffffffffffffffffffffffffffffffffffffffff1673ffffffffffffffffffffffffffffffffffffffff1663214d9b2b616cf26040518263ffffffff1660e01b815260040180806020018060200180602001858152602001848103845260088152602001807f434f5649442d3139000000000000000000000000000000000000000000000000815250602001848103835260058152602001807f496e646961000000000000000000000000000000000000000000000000000000815250602001848103825260058152602001807f32312c3738000000000000000000000000000000000000000000000000000000815250602001945050505050602060405180830381600087803b158015620010ed57600080fd5b505af115801562001102573d6000803e3d6000fd5b505050506040513d60208110156200111957600080fd5b8101908080519060200190929190505050506000809054906101000a900473ffffffffffffffffffffffffffffffffffffffff1673ffffffffffffffffffffffffffffffffffffffff1663214d9b2b6122b26040518263ffffffff1660e01b815260040180806020018060200180602001858152602001848103845260088152602001807f434f5649442d3139000000000000000000000000000000000000000000000000815250602001848103835260098152602001807f496e646f6e657369610000000000000000000000000000000000000000000000815250602001848103825260108152602001807f2d302e373839332c3131332e3932313300000000000000000000000000000000815250602001945050505050602060405180830381600087803b1580156200124d57600080fd5b505af115801562001262573d6000803e3d6000fd5b505050506040513d60208110156200127957600080fd5b8101908080519060200190929190505050506000809054906101000a900473ffffffffffffffffffffffffffffffffffffffff1673ffffffffffffffffffffffffffffffffffffffff1663214d9b2b620161716040518263ffffffff1660e01b815260040180806020018060200180602001858152602001848103845260088152602001807f434f5649442d3139000000000000000000000000000000000000000000000000815250602001848103835260048152602001807f4972616e00000000000000000000000000000000000000000000000000000000815250602001848103825260058152602001807f33322c3533000000000000000000000000000000000000000000000000000000815250602001945050505050602060405180830381600087803b158015620013ae57600080fd5b505af1158015620013c3573d6000803e3d6000fd5b505050506040513d6020811015620013da57600080fd5b8101908080519060200190929190505050506000809054906101000a900473ffffffffffffffffffffffffffffffffffffffff1673ffffffffffffffffffffffffffffffffffffffff1663214d9b2b61071c6040518263ffffffff1660e01b815260040180806020018060200180602001858152602001848103845260088152602001807f434f5649442d3139000000000000000000000000000000000000000000000000815250602001848103835260048152602001807f4972617100000000000000000000000000000000000000000000000000000000815250602001848103825260058152602001807f33332c3434000000000000000000000000000000000000000000000000000000815250602001945050505050602060405180830381600087803b1580156200150e57600080fd5b505af115801562001523573d6000803e3d6000fd5b505050506040513d60208110156200153a57600080fd5b8101908080519060200190929190505050506000809054906101000a900473ffffffffffffffffffffffffffffffffffffffff1673ffffffffffffffffffffffffffffffffffffffff1663214d9b2b614b3e6040518263ffffffff1660e01b815260040180806020018060200180602001858152602001848103845260088152602001807f434f5649442d3139000000000000000000000000000000000000000000000000815250602001848103835260078152602001807f4972656c616e64000000000000000000000000000000000000000000000000008152506020018481038252600f8152602001807f35332e313432342c2d372e363932310000000000000000000000000000000000815250602001945050505050602060405180830381600087803b1580156200166e57600080fd5b505af115801562001683573d6000803e3d6000fd5b505050506040513d60208110156200169a57600080fd5b8101908080519060200190929190505050506000809054906101000a900473ffffffffffffffffffffffffffffffffffffffff1673ffffffffffffffffffffffffffffffffffffffff1663214d9b2b613c536040518263ffffffff1660e01b815260040180806020018060200180602001858152602001848103845260088152602001807f434f5649442d3139000000000000000000000000000000000000000000000000815250602001848103835260068152602001807f49737261656c0000000000000000000000000000000000000000000000000000815250602001848103825260058152602001807f33312c3335000000000000000000000000000000000000000000000000000000815250602001945050505050602060405180830381600087803b158015620017ce57600080fd5b505af1158015620017e3573d6000803e3d6000fd5b505050506040513d6020811015620017fa57600080fd5b8101908080519060200190929190505050506000809054906101000a900473ffffffffffffffffffffffffffffffffffffffff1673ffffffffffffffffffffffffffffffffffffffff1663214d9b2b6203042b6040518263ffffffff1660e01b815260040180806020018060200180602001858152602001848103845260088152602001807f434f5649442d3139000000000000000000000000000000000000000000000000815250602001848103835260058152602001807f4974616c79000000000000000000000000000000000000000000000000000000815250602001848103825260058152602001807f34332c3132000000000000000000000000000000000000000000000000000000815250602001945050505050602060405180830381600087803b1580156200192f57600080fd5b505af115801562001944573d6000803e3d6000fd5b505050506040513d60208110156200195b57600080fd5b8101908080519060200190929190505050506000809054906101000a900473ffffffffffffffffffffffffffffffffffffffff1673ffffffffffffffffffffffffffffffffffffffff1663214d9b2b61015e6040518263ffffffff1660e01b815260040180806020018060200180602001858152602001848103845260088152602001807f434f5649442d3139000000000000000000000000000000000000000000000000815250602001848103835260078152602001807f4a616d6169636100000000000000000000000000000000000000000000000000815250602001848103825260108152602001807f31382e313039362c2d37372e3239373500000000000000000000000000000000815250602001945050505050602060405180830381600087803b15801562001a8f57600080fd5b505af115801562001aa4573d6000803e3d6000fd5b505050506040513d602081101562001abb57600080fd5b8101908080519060200190929190505050506000809054906101000a900473ffffffffffffffffffffffffffffffffffffffff1673ffffffffffffffffffffffffffffffffffffffff1663214d9b2b6134816040518263ffffffff1660e01b815260040180806020018060200180602001858152602001848103845260088152602001807f434f5649442d3139000000000000000000000000000000000000000000000000815250602001848103835260058152602001807f4a6170616e000000000000000000000000000000000000000000000000000000815250602001848103825260068152602001807f33362c3133380000000000000000000000000000000000000000000000000000815250602001945050505050602060405180830381600087803b15801562001bef57600080fd5b505af115801562001c04573d6000803e3d6000fd5b505050506040513d602081101562001c1b57600080fd5b8101908080519060200190929190505050506000809054906101000a900473ffffffffffffffffffffffffffffffffffffffff1673ffffffffffffffffffffffffffffffffffffffff1663214d9b2b6101bf6040518263ffffffff1660e01b815260040180806020018060200180602001858152602001848103845260088152602001807f434f5649442d3139000000000000000000000000000000000000000000000000815250602001848103835260068152602001807f4a6f7264616e00000000000000000000000000000000000000000000000000008152506020018481038252600b8152602001807f33312e32342c33362e3531000000000000000000000000000000000000000000815250602001945050505050602060405180830381600087803b15801562001d4f57600080fd5b505af115801562001d64573d6000803e3d6000fd5b505050506040513d602081101562001d7b57600080fd5b8101908080519060200190929190505050506000809054906101000a900473ffffffffffffffffffffffffffffffffffffffff1673ffffffffffffffffffffffffffffffffffffffff1663214d9b2b610a9d6040518263ffffffff1660e01b815260040180806020018060200180602001858152602001848103845260088152602001807f434f5649442d31390000000000000000000000000000000000000000000000008152506020018481038352600a8152602001807f4b617a616b687374616e000000000000000000000000000000000000000000008152506020018481038252600f8152602001807f34382e303139362c36362e393233370000000000000000000000000000000000815250602001945050505050602060405180830381600087803b15801562001eaf57600080fd5b505af115801562001ec4573d6000803e3d6000fd5b505050506040513d602081101562001edb57600080fd5b8101908080519060200190929190505050506000809054906101000a900473ffffffffffffffffffffffffffffffffffffffff1673ffffffffffffffffffffffffffffffffffffffff1663214d9b2b6101636040518263ffffffff1660e01b815260040180806020018060200180602001858152602001848103845260088152602001807f434f5649442d3139000000000000000000000000000000000000000000000000815250602001848103835260058152602001807f4b656e79610000000000000000000000000000000000000000000000000000008152506020018481038252600f8152602001807f2d302e303233362c33372e393036320000000000000000000000000000000000815250602001945050505050602060405180830381600087803b1580156200200f57600080fd5b505af115801562002024573d6000803e3d6000fd5b505050506040513d60208110156200203b57600080fd5b8101908080519060200190929190505050506000809054906101000a900473ffffffffffffffffffffffffffffffffffffffff1673ffffffffffffffffffffffffffffffffffffffff1663214d9b2b6129f26040518263ffffffff1660e01b815260040180806020018060200180602001858152602001848103845260088152602001807f434f5649442d31390000000000000000000000000000000000000000000000008152506020018481038352600c8152602001807f4b6f7265612c20536f7574680000000000000000000000000000000000000000815250602001848103825260068152602001807f33362c3132380000000000000000000000000000000000000000000000000000815250602001945050505050602060405180830381600087803b1580156200216f57600080fd5b505af115801562002184573d6000803e3d6000fd5b505050506040513d60208110156200219b57600080fd5b8101908080519060200190929190505050506000809054906101000a900473ffffffffffffffffffffffffffffffffffffffff1673ffffffffffffffffffffffffffffffffffffffff1663214d9b2b610c036040518263ffffffff1660e01b815260040180806020018060200180602001858152602001848103845260088152602001807f434f5649442d3139000000000000000000000000000000000000000000000000815250602001848103835260068152602001807f4b757761697400000000000000000000000000000000000000000000000000008152506020018481038252600a8152602001807f32392e352c34372e373500000000000000000000000000000000000000000000815250602001945050505050602060405180830381600087803b158015620022cf57600080fd5b505af1158015620022e4573d6000803e3d6000fd5b505050506040513d6020811015620022fb57600080fd5b8101908080519060200190929190505050506000809054906101000a900473ffffffffffffffffffffffffffffffffffffffff1673ffffffffffffffffffffffffffffffffffffffff1663214d9b2b6102aa6040518263ffffffff1660e01b815260040180806020018060200180602001858152602001848103845260088152602001807f434f5649442d31390000000000000000000000000000000000000000000000008152506020018481038352600a8152602001807f4b797267797a7374616e000000000000000000000000000000000000000000008152506020018481038252600f8152602001807f34312e323034342c37342e373636310000000000000000000000000000000000815250602001945050505050602060405180830381600087803b1580156200242f57600080fd5b505af115801562002444573d6000803e3d6000fd5b505050506040513d60208110156200245b57600080fd5b8101908080519060200190929190505050506000809054906101000a900473ffffffffffffffffffffffffffffffffffffffff1673ffffffffffffffffffffffffffffffffffffffff1663214d9b2b61032c6040518263ffffffff1660e01b815260040180806020018060200180602001858152602001848103845260088152602001807f434f5649442d3139000000000000000000000000000000000000000000000000815250602001848103835260068152602001807f4c617476696100000000000000000000000000000000000000000000000000008152506020018481038252600f8152602001807f35362e383739362c32342e363033320000000000000000000000000000000000815250602001945050505050602060405180830381600087803b1580156200258f57600080fd5b505af1158015620025a4573d6000803e3d6000fd5b505050506040513d6020811015620025bb57600080fd5b8101908080519060200190929190505050506000809054906101000a900473ffffffffffffffffffffffffffffffffffffffff1673ffffffffffffffffffffffffffffffffffffffff1663214d9b2b6102c36040518263ffffffff1660e01b815260040180806020018060200180602001858152602001848103845260088152602001807f434f5649442d3139000000000000000000000000000000000000000000000000815250602001848103835260078152602001807f4c6562616e6f6e000000000000000000000000000000000000000000000000008152506020018481038252600f8152602001807f33332e383534372c33352e383632330000000000000000000000000000000000815250602001945050505050602060405180830381600087803b158015620026ef57600080fd5b505af115801562002704573d6000803e3d6000fd5b505050506040513d60208110156200271b57600080fd5b8101908080519060200190929190505050506000809054906101000a900473ffffffffffffffffffffffffffffffffffffffff1673ffffffffffffffffffffffffffffffffffffffff1663214d9b2b607c6040518263ffffffff1660e01b815260040180806020018060200180602001858152602001848103845260088152602001807f434f5649442d3139000000000000000000000000000000000000000000000000815250602001848103835260078152602001807f4c696265726961000000000000000000000000000000000000000000000000008152506020018481038252600e8152602001807f362e343238312c2d392e34323935000000000000000000000000000000000000815250602001945050505050602060405180830381600087803b1580156200284e57600080fd5b505af115801562002863573d6000803e3d6000fd5b505050506040513d60208110156200287a57600080fd5b8101908080519060200190929190505050506000809054906101000a900473ffffffffffffffffffffffffffffffffffffffff1673ffffffffffffffffffffffffffffffffffffffff1663214d9b2b60526040518263ffffffff1660e01b815260040180806020018060200180602001858152602001848103845260088152602001807f434f5649442d31390000000000000000000000000000000000000000000000008152506020018481038352600d8152602001807f4c6965636874656e737465696e000000000000000000000000000000000000008152506020018481038252600a8152602001807f34372e31342c392e353500000000000000000000000000000000000000000000815250602001945050505050602060405180830381600087803b158015620029ad57600080fd5b505af1158015620029c2573d6000803e3d6000fd5b505050506040513d6020811015620029d957600080fd5b8101908080519060200190929190505050506000809054906101000a900473ffffffffffffffffffffffffffffffffffffffff1673ffffffffffffffffffffffffffffffffffffffff1663214d9b2b61059e6040518263ffffffff1660e01b815260040180806020018060200180602001858152602001848103845260088152602001807f434f5649442d3139000000000000000000000000000000000000000000000000815250602001848103835260098152602001807f4c69746875616e696100000000000000000000000000000000000000000000008152506020018481038252600f8152602001807f35352e313639342c32332e383831330000000000000000000000000000000000815250602001945050505050602060405180830381600087803b15801562002b0d57600080fd5b505af115801562002b22573d6000803e3d6000fd5b505050506040513d602081101562002b3957600080fd5b8101908080519060200190929190505050506000809054906101000a900473ffffffffffffffffffffffffffffffffffffffff1673ffffffffffffffffffffffffffffffffffffffff1663214d9b2b610e8b6040518263ffffffff1660e01b815260040180806020018060200180602001858152602001848103845260088152602001807f434f5649442d31390000000000000000000000000000000000000000000000008152506020018481038352600a8152602001807f4c7578656d626f757267000000000000000000000000000000000000000000008152506020018481038252600e8152602001807f34392e383135332c362e31323936000000000000000000000000000000000000815250602001945050505050602060405180830381600087803b15801562002c6d57600080fd5b505af115801562002c82573d6000803e3d6000fd5b505050506040513d602081101562002c9957600080fd5b810190808051906020019092919050505050565b600073ffffffffffffffffffffffffffffffffffffffff16600160009054906101000a900473ffffffffffffffffffffffffffffffffffffffff1673ffffffffffffffffffffffffffffffffffffffff16141562002d57576040517f08c379a0000000000000000000000000000000000000000000000000000000008152600401808060200182810382526033815260200180620172b16033913960400191505060405180910390fd5b6000809054906101000a900473ffffffffffffffffffffffffffffffffffffffff1673ffffffffffffffffffffffffffffffffffffffff1663214d9b2b607c6040518263ffffffff1660e01b815260040180806020018060200180602001858152602001848103845260088152602001807f434f5649442d31390000000000000000000000000000000000000000000000008152506020018481038352600a8152602001807f4d61646167617363617200000000000000000000000000000000000000000000815250602001848103825260108152602001807f2d31382e373636392c34362e3836393100000000000000000000000000000000815250602001945050505050602060405180830381600087803b15801562002e7857600080fd5b505af115801562002e8d573d6000803e3d6000fd5b505050506040513d602081101562002ea457600080fd5b8101908080519060200190929190505050506000809054906101000a900473ffffffffffffffffffffffffffffffffffffffff1673ffffffffffffffffffffffffffffffffffffffff1663214d9b2b6116946040518263ffffffff1660e01b815260040180806020018060200180602001858152602001848103845260088152602001807f434f5649442d3139000000000000000000000000000000000000000000000000815250602001848103835260088152602001807f4d616c6179736961000000000000000000000000000000000000000000000000815250602001848103825260098152602001807f322e352c3131322e350000000000000000000000000000000000000000000000815250602001945050505050602060405180830381600087803b15801562002fd857600080fd5b505af115801562002fed573d6000803e3d6000fd5b505050506040513d60208110156200300457600080fd5b8101908080519060200190929190505050506000809054906101000a900473ffffffffffffffffffffffffffffffffffffffff1673ffffffffffffffffffffffffffffffffffffffff1663214d9b2b60d66040518263ffffffff1660e01b815260040180806020018060200180602001858152602001848103845260088152602001807f434f5649442d3139000000000000000000000000000000000000000000000000815250602001848103835260088152602001807f4d616c64697665730000000000000000000000000000000000000000000000008152506020018481038252600e8152602001807f332e323032382c37332e32323037000000000000000000000000000000000000815250602001945050505050602060405180830381600087803b1580156200313757600080fd5b505af11580156200314c573d6000803e3d6000fd5b505050506040513d60208110156200316357600080fd5b8101908080519060200190929190505050506000809054906101000a900473ffffffffffffffffffffffffffffffffffffffff1673ffffffffffffffffffffffffffffffffffffffff1663214d9b2b6101c06040518263ffffffff1660e01b815260040180806020018060200180602001858152602001848103845260088152602001807f434f5649442d3139000000000000000000000000000000000000000000000000815250602001848103835260058152602001807f4d616c74610000000000000000000000000000000000000000000000000000008152506020018481038252600f8152602001807f33352e393337352c31342e333735340000000000000000000000000000000000815250602001945050505050602060405180830381600087803b1580156200329757600080fd5b505af1158015620032ac573d6000803e3d6000fd5b505050506040513d6020811015620032c357600080fd5b8101908080519060200190929190505050506000809054906101000a900473ffffffffffffffffffffffffffffffffffffffff1673ffffffffffffffffffffffffffffffffffffffff1663214d9b2b60076040518263ffffffff1660e01b815260040180806020018060200180602001858152602001848103845260088152602001807f434f5649442d31390000000000000000000000000000000000000000000000008152506020018481038352600a8152602001807f4d6175726974616e6961000000000000000000000000000000000000000000008152506020018481038252600f8152602001807f32312e303037392c31302e393430380000000000000000000000000000000000815250602001945050505050602060405180830381600087803b158015620033f657600080fd5b505af11580156200340b573d6000803e3d6000fd5b505050506040513d60208110156200342257600080fd5b8101908080519060200190929190505050506000809054906101000a900473ffffffffffffffffffffffffffffffffffffffff1673ffffffffffffffffffffffffffffffffffffffff1663214d9b2b61014c6040518263ffffffff1660e01b815260040180806020018060200180602001858152602001848103845260088152602001807f434f5649442d3139000000000000000000000000000000000000000000000000815250602001848103835260098152602001807f4d617572697469757300000000000000000000000000000000000000000000008152506020018481038252600a8152602001807f2d32302e322c35372e3500000000000000000000000000000000000000000000815250602001945050505050602060405180830381600087803b1580156200355657600080fd5b505af11580156200356b573d6000803e3d6000fd5b505050506040513d60208110156200358257600080fd5b8101908080519060200190929190505050506000809054906101000a900473ffffffffffffffffffffffffffffffffffffffff1673ffffffffffffffffffffffffffffffffffffffff1663214d9b2b6139556040518263ffffffff1660e01b815260040180806020018060200180602001858152602001848103845260088152602001807f434f5649442d3139000000000000000000000000000000000000000000000000815250602001848103835260068152602001807f4d657869636f0000000000000000000000000000000000000000000000000000815250602001848103825260118152602001807f32332e363334352c2d3130322e35353238000000000000000000000000000000815250602001945050505050602060405180830381600087803b158015620036b657600080fd5b505af1158015620036cb573d6000803e3d6000fd5b505050506040513d6020811015620036e257600080fd5b8101908080519060200190929190505050506000809054906101000a900473ffffffffffffffffffffffffffffffffffffffff1673ffffffffffffffffffffffffffffffffffffffff1663214d9b2b610d506040518263ffffffff1660e01b815260040180806020018060200180602001858152602001848103845260088152602001807f434f5649442d3139000000000000000000000000000000000000000000000000815250602001848103835260078152602001807f4d6f6c646f7661000000000000000000000000000000000000000000000000008152506020018481038252600f8152602001807f34372e343131362c32382e333639390000000000000000000000000000000000815250602001945050505050602060405180830381600087803b1580156200381657600080fd5b505af11580156200382b573d6000803e3d6000fd5b505050506040513d60208110156200384257600080fd5b8101908080519060200190929190505050506000809054906101000a900473ffffffffffffffffffffffffffffffffffffffff1673ffffffffffffffffffffffffffffffffffffffff1663214d9b2b605e6040518263ffffffff1660e01b815260040180806020018060200180602001858152602001848103845260088152602001807f434f5649442d3139000000000000000000000000000000000000000000000000815250602001848103835260068152602001807f4d6f6e61636f00000000000000000000000000000000000000000000000000008152506020018481038252600e8152602001807f34332e373333332c372e34313637000000000000000000000000000000000000815250602001945050505050602060405180830381600087803b1580156200397557600080fd5b505af11580156200398a573d6000803e3d6000fd5b505050506040513d6020811015620039a157600080fd5b8101908080519060200190929190505050506000809054906101000a900473ffffffffffffffffffffffffffffffffffffffff1673ffffffffffffffffffffffffffffffffffffffff1663214d9b2b60266040518263ffffffff1660e01b815260040180806020018060200180602001858152602001848103845260088152602001807f434f5649442d3139000000000000000000000000000000000000000000000000815250602001848103835260088152602001807f4d6f6e676f6c6961000000000000000000000000000000000000000000000000815250602001848103825260108152602001807f34362e383632352c3130332e3834363700000000000000000000000000000000815250602001945050505050602060405180830381600087803b15801562003ad457600080fd5b505af115801562003ae9573d6000803e3d6000fd5b505050506040513d602081101562003b0057600080fd5b8101908080519060200190929190505050506000809054906101000a900473ffffffffffffffffffffffffffffffffffffffff1673ffffffffffffffffffffffffffffffffffffffff1663214d9b2b6101416040518263ffffffff1660e01b815260040180806020018060200180602001858152602001848103845260088152602001807f434f5649442d31390000000000000000000000000000000000000000000000008152506020018481038352600a8152602001807f4d6f6e74656e6567726f00000000000000000000000000000000000000000000815250602001848103825260098152602001807f34322e352c31392e330000000000000000000000000000000000000000000000815250602001945050505050602060405180830381600087803b15801562003c3457600080fd5b505af115801562003c49573d6000803e3d6000fd5b505050506040513d602081101562003c6057600080fd5b8101908080519060200190929190505050506000809054906101000a900473ffffffffffffffffffffffffffffffffffffffff1673ffffffffffffffffffffffffffffffffffffffff1663214d9b2b610fe16040518263ffffffff1660e01b815260040180806020018060200180602001858152602001848103845260088152602001807f434f5649442d3139000000000000000000000000000000000000000000000000815250602001848103835260078152602001807f4d6f726f63636f000000000000000000000000000000000000000000000000008152506020018481038252600f8152602001807f33312e373931372c2d372e303932360000000000000000000000000000000000815250602001945050505050602060405180830381600087803b15801562003d9457600080fd5b505af115801562003da9573d6000803e3d6000fd5b505050506040513d602081101562003dc057600080fd5b8101908080519060200190929190505050506000809054906101000a900473ffffffffffffffffffffffffffffffffffffffff1673ffffffffffffffffffffffffffffffffffffffff1663214d9b2b60106040518263ffffffff1660e01b815260040180806020018060200180602001858152602001848103845260088152602001807f434f5649442d3139000000000000000000000000000000000000000000000000815250602001848103835260078152602001807f4e616d6962696100000000000000000000000000000000000000000000000000815250602001848103825260108152602001807f2d32322e393537362c31382e3439303400000000000000000000000000000000815250602001945050505050602060405180830381600087803b15801562003ef357600080fd5b505af115801562003f08573d6000803e3d6000fd5b505050506040513d602081101562003f1f57600080fd5b8101908080519060200190929190505050506000809054906101000a900473ffffffffffffffffffffffffffffffffffffffff1673ffffffffffffffffffffffffffffffffffffffff1663214d9b2b60346040518263ffffffff1660e01b815260040180806020018060200180602001858152602001848103845260088152602001807f434f5649442d3139000000000000000000000000000000000000000000000000815250602001848103835260058152602001807f4e6570616c0000000000000000000000000000000000000000000000000000008152506020018481038252600d8152602001807f32382e313636372c38342e323500000000000000000000000000000000000000815250602001945050505050602060405180830381600087803b1580156200405257600080fd5b505af115801562004067573d6000803e3d6000fd5b505050506040513d60208110156200407e57600080fd5b8101908080519060200190929190505050506000809054906101000a900473ffffffffffffffffffffffffffffffffffffffff1673ffffffffffffffffffffffffffffffffffffffff1663214d9b2b60646040518263ffffffff1660e01b815260040180806020018060200180602001858152602001848103845260088152602001807f434f5649442d31390000000000000000000000000000000000000000000000008152506020018481038352600b8152602001807f4e65746865726c616e6473000000000000000000000000000000000000000000815250602001848103825260108152602001807f31322e353138362c2d37302e3033353800000000000000000000000000000000815250602001945050505050602060405180830381600087803b158015620041b157600080fd5b505af1158015620041c6573d6000803e3d6000fd5b505050506040513d6020811015620041dd57600080fd5b8101908080519060200190929190505050506000809054906101000a900473ffffffffffffffffffffffffffffffffffffffff1673ffffffffffffffffffffffffffffffffffffffff1663214d9b2b60106040518263ffffffff1660e01b815260040180806020018060200180602001858152602001848103845260088152602001807f434f5649442d31390000000000000000000000000000000000000000000000008152506020018481038352600b8152602001807f4e65746865726c616e64730000000000000000000000000000000000000000008152506020018481038252600e8152602001807f31322e313639362c2d36382e3939000000000000000000000000000000000000815250602001945050505050602060405180830381600087803b1580156200431057600080fd5b505af115801562004325573d6000803e3d6000fd5b505050506040513d60208110156200433c57600080fd5b8101908080519060200190929190505050506000809054906101000a900473ffffffffffffffffffffffffffffffffffffffff1673ffffffffffffffffffffffffffffffffffffffff1663214d9b2b604a6040518263ffffffff1660e01b815260040180806020018060200180602001858152602001848103845260088152602001807f434f5649442d31390000000000000000000000000000000000000000000000008152506020018481038352600b8152602001807f4e65746865726c616e6473000000000000000000000000000000000000000000815250602001848103825260108152602001807f31382e303432352c2d36332e3035343800000000000000000000000000000000815250602001945050505050602060405180830381600087803b1580156200446f57600080fd5b505af115801562004484573d6000803e3d6000fd5b505050506040513d60208110156200449b57600080fd5b8101908080519060200190929190505050506000809054906101000a900473ffffffffffffffffffffffffffffffffffffffff1673ffffffffffffffffffffffffffffffffffffffff1663214d9b2b6193d56040518263ffffffff1660e01b815260040180806020018060200180602001858152602001848103845260088152602001807f434f5649442d31390000000000000000000000000000000000000000000000008152506020018481038352600b8152602001807f4e65746865726c616e64730000000000000000000000000000000000000000008152506020018481038252600e8152602001807f35322e313332362c352e32393133000000000000000000000000000000000000815250602001945050505050602060405180830381600087803b158015620045cf57600080fd5b505af1158015620045e4573d6000803e3d6000fd5b505050506040513d6020811015620045fb57600080fd5b8101908080519060200190929190505050506000809054906101000a900473ffffffffffffffffffffffffffffffffffffffff1673ffffffffffffffffffffffffffffffffffffffff1663214d9b2b6105bd6040518263ffffffff1660e01b815260040180806020018060200180602001858152602001848103845260088152602001807f434f5649442d31390000000000000000000000000000000000000000000000008152506020018481038352600b8152602001807f4e6577205a65616c616e64000000000000000000000000000000000000000000815250602001848103825260108152602001807f2d34302e393030362c3137342e38383600000000000000000000000000000000815250602001945050505050602060405180830381600087803b1580156200472f57600080fd5b505af115801562004744573d6000803e3d6000fd5b505050506040513d60208110156200475b57600080fd5b8101908080519060200190929190505050506000809054906101000a900473ffffffffffffffffffffffffffffffffffffffff1673ffffffffffffffffffffffffffffffffffffffff1663214d9b2b600d6040518263ffffffff1660e01b815260040180806020018060200180602001858152602001848103845260088152602001807f434f5649442d3139000000000000000000000000000000000000000000000000815250602001848103835260098152602001807f4e69636172616775610000000000000000000000000000000000000000000000815250602001848103825260108152602001807f31322e383635342c2d38352e3230373200000000000000000000000000000000815250602001945050505050602060405180830381600087803b1580156200488e57600080fd5b505af1158015620048a3573d6000803e3d6000fd5b505050506040513d6020811015620048ba57600080fd5b8101908080519060200190929190505050506000809054906101000a900473ffffffffffffffffffffffffffffffffffffffff1673ffffffffffffffffffffffffffffffffffffffff1663214d9b2b6102b86040518263ffffffff1660e01b815260040180806020018060200180602001858152602001848103845260088152602001807f434f5649442d3139000000000000000000000000000000000000000000000000815250602001848103835260058152602001807f4e696765720000000000000000000000000000000000000000000000000000008152506020018481038252600e8152602001807f31372e363037382c382e30383137000000000000000000000000000000000000815250602001945050505050602060405180830381600087803b158015620049ee57600080fd5b505af115801562004a03573d6000803e3d6000fd5b505050506040513d602081101562004a1a57600080fd5b8101908080519060200190929190505050506000809054906101000a900473ffffffffffffffffffffffffffffffffffffffff1673ffffffffffffffffffffffffffffffffffffffff1663214d9b2b6104f96040518263ffffffff1660e01b815260040180806020018060200180602001858152602001848103845260088152602001807f434f5649442d3139000000000000000000000000000000000000000000000000815250602001848103835260078152602001807f4e696765726961000000000000000000000000000000000000000000000000008152506020018481038252600c8152602001807f392e3038322c382e363735330000000000000000000000000000000000000000815250602001945050505050602060405180830381600087803b15801562004b4e57600080fd5b505af115801562004b63573d6000803e3d6000fd5b505050506040513d602081101562004b7a57600080fd5b8101908080519060200190929190505050506000809054906101000a900473ffffffffffffffffffffffffffffffffffffffff1673ffffffffffffffffffffffffffffffffffffffff1663214d9b2b61056a6040518263ffffffff1660e01b815260040180806020018060200180602001858152602001848103845260088152602001807f434f5649442d31390000000000000000000000000000000000000000000000008152506020018481038352600f8152602001807f4e6f727468204d616365646f6e696100000000000000000000000000000000008152506020018481038252600f8152602001807f34312e363038362c32312e373435330000000000000000000000000000000000815250602001945050505050602060405180830381600087803b15801562004cae57600080fd5b505af115801562004cc3573d6000803e3d6000fd5b505050506040513d602081101562004cda57600080fd5b8101908080519060200190929190505050506000809054906101000a900473ffffffffffffffffffffffffffffffffffffffff1673ffffffffffffffffffffffffffffffffffffffff1663214d9b2b611d676040518263ffffffff1660e01b815260040180806020018060200180602001858152602001848103845260088152602001807f434f5649442d3139000000000000000000000000000000000000000000000000815250602001848103835260068152602001807f4e6f7277617900000000000000000000000000000000000000000000000000008152506020018481038252600d8152602001807f36302e3437322c382e3436383900000000000000000000000000000000000000815250602001945050505050602060405180830381600087803b15801562004e0e57600080fd5b505af115801562004e23573d6000803e3d6000fd5b505050506040513d602081101562004e3a57600080fd5b8101908080519060200190929190505050506000809054906101000a900473ffffffffffffffffffffffffffffffffffffffff1673ffffffffffffffffffffffffffffffffffffffff1663214d9b2b6107ce6040518263ffffffff1660e01b815260040180806020018060200180602001858152602001848103845260088152602001807f434f5649442d3139000000000000000000000000000000000000000000000000815250602001848103835260048152602001807f4f6d616e00000000000000000000000000000000000000000000000000000000815250602001848103825260058152602001807f32312c3537000000000000000000000000000000000000000000000000000000815250602001945050505050602060405180830381600087803b15801562004f6e57600080fd5b505af115801562004f83573d6000803e3d6000fd5b505050506040513d602081101562004f9a57600080fd5b8101908080519060200190929190505050506000809054906101000a900473ffffffffffffffffffffffffffffffffffffffff1673ffffffffffffffffffffffffffffffffffffffff1663214d9b2b6134106040518263ffffffff1660e01b815260040180806020018060200180602001858152602001848103845260088152602001807f434f5649442d3139000000000000000000000000000000000000000000000000815250602001848103835260088152602001807f50616b697374616e0000000000000000000000000000000000000000000000008152506020018481038252600f8152602001807f33302e333735332c36392e333435310000000000000000000000000000000000815250602001945050505050602060405180830381600087803b158015620050ce57600080fd5b505af1158015620050e3573d6000803e3d6000fd5b505050506040513d6020811015620050fa57600080fd5b8101908080519060200190929190505050506000809054906101000a900473ffffffffffffffffffffffffffffffffffffffff1673ffffffffffffffffffffffffffffffffffffffff1663214d9b2b6116936040518263ffffffff1660e01b815260040180806020018060200180602001858152602001848103845260088152602001807f434f5649442d3139000000000000000000000000000000000000000000000000815250602001848103835260068152602001807f50616e616d6100000000000000000000000000000000000000000000000000008152506020018481038252600e8152602001807f382e3533382c2d38302e37383231000000000000000000000000000000000000815250602001945050505050602060405180830381600087803b1580156200522e57600080fd5b505af115801562005243573d6000803e3d6000fd5b505050506040513d60208110156200525a57600080fd5b8101908080519060200190929190505050506000809054906101000a900473ffffffffffffffffffffffffffffffffffffffff1673ffffffffffffffffffffffffffffffffffffffff1663214d9b2b60086040518263ffffffff1660e01b815260040180806020018060200180602001858152602001848103845260088152602001807f434f5649442d3139000000000000000000000000000000000000000000000000815250602001848103835260108152602001807f5061707561204e6577204775696e6561000000000000000000000000000000008152506020018481038252600f8152602001807f2d362e3331352c3134332e393535350000000000000000000000000000000000815250602001945050505050602060405180830381600087803b1580156200538d57600080fd5b505af1158015620053a2573d6000803e3d6000fd5b505050506040513d6020811015620053b957600080fd5b8101908080519060200190929190505050506000809054906101000a900473ffffffffffffffffffffffffffffffffffffffff1673ffffffffffffffffffffffffffffffffffffffff1663214d9b2b60e46040518263ffffffff1660e01b815260040180806020018060200180602001858152602001848103845260088152602001807f434f5649442d3139000000000000000000000000000000000000000000000000815250602001848103835260088152602001807f5061726167756179000000000000000000000000000000000000000000000000815250602001848103825260118152602001807f2d32332e343432352c2d35382e34343338000000000000000000000000000000815250602001945050505050602060405180830381600087803b158015620054ec57600080fd5b505af115801562005501573d6000803e3d6000fd5b505050506040513d60208110156200551857600080fd5b8101908080519060200190929190505050506000809054906101000a900473ffffffffffffffffffffffffffffffffffffffff1673ffffffffffffffffffffffffffffffffffffffff1663214d9b2b616b7d6040518263ffffffff1660e01b815260040180806020018060200180602001858152602001848103845260088152602001807f434f5649442d3139000000000000000000000000000000000000000000000000815250602001848103835260048152602001807f50657275000000000000000000000000000000000000000000000000000000008152506020018481038252600e8152602001807f2d392e31392c2d37352e30313532000000000000000000000000000000000000815250602001945050505050602060405180830381600087803b1580156200564c57600080fd5b505af115801562005661573d6000803e3d6000fd5b505050506040513d60208110156200567857600080fd5b8101908080519060200190929190505050506000809054906101000a900473ffffffffffffffffffffffffffffffffffffffff1673ffffffffffffffffffffffffffffffffffffffff1663214d9b2b611d9b6040518263ffffffff1660e01b815260040180806020018060200180602001858152602001848103845260088152602001807f434f5649442d31390000000000000000000000000000000000000000000000008152506020018481038352600b8152602001807f5068696c697070696e6573000000000000000000000000000000000000000000815250602001848103825260068152602001807f31332c3132320000000000000000000000000000000000000000000000000000815250602001945050505050602060405180830381600087803b158015620057ac57600080fd5b505af1158015620057c1573d6000803e3d6000fd5b505050506040513d6020811015620057d857600080fd5b810190808051906020019092919050505050565b600073ffffffffffffffffffffffffffffffffffffffff16600160009054906101000a900473ffffffffffffffffffffffffffffffffffffffff1673ffffffffffffffffffffffffffffffffffffffff16141562005896576040517f08c379a0000000000000000000000000000000000000000000000000000000008152600401808060200182810382526033815260200180620172b16033913960400191505060405180910390fd5b6000809054906101000a900473ffffffffffffffffffffffffffffffffffffffff1673ffffffffffffffffffffffffffffffffffffffff1663214d9b2b61f67c6040518263ffffffff1660e01b815260040180806020018060200180602001858152602001848103845260088152602001807f434f5649442d3139000000000000000000000000000000000000000000000000815250602001848103835260068152602001807f4272617a696c0000000000000000000000000000000000000000000000000000815250602001848103825260108152602001807f2d31342e3233352c2d35312e3932353300000000000000000000000000000000815250602001945050505050602060405180830381600087803b158015620059b857600080fd5b505af1158015620059cd573d6000803e3d6000fd5b505050506040513d6020811015620059e457600080fd5b8101908080519060200190929190505050506000809054906101000a900473ffffffffffffffffffffffffffffffffffffffff1673ffffffffffffffffffffffffffffffffffffffff1663214d9b2b608a6040518263ffffffff1660e01b815260040180806020018060200180602001858152602001848103845260088152602001807f434f5649442d3139000000000000000000000000000000000000000000000000815250602001848103835260068152602001807f4272756e656900000000000000000000000000000000000000000000000000008152506020018481038252600f8152602001807f342e353335332c3131342e373237370000000000000000000000000000000000815250602001945050505050602060405180830381600087803b15801562005b1757600080fd5b505af115801562005b2c573d6000803e3d6000fd5b505050506040513d602081101562005b4357600080fd5b8101908080519060200190929190505050506000809054906101000a900473ffffffffffffffffffffffffffffffffffffffff1673ffffffffffffffffffffffffffffffffffffffff1663214d9b2b6105146040518263ffffffff1660e01b815260040180806020018060200180602001858152602001848103845260088152602001807f434f5649442d3139000000000000000000000000000000000000000000000000815250602001848103835260088152602001807f42756c67617269610000000000000000000000000000000000000000000000008152506020018481038252600f8152602001807f34322e373333392c32352e343835380000000000000000000000000000000000815250602001945050505050602060405180830381600087803b15801562005c7757600080fd5b505af115801562005c8c573d6000803e3d6000fd5b505050506040513d602081101562005ca357600080fd5b8101908080519060200190929190505050506000809054906101000a900473ffffffffffffffffffffffffffffffffffffffff1673ffffffffffffffffffffffffffffffffffffffff1663214d9b2b6102786040518263ffffffff1660e01b815260040180806020018060200180602001858152602001848103845260088152602001807f434f5649442d31390000000000000000000000000000000000000000000000008152506020018481038352600c8152602001807f4275726b696e61204661736f00000000000000000000000000000000000000008152506020018481038252600f8152602001807f31322e323338332c2d312e353631360000000000000000000000000000000000815250602001945050505050602060405180830381600087803b15801562005dd757600080fd5b505af115801562005dec573d6000803e3d6000fd5b505050506040513d602081101562005e0357600080fd5b8101908080519060200190929190505050506000809054906101000a900473ffffffffffffffffffffffffffffffffffffffff1673ffffffffffffffffffffffffffffffffffffffff1663214d9b2b606a6040518263ffffffff1660e01b815260040180806020018060200180602001858152602001848103845260088152602001807f434f5649442d31390000000000000000000000000000000000000000000000008152506020018481038352600a8152602001807f4361626f20566572646500000000000000000000000000000000000000000000815250602001848103825260108152602001807f31362e353338382c2d32332e3034313800000000000000000000000000000000815250602001945050505050602060405180830381600087803b15801562005f3657600080fd5b505af115801562005f4b573d6000803e3d6000fd5b505050506040513d602081101562005f6257600080fd5b8101908080519060200190929190505050506000809054906101000a900473ffffffffffffffffffffffffffffffffffffffff1673ffffffffffffffffffffffffffffffffffffffff1663214d9b2b607a6040518263ffffffff1660e01b815260040180806020018060200180602001858152602001848103845260088152602001807f434f5649442d3139000000000000000000000000000000000000000000000000815250602001848103835260088152602001807f43616d626f6469610000000000000000000000000000000000000000000000008152506020018481038252600e8152602001807f31312e35352c3130342e39313637000000000000000000000000000000000000815250602001945050505050602060405180830381600087803b1580156200609557600080fd5b505af1158015620060aa573d6000803e3d6000fd5b505050506040513d6020811015620060c157600080fd5b8101908080519060200190929190505050506000809054906101000a900473ffffffffffffffffffffffffffffffffffffffff1673ffffffffffffffffffffffffffffffffffffffff1663214d9b2b6106556040518263ffffffff1660e01b815260040180806020018060200180602001858152602001848103845260088152602001807f434f5649442d3139000000000000000000000000000000000000000000000000815250602001848103835260088152602001807f43616d65726f6f6e0000000000000000000000000000000000000000000000008152506020018481038252600d8152602001807f332e3834382c31312e3530323100000000000000000000000000000000000000815250602001945050505050602060405180830381600087803b158015620061f557600080fd5b505af11580156200620a573d6000803e3d6000fd5b505050506040513d60208110156200622157600080fd5b8101908080519060200190929190505050506000809054906101000a900473ffffffffffffffffffffffffffffffffffffffff1673ffffffffffffffffffffffffffffffffffffffff1663214d9b2b6111806040518263ffffffff1660e01b815260040180806020018060200180602001858152602001848103845260088152602001807f434f5649442d3139000000000000000000000000000000000000000000000000815250602001848103835260068152602001807f43616e6164610000000000000000000000000000000000000000000000000000815250602001848103825260118152602001807f35332e393333332c2d3131362e35373635000000000000000000000000000000815250602001945050505050602060405180830381600087803b1580156200635557600080fd5b505af11580156200636a573d6000803e3d6000fd5b505050506040513d60208110156200638157600080fd5b8101908080519060200190929190505050506000809054906101000a900473ffffffffffffffffffffffffffffffffffffffff1673ffffffffffffffffffffffffffffffffffffffff1663214d9b2b61079c6040518263ffffffff1660e01b815260040180806020018060200180602001858152602001848103845260088152602001807f434f5649442d3139000000000000000000000000000000000000000000000000815250602001848103835260068152602001807f43616e6164610000000000000000000000000000000000000000000000000000815250602001848103825260118152602001807f34392e323832372c2d3132332e31323037000000000000000000000000000000815250602001945050505050602060405180830381600087803b158015620064b557600080fd5b505af1158015620064ca573d6000803e3d6000fd5b505050506040513d6020811015620064e157600080fd5b8101908080519060200190929190505050506000809054906101000a900473ffffffffffffffffffffffffffffffffffffffff1673ffffffffffffffffffffffffffffffffffffffff1663214d9b2b600d6040518263ffffffff1660e01b815260040180806020018060200180602001858152602001848103845260088152602001807f434f5649442d3139000000000000000000000000000000000000000000000000815250602001848103835260068152602001807f43616e6164610000000000000000000000000000000000000000000000000000815250602001848103825260118152602001807f33372e363438392c2d3132322e36363535000000000000000000000000000000815250602001945050505050602060405180830381600087803b1580156200661457600080fd5b505af115801562006629573d6000803e3d6000fd5b505050506040513d60208110156200664057600080fd5b8101908080519060200190929190505050506000809054906101000a900473ffffffffffffffffffffffffffffffffffffffff1673ffffffffffffffffffffffffffffffffffffffff1663214d9b2b61010f6040518263ffffffff1660e01b815260040180806020018060200180602001858152602001848103845260088152602001807f434f5649442d3139000000000000000000000000000000000000000000000000815250602001848103835260068152602001807f43616e6164610000000000000000000000000000000000000000000000000000815250602001848103825260108152602001807f35332e373630392c2d39382e3831333900000000000000000000000000000000815250602001945050505050602060405180830381600087803b1580156200677457600080fd5b505af115801562006789573d6000803e3d6000fd5b505050506040513d6020811015620067a057600080fd5b8101908080519060200190929190505050506000809054906101000a900473ffffffffffffffffffffffffffffffffffffffff1673ffffffffffffffffffffffffffffffffffffffff1663214d9b2b60766040518263ffffffff1660e01b815260040180806020018060200180602001858152602001848103845260088152602001807f434f5649442d3139000000000000000000000000000000000000000000000000815250602001848103835260068152602001807f43616e6164610000000000000000000000000000000000000000000000000000815250602001848103825260108152602001807f34362e353635332c2d36362e3436313900000000000000000000000000000000815250602001945050505050602060405180830381600087803b158015620068d357600080fd5b505af1158015620068e8573d6000803e3d6000fd5b505050506040513d6020811015620068ff57600080fd5b8101908080519060200190929190505050506000809054906101000a900473ffffffffffffffffffffffffffffffffffffffff1673ffffffffffffffffffffffffffffffffffffffff1663214d9b2b6101026040518263ffffffff1660e01b815260040180806020018060200180602001858152602001848103845260088152602001807f434f5649442d3139000000000000000000000000000000000000000000000000815250602001848103835260068152602001807f43616e6164610000000000000000000000000000000000000000000000000000815250602001848103825260108152602001807f35332e313335352c2d35372e3636303400000000000000000000000000000000815250602001945050505050602060405180830381600087803b15801562006a3357600080fd5b505af115801562006a48573d6000803e3d6000fd5b505050506040513d602081101562006a5f57600080fd5b8101908080519060200190929190505050506000809054906101000a900473ffffffffffffffffffffffffffffffffffffffff1673ffffffffffffffffffffffffffffffffffffffff1663214d9b2b6103696040518263ffffffff1660e01b815260040180806020018060200180602001858152602001848103845260088152602001807f434f5649442d3139000000000000000000000000000000000000000000000000815250602001848103835260068152602001807f43616e61646100000000000000000000000000000000000000000000000000008152506020018481038252600f8152602001807f34342e3638322c2d36332e373434330000000000000000000000000000000000815250602001945050505050602060405180830381600087803b15801562006b9357600080fd5b505af115801562006ba8573d6000803e3d6000fd5b505050506040513d602081101562006bbf57600080fd5b8101908080519060200190929190505050506000809054906101000a900473ffffffffffffffffffffffffffffffffffffffff1673ffffffffffffffffffffffffffffffffffffffff1663214d9b2b613cd06040518263ffffffff1660e01b815260040180806020018060200180602001858152602001848103845260088152602001807f434f5649442d3139000000000000000000000000000000000000000000000000815250602001848103835260068152602001807f43616e6164610000000000000000000000000000000000000000000000000000815250602001848103825260108152602001807f35312e323533382c2d38352e3332333200000000000000000000000000000000815250602001945050505050602060405180830381600087803b15801562006cf357600080fd5b505af115801562006d08573d6000803e3d6000fd5b505050506040513d602081101562006d1f57600080fd5b8101908080519060200190929190505050506000809054906101000a900473ffffffffffffffffffffffffffffffffffffffff1673ffffffffffffffffffffffffffffffffffffffff1663214d9b2b601a6040518263ffffffff1660e01b815260040180806020018060200180602001858152602001848103845260088152602001807f434f5649442d3139000000000000000000000000000000000000000000000000815250602001848103835260068152602001807f43616e6164610000000000000000000000000000000000000000000000000000815250602001848103825260108152602001807f34362e353130372c2d36332e3431363800000000000000000000000000000000815250602001945050505050602060405180830381600087803b15801562006e5257600080fd5b505af115801562006e67573d6000803e3d6000fd5b505050506040513d602081101562006e7e57600080fd5b8101908080519060200190929190505050506000809054906101000a900473ffffffffffffffffffffffffffffffffffffffff1673ffffffffffffffffffffffffffffffffffffffff1663214d9b2b615e2d6040518263ffffffff1660e01b815260040180806020018060200180602001858152602001848103845260088152602001807f434f5649442d3139000000000000000000000000000000000000000000000000815250602001848103835260068152602001807f43616e6164610000000000000000000000000000000000000000000000000000815250602001848103825260108152602001807f35322e393339392c2d37332e3534393100000000000000000000000000000000815250602001945050505050602060405180830381600087803b15801562006fb257600080fd5b505af115801562006fc7573d6000803e3d6000fd5b505050506040513d602081101562006fde57600080fd5b8101908080519060200190929190505050506000809054906101000a900473ffffffffffffffffffffffffffffffffffffffff1673ffffffffffffffffffffffffffffffffffffffff1663214d9b2b6101616040518263ffffffff1660e01b815260040180806020018060200180602001858152602001848103845260088152602001807f434f5649442d3139000000000000000000000000000000000000000000000000815250602001848103835260068152602001807f43616e6164610000000000000000000000000000000000000000000000000000815250602001848103825260118152602001807f35322e393339392c2d3130362e34353039000000000000000000000000000000815250602001945050505050602060405180830381600087803b1580156200711257600080fd5b505af115801562007127573d6000803e3d6000fd5b505050506040513d60208110156200713e57600080fd5b8101908080519060200190929190505050506000809054906101000a900473ffffffffffffffffffffffffffffffffffffffff1673ffffffffffffffffffffffffffffffffffffffff1663214d9b2b60136040518263ffffffff1660e01b815260040180806020018060200180602001858152602001848103845260088152602001807f434f5649442d3139000000000000000000000000000000000000000000000000815250602001848103835260188152602001807f43656e7472616c204166726963616e2052657075626c696300000000000000008152506020018481038252600e8152602001807f362e363131312c32302e39333934000000000000000000000000000000000000815250602001945050505050602060405180830381600087803b1580156200727157600080fd5b505af115801562007286573d6000803e3d6000fd5b505050506040513d60208110156200729d57600080fd5b8101908080519060200190929190505050506000809054906101000a900473ffffffffffffffffffffffffffffffffffffffff1673ffffffffffffffffffffffffffffffffffffffff1663214d9b2b602e6040518263ffffffff1660e01b815260040180806020018060200180602001858152602001848103845260088152602001807f434f5649442d3139000000000000000000000000000000000000000000000000815250602001848103835260048152602001807f43686164000000000000000000000000000000000000000000000000000000008152506020018481038252600f8152602001807f31352e343534322c31382e373332320000000000000000000000000000000000815250602001945050505050602060405180830381600087803b158015620073d057600080fd5b505af1158015620073e5573d6000803e3d6000fd5b505050506040513d6020811015620073fc57600080fd5b8101908080519060200190929190505050506000809054906101000a900473ffffffffffffffffffffffffffffffffffffffff1673ffffffffffffffffffffffffffffffffffffffff1663214d9b2b6134136040518263ffffffff1660e01b815260040180806020018060200180602001858152602001848103845260088152602001807f434f5649442d3139000000000000000000000000000000000000000000000000815250602001848103835260058152602001807f4368696c65000000000000000000000000000000000000000000000000000000815250602001848103825260108152602001807f2d33352e363735312c2d37312e35343300000000000000000000000000000000815250602001945050505050602060405180830381600087803b1580156200753057600080fd5b505af115801562007545573d6000803e3d6000fd5b505050506040513d60208110156200755c57600080fd5b8101908080519060200190929190505050506000809054906101000a900473ffffffffffffffffffffffffffffffffffffffff1673ffffffffffffffffffffffffffffffffffffffff1663214d9b2b6103df6040518263ffffffff1660e01b815260040180806020018060200180602001858152602001848103845260088152602001807f434f5649442d3139000000000000000000000000000000000000000000000000815250602001848103835260058152602001807f4368696e61000000000000000000000000000000000000000000000000000000815250602001848103825260108152602001807f33312e383235372c3131372e3232363400000000000000000000000000000000815250602001945050505050602060405180830381600087803b1580156200769057600080fd5b505af1158015620076a5573d6000803e3d6000fd5b505050506040513d6020811015620076bc57600080fd5b8101908080519060200190929190505050506000809054906101000a900473ffffffffffffffffffffffffffffffffffffffff1673ffffffffffffffffffffffffffffffffffffffff1663214d9b2b6102516040518263ffffffff1660e01b815260040180806020018060200180602001858152602001848103845260088152602001807f434f5649442d3139000000000000000000000000000000000000000000000000815250602001848103835260058152602001807f4368696e61000000000000000000000000000000000000000000000000000000815250602001848103825260108152602001807f34302e313832342c3131362e3431343200000000000000000000000000000000815250602001945050505050602060405180830381600087803b158015620077f057600080fd5b505af115801562007805573d6000803e3d6000fd5b505050506040513d60208110156200781c57600080fd5b8101908080519060200190929190505050506000809054906101000a900473ffffffffffffffffffffffffffffffffffffffff1673ffffffffffffffffffffffffffffffffffffffff1663214d9b2b6102436040518263ffffffff1660e01b815260040180806020018060200180602001858152602001848103845260088152602001807f434f5649442d3139000000000000000000000000000000000000000000000000815250602001848103835260058152602001807f4368696e610000000000000000000000000000000000000000000000000000008152506020018481038252600f8152602001807f33302e303537322c3130372e3837340000000000000000000000000000000000815250602001945050505050602060405180830381600087803b1580156200795057600080fd5b505af115801562007965573d6000803e3d6000fd5b505050506040513d60208110156200797c57600080fd5b8101908080519060200190929190505050506000809054906101000a900473ffffffffffffffffffffffffffffffffffffffff1673ffffffffffffffffffffffffffffffffffffffff1663214d9b2b6101636040518263ffffffff1660e01b815260040180806020018060200180602001858152602001848103845260088152602001807f434f5649442d3139000000000000000000000000000000000000000000000000815250602001848103835260058152602001807f4368696e61000000000000000000000000000000000000000000000000000000815250602001848103825260108152602001807f32362e303738392c3131372e3938373400000000000000000000000000000000815250602001945050505050602060405180830381600087803b15801562007ab057600080fd5b505af115801562007ac5573d6000803e3d6000fd5b505050506040513d602081101562007adc57600080fd5b8101908080519060200190929190505050506000809054906101000a900473ffffffffffffffffffffffffffffffffffffffff1673ffffffffffffffffffffffffffffffffffffffff1663214d9b2b608b6040518263ffffffff1660e01b815260040180806020018060200180602001858152602001848103845260088152602001807f434f5649442d3139000000000000000000000000000000000000000000000000815250602001848103835260058152602001807f4368696e61000000000000000000000000000000000000000000000000000000815250602001848103825260108152602001807f33372e383039392c3130312e3035383300000000000000000000000000000000815250602001945050505050602060405180830381600087803b15801562007c0f57600080fd5b505af115801562007c24573d6000803e3d6000fd5b505050506040513d602081101562007c3b57600080fd5b8101908080519060200190929190505050506000809054906101000a900473ffffffffffffffffffffffffffffffffffffffff1673ffffffffffffffffffffffffffffffffffffffff1663214d9b2b6106336040518263ffffffff1660e01b815260040180806020018060200180602001858152602001848103845260088152602001807f434f5649442d3139000000000000000000000000000000000000000000000000815250602001848103835260058152602001807f4368696e61000000000000000000000000000000000000000000000000000000815250602001848103825260108152602001807f32332e333431372c3131332e3432343400000000000000000000000000000000815250602001945050505050602060405180830381600087803b15801562007d6f57600080fd5b505af115801562007d84573d6000803e3d6000fd5b505050506040513d602081101562007d9b57600080fd5b8101908080519060200190929190505050506000809054906101000a900473ffffffffffffffffffffffffffffffffffffffff1673ffffffffffffffffffffffffffffffffffffffff1663214d9b2b60fe6040518263ffffffff1660e01b815260040180806020018060200180602001858152602001848103845260088152602001807f434f5649442d3139000000000000000000000000000000000000000000000000815250602001848103835260058152602001807f4368696e61000000000000000000000000000000000000000000000000000000815250602001848103825260108152602001807f32332e383239382c3130382e3738383100000000000000000000000000000000815250602001945050505050602060405180830381600087803b15801562007ece57600080fd5b505af115801562007ee3573d6000803e3d6000fd5b505050506040513d602081101562007efa57600080fd5b8101908080519060200190929190505050506000809054906101000a900473ffffffffffffffffffffffffffffffffffffffff1673ffffffffffffffffffffffffffffffffffffffff1663214d9b2b60936040518263ffffffff1660e01b815260040180806020018060200180602001858152602001848103845260088152602001807f434f5649442d3139000000000000000000000000000000000000000000000000815250602001848103835260058152602001807f4368696e61000000000000000000000000000000000000000000000000000000815250602001848103825260108152602001807f32362e383135342c3130362e3837343800000000000000000000000000000000815250602001945050505050602060405180830381600087803b1580156200802d57600080fd5b505af115801562008042573d6000803e3d6000fd5b505050506040513d60208110156200805957600080fd5b8101908080519060200190929190505050506000809054906101000a900473ffffffffffffffffffffffffffffffffffffffff1673ffffffffffffffffffffffffffffffffffffffff1663214d9b2b60a86040518263ffffffff1660e01b815260040180806020018060200180602001858152602001848103845260088152602001807f434f5649442d3139000000000000000000000000000000000000000000000000815250602001848103835260058152602001807f4368696e61000000000000000000000000000000000000000000000000000000815250602001848103825260108152602001807f31392e313935392c3130392e3734353300000000000000000000000000000000815250602001945050505050602060405180830381600087803b1580156200818c57600080fd5b505af1158015620081a1573d6000803e3d6000fd5b505050506040513d6020811015620081b857600080fd5b8101908080519060200190929190505050506000809054906101000a900473ffffffffffffffffffffffffffffffffffffffff1673ffffffffffffffffffffffffffffffffffffffff1663214d9b2b6101486040518263ffffffff1660e01b815260040180806020018060200180602001858152602001848103845260088152602001807f434f5649442d3139000000000000000000000000000000000000000000000000815250602001848103835260058152602001807f4368696e610000000000000000000000000000000000000000000000000000008152506020018481038252600f8152602001807f33392e3534392c3131362e313330360000000000000000000000000000000000815250602001945050505050602060405180830381600087803b158015620082ec57600080fd5b505af115801562008301573d6000803e3d6000fd5b505050506040513d60208110156200831857600080fd5b810190808051906020019092919050505050565b80600160006101000a81548173ffffffffffffffffffffffffffffffffffffffff021916908373ffffffffffffffffffffffffffffffffffffffff160217905550600160009054906101000a900473ffffffffffffffffffffffffffffffffffffffff166000806101000a81548173ffffffffffffffffffffffffffffffffffffffff021916908373ffffffffffffffffffffffffffffffffffffffff16021790555050565b600073ffffffffffffffffffffffffffffffffffffffff16600160009054906101000a900473ffffffffffffffffffffffffffffffffffffffff1673ffffffffffffffffffffffffffffffffffffffff1614156200847c576040517f08c379a0000000000000000000000000000000000000000000000000000000008152600401808060200182810382526033815260200180620172b16033913960400191505060405180910390fd5b6000809054906101000a900473ffffffffffffffffffffffffffffffffffffffff1673ffffffffffffffffffffffffffffffffffffffff1663214d9b2b6103a86040518263ffffffff1660e01b815260040180806020018060200180602001858152602001848103845260088152602001807f434f5649442d3139000000000000000000000000000000000000000000000000815250602001848103835260058152602001807f4368696e610000000000000000000000000000000000000000000000000000008152506020018481038252600f8152602001807f34372e3836322c3132372e373631350000000000000000000000000000000000815250602001945050505050602060405180830381600087803b1580156200859e57600080fd5b505af1158015620085b3573d6000803e3d6000fd5b505050506040513d6020811015620085ca57600080fd5b8101908080519060200190929190505050506000809054906101000a900473ffffffffffffffffffffffffffffffffffffffff1673ffffffffffffffffffffffffffffffffffffffff1663214d9b2b6104fc6040518263ffffffff1660e01b815260040180806020018060200180602001858152602001848103845260088152602001807f434f5649442d3139000000000000000000000000000000000000000000000000815250602001848103835260058152602001807f4368696e610000000000000000000000000000000000000000000000000000008152506020018481038252600e8152602001807f33332e3838322c3131332e363134000000000000000000000000000000000000815250602001945050505050602060405180830381600087803b158015620086fe57600080fd5b505af115801562008713573d6000803e3d6000fd5b505050506040513d60208110156200872a57600080fd5b8101908080519060200190929190505050506000809054906101000a900473ffffffffffffffffffffffffffffffffffffffff1673ffffffffffffffffffffffffffffffffffffffff1663214d9b2b61040d6040518263ffffffff1660e01b815260040180806020018060200180602001858152602001848103845260088152602001807f434f5649442d3139000000000000000000000000000000000000000000000000815250602001848103835260058152602001807f4368696e610000000000000000000000000000000000000000000000000000008152506020018481038252600a8152602001807f32322e332c3131342e3200000000000000000000000000000000000000000000815250602001945050505050602060405180830381600087803b1580156200885e57600080fd5b505af115801562008873573d6000803e3d6000fd5b505050506040513d60208110156200888a57600080fd5b8101908080519060200190929190505050506000809054906101000a900473ffffffffffffffffffffffffffffffffffffffff1673ffffffffffffffffffffffffffffffffffffffff1663214d9b2b62010a206040518263ffffffff1660e01b815260040180806020018060200180602001858152602001848103845260088152602001807f434f5649442d3139000000000000000000000000000000000000000000000000815250602001848103835260058152602001807f4368696e61000000000000000000000000000000000000000000000000000000815250602001848103825260108152602001807f33302e393735362c3131322e3237303700000000000000000000000000000000815250602001945050505050602060405180830381600087803b158015620089bf57600080fd5b505af1158015620089d4573d6000803e3d6000fd5b505050506040513d6020811015620089eb57600080fd5b8101908080519060200190929190505050506000809054906101000a900473ffffffffffffffffffffffffffffffffffffffff1673ffffffffffffffffffffffffffffffffffffffff1663214d9b2b6103fb6040518263ffffffff1660e01b815260040180806020018060200180602001858152602001848103845260088152602001807f434f5649442d3139000000000000000000000000000000000000000000000000815250602001848103835260058152602001807f4368696e61000000000000000000000000000000000000000000000000000000815250602001848103825260108152602001807f32372e363130342c3131312e3730383800000000000000000000000000000000815250602001945050505050602060405180830381600087803b15801562008b1f57600080fd5b505af115801562008b34573d6000803e3d6000fd5b505050506040513d602081101562008b4b57600080fd5b8101908080519060200190929190505050506000809054906101000a900473ffffffffffffffffffffffffffffffffffffffff1673ffffffffffffffffffffffffffffffffffffffff1663214d9b2b60c66040518263ffffffff1660e01b815260040180806020018060200180602001858152602001848103845260088152602001807f434f5649442d3139000000000000000000000000000000000000000000000000815250602001848103835260058152602001807f4368696e61000000000000000000000000000000000000000000000000000000815250602001848103825260108152602001807f34342e303933352c3131332e3934343800000000000000000000000000000000815250602001945050505050602060405180830381600087803b15801562008c7e57600080fd5b505af115801562008c93573d6000803e3d6000fd5b505050506040513d602081101562008caa57600080fd5b8101908080519060200190929190505050506000809054906101000a900473ffffffffffffffffffffffffffffffffffffffff1673ffffffffffffffffffffffffffffffffffffffff1663214d9b2b61028d6040518263ffffffff1660e01b815260040180806020018060200180602001858152602001848103845260088152602001807f434f5649442d3139000000000000000000000000000000000000000000000000815250602001848103835260058152602001807f4368696e610000000000000000000000000000000000000000000000000000008152506020018481038252600f8152602001807f33322e393731312c3131392e3435350000000000000000000000000000000000815250602001945050505050602060405180830381600087803b15801562008dde57600080fd5b505af115801562008df3573d6000803e3d6000fd5b505050506040513d602081101562008e0a57600080fd5b8101908080519060200190929190505050506000809054906101000a900473ffffffffffffffffffffffffffffffffffffffff1673ffffffffffffffffffffffffffffffffffffffff1663214d9b2b6103a96040518263ffffffff1660e01b815260040180806020018060200180602001858152602001848103845260088152602001807f434f5649442d3139000000000000000000000000000000000000000000000000815250602001848103835260058152602001807f4368696e610000000000000000000000000000000000000000000000000000008152506020018481038252600f8152602001807f32372e3631342c3131352e373232310000000000000000000000000000000000815250602001945050505050602060405180830381600087803b15801562008f3e57600080fd5b505af115801562008f53573d6000803e3d6000fd5b505050506040513d602081101562008f6a57600080fd5b8101908080519060200190929190505050506000809054906101000a900473ffffffffffffffffffffffffffffffffffffffff1673ffffffffffffffffffffffffffffffffffffffff1663214d9b2b606e6040518263ffffffff1660e01b815260040180806020018060200180602001858152602001848103845260088152602001807f434f5649442d3139000000000000000000000000000000000000000000000000815250602001848103835260058152602001807f4368696e61000000000000000000000000000000000000000000000000000000815250602001848103825260108152602001807f34332e363636312c3132362e3139323300000000000000000000000000000000815250602001945050505050602060405180830381600087803b1580156200909d57600080fd5b505af1158015620090b2573d6000803e3d6000fd5b505050506040513d6020811015620090c957600080fd5b8101908080519060200190929190505050506000809054906101000a900473ffffffffffffffffffffffffffffffffffffffff1673ffffffffffffffffffffffffffffffffffffffff1663214d9b2b60926040518263ffffffff1660e01b815260040180806020018060200180602001858152602001848103845260088152602001807f434f5649442d3139000000000000000000000000000000000000000000000000815250602001848103835260058152602001807f4368696e61000000000000000000000000000000000000000000000000000000815250602001848103825260108152602001807f34312e323935362c3132322e3630383500000000000000000000000000000000815250602001945050505050602060405180830381600087803b158015620091fc57600080fd5b505af115801562009211573d6000803e3d6000fd5b505050506040513d60208110156200922857600080fd5b8101908080519060200190929190505050506000809054906101000a900473ffffffffffffffffffffffffffffffffffffffff1673ffffffffffffffffffffffffffffffffffffffff1663214d9b2b602d6040518263ffffffff1660e01b815260040180806020018060200180602001858152602001848103845260088152602001807f434f5649442d3139000000000000000000000000000000000000000000000000815250602001848103835260058152602001807f4368696e610000000000000000000000000000000000000000000000000000008152506020018481038252600e8152602001807f32322e313636372c3131332e3535000000000000000000000000000000000000815250602001945050505050602060405180830381600087803b1580156200935b57600080fd5b505af115801562009370573d6000803e3d6000fd5b505050506040513d60208110156200938757600080fd5b8101908080519060200190929190505050506000809054906101000a900473ffffffffffffffffffffffffffffffffffffffff1673ffffffffffffffffffffffffffffffffffffffff1663214d9b2b604b6040518263ffffffff1660e01b815260040180806020018060200180602001858152602001848103845260088152602001807f434f5649442d3139000000000000000000000000000000000000000000000000815250602001848103835260058152602001807f4368696e61000000000000000000000000000000000000000000000000000000815250602001848103825260108152602001807f33372e323639322c3130362e3136353500000000000000000000000000000000815250602001945050505050602060405180830381600087803b158015620094ba57600080fd5b505af1158015620094cf573d6000803e3d6000fd5b505050506040513d6020811015620094e657600080fd5b8101908080519060200190929190505050506000809054906101000a900473ffffffffffffffffffffffffffffffffffffffff1673ffffffffffffffffffffffffffffffffffffffff1663214d9b2b60126040518263ffffffff1660e01b815260040180806020018060200180602001858152602001848103845260088152602001807f434f5649442d3139000000000000000000000000000000000000000000000000815250602001848103835260058152602001807f4368696e610000000000000000000000000000000000000000000000000000008152506020018481038252600f8152602001807f33352e373435322c39352e393935360000000000000000000000000000000000815250602001945050505050602060405180830381600087803b1580156200961957600080fd5b505af11580156200962e573d6000803e3d6000fd5b505050506040513d60208110156200964557600080fd5b8101908080519060200190929190505050506000809054906101000a900473ffffffffffffffffffffffffffffffffffffffff1673ffffffffffffffffffffffffffffffffffffffff1663214d9b2b61011e6040518263ffffffff1660e01b815260040180806020018060200180602001858152602001848103845260088152602001807f434f5649442d3139000000000000000000000000000000000000000000000000815250602001848103835260058152602001807f4368696e61000000000000000000000000000000000000000000000000000000815250602001848103825260108152602001807f33352e313931372c3130382e3837303100000000000000000000000000000000815250602001945050505050602060405180830381600087803b1580156200977957600080fd5b505af11580156200978e573d6000803e3d6000fd5b505050506040513d6020811015620097a557600080fd5b8101908080519060200190929190505050506000809054906101000a900473ffffffffffffffffffffffffffffffffffffffff1673ffffffffffffffffffffffffffffffffffffffff1663214d9b2b6103136040518263ffffffff1660e01b815260040180806020018060200180602001858152602001848103845260088152602001807f434f5649442d3139000000000000000000000000000000000000000000000000815250602001848103835260058152602001807f4368696e61000000000000000000000000000000000000000000000000000000815250602001848103825260108152602001807f33362e333432372c3131382e3134393800000000000000000000000000000000815250602001945050505050602060405180830381600087803b158015620098d957600080fd5b505af1158015620098ee573d6000803e3d6000fd5b505050506040513d60208110156200990557600080fd5b8101908080519060200190929190505050506000809054906101000a900473ffffffffffffffffffffffffffffffffffffffff1673ffffffffffffffffffffffffffffffffffffffff1663214d9b2b6102826040518263ffffffff1660e01b815260040180806020018060200180602001858152602001848103845260088152602001807f434f5649442d3139000000000000000000000000000000000000000000000000815250602001848103835260058152602001807f4368696e610000000000000000000000000000000000000000000000000000008152506020018481038252600f8152602001807f33312e3230322c3132312e343439310000000000000000000000000000000000815250602001945050505050602060405180830381600087803b15801562009a3957600080fd5b505af115801562009a4e573d6000803e3d6000fd5b505050506040513d602081101562009a6557600080fd5b8101908080519060200190929190505050506000809054906101000a900473ffffffffffffffffffffffffffffffffffffffff1673ffffffffffffffffffffffffffffffffffffffff1663214d9b2b60c56040518263ffffffff1660e01b815260040180806020018060200180602001858152602001848103845260088152602001807f434f5649442d3139000000000000000000000000000000000000000000000000815250602001848103835260058152602001807f4368696e61000000000000000000000000000000000000000000000000000000815250602001848103825260108152602001807f33372e353737372c3131322e3239323200000000000000000000000000000000815250602001945050505050602060405180830381600087803b15801562009b9857600080fd5b505af115801562009bad573d6000803e3d6000fd5b505050506040513d602081101562009bc457600080fd5b8101908080519060200190929190505050506000809054906101000a900473ffffffffffffffffffffffffffffffffffffffff1673ffffffffffffffffffffffffffffffffffffffff1663214d9b2b6102316040518263ffffffff1660e01b815260040180806020018060200180602001858152602001848103845260088152602001807f434f5649442d3139000000000000000000000000000000000000000000000000815250602001848103835260058152602001807f4368696e61000000000000000000000000000000000000000000000000000000815250602001848103825260108152602001807f33302e363137312c3130322e3731303300000000000000000000000000000000815250602001945050505050602060405180830381600087803b15801562009cf857600080fd5b505af115801562009d0d573d6000803e3d6000fd5b505050506040513d602081101562009d2457600080fd5b8101908080519060200190929190505050506000809054906101000a900473ffffffffffffffffffffffffffffffffffffffff1673ffffffffffffffffffffffffffffffffffffffff1663214d9b2b60be6040518263ffffffff1660e01b815260040180806020018060200180602001858152602001848103845260088152602001807f434f5649442d3139000000000000000000000000000000000000000000000000815250602001848103835260058152602001807f4368696e610000000000000000000000000000000000000000000000000000008152506020018481038252600f8152602001807f33392e333035342c3131372e3332330000000000000000000000000000000000815250602001945050505050602060405180830381600087803b15801562009e5757600080fd5b505af115801562009e6c573d6000803e3d6000fd5b505050506040513d602081101562009e8357600080fd5b8101908080519060200190929190505050506000809054906101000a900473ffffffffffffffffffffffffffffffffffffffff1673ffffffffffffffffffffffffffffffffffffffff1663214d9b2b60016040518263ffffffff1660e01b815260040180806020018060200180602001858152602001848103845260088152602001807f434f5649442d3139000000000000000000000000000000000000000000000000815250602001848103835260058152602001807f4368696e610000000000000000000000000000000000000000000000000000008152506020018481038252600f8152602001807f33312e363932372c38382e303932340000000000000000000000000000000000815250602001945050505050602060405180830381600087803b15801562009fb657600080fd5b505af115801562009fcb573d6000803e3d6000fd5b505050506040513d602081101562009fe257600080fd5b8101908080519060200190929190505050506000809054906101000a900473ffffffffffffffffffffffffffffffffffffffff1673ffffffffffffffffffffffffffffffffffffffff1663214d9b2b604c6040518263ffffffff1660e01b815260040180806020018060200180602001858152602001848103845260088152602001807f434f5649442d3139000000000000000000000000000000000000000000000000815250602001848103835260058152602001807f4368696e610000000000000000000000000000000000000000000000000000008152506020018481038252600f8152602001807f34312e313132392c38352e323430310000000000000000000000000000000000815250602001945050505050602060405180830381600087803b1580156200a11557600080fd5b505af11580156200a12a573d6000803e3d6000fd5b505050506040513d60208110156200a14157600080fd5b8101908080519060200190929190505050506000809054906101000a900473ffffffffffffffffffffffffffffffffffffffff1673ffffffffffffffffffffffffffffffffffffffff1663214d9b2b60b96040518263ffffffff1660e01b815260040180806020018060200180602001858152602001848103845260088152602001807f434f5649442d3139000000000000000000000000000000000000000000000000815250602001848103835260058152602001807f4368696e610000000000000000000000000000000000000000000000000000008152506020018481038252600e8152602001807f32342e3937342c3130312e343837000000000000000000000000000000000000815250602001945050505050602060405180830381600087803b1580156200a27457600080fd5b505af11580156200a289573d6000803e3d6000fd5b505050506040513d60208110156200a2a057600080fd5b8101908080519060200190929190505050506000809054906101000a900473ffffffffffffffffffffffffffffffffffffffff1673ffffffffffffffffffffffffffffffffffffffff1663214d9b2b6104f46040518263ffffffff1660e01b815260040180806020018060200180602001858152602001848103845260088152602001807f434f5649442d3139000000000000000000000000000000000000000000000000815250602001848103835260058152602001807f4368696e61000000000000000000000000000000000000000000000000000000815250602001848103825260108152602001807f32392e313833322c3132302e3039333400000000000000000000000000000000815250602001945050505050602060405180830381600087803b1580156200a3d457600080fd5b505af11580156200a3e9573d6000803e3d6000fd5b505050506040513d60208110156200a40057600080fd5b8101908080519060200190929190505050506000809054906101000a900473ffffffffffffffffffffffffffffffffffffffff1673ffffffffffffffffffffffffffffffffffffffff1663214d9b2b6115036040518263ffffffff1660e01b815260040180806020018060200180602001858152602001848103845260088152602001807f434f5649442d3139000000000000000000000000000000000000000000000000815250602001848103835260088152602001807f436f6c6f6d6269610000000000000000000000000000000000000000000000008152506020018481038252600f8152602001807f342e353730392c2d37342e323937330000000000000000000000000000000000815250602001945050505050602060405180830381600087803b1580156200a53457600080fd5b505af11580156200a549573d6000803e3d6000fd5b505050506040513d60208110156200a56057600080fd5b8101908080519060200190929190505050506000809054906101000a900473ffffffffffffffffffffffffffffffffffffffff1673ffffffffffffffffffffffffffffffffffffffff1663214d9b2b60c86040518263ffffffff1660e01b815260040180806020018060200180602001858152602001848103845260088152602001807f434f5649442d3139000000000000000000000000000000000000000000000000815250602001848103835260138152602001807f436f6e676f20284272617a7a6176696c6c6529000000000000000000000000008152506020018481038252600f8152602001807f2d342e303338332c32312e373538370000000000000000000000000000000000815250602001945050505050602060405180830381600087803b1580156200a69357600080fd5b505af11580156200a6a8573d6000803e3d6000fd5b505050506040513d60208110156200a6bf57600080fd5b8101908080519060200190929190505050506000809054906101000a900473ffffffffffffffffffffffffffffffffffffffff1673ffffffffffffffffffffffffffffffffffffffff1663214d9b2b6101ba6040518263ffffffff1660e01b815260040180806020018060200180602001858152602001848103845260088152602001807f434f5649442d3139000000000000000000000000000000000000000000000000815250602001848103835260108152602001807f436f6e676f20284b696e736861736129000000000000000000000000000000008152506020018481038252600f8152602001807f2d342e303338332c32312e373538370000000000000000000000000000000000815250602001945050505050602060405180830381600087803b1580156200a7f357600080fd5b505af11580156200a808573d6000803e3d6000fd5b505050506040513d60208110156200a81f57600080fd5b8101908080519060200190929190505050506000809054906101000a900473ffffffffffffffffffffffffffffffffffffffff1673ffffffffffffffffffffffffffffffffffffffff1663214d9b2b6102b76040518263ffffffff1660e01b815260040180806020018060200180602001858152602001848103845260088152602001807f434f5649442d31390000000000000000000000000000000000000000000000008152506020018481038352600a8152602001807f436f7374612052696361000000000000000000000000000000000000000000008152506020018481038252600f8152602001807f392e373438392c2d38332e373533340000000000000000000000000000000000815250602001945050505050602060405180830381600087803b1580156200a95357600080fd5b505af11580156200a968573d6000803e3d6000fd5b505050506040513d60208110156200a97f57600080fd5b8101908080519060200190929190505050506000809054906101000a900473ffffffffffffffffffffffffffffffffffffffff1673ffffffffffffffffffffffffffffffffffffffff1663214d9b2b61047e6040518263ffffffff1660e01b815260040180806020018060200180602001858152602001848103845260088152602001807f434f5649442d31390000000000000000000000000000000000000000000000008152506020018481038352600d8152602001807f436f746520642749766f697265000000000000000000000000000000000000008152506020018481038252600c8152602001807f372e35342c2d352e353437310000000000000000000000000000000000000000815250602001945050505050602060405180830381600087803b1580156200aab357600080fd5b505af11580156200aac8573d6000803e3d6000fd5b505050506040513d60208110156200aadf57600080fd5b8101908080519060200190929190505050506000809054906101000a900473ffffffffffffffffffffffffffffffffffffffff1673ffffffffffffffffffffffffffffffffffffffff1663214d9b2b6107ee6040518263ffffffff1660e01b815260040180806020018060200180602001858152602001848103845260088152602001807f434f5649442d3139000000000000000000000000000000000000000000000000815250602001848103835260078152602001807f43726f6174696100000000000000000000000000000000000000000000000000815250602001848103825260098152602001807f34352e312c31352e320000000000000000000000000000000000000000000000815250602001945050505050602060405180830381600087803b1580156200ac1357600080fd5b505af11580156200ac28573d6000803e3d6000fd5b505050506040513d60208110156200ac3f57600080fd5b8101908080519060200190929190505050506000809054906101000a900473ffffffffffffffffffffffffffffffffffffffff1673ffffffffffffffffffffffffffffffffffffffff1663214d9b2b6102c86040518263ffffffff1660e01b815260040180806020018060200180602001858152602001848103845260088152602001807f434f5649442d3139000000000000000000000000000000000000000000000000815250602001848103835260108152602001807f4469616d6f6e64205072696e6365737300000000000000000000000000000000815250602001848103825260038152602001807f302c300000000000000000000000000000000000000000000000000000000000815250602001945050505050602060405180830381600087803b1580156200ad7357600080fd5b505af11580156200ad88573d6000803e3d6000fd5b505050506040513d60208110156200ad9f57600080fd5b8101908080519060200190929190505050506000809054906101000a900473ffffffffffffffffffffffffffffffffffffffff1673ffffffffffffffffffffffffffffffffffffffff1663214d9b2b6105596040518263ffffffff1660e01b815260040180806020018060200180602001858152602001848103845260088152602001807f434f5649442d3139000000000000000000000000000000000000000000000000815250602001848103835260048152602001807f4375626100000000000000000000000000000000000000000000000000000000815250602001848103825260068152602001807f32322c2d38300000000000000000000000000000000000000000000000000000815250602001945050505050602060405180830381600087803b1580156200aed357600080fd5b505af11580156200aee8573d6000803e3d6000fd5b505050506040513d60208110156200aeff57600080fd5b810190808051906020019092919050505050565b600073ffffffffffffffffffffffffffffffffffffffff16600160009054906101000a900473ffffffffffffffffffffffffffffffffffffffff1673ffffffffffffffffffffffffffffffffffffffff1614156200afbd576040517f08c379a0000000000000000000000000000000000000000000000000000000008152600401808060200182810382526033815260200180620172b16033913960400191505060405180910390fd5b6000809054906101000a900473ffffffffffffffffffffffffffffffffffffffff1673ffffffffffffffffffffffffffffffffffffffff1663214d9b2b6105fb6040518263ffffffff1660e01b815260040180806020018060200180602001858152602001848103845260088152602001807f434f5649442d31390000000000000000000000000000000000000000000000008152506020018481038352600b8152602001807f41666768616e697374616e000000000000000000000000000000000000000000815250602001848103825260058152602001807f33332c3635000000000000000000000000000000000000000000000000000000815250602001945050505050602060405180830381600087803b1580156200b0df57600080fd5b505af11580156200b0f4573d6000803e3d6000fd5b505050506040513d60208110156200b10b57600080fd5b8101908080519060200190929190505050506000809054906101000a900473ffffffffffffffffffffffffffffffffffffffff1673ffffffffffffffffffffffffffffffffffffffff1663214d9b2b6102d66040518263ffffffff1660e01b815260040180806020018060200180602001858152602001848103845260088152602001807f434f5649442d3139000000000000000000000000000000000000000000000000815250602001848103835260078152602001807f416c62616e6961000000000000000000000000000000000000000000000000008152506020018481038252600f8152602001807f34312e313533332c32302e313638330000000000000000000000000000000000815250602001945050505050602060405180830381600087803b1580156200b23f57600080fd5b505af11580156200b254573d6000803e3d6000fd5b505050506040513d60208110156200b26b57600080fd5b8101908080519060200190929190505050506000809054906101000a900473ffffffffffffffffffffffffffffffffffffffff1673ffffffffffffffffffffffffffffffffffffffff1663214d9b2b610d366040518263ffffffff1660e01b815260040180806020018060200180602001858152602001848103845260088152602001807f434f5649442d3139000000000000000000000000000000000000000000000000815250602001848103835260078152602001807f416c6765726961000000000000000000000000000000000000000000000000008152506020018481038252600e8152602001807f32382e303333392c312e36353936000000000000000000000000000000000000815250602001945050505050602060405180830381600087803b1580156200b39f57600080fd5b505af11580156200b3b4573d6000803e3d6000fd5b505050506040513d60208110156200b3cb57600080fd5b8101908080519060200190929190505050506000809054906101000a900473ffffffffffffffffffffffffffffffffffffffff1673ffffffffffffffffffffffffffffffffffffffff1663214d9b2b6102e26040518263ffffffff1660e01b815260040180806020018060200180602001858152602001848103845260088152602001807f434f5649442d3139000000000000000000000000000000000000000000000000815250602001848103835260078152602001807f416e646f727261000000000000000000000000000000000000000000000000008152506020018481038252600e8152602001807f34322e353036332c312e35323138000000000000000000000000000000000000815250602001945050505050602060405180830381600087803b1580156200b4ff57600080fd5b505af11580156200b514573d6000803e3d6000fd5b505050506040513d60208110156200b52b57600080fd5b8101908080519060200190929190505050506000809054906101000a900473ffffffffffffffffffffffffffffffffffffffff1673ffffffffffffffffffffffffffffffffffffffff1663214d9b2b601a6040518263ffffffff1660e01b815260040180806020018060200180602001858152602001848103845260088152602001807f434f5649442d3139000000000000000000000000000000000000000000000000815250602001848103835260068152602001807f416e676f6c610000000000000000000000000000000000000000000000000000815250602001848103825260108152602001807f2d31312e323032372c31372e3837333900000000000000000000000000000000815250602001945050505050602060405180830381600087803b1580156200b65e57600080fd5b505af11580156200b673573d6000803e3d6000fd5b505050506040513d60208110156200b68a57600080fd5b8101908080519060200190929190505050506000809054906101000a900473ffffffffffffffffffffffffffffffffffffffff1673ffffffffffffffffffffffffffffffffffffffff1663214d9b2b60186040518263ffffffff1660e01b815260040180806020018060200180602001858152602001848103845260088152602001807f434f5649442d3139000000000000000000000000000000000000000000000000815250602001848103835260138152602001807f416e746967756120616e64204261726275646100000000000000000000000000815250602001848103825260108152602001807f31372e303630382c2d36312e3739363400000000000000000000000000000000815250602001945050505050602060405180830381600087803b1580156200b7bd57600080fd5b505af11580156200b7d2573d6000803e3d6000fd5b505050506040513d60208110156200b7e957600080fd5b8101908080519060200190929190505050506000809054906101000a900473ffffffffffffffffffffffffffffffffffffffff1673ffffffffffffffffffffffffffffffffffffffff1663214d9b2b610f346040518263ffffffff1660e01b815260040180806020018060200180602001858152602001848103845260088152602001807f434f5649442d3139000000000000000000000000000000000000000000000000815250602001848103835260098152602001807f417267656e74696e610000000000000000000000000000000000000000000000815250602001848103825260118152602001807f2d33382e343136312c2d36332e36313637000000000000000000000000000000815250602001945050505050602060405180830381600087803b1580156200b91d57600080fd5b505af11580156200b932573d6000803e3d6000fd5b505050506040513d60208110156200b94957600080fd5b8101908080519060200190929190505050506000809054906101000a900473ffffffffffffffffffffffffffffffffffffffff1673ffffffffffffffffffffffffffffffffffffffff1663214d9b2b6106d26040518263ffffffff1660e01b815260040180806020018060200180602001858152602001848103845260088152602001807f434f5649442d3139000000000000000000000000000000000000000000000000815250602001848103835260078152602001807f41726d656e6961000000000000000000000000000000000000000000000000008152506020018481038252600f8152602001807f34302e303639312c34352e303338320000000000000000000000000000000000815250602001945050505050602060405180830381600087803b1580156200ba7d57600080fd5b505af11580156200ba92573d6000803e3d6000fd5b505050506040513d60208110156200baa957600080fd5b8101908080519060200190929190505050506000809054906101000a900473ffffffffffffffffffffffffffffffffffffffff1673ffffffffffffffffffffffffffffffffffffffff1663214d9b2b606a6040518263ffffffff1660e01b815260040180806020018060200180602001858152602001848103845260088152602001807f434f5649442d3139000000000000000000000000000000000000000000000000815250602001848103835260098152602001807f4175737472616c69610000000000000000000000000000000000000000000000815250602001848103825260118152602001807f2d33352e343733352c3134392e30313234000000000000000000000000000000815250602001945050505050602060405180830381600087803b1580156200bbdc57600080fd5b505af11580156200bbf1573d6000803e3d6000fd5b505050506040513d60208110156200bc0857600080fd5b8101908080519060200190929190505050506000809054906101000a900473ffffffffffffffffffffffffffffffffffffffff1673ffffffffffffffffffffffffffffffffffffffff1663214d9b2b610bba6040518263ffffffff1660e01b815260040180806020018060200180602001858152602001848103845260088152602001807f434f5649442d3139000000000000000000000000000000000000000000000000815250602001848103835260098152602001807f4175737472616c69610000000000000000000000000000000000000000000000815250602001848103825260118152602001807f2d33332e383638382c3135312e32303933000000000000000000000000000000815250602001945050505050602060405180830381600087803b1580156200bd3c57600080fd5b505af11580156200bd51573d6000803e3d6000fd5b505050506040513d60208110156200bd6857600080fd5b8101908080519060200190929190505050506000809054906101000a900473ffffffffffffffffffffffffffffffffffffffff1673ffffffffffffffffffffffffffffffffffffffff1663214d9b2b601c6040518263ffffffff1660e01b815260040180806020018060200180602001858152602001848103845260088152602001807f434f5649442d3139000000000000000000000000000000000000000000000000815250602001848103835260098152602001807f4175737472616c69610000000000000000000000000000000000000000000000815250602001848103825260118152602001807f2d31322e343633342c3133302e38343536000000000000000000000000000000815250602001945050505050602060405180830381600087803b1580156200be9b57600080fd5b505af11580156200beb0573d6000803e3d6000fd5b505050506040513d60208110156200bec757600080fd5b8101908080519060200190929190505050506000809054906101000a900473ffffffffffffffffffffffffffffffffffffffff1673ffffffffffffffffffffffffffffffffffffffff1663214d9b2b6104066040518263ffffffff1660e01b815260040180806020018060200180602001858152602001848103845260088152602001807f434f5649442d3139000000000000000000000000000000000000000000000000815250602001848103835260098152602001807f4175737472616c696100000000000000000000000000000000000000000000008152506020018481038252600e8152602001807f2d32382e303136372c3135332e34000000000000000000000000000000000000815250602001945050505050602060405180830381600087803b1580156200bffb57600080fd5b505af11580156200c010573d6000803e3d6000fd5b505050506040513d60208110156200c02757600080fd5b8101908080519060200190929190505050506000809054906101000a900473ffffffffffffffffffffffffffffffffffffffff1673ffffffffffffffffffffffffffffffffffffffff1663214d9b2b6101b66040518263ffffffff1660e01b815260040180806020018060200180602001858152602001848103845260088152602001807f434f5649442d3139000000000000000000000000000000000000000000000000815250602001848103835260098152602001807f4175737472616c69610000000000000000000000000000000000000000000000815250602001848103825260118152602001807f2d33342e393238352c3133382e36303037000000000000000000000000000000815250602001945050505050602060405180830381600087803b1580156200c15b57600080fd5b505af11580156200c170573d6000803e3d6000fd5b505050506040513d60208110156200c18757600080fd5b8101908080519060200190929190505050506000809054906101000a900473ffffffffffffffffffffffffffffffffffffffff1673ffffffffffffffffffffffffffffffffffffffff1663214d9b2b60d46040518263ffffffff1660e01b815260040180806020018060200180602001858152602001848103845260088152602001807f434f5649442d3139000000000000000000000000000000000000000000000000815250602001848103835260098152602001807f4175737472616c69610000000000000000000000000000000000000000000000815250602001848103825260118152602001807f2d34312e343534352c3134352e39373037000000000000000000000000000000815250602001945050505050602060405180830381600087803b1580156200c2ba57600080fd5b505af11580156200c2cf573d6000803e3d6000fd5b505050506040513d60208110156200c2e657600080fd5b8101908080519060200190929190505050506000809054906101000a900473ffffffffffffffffffffffffffffffffffffffff1673ffffffffffffffffffffffffffffffffffffffff1663214d9b2b6105456040518263ffffffff1660e01b815260040180806020018060200180602001858152602001848103845260088152602001807f434f5649442d3139000000000000000000000000000000000000000000000000815250602001848103835260098152602001807f4175737472616c69610000000000000000000000000000000000000000000000815250602001848103825260118152602001807f2d33372e383133362c3134342e39363331000000000000000000000000000000815250602001945050505050602060405180830381600087803b1580156200c41a57600080fd5b505af11580156200c42f573d6000803e3d6000fd5b505050506040513d60208110156200c44657600080fd5b8101908080519060200190929190505050506000809054906101000a900473ffffffffffffffffffffffffffffffffffffffff1673ffffffffffffffffffffffffffffffffffffffff1663214d9b2b6102256040518263ffffffff1660e01b815260040180806020018060200180602001858152602001848103845260088152602001807f434f5649442d3139000000000000000000000000000000000000000000000000815250602001848103835260098152602001807f4175737472616c69610000000000000000000000000000000000000000000000815250602001848103825260118152602001807f2d33312e393530352c3131352e38363035000000000000000000000000000000815250602001945050505050602060405180830381600087803b1580156200c57a57600080fd5b505af11580156200c58f573d6000803e3d6000fd5b505050506040513d60208110156200c5a657600080fd5b8101908080519060200190929190505050506000809054906101000a900473ffffffffffffffffffffffffffffffffffffffff1673ffffffffffffffffffffffffffffffffffffffff1663214d9b2b613b796040518263ffffffff1660e01b815260040180806020018060200180602001858152602001848103845260088152602001807f434f5649442d3139000000000000000000000000000000000000000000000000815250602001848103835260078152602001807f41757374726961000000000000000000000000000000000000000000000000008152506020018481038252600f8152602001807f34372e353136322c31342e353530310000000000000000000000000000000000815250602001945050505050602060405180830381600087803b1580156200c6da57600080fd5b505af11580156200c6ef573d6000803e3d6000fd5b505050506040513d60208110156200c70657600080fd5b8101908080519060200190929190505050506000809054906101000a900473ffffffffffffffffffffffffffffffffffffffff1673ffffffffffffffffffffffffffffffffffffffff1663214d9b2b61066d6040518263ffffffff1660e01b815260040180806020018060200180602001858152602001848103845260088152602001807f434f5649442d31390000000000000000000000000000000000000000000000008152506020018481038352600a8152602001807f417a65726261696a616e000000000000000000000000000000000000000000008152506020018481038252600f8152602001807f34302e313433312c34372e353736390000000000000000000000000000000000815250602001945050505050602060405180830381600087803b1580156200c83a57600080fd5b505af11580156200c84f573d6000803e3d6000fd5b505050506040513d60208110156200c86657600080fd5b8101908080519060200190929190505050506000809054906101000a900473ffffffffffffffffffffffffffffffffffffffff1673ffffffffffffffffffffffffffffffffffffffff1663214d9b2b60506040518263ffffffff1660e01b815260040180806020018060200180602001858152602001848103845260088152602001807f434f5649442d3139000000000000000000000000000000000000000000000000815250602001848103835260078152602001807f426168616d617300000000000000000000000000000000000000000000000000815250602001848103825260108152602001807f32352e303334332c2d37372e3339363300000000000000000000000000000000815250602001945050505050602060405180830381600087803b1580156200c99957600080fd5b505af11580156200c9ae573d6000803e3d6000fd5b505050506040513d60208110156200c9c557600080fd5b8101908080519060200190929190505050506000809054906101000a900473ffffffffffffffffffffffffffffffffffffffff1673ffffffffffffffffffffffffffffffffffffffff1663214d9b2b610a576040518263ffffffff1660e01b815260040180806020018060200180602001858152602001848103845260088152602001807f434f5649442d3139000000000000000000000000000000000000000000000000815250602001848103835260078152602001807f4261687261696e000000000000000000000000000000000000000000000000008152506020018481038252600d8152602001807f32362e303237352c35302e353500000000000000000000000000000000000000815250602001945050505050602060405180830381600087803b1580156200caf957600080fd5b505af11580156200cb0e573d6000803e3d6000fd5b505050506040513d60208110156200cb2557600080fd5b8101908080519060200190929190505050506000809054906101000a900473ffffffffffffffffffffffffffffffffffffffff1673ffffffffffffffffffffffffffffffffffffffff1663214d9b2b6115286040518263ffffffff1660e01b815260040180806020018060200180602001858152602001848103845260088152602001807f434f5649442d31390000000000000000000000000000000000000000000000008152506020018481038352600a8152602001807f42616e676c6164657368000000000000000000000000000000000000000000008152506020018481038252600e8152602001807f32332e3638352c39302e33353633000000000000000000000000000000000000815250602001945050505050602060405180830381600087803b1580156200cc5957600080fd5b505af11580156200cc6e573d6000803e3d6000fd5b505050506040513d60208110156200cc8557600080fd5b8101908080519060200190929190505050506000809054906101000a900473ffffffffffffffffffffffffffffffffffffffff1673ffffffffffffffffffffffffffffffffffffffff1663214d9b2b604f6040518263ffffffff1660e01b815260040180806020018060200180602001858152602001848103845260088152602001807f434f5649442d3139000000000000000000000000000000000000000000000000815250602001848103835260088152602001807f4261726261646f73000000000000000000000000000000000000000000000000815250602001848103825260108152602001807f31332e313933392c2d35392e3534333200000000000000000000000000000000815250602001945050505050602060405180830381600087803b1580156200cdb857600080fd5b505af11580156200cdcd573d6000803e3d6000fd5b505050506040513d60208110156200cde457600080fd5b8101908080519060200190929190505050506000809054906101000a900473ffffffffffffffffffffffffffffffffffffffff1673ffffffffffffffffffffffffffffffffffffffff1663214d9b2b6128df6040518263ffffffff1660e01b815260040180806020018060200180602001858152602001848103845260088152602001807f434f5649442d3139000000000000000000000000000000000000000000000000815250602001848103835260078152602001807f42656c61727573000000000000000000000000000000000000000000000000008152506020018481038252600f8152602001807f35332e373039382c32372e393533340000000000000000000000000000000000815250602001945050505050602060405180830381600087803b1580156200cf1857600080fd5b505af11580156200cf2d573d6000803e3d6000fd5b505050506040513d60208110156200cf4457600080fd5b8101908080519060200190929190505050506000809054906101000a900473ffffffffffffffffffffffffffffffffffffffff1673ffffffffffffffffffffffffffffffffffffffff1663214d9b2b61b4366040518263ffffffff1660e01b815260040180806020018060200180602001858152602001848103845260088152602001807f434f5649442d3139000000000000000000000000000000000000000000000000815250602001848103835260078152602001807f42656c6769756d00000000000000000000000000000000000000000000000000815250602001848103825260098152602001807f35302e383333332c340000000000000000000000000000000000000000000000815250602001945050505050602060405180830381600087803b1580156200d07857600080fd5b505af11580156200d08d573d6000803e3d6000fd5b505050506040513d60208110156200d0a457600080fd5b8101908080519060200190929190505050506000809054906101000a900473ffffffffffffffffffffffffffffffffffffffff1673ffffffffffffffffffffffffffffffffffffffff1663214d9b2b604080518263ffffffff1660e01b815260040180806020018060200180602001858152602001848103845260088152602001807f434f5649442d3139000000000000000000000000000000000000000000000000815250602001848103835260058152602001807f42656e696e0000000000000000000000000000000000000000000000000000008152506020018481038252600d8152602001807f392e333037372c322e3331353800000000000000000000000000000000000000815250602001945050505050602060405180830381600087803b1580156200d1d657600080fd5b505af11580156200d1eb573d6000803e3d6000fd5b505050506040513d60208110156200d20257600080fd5b8101908080519060200190929190505050506000809054906101000a900473ffffffffffffffffffffffffffffffffffffffff1673ffffffffffffffffffffffffffffffffffffffff1663214d9b2b60076040518263ffffffff1660e01b815260040180806020018060200180602001858152602001848103845260088152602001807f434f5649442d3139000000000000000000000000000000000000000000000000815250602001848103835260068152602001807f42687574616e00000000000000000000000000000000000000000000000000008152506020018481038252600f8152602001807f32372e353134322c39302e343333360000000000000000000000000000000000815250602001945050505050602060405180830381600087803b1580156200d33557600080fd5b505af11580156200d34a573d6000803e3d6000fd5b505050506040513d60208110156200d36157600080fd5b8101908080519060200190929190505050506000809054906101000a900473ffffffffffffffffffffffffffffffffffffffff1673ffffffffffffffffffffffffffffffffffffffff1663214d9b2b6103b66040518263ffffffff1660e01b815260040180806020018060200180602001858152602001848103845260088152602001807f434f5649442d3139000000000000000000000000000000000000000000000000815250602001848103835260078152602001807f426f6c6976696100000000000000000000000000000000000000000000000000815250602001848103825260118152602001807f2d31362e323930322c2d36332e35383837000000000000000000000000000000815250602001945050505050602060405180830381600087803b1580156200d49557600080fd5b505af11580156200d4aa573d6000803e3d6000fd5b505050506040513d60208110156200d4c157600080fd5b8101908080519060200190929190505050506000809054906101000a900473ffffffffffffffffffffffffffffffffffffffff1673ffffffffffffffffffffffffffffffffffffffff1663214d9b2b6105ec6040518263ffffffff1660e01b815260040180806020018060200180602001858152602001848103845260088152602001807f434f5649442d3139000000000000000000000000000000000000000000000000815250602001848103835260168152602001807f426f736e696120616e64204865727a65676f76696e61000000000000000000008152506020018481038252600f8152602001807f34332e393135392c31372e363739310000000000000000000000000000000000815250602001945050505050602060405180830381600087803b1580156200d5f557600080fd5b505af11580156200d60a573d6000803e3d6000fd5b505050506040513d60208110156200d62157600080fd5b810190808051906020019092919050505050565b600073ffffffffffffffffffffffffffffffffffffffff16600160009054906101000a900473ffffffffffffffffffffffffffffffffffffffff1673ffffffffffffffffffffffffffffffffffffffff1614156200d6df576040517f08c379a0000000000000000000000000000000000000000000000000000000008152600401808060200182810382526033815260200180620172b16033913960400191505060405180910390fd5b6000809054906101000a900473ffffffffffffffffffffffffffffffffffffffff1673ffffffffffffffffffffffffffffffffffffffff1663214d9b2b6103316040518263ffffffff1660e01b815260040180806020018060200180602001858152602001848103845260088152602001807f434f5649442d3139000000000000000000000000000000000000000000000000815250602001848103835260068152602001807f43797072757300000000000000000000000000000000000000000000000000008152506020018481038252600f8152602001807f33352e313236342c33332e343239390000000000000000000000000000000000815250602001945050505050602060405180830381600087803b1580156200d80157600080fd5b505af11580156200d816573d6000803e3d6000fd5b505050506040513d60208110156200d82d57600080fd5b8101908080519060200190929190505050506000809054906101000a900473ffffffffffffffffffffffffffffffffffffffff1673ffffffffffffffffffffffffffffffffffffffff1663214d9b2b611cec6040518263ffffffff1660e01b815260040180806020018060200180602001858152602001848103845260088152602001807f434f5649442d3139000000000000000000000000000000000000000000000000815250602001848103835260078152602001807f437a6563686961000000000000000000000000000000000000000000000000008152506020018481038252600e8152602001807f34392e383137352c31352e343733000000000000000000000000000000000000815250602001945050505050602060405180830381600087803b1580156200d96157600080fd5b505af11580156200d976573d6000803e3d6000fd5b505050506040513d60208110156200d98d57600080fd5b8101908080519060200190929190505050506000809054906101000a900473ffffffffffffffffffffffffffffffffffffffff1673ffffffffffffffffffffffffffffffffffffffff1663214d9b2b60bb6040518263ffffffff1660e01b815260040180806020018060200180602001858152602001848103845260088152602001807f434f5649442d3139000000000000000000000000000000000000000000000000815250602001848103835260078152602001807f44656e6d61726b000000000000000000000000000000000000000000000000008152506020018481038252600f8152602001807f36312e383932362c2d362e393131380000000000000000000000000000000000815250602001945050505050602060405180830381600087803b1580156200dac057600080fd5b505af11580156200dad5573d6000803e3d6000fd5b505050506040513d60208110156200daec57600080fd5b8101908080519060200190929190505050506000809054906101000a900473ffffffffffffffffffffffffffffffffffffffff1673ffffffffffffffffffffffffffffffffffffffff1663214d9b2b600b6040518263ffffffff1660e01b815260040180806020018060200180602001858152602001848103845260088152602001807f434f5649442d3139000000000000000000000000000000000000000000000000815250602001848103835260078152602001807f44656e6d61726b00000000000000000000000000000000000000000000000000815250602001848103825260108152602001807f37312e373036392c2d34322e3630343300000000000000000000000000000000815250602001945050505050602060405180830381600087803b1580156200dc1f57600080fd5b505af11580156200dc34573d6000803e3d6000fd5b505050506040513d60208110156200dc4b57600080fd5b8101908080519060200190929190505050506000809054906101000a900473ffffffffffffffffffffffffffffffffffffffff1673ffffffffffffffffffffffffffffffffffffffff1663214d9b2b61217f6040518263ffffffff1660e01b815260040180806020018060200180602001858152602001848103845260088152602001807f434f5649442d3139000000000000000000000000000000000000000000000000815250602001848103835260078152602001807f44656e6d61726b000000000000000000000000000000000000000000000000008152506020018481038252600e8152602001807f35362e323633392c392e35303138000000000000000000000000000000000000815250602001945050505050602060405180830381600087803b1580156200dd7f57600080fd5b505af11580156200dd94573d6000803e3d6000fd5b505050506040513d60208110156200ddab57600080fd5b8101908080519060200190929190505050506000809054906101000a900473ffffffffffffffffffffffffffffffffffffffff1673ffffffffffffffffffffffffffffffffffffffff1663214d9b2b6103ff6040518263ffffffff1660e01b815260040180806020018060200180602001858152602001848103845260088152602001807f434f5649442d3139000000000000000000000000000000000000000000000000815250602001848103835260088152602001807f446a69626f7574690000000000000000000000000000000000000000000000008152506020018481038252600f8152602001807f31312e383235312c34322e353930330000000000000000000000000000000000815250602001945050505050602060405180830381600087803b1580156200dedf57600080fd5b505af11580156200def4573d6000803e3d6000fd5b505050506040513d60208110156200df0b57600080fd5b8101908080519060200190929190505050506000809054906101000a900473ffffffffffffffffffffffffffffffffffffffff1673ffffffffffffffffffffffffffffffffffffffff1663214d9b2b6117f76040518263ffffffff1660e01b815260040180806020018060200180602001858152602001848103845260088152602001807f434f5649442d3139000000000000000000000000000000000000000000000000815250602001848103835260128152602001807f446f6d696e6963616e2052657075626c69630000000000000000000000000000815250602001848103825260108152602001807f31382e373335372c2d37302e3136323700000000000000000000000000000000815250602001945050505050602060405180830381600087803b1580156200e03f57600080fd5b505af11580156200e054573d6000803e3d6000fd5b505050506040513d60208110156200e06b57600080fd5b8101908080519060200190929190505050506000809054906101000a900473ffffffffffffffffffffffffffffffffffffffff1673ffffffffffffffffffffffffffffffffffffffff1663214d9b2b6158bf6040518263ffffffff1660e01b815260040180806020018060200180602001858152602001848103845260088152602001807f434f5649442d3139000000000000000000000000000000000000000000000000815250602001848103835260078152602001807f45637561646f7200000000000000000000000000000000000000000000000000815250602001848103825260108152602001807f2d312e383331322c2d37382e3138333400000000000000000000000000000000815250602001945050505050602060405180830381600087803b1580156200e19f57600080fd5b505af11580156200e1b4573d6000803e3d6000fd5b505050506040513d60208110156200e1cb57600080fd5b8101908080519060200190929190505050506000809054906101000a900473ffffffffffffffffffffffffffffffffffffffff1673ffffffffffffffffffffffffffffffffffffffff1663214d9b2b6111b66040518263ffffffff1660e01b815260040180806020018060200180602001858152602001848103845260088152602001807f434f5649442d3139000000000000000000000000000000000000000000000000815250602001848103835260058152602001807f4567797074000000000000000000000000000000000000000000000000000000815250602001848103825260058152602001807f32362c3330000000000000000000000000000000000000000000000000000000815250602001945050505050602060405180830381600087803b1580156200e2ff57600080fd5b505af11580156200e314573d6000803e3d6000fd5b505050506040513d60208110156200e32b57600080fd5b8101908080519060200190929190505050506000809054906101000a900473ffffffffffffffffffffffffffffffffffffffff1673ffffffffffffffffffffffffffffffffffffffff1663214d9b2b61012a6040518263ffffffff1660e01b815260040180806020018060200180602001858152602001848103845260088152602001807f434f5649442d31390000000000000000000000000000000000000000000000008152506020018481038352600b8152602001807f456c2053616c7661646f72000000000000000000000000000000000000000000815250602001848103825260108152602001807f31332e373934322c2d38382e3839363500000000000000000000000000000000815250602001945050505050602060405180830381600087803b1580156200e45f57600080fd5b505af11580156200e474573d6000803e3d6000fd5b505050506040513d60208110156200e48b57600080fd5b8101908080519060200190929190505050506000809054906101000a900473ffffffffffffffffffffffffffffffffffffffff1673ffffffffffffffffffffffffffffffffffffffff1663214d9b2b6101026040518263ffffffff1660e01b815260040180806020018060200180602001858152602001848103845260088152602001807f434f5649442d3139000000000000000000000000000000000000000000000000815250602001848103835260118152602001807f45717561746f7269616c204775696e6561000000000000000000000000000000815250602001848103825260068152602001807f312e352c31300000000000000000000000000000000000000000000000000000815250602001945050505050602060405180830381600087803b1580156200e5bf57600080fd5b505af11580156200e5d4573d6000803e3d6000fd5b505050506040513d60208110156200e5eb57600080fd5b8101908080519060200190929190505050506000809054906101000a900473ffffffffffffffffffffffffffffffffffffffff1673ffffffffffffffffffffffffffffffffffffffff1663214d9b2b60276040518263ffffffff1660e01b815260040180806020018060200180602001858152602001848103845260088152602001807f434f5649442d3139000000000000000000000000000000000000000000000000815250602001848103835260078152602001807f45726974726561000000000000000000000000000000000000000000000000008152506020018481038252600f8152602001807f31352e313739342c33392e373832330000000000000000000000000000000000815250602001945050505050602060405180830381600087803b1580156200e71e57600080fd5b505af11580156200e733573d6000803e3d6000fd5b505050506040513d60208110156200e74a57600080fd5b8101908080519060200190929190505050506000809054906101000a900473ffffffffffffffffffffffffffffffffffffffff1673ffffffffffffffffffffffffffffffffffffffff1663214d9b2b61066b6040518263ffffffff1660e01b815260040180806020018060200180602001858152602001848103845260088152602001807f434f5649442d3139000000000000000000000000000000000000000000000000815250602001848103835260078152602001807f4573746f6e6961000000000000000000000000000000000000000000000000008152506020018481038252600f8152602001807f35382e353935332c32352e303133360000000000000000000000000000000000815250602001945050505050602060405180830381600087803b1580156200e87e57600080fd5b505af11580156200e893573d6000803e3d6000fd5b505050506040513d60208110156200e8aa57600080fd5b8101908080519060200190929190505050506000809054906101000a900473ffffffffffffffffffffffffffffffffffffffff1673ffffffffffffffffffffffffffffffffffffffff1663214d9b2b603b6040518263ffffffff1660e01b815260040180806020018060200180602001858152602001848103845260088152602001807f434f5649442d3139000000000000000000000000000000000000000000000000815250602001848103835260088152602001807f4573776174696e69000000000000000000000000000000000000000000000000815250602001848103825260108152602001807f2d32362e353232352c33312e3436353900000000000000000000000000000000815250602001945050505050602060405180830381600087803b1580156200e9dd57600080fd5b505af11580156200e9f2573d6000803e3d6000fd5b505050506040513d60208110156200ea0957600080fd5b8101908080519060200190929190505050506000809054906101000a900473ffffffffffffffffffffffffffffffffffffffff1673ffffffffffffffffffffffffffffffffffffffff1663214d9b2b607b6040518263ffffffff1660e01b815260040180806020018060200180602001858152602001848103845260088152602001807f434f5649442d3139000000000000000000000000000000000000000000000000815250602001848103835260088152602001807f457468696f7069610000000000000000000000000000000000000000000000008152506020018481038252600d8152602001807f392e3134352c34302e3438393700000000000000000000000000000000000000815250602001945050505050602060405180830381600087803b1580156200eb3c57600080fd5b505af11580156200eb51573d6000803e3d6000fd5b505050506040513d60208110156200eb6857600080fd5b8101908080519060200190929190505050506000809054906101000a900473ffffffffffffffffffffffffffffffffffffffff1673ffffffffffffffffffffffffffffffffffffffff1663214d9b2b60126040518263ffffffff1660e01b815260040180806020018060200180602001858152602001848103845260088152602001807f434f5649442d3139000000000000000000000000000000000000000000000000815250602001848103835260048152602001807f46696a6900000000000000000000000000000000000000000000000000000000815250602001848103825260108152602001807f2d31372e373133342c3137382e30363500000000000000000000000000000000815250602001945050505050602060405180830381600087803b1580156200ec9b57600080fd5b505af11580156200ecb0573d6000803e3d6000fd5b505050506040513d60208110156200ecc757600080fd5b8101908080519060200190929190505050506000809054906101000a900473ffffffffffffffffffffffffffffffffffffffff1673ffffffffffffffffffffffffffffffffffffffff1663214d9b2b6111e06040518263ffffffff1660e01b815260040180806020018060200180602001858152602001848103845260088152602001807f434f5649442d3139000000000000000000000000000000000000000000000000815250602001848103835260078152602001807f46696e6c616e6400000000000000000000000000000000000000000000000000815250602001848103825260058152602001807f36342c3236000000000000000000000000000000000000000000000000000000815250602001945050505050602060405180830381600087803b1580156200edfb57600080fd5b505af11580156200ee10573d6000803e3d6000fd5b505050506040513d60208110156200ee2757600080fd5b8101908080519060200190929190505050506000809054906101000a900473ffffffffffffffffffffffffffffffffffffffff1673ffffffffffffffffffffffffffffffffffffffff1663214d9b2b606f6040518263ffffffff1660e01b815260040180806020018060200180602001858152602001848103845260088152602001807f434f5649442d3139000000000000000000000000000000000000000000000000815250602001848103835260068152602001807f4672616e636500000000000000000000000000000000000000000000000000008152506020018481038252600f8152602001807f332e393333392c2d35332e313235380000000000000000000000000000000000815250602001945050505050602060405180830381600087803b1580156200ef5a57600080fd5b505af11580156200ef6f573d6000803e3d6000fd5b505050506040513d60208110156200ef8657600080fd5b8101908080519060200190929190505050506000809054906101000a900473ffffffffffffffffffffffffffffffffffffffff1673ffffffffffffffffffffffffffffffffffffffff1663214d9b2b60396040518263ffffffff1660e01b815260040180806020018060200180602001858152602001848103845260088152602001807f434f5649442d3139000000000000000000000000000000000000000000000000815250602001848103835260068152602001807f4672616e63650000000000000000000000000000000000000000000000000000815250602001848103825260118152602001807f2d31372e363739372c3134392e34303638000000000000000000000000000000815250602001945050505050602060405180830381600087803b1580156200f0b957600080fd5b505af11580156200f0ce573d6000803e3d6000fd5b505050506040513d60208110156200f0e557600080fd5b8101908080519060200190929190505050506000809054906101000a900473ffffffffffffffffffffffffffffffffffffffff1673ffffffffffffffffffffffffffffffffffffffff1663214d9b2b60956040518263ffffffff1660e01b815260040180806020018060200180602001858152602001848103845260088152602001807f434f5649442d3139000000000000000000000000000000000000000000000000815250602001848103835260068152602001807f4672616e636500000000000000000000000000000000000000000000000000008152506020018481038252600e8152602001807f31362e32352c2d36312e35383333000000000000000000000000000000000000815250602001945050505050602060405180830381600087803b1580156200f21857600080fd5b505af11580156200f22d573d6000803e3d6000fd5b505050506040513d60208110156200f24457600080fd5b8101908080519060200190929190505050506000809054906101000a900473ffffffffffffffffffffffffffffffffffffffff1673ffffffffffffffffffffffffffffffffffffffff1663214d9b2b6101916040518263ffffffff1660e01b815260040180806020018060200180602001858152602001848103845260088152602001807f434f5649442d3139000000000000000000000000000000000000000000000000815250602001848103835260068152602001807f4672616e63650000000000000000000000000000000000000000000000000000815250602001848103825260108152602001807f2d31322e383237352c34352e3136363200000000000000000000000000000000815250602001945050505050602060405180830381600087803b1580156200f37857600080fd5b505af11580156200f38d573d6000803e3d6000fd5b505050506040513d60208110156200f3a457600080fd5b8101908080519060200190929190505050506000809054906101000a900473ffffffffffffffffffffffffffffffffffffffff1673ffffffffffffffffffffffffffffffffffffffff1663214d9b2b60126040518263ffffffff1660e01b815260040180806020018060200180602001858152602001848103845260088152602001807f434f5649442d3139000000000000000000000000000000000000000000000000815250602001848103835260068152602001807f4672616e63650000000000000000000000000000000000000000000000000000815250602001848103825260108152602001807f2d32302e393034332c3136352e36313800000000000000000000000000000000815250602001945050505050602060405180830381600087803b1580156200f4d757600080fd5b505af11580156200f4ec573d6000803e3d6000fd5b505050506040513d60208110156200f50357600080fd5b8101908080519060200190929190505050506000809054906101000a900473ffffffffffffffffffffffffffffffffffffffff1673ffffffffffffffffffffffffffffffffffffffff1663214d9b2b6101a16040518263ffffffff1660e01b815260040180806020018060200180602001858152602001848103845260088152602001807f434f5649442d3139000000000000000000000000000000000000000000000000815250602001848103835260068152602001807f4672616e63650000000000000000000000000000000000000000000000000000815250602001848103825260108152602001807f2d32312e313335312c35352e3234373100000000000000000000000000000000815250602001945050505050602060405180830381600087803b1580156200f63757600080fd5b505af11580156200f64c573d6000803e3d6000fd5b505050506040513d60208110156200f66357600080fd5b8101908080519060200190929190505050506000809054906101000a900473ffffffffffffffffffffffffffffffffffffffff1673ffffffffffffffffffffffffffffffffffffffff1663214d9b2b60066040518263ffffffff1660e01b815260040180806020018060200180602001858152602001848103845260088152602001807f434f5649442d3139000000000000000000000000000000000000000000000000815250602001848103835260068152602001807f4672616e636500000000000000000000000000000000000000000000000000008152506020018481038252600d8152602001807f31372e392c2d36322e3833333300000000000000000000000000000000000000815250602001945050505050602060405180830381600087803b1580156200f79657600080fd5b505af11580156200f7ab573d6000803e3d6000fd5b505050506040513d60208110156200f7c257600080fd5b8101908080519060200190929190505050506000809054906101000a900473ffffffffffffffffffffffffffffffffffffffff1673ffffffffffffffffffffffffffffffffffffffff1663214d9b2b60266040518263ffffffff1660e01b815260040180806020018060200180602001858152602001848103845260088152602001807f434f5649442d3139000000000000000000000000000000000000000000000000815250602001848103835260068152602001807f4672616e63650000000000000000000000000000000000000000000000000000815250602001848103825260108152602001807f31382e303730382c2d36332e3035303100000000000000000000000000000000815250602001945050505050602060405180830381600087803b1580156200f8f557600080fd5b505af11580156200f90a573d6000803e3d6000fd5b505050506040513d60208110156200f92157600080fd5b8101908080519060200190929190505050506000809054906101000a900473ffffffffffffffffffffffffffffffffffffffff1673ffffffffffffffffffffffffffffffffffffffff1663214d9b2b60af6040518263ffffffff1660e01b815260040180806020018060200180602001858152602001848103845260088152602001807f434f5649442d3139000000000000000000000000000000000000000000000000815250602001848103835260068152602001807f4672616e63650000000000000000000000000000000000000000000000000000815250602001848103825260108152602001807f31342e363431352c2d36312e3032343200000000000000000000000000000000815250602001945050505050602060405180830381600087803b1580156200fa5457600080fd5b505af11580156200fa69573d6000803e3d6000fd5b505050506040513d60208110156200fa8057600080fd5b8101908080519060200190929190505050506000809054906101000a900473ffffffffffffffffffffffffffffffffffffffff1673ffffffffffffffffffffffffffffffffffffffff1663214d9b2b6202744f6040518263ffffffff1660e01b815260040180806020018060200180602001858152602001848103845260088152602001807f434f5649442d3139000000000000000000000000000000000000000000000000815250602001848103835260068152602001807f4672616e636500000000000000000000000000000000000000000000000000008152506020018481038252600e8152602001807f34362e323237362c322e32313337000000000000000000000000000000000000815250602001945050505050602060405180830381600087803b1580156200fbb557600080fd5b505af11580156200fbca573d6000803e3d6000fd5b505050506040513d60208110156200fbe157600080fd5b8101908080519060200190929190505050506000809054906101000a900473ffffffffffffffffffffffffffffffffffffffff1673ffffffffffffffffffffffffffffffffffffffff1663214d9b2b60b06040518263ffffffff1660e01b815260040180806020018060200180602001858152602001848103845260088152602001807f434f5649442d3139000000000000000000000000000000000000000000000000815250602001848103835260058152602001807f4761626f6e0000000000000000000000000000000000000000000000000000008152506020018481038252600f8152602001807f2d302e383033372c31312e363039340000000000000000000000000000000000815250602001945050505050602060405180830381600087803b1580156200fd1457600080fd5b505af11580156200fd29573d6000803e3d6000fd5b505050506040513d60208110156200fd4057600080fd5b8101908080519060200190929190505050506000809054906101000a900473ffffffffffffffffffffffffffffffffffffffff1673ffffffffffffffffffffffffffffffffffffffff1663214d9b2b600a6040518263ffffffff1660e01b815260040180806020018060200180602001858152602001848103845260088152602001807f434f5649442d3139000000000000000000000000000000000000000000000000815250602001848103835260068152602001807f47616d6269610000000000000000000000000000000000000000000000000000815250602001848103825260108152602001807f31332e343433322c2d31352e3331303100000000000000000000000000000000815250602001945050505050602060405180830381600087803b1580156200fe7357600080fd5b505af11580156200fe88573d6000803e3d6000fd5b505050506040513d60208110156200fe9f57600080fd5b8101908080519060200190929190505050506000809054906101000a900473ffffffffffffffffffffffffffffffffffffffff1673ffffffffffffffffffffffffffffffffffffffff1663214d9b2b6101e66040518263ffffffff1660e01b815260040180806020018060200180602001858152602001848103845260088152602001807f434f5649442d3139000000000000000000000000000000000000000000000000815250602001848103835260078152602001807f47656f72676961000000000000000000000000000000000000000000000000008152506020018481038252600f8152602001807f34322e333135342c34332e333536390000000000000000000000000000000000815250602001945050505050602060405180830381600087803b1580156200ffd357600080fd5b505af11580156200ffe8573d6000803e3d6000fd5b505050506040513d60208110156200ffff57600080fd5b8101908080519060200190929190505050506000809054906101000a900473ffffffffffffffffffffffffffffffffffffffff1673ffffffffffffffffffffffffffffffffffffffff1663214d9b2b6202684a6040518263ffffffff1660e01b815260040180806020018060200180602001858152602001848103845260088152602001807f434f5649442d3139000000000000000000000000000000000000000000000000815250602001848103835260078152602001807f4765726d616e7900000000000000000000000000000000000000000000000000815250602001848103825260048152602001807f35312c3900000000000000000000000000000000000000000000000000000000815250602001945050505050602060405180830381600087803b1580156201013457600080fd5b505af115801562010149573d6000803e3d6000fd5b505050506040513d60208110156201016057600080fd5b810190808051906020019092919050505050565b600073ffffffffffffffffffffffffffffffffffffffff16600160009054906101000a900473ffffffffffffffffffffffffffffffffffffffff1673ffffffffffffffffffffffffffffffffffffffff1614156201021e576040517f08c379a0000000000000000000000000000000000000000000000000000000008152600401808060200182810382526033815260200180620172b16033913960400191505060405180910390fd5b6000809054906101000a900473ffffffffffffffffffffffffffffffffffffffff1673ffffffffffffffffffffffffffffffffffffffff1663214d9b2b604f6040518263ffffffff1660e01b815260040180806020018060200180602001858152602001848103845260088152602001807f434f5649442d3139000000000000000000000000000000000000000000000000815250602001848103835260068152602001807f5567616e64610000000000000000000000000000000000000000000000000000815250602001848103825260048152602001807f312c333200000000000000000000000000000000000000000000000000000000815250602001945050505050602060405180830381600087803b1580156201033f57600080fd5b505af115801562010354573d6000803e3d6000fd5b505050506040513d60208110156201036b57600080fd5b8101908080519060200190929190505050506000809054906101000a900473ffffffffffffffffffffffffffffffffffffffff1673ffffffffffffffffffffffffffffffffffffffff1663214d9b2b6121a96040518263ffffffff1660e01b815260040180806020018060200180602001858152602001848103845260088152602001807f434f5649442d3139000000000000000000000000000000000000000000000000815250602001848103835260078152602001807f556b7261696e65000000000000000000000000000000000000000000000000008152506020018481038252600f8152602001807f34382e333739342c33312e313635360000000000000000000000000000000000815250602001945050505050602060405180830381600087803b1580156201049f57600080fd5b505af1158015620104b4573d6000803e3d6000fd5b505050506040513d6020811015620104cb57600080fd5b8101908080519060200190929190505050506000809054906101000a900473ffffffffffffffffffffffffffffffffffffffff1673ffffffffffffffffffffffffffffffffffffffff1663214d9b2b61286d6040518263ffffffff1660e01b815260040180806020018060200180602001858152602001848103845260088152602001807f434f5649442d3139000000000000000000000000000000000000000000000000815250602001848103835260148152602001807f556e69746564204172616220456d697261746573000000000000000000000000815250602001848103825260058152602001807f32342c3534000000000000000000000000000000000000000000000000000000815250602001945050505050602060405180830381600087803b158015620105ff57600080fd5b505af115801562010614573d6000803e3d6000fd5b505050506040513d60208110156201062b57600080fd5b8101908080519060200190929190505050506000809054906101000a900473ffffffffffffffffffffffffffffffffffffffff1673ffffffffffffffffffffffffffffffffffffffff1663214d9b2b606d6040518263ffffffff1660e01b815260040180806020018060200180602001858152602001848103845260088152602001807f434f5649442d31390000000000000000000000000000000000000000000000008152506020018481038352600e8152602001807f556e69746564204b696e67646f6d000000000000000000000000000000000000815250602001848103825260108152602001807f33322e333037382c2d36342e3735303500000000000000000000000000000000815250602001945050505050602060405180830381600087803b1580156201075e57600080fd5b505af115801562010773573d6000803e3d6000fd5b505050506040513d60208110156201078a57600080fd5b8101908080519060200190929190505050506000809054906101000a900473ffffffffffffffffffffffffffffffffffffffff1673ffffffffffffffffffffffffffffffffffffffff1663214d9b2b60466040518263ffffffff1660e01b815260040180806020018060200180602001858152602001848103845260088152602001807f434f5649442d31390000000000000000000000000000000000000000000000008152506020018481038352600e8152602001807f556e69746564204b696e67646f6d000000000000000000000000000000000000815250602001848103825260108152602001807f31392e333133332c2d38312e3235343600000000000000000000000000000000815250602001945050505050602060405180830381600087803b158015620108bd57600080fd5b505af1158015620108d2573d6000803e3d6000fd5b505050506040513d6020811015620108e957600080fd5b8101908080519060200190929190505050506000809054906101000a900473ffffffffffffffffffffffffffffffffffffffff1673ffffffffffffffffffffffffffffffffffffffff1663214d9b2b61020d6040518263ffffffff1660e01b815260040180806020018060200180602001858152602001848103845260088152602001807f434f5649442d31390000000000000000000000000000000000000000000000008152506020018481038352600e8152602001807f556e69746564204b696e67646f6d0000000000000000000000000000000000008152506020018481038252600f8152602001807f34392e333732332c2d322e333634340000000000000000000000000000000000815250602001945050505050602060405180830381600087803b15801562010a1d57600080fd5b505af115801562010a32573d6000803e3d6000fd5b505050506040513d602081101562010a4957600080fd5b8101908080519060200190929190505050506000809054906101000a900473ffffffffffffffffffffffffffffffffffffffff1673ffffffffffffffffffffffffffffffffffffffff1663214d9b2b608d6040518263ffffffff1660e01b815260040180806020018060200180602001858152602001848103845260088152602001807f434f5649442d31390000000000000000000000000000000000000000000000008152506020018481038352600e8152602001807f556e69746564204b696e67646f6d0000000000000000000000000000000000008152506020018481038252600f8152602001807f33362e313430382c2d352e333533360000000000000000000000000000000000815250602001945050505050602060405180830381600087803b15801562010b7c57600080fd5b505af115801562010b91573d6000803e3d6000fd5b505050506040513d602081101562010ba857600080fd5b8101908080519060200190929190505050506000809054906101000a900473ffffffffffffffffffffffffffffffffffffffff1673ffffffffffffffffffffffffffffffffffffffff1663214d9b2b6101346040518263ffffffff1660e01b815260040180806020018060200180602001858152602001848103845260088152602001807f434f5649442d31390000000000000000000000000000000000000000000000008152506020018481038352600e8152602001807f556e69746564204b696e67646f6d0000000000000000000000000000000000008152506020018481038252600f8152602001807f35342e323336312c2d342e353438310000000000000000000000000000000000815250602001945050505050602060405180830381600087803b15801562010cdc57600080fd5b505af115801562010cf1573d6000803e3d6000fd5b505050506040513d602081101562010d0857600080fd5b8101908080519060200190929190505050506000809054906101000a900473ffffffffffffffffffffffffffffffffffffffff1673ffffffffffffffffffffffffffffffffffffffff1663214d9b2b600b6040518263ffffffff1660e01b815260040180806020018060200180602001858152602001848103845260088152602001807f434f5649442d31390000000000000000000000000000000000000000000000008152506020018481038352600e8152602001807f556e69746564204b696e67646f6d000000000000000000000000000000000000815250602001848103825260108152602001807f31362e373432352c2d36322e3138373400000000000000000000000000000000815250602001945050505050602060405180830381600087803b15801562010e3b57600080fd5b505af115801562010e50573d6000803e3d6000fd5b505050506040513d602081101562010e6757600080fd5b8101908080519060200190929190505050506000809054906101000a900473ffffffffffffffffffffffffffffffffffffffff1673ffffffffffffffffffffffffffffffffffffffff1663214d9b2b620255086040518263ffffffff1660e01b815260040180806020018060200180602001858152602001848103845260088152602001807f434f5649442d31390000000000000000000000000000000000000000000000008152506020018481038352600e8152602001807f556e69746564204b696e67646f6d0000000000000000000000000000000000008152506020018481038252600e8152602001807f35352e333738312c2d332e343336000000000000000000000000000000000000815250602001945050505050602060405180830381600087803b15801562010f9c57600080fd5b505af115801562010fb1573d6000803e3d6000fd5b505050506040513d602081101562010fc857600080fd5b8101908080519060200190929190505050506000809054906101000a900473ffffffffffffffffffffffffffffffffffffffff1673ffffffffffffffffffffffffffffffffffffffff1663214d9b2b61025e6040518263ffffffff1660e01b815260040180806020018060200180602001858152602001848103845260088152602001807f434f5649442d3139000000000000000000000000000000000000000000000000815250602001848103835260078152602001807f5572756775617900000000000000000000000000000000000000000000000000815250602001848103825260118152602001807f2d33322e353232382c2d35352e37363538000000000000000000000000000000815250602001945050505050602060405180830381600087803b158015620110fc57600080fd5b505af115801562011111573d6000803e3d6000fd5b505050506040513d60208110156201112857600080fd5b8101908080519060200190929190505050506000809054906101000a900473ffffffffffffffffffffffffffffffffffffffff1673ffffffffffffffffffffffffffffffffffffffff1663214d9b2b620ebc996040518263ffffffff1660e01b815260040180806020018060200180602001858152602001848103845260088152602001807f434f5649442d3139000000000000000000000000000000000000000000000000815250602001848103835260028152602001807f5553000000000000000000000000000000000000000000000000000000000000815250602001848103825260108152602001807f33372e303930322c2d39352e3731323900000000000000000000000000000000815250602001945050505050602060405180830381600087803b1580156201125d57600080fd5b505af115801562011272573d6000803e3d6000fd5b505050506040513d60208110156201128957600080fd5b8101908080519060200190929190505050506000809054906101000a900473ffffffffffffffffffffffffffffffffffffffff1673ffffffffffffffffffffffffffffffffffffffff1663214d9b2b61074d6040518263ffffffff1660e01b815260040180806020018060200180602001858152602001848103845260088152602001807f434f5649442d31390000000000000000000000000000000000000000000000008152506020018481038352600a8152602001807f557a62656b697374616e000000000000000000000000000000000000000000008152506020018481038252600f8152602001807f34312e333737352c36342e353835330000000000000000000000000000000000815250602001945050505050602060405180830381600087803b158015620113bd57600080fd5b505af1158015620113d2573d6000803e3d6000fd5b505050506040513d6020811015620113e957600080fd5b8101908080519060200190929190505050506000809054906101000a900473ffffffffffffffffffffffffffffffffffffffff1673ffffffffffffffffffffffffffffffffffffffff1663214d9b2b6101456040518263ffffffff1660e01b815260040180806020018060200180602001858152602001848103845260088152602001807f434f5649442d3139000000000000000000000000000000000000000000000000815250602001848103835260098152602001807f56656e657a75656c6100000000000000000000000000000000000000000000008152506020018481038252600f8152602001807f362e343233382c2d36362e353839370000000000000000000000000000000000815250602001945050505050602060405180830381600087803b1580156201151d57600080fd5b505af115801562011532573d6000803e3d6000fd5b505050506040513d60208110156201154957600080fd5b8101908080519060200190929190505050506000809054906101000a900473ffffffffffffffffffffffffffffffffffffffff1673ffffffffffffffffffffffffffffffffffffffff1663214d9b2b61010e6040518263ffffffff1660e01b815260040180806020018060200180602001858152602001848103845260088152602001807f434f5649442d3139000000000000000000000000000000000000000000000000815250602001848103835260078152602001807f566965746e616d00000000000000000000000000000000000000000000000000815250602001848103825260068152602001807f31362c3130380000000000000000000000000000000000000000000000000000815250602001945050505050602060405180830381600087803b1580156201167d57600080fd5b505af115801562011692573d6000803e3d6000fd5b505050506040513d6020811015620116a957600080fd5b8101908080519060200190929190505050506000809054906101000a900473ffffffffffffffffffffffffffffffffffffffff1673ffffffffffffffffffffffffffffffffffffffff1663214d9b2b60586040518263ffffffff1660e01b815260040180806020018060200180602001858152602001848103845260088152602001807f434f5649442d3139000000000000000000000000000000000000000000000000815250602001848103835260068152602001807f5a616d6269610000000000000000000000000000000000000000000000000000815250602001848103825260108152602001807f2d31352e343136372c32382e3238333300000000000000000000000000000000815250602001945050505050602060405180830381600087803b158015620117dc57600080fd5b505af1158015620117f1573d6000803e3d6000fd5b505050506040513d60208110156201180857600080fd5b8101908080519060200190929190505050506000809054906101000a900473ffffffffffffffffffffffffffffffffffffffff1673ffffffffffffffffffffffffffffffffffffffff1663214d9b2b601f6040518263ffffffff1660e01b815260040180806020018060200180602001858152602001848103845260088152602001807f434f5649442d3139000000000000000000000000000000000000000000000000815250602001848103835260088152602001807f5a696d6261627765000000000000000000000000000000000000000000000000815250602001848103825260068152602001807f2d32302c33300000000000000000000000000000000000000000000000000000815250602001945050505050602060405180830381600087803b1580156201193b57600080fd5b505af115801562011950573d6000803e3d6000fd5b505050506040513d60208110156201196757600080fd5b8101908080519060200190929190505050506000809054906101000a900473ffffffffffffffffffffffffffffffffffffffff1673ffffffffffffffffffffffffffffffffffffffff1663214d9b2b60006040518263ffffffff1660e01b815260040180806020018060200180602001858152602001848103845260088152602001807f434f5649442d3139000000000000000000000000000000000000000000000000815250602001848103835260068152602001807f43616e6164610000000000000000000000000000000000000000000000000000815250602001848103825260038152602001807f302c300000000000000000000000000000000000000000000000000000000000815250602001945050505050602060405180830381600087803b15801562011a9a57600080fd5b505af115801562011aaf573d6000803e3d6000fd5b505050506040513d602081101562011ac657600080fd5b8101908080519060200190929190505050506000809054906101000a900473ffffffffffffffffffffffffffffffffffffffff1673ffffffffffffffffffffffffffffffffffffffff1663214d9b2b60106040518263ffffffff1660e01b815260040180806020018060200180602001858152602001848103845260088152602001807f434f5649442d3139000000000000000000000000000000000000000000000000815250602001848103835260088152602001807f446f6d696e6963610000000000000000000000000000000000000000000000008152506020018481038252600e8152602001807f31352e3431352c2d36312e333731000000000000000000000000000000000000815250602001945050505050602060405180830381600087803b15801562011bf957600080fd5b505af115801562011c0e573d6000803e3d6000fd5b505050506040513d602081101562011c2557600080fd5b8101908080519060200190929190505050506000809054906101000a900473ffffffffffffffffffffffffffffffffffffffff1673ffffffffffffffffffffffffffffffffffffffff1663214d9b2b60126040518263ffffffff1660e01b815260040180806020018060200180602001858152602001848103845260088152602001807f434f5649442d3139000000000000000000000000000000000000000000000000815250602001848103835260078152602001807f4772656e616461000000000000000000000000000000000000000000000000008152506020018481038252600f8152602001807f31322e313136352c2d36312e3637390000000000000000000000000000000000815250602001945050505050602060405180830381600087803b15801562011d5857600080fd5b505af115801562011d6d573d6000803e3d6000fd5b505050506040513d602081101562011d8457600080fd5b8101908080519060200190929190505050506000809054906101000a900473ffffffffffffffffffffffffffffffffffffffff1673ffffffffffffffffffffffffffffffffffffffff1663214d9b2b604c6040518263ffffffff1660e01b815260040180806020018060200180602001858152602001848103845260088152602001807f434f5649442d31390000000000000000000000000000000000000000000000008152506020018481038352600a8152602001807f4d6f7a616d626971756500000000000000000000000000000000000000000000815250602001848103825260148152602001807f2d31382e3636353639352c33352e353239353632000000000000000000000000815250602001945050505050602060405180830381600087803b15801562011eb757600080fd5b505af115801562011ecc573d6000803e3d6000fd5b505050506040513d602081101562011ee357600080fd5b8101908080519060200190929190505050506000809054906101000a900473ffffffffffffffffffffffffffffffffffffffff1673ffffffffffffffffffffffffffffffffffffffff1663214d9b2b602b6040518263ffffffff1660e01b815260040180806020018060200180602001858152602001848103845260088152602001807f434f5649442d3139000000000000000000000000000000000000000000000000815250602001848103835260058152602001807f5379726961000000000000000000000000000000000000000000000000000000815250602001848103825260138152602001807f33342e3830323037352c33382e39393638313500000000000000000000000000815250602001945050505050602060405180830381600087803b1580156201201657600080fd5b505af11580156201202b573d6000803e3d6000fd5b505050506040513d60208110156201204257600080fd5b8101908080519060200190929190505050506000809054906101000a900473ffffffffffffffffffffffffffffffffffffffff1673ffffffffffffffffffffffffffffffffffffffff1663214d9b2b60186040518263ffffffff1660e01b815260040180806020018060200180602001858152602001848103845260088152602001807f434f5649442d31390000000000000000000000000000000000000000000000008152506020018481038352600b8152602001807f54696d6f722d4c65737465000000000000000000000000000000000000000000815250602001848103825260148152602001807f2d382e3837343231372c3132352e373237353339000000000000000000000000815250602001945050505050602060405180830381600087803b1580156201217557600080fd5b505af11580156201218a573d6000803e3d6000fd5b505050506040513d6020811015620121a157600080fd5b8101908080519060200190929190505050506000809054906101000a900473ffffffffffffffffffffffffffffffffffffffff1673ffffffffffffffffffffffffffffffffffffffff1663214d9b2b60126040518263ffffffff1660e01b815260040180806020018060200180602001858152602001848103845260088152602001807f434f5649442d3139000000000000000000000000000000000000000000000000815250602001848103835260068152602001807f42656c697a650000000000000000000000000000000000000000000000000000815250602001848103825260108152602001807f31332e313933392c2d35392e3534333200000000000000000000000000000000815250602001945050505050602060405180830381600087803b158015620122d457600080fd5b505af1158015620122e9573d6000803e3d6000fd5b505050506040513d60208110156201230057600080fd5b8101908080519060200190929190505050506000809054906101000a900473ffffffffffffffffffffffffffffffffffffffff1673ffffffffffffffffffffffffffffffffffffffff1663214d9b2b60006040518263ffffffff1660e01b815260040180806020018060200180602001858152602001848103845260088152602001807f434f5649442d3139000000000000000000000000000000000000000000000000815250602001848103835260068152602001807f43616e6164610000000000000000000000000000000000000000000000000000815250602001848103825260038152602001807f302c300000000000000000000000000000000000000000000000000000000000815250602001945050505050602060405180830381600087803b1580156201243357600080fd5b505af115801562012448573d6000803e3d6000fd5b505050506040513d60208110156201245f57600080fd5b8101908080519060200190929190505050506000809054906101000a900473ffffffffffffffffffffffffffffffffffffffff1673ffffffffffffffffffffffffffffffffffffffff1663214d9b2b60136040518263ffffffff1660e01b815260040180806020018060200180602001858152602001848103845260088152602001807f434f5649442d3139000000000000000000000000000000000000000000000000815250602001848103835260048152602001807f4c616f7300000000000000000000000000000000000000000000000000000000815250602001848103825260138152602001807f31392e38353632372c3130322e34393534393600000000000000000000000000815250602001945050505050602060405180830381600087803b1580156201259257600080fd5b505af1158015620125a7573d6000803e3d6000fd5b505050506040513d6020811015620125be57600080fd5b8101908080519060200190929190505050506000809054906101000a900473ffffffffffffffffffffffffffffffffffffffff1673ffffffffffffffffffffffffffffffffffffffff1663214d9b2b603d6040518263ffffffff1660e01b815260040180806020018060200180602001858152602001848103845260088152602001807f434f5649442d3139000000000000000000000000000000000000000000000000815250602001848103835260058152602001807f4c69627961000000000000000000000000000000000000000000000000000000815250602001848103825260118152602001807f32362e333335312c31372e323238333331000000000000000000000000000000815250602001945050505050602060405180830381600087803b158015620126f157600080fd5b505af115801562012706573d6000803e3d6000fd5b505050506040513d60208110156201271d57600080fd5b8101908080519060200190929190505050506000809054906101000a900473ffffffffffffffffffffffffffffffffffffffff1673ffffffffffffffffffffffffffffffffffffffff1663214d9b2b6101566040518263ffffffff1660e01b815260040180806020018060200180602001858152602001848103845260088152602001807f434f5649442d3139000000000000000000000000000000000000000000000000815250602001848103835260128152602001807f576573742042616e6b20616e642047617a6100000000000000000000000000008152506020018481038252600f8152602001807f33312e393532322c33352e323333320000000000000000000000000000000000815250602001945050505050602060405180830381600087803b1580156201285157600080fd5b505af115801562012866573d6000803e3d6000fd5b505050506040513d60208110156201287d57600080fd5b8101908080519060200190929190505050506000809054906101000a900473ffffffffffffffffffffffffffffffffffffffff1673ffffffffffffffffffffffffffffffffffffffff1663214d9b2b60356040518263ffffffff1660e01b815260040180806020018060200180602001858152602001848103845260088152602001807f434f5649442d31390000000000000000000000000000000000000000000000008152506020018481038352600d8152602001807f4775696e65612d42697373617500000000000000000000000000000000000000815250602001848103825260108152602001807f31312e383033372c2d31352e3138303400000000000000000000000000000000815250602001945050505050602060405180830381600087803b158015620129b057600080fd5b505af1158015620129c5573d6000803e3d6000fd5b505050506040513d6020811015620129dc57600080fd5b8101908080519060200190929190505050506000809054906101000a900473ffffffffffffffffffffffffffffffffffffffff1673ffffffffffffffffffffffffffffffffffffffff1663214d9b2b6101856040518263ffffffff1660e01b815260040180806020018060200180602001858152602001848103845260088152602001807f434f5649442d3139000000000000000000000000000000000000000000000000815250602001848103835260048152602001807f4d616c6900000000000000000000000000000000000000000000000000000000815250602001848103825260138152602001807f31372e3537303639322c2d332e39393631363600000000000000000000000000815250602001945050505050602060405180830381600087803b15801562012b1057600080fd5b505af115801562012b25573d6000803e3d6000fd5b505050506040513d602081101562012b3c57600080fd5b8101908080519060200190929190505050506000809054906101000a900473ffffffffffffffffffffffffffffffffffffffff1673ffffffffffffffffffffffffffffffffffffffff1663214d9b2b600f6040518263ffffffff1660e01b815260040180806020018060200180602001858152602001848103845260088152602001807f434f5649442d3139000000000000000000000000000000000000000000000000815250602001848103835260158152602001807f5361696e74204b6974747320616e64204e657669730000000000000000000000815250602001848103825260148152602001807f31372e3335373832322c2d36322e373832393938000000000000000000000000815250602001945050505050602060405180830381600087803b15801562012c6f57600080fd5b505af115801562012c84573d6000803e3d6000fd5b505050506040513d602081101562012c9b57600080fd5b810190808051906020019092919050505050565b600073ffffffffffffffffffffffffffffffffffffffff16600160009054906101000a900473ffffffffffffffffffffffffffffffffffffffff1673ffffffffffffffffffffffffffffffffffffffff16141562012d59576040517f08c379a0000000000000000000000000000000000000000000000000000000008152600401808060200182810382526033815260200180620172b16033913960400191505060405180910390fd5b6000809054906101000a900473ffffffffffffffffffffffffffffffffffffffff1673ffffffffffffffffffffffffffffffffffffffff1663214d9b2b612d616040518263ffffffff1660e01b815260040180806020018060200180602001858152602001848103845260088152602001807f434f5649442d3139000000000000000000000000000000000000000000000000815250602001848103835260068152602001807f506f6c616e6400000000000000000000000000000000000000000000000000008152506020018481038252600f8152602001807f35312e393139342c31392e313435310000000000000000000000000000000000815250602001945050505050602060405180830381600087803b15801562012e7b57600080fd5b505af115801562012e90573d6000803e3d6000fd5b505050506040513d602081101562012ea757600080fd5b8101908080519060200190929190505050506000809054906101000a900473ffffffffffffffffffffffffffffffffffffffff1673ffffffffffffffffffffffffffffffffffffffff1663214d9b2b615d386040518263ffffffff1660e01b815260040180806020018060200180602001858152602001848103845260088152602001807f434f5649442d3139000000000000000000000000000000000000000000000000815250602001848103835260088152602001807f506f72747567616c0000000000000000000000000000000000000000000000008152506020018481038252600f8152602001807f33392e333939392c2d382e323234350000000000000000000000000000000000815250602001945050505050602060405180830381600087803b15801562012fdb57600080fd5b505af115801562012ff0573d6000803e3d6000fd5b505050506040513d60208110156201300757600080fd5b8101908080519060200190929190505050506000809054906101000a900473ffffffffffffffffffffffffffffffffffffffff1673ffffffffffffffffffffffffffffffffffffffff1663214d9b2b61282f6040518263ffffffff1660e01b815260040180806020018060200180602001858152602001848103845260088152602001807f434f5649442d3139000000000000000000000000000000000000000000000000815250602001848103835260058152602001807f51617461720000000000000000000000000000000000000000000000000000008152506020018481038252600f8152602001807f32352e333534382c35312e313833390000000000000000000000000000000000815250602001945050505050602060405180830381600087803b1580156201313b57600080fd5b505af115801562013150573d6000803e3d6000fd5b505050506040513d60208110156201316757600080fd5b8101908080519060200190929190505050506000809054906101000a900473ffffffffffffffffffffffffffffffffffffffff1673ffffffffffffffffffffffffffffffffffffffff1663214d9b2b612b1c6040518263ffffffff1660e01b815260040180806020018060200180602001858152602001848103845260088152602001807f434f5649442d3139000000000000000000000000000000000000000000000000815250602001848103835260078152602001807f526f6d616e6961000000000000000000000000000000000000000000000000008152506020018481038252600f8152602001807f34352e393433322c32342e393636380000000000000000000000000000000000815250602001945050505050602060405180830381600087803b1580156201329b57600080fd5b505af1158015620132b0573d6000803e3d6000fd5b505050506040513d6020811015620132c757600080fd5b8101908080519060200190929190505050506000809054906101000a900473ffffffffffffffffffffffffffffffffffffffff1673ffffffffffffffffffffffffffffffffffffffff1663214d9b2b62013c356040518263ffffffff1660e01b815260040180806020018060200180602001858152602001848103845260088152602001807f434f5649442d3139000000000000000000000000000000000000000000000000815250602001848103835260068152602001807f5275737369610000000000000000000000000000000000000000000000000000815250602001848103825260058152602001807f36302c3930000000000000000000000000000000000000000000000000000000815250602001945050505050602060405180830381600087803b158015620133fc57600080fd5b505af115801562013411573d6000803e3d6000fd5b505050506040513d60208110156201342857600080fd5b8101908080519060200190929190505050506000809054906101000a900473ffffffffffffffffffffffffffffffffffffffff1673ffffffffffffffffffffffffffffffffffffffff1663214d9b2b60bf6040518263ffffffff1660e01b815260040180806020018060200180602001858152602001848103845260088152602001807f434f5649442d3139000000000000000000000000000000000000000000000000815250602001848103835260068152602001807f5277616e646100000000000000000000000000000000000000000000000000008152506020018481038252600f8152602001807f2d312e393430332c32392e383733390000000000000000000000000000000000815250602001945050505050602060405180830381600087803b1580156201355b57600080fd5b505af115801562013570573d6000803e3d6000fd5b505050506040513d60208110156201358757600080fd5b8101908080519060200190929190505050506000809054906101000a900473ffffffffffffffffffffffffffffffffffffffff1673ffffffffffffffffffffffffffffffffffffffff1663214d9b2b600f6040518263ffffffff1660e01b815260040180806020018060200180602001858152602001848103845260088152602001807f434f5649442d31390000000000000000000000000000000000000000000000008152506020018481038352600b8152602001807f5361696e74204c75636961000000000000000000000000000000000000000000815250602001848103825260108152602001807f31332e393039342c2d36302e3937383900000000000000000000000000000000815250602001945050505050602060405180830381600087803b158015620136ba57600080fd5b505af1158015620136cf573d6000803e3d6000fd5b505050506040513d6020811015620136e657600080fd5b8101908080519060200190929190505050506000809054906101000a900473ffffffffffffffffffffffffffffffffffffffff1673ffffffffffffffffffffffffffffffffffffffff1663214d9b2b600e6040518263ffffffff1660e01b815260040180806020018060200180602001858152602001848103845260088152602001807f434f5649442d3139000000000000000000000000000000000000000000000000815250602001848103835260208152602001807f5361696e742056696e63656e7420616e6420746865204772656e6164696e6573815250602001848103825260108152602001807f31322e393834332c2d36312e3238373200000000000000000000000000000000815250602001945050505050602060405180830381600087803b1580156201381957600080fd5b505af11580156201382e573d6000803e3d6000fd5b505050506040513d60208110156201384557600080fd5b8101908080519060200190929190505050506000809054906101000a900473ffffffffffffffffffffffffffffffffffffffff1673ffffffffffffffffffffffffffffffffffffffff1663214d9b2b61021a6040518263ffffffff1660e01b815260040180806020018060200180602001858152602001848103845260088152602001807f434f5649442d31390000000000000000000000000000000000000000000000008152506020018481038352600a8152602001807f53616e204d6172696e6f000000000000000000000000000000000000000000008152506020018481038252600f8152602001807f34332e393432342c31322e343537380000000000000000000000000000000000815250602001945050505050602060405180830381600087803b1580156201397957600080fd5b505af11580156201398e573d6000803e3d6000fd5b505050506040513d6020811015620139a557600080fd5b8101908080519060200190929190505050506000809054906101000a900473ffffffffffffffffffffffffffffffffffffffff1673ffffffffffffffffffffffffffffffffffffffff1663214d9b2b6144726040518263ffffffff1660e01b815260040180806020018060200180602001858152602001848103845260088152602001807f434f5649442d31390000000000000000000000000000000000000000000000008152506020018481038352600c8152602001807f5361756469204172616269610000000000000000000000000000000000000000815250602001848103825260058152602001807f32342c3435000000000000000000000000000000000000000000000000000000815250602001945050505050602060405180830381600087803b15801562013ad957600080fd5b505af115801562013aee573d6000803e3d6000fd5b505050506040513d602081101562013b0557600080fd5b8101908080519060200190929190505050506000809054906101000a900473ffffffffffffffffffffffffffffffffffffffff1673ffffffffffffffffffffffffffffffffffffffff1663214d9b2b61029f6040518263ffffffff1660e01b815260040180806020018060200180602001858152602001848103845260088152602001807f434f5649442d3139000000000000000000000000000000000000000000000000815250602001848103835260078152602001807f53656e6567616c00000000000000000000000000000000000000000000000000815250602001848103825260108152602001807f31342e343937342c2d31342e3435323400000000000000000000000000000000815250602001945050505050602060405180830381600087803b15801562013c3957600080fd5b505af115801562013c4e573d6000803e3d6000fd5b505050506040513d602081101562013c6557600080fd5b8101908080519060200190929190505050506000809054906101000a900473ffffffffffffffffffffffffffffffffffffffff1673ffffffffffffffffffffffffffffffffffffffff1663214d9b2b6119e66040518263ffffffff1660e01b815260040180806020018060200180602001858152602001848103845260088152602001807f434f5649442d3139000000000000000000000000000000000000000000000000815250602001848103835260068152602001807f53657262696100000000000000000000000000000000000000000000000000008152506020018481038252600f8152602001807f34342e303136352c32312e303035390000000000000000000000000000000000815250602001945050505050602060405180830381600087803b15801562013d9957600080fd5b505af115801562013dae573d6000803e3d6000fd5b505050506040513d602081101562013dc557600080fd5b8101908080519060200190929190505050506000809054906101000a900473ffffffffffffffffffffffffffffffffffffffff1673ffffffffffffffffffffffffffffffffffffffff1663214d9b2b600b6040518263ffffffff1660e01b815260040180806020018060200180602001858152602001848103845260088152602001807f434f5649442d31390000000000000000000000000000000000000000000000008152506020018481038352600a8152602001807f5365796368656c6c6573000000000000000000000000000000000000000000008152506020018481038252600e8152602001807f2d342e363739362c35352e343932000000000000000000000000000000000000815250602001945050505050602060405180830381600087803b15801562013ef857600080fd5b505af115801562013f0d573d6000803e3d6000fd5b505050506040513d602081101562013f2457600080fd5b8101908080519060200190929190505050506000809054906101000a900473ffffffffffffffffffffffffffffffffffffffff1673ffffffffffffffffffffffffffffffffffffffff1663214d9b2b6135386040518263ffffffff1660e01b815260040180806020018060200180602001858152602001848103845260088152602001807f434f5649442d3139000000000000000000000000000000000000000000000000815250602001848103835260098152602001807f53696e6761706f726500000000000000000000000000000000000000000000008152506020018481038252600f8152602001807f312e323833332c3130332e383333330000000000000000000000000000000000815250602001945050505050602060405180830381600087803b1580156201405857600080fd5b505af11580156201406d573d6000803e3d6000fd5b505050506040513d60208110156201408457600080fd5b8101908080519060200190929190505050506000809054906101000a900473ffffffffffffffffffffffffffffffffffffffff1673ffffffffffffffffffffffffffffffffffffffff1663214d9b2b6105636040518263ffffffff1660e01b815260040180806020018060200180602001858152602001848103845260088152602001807f434f5649442d3139000000000000000000000000000000000000000000000000815250602001848103835260088152602001807f536c6f76616b69610000000000000000000000000000000000000000000000008152506020018481038252600d8152602001807f34382e3636392c31392e36393900000000000000000000000000000000000000815250602001945050505050602060405180830381600087803b158015620141b857600080fd5b505af1158015620141cd573d6000803e3d6000fd5b505050506040513d6020811015620141e457600080fd5b8101908080519060200190929190505050506000809054906101000a900473ffffffffffffffffffffffffffffffffffffffff1673ffffffffffffffffffffffffffffffffffffffff1663214d9b2b6105746040518263ffffffff1660e01b815260040180806020018060200180602001858152602001848103845260088152602001807f434f5649442d3139000000000000000000000000000000000000000000000000815250602001848103835260088152602001807f536c6f76656e69610000000000000000000000000000000000000000000000008152506020018481038252600f8152602001807f34362e313531322c31342e393935350000000000000000000000000000000000815250602001945050505050602060405180830381600087803b1580156201431857600080fd5b505af11580156201432d573d6000803e3d6000fd5b505050506040513d60208110156201434457600080fd5b8101908080519060200190929190505050506000809054906101000a900473ffffffffffffffffffffffffffffffffffffffff1673ffffffffffffffffffffffffffffffffffffffff1663214d9b2b6101b46040518263ffffffff1660e01b815260040180806020018060200180602001858152602001848103845260088152602001807f434f5649442d3139000000000000000000000000000000000000000000000000815250602001848103835260078152602001807f536f6d616c6961000000000000000000000000000000000000000000000000008152506020018481038252600e8152602001807f352e313532312c34362e31393936000000000000000000000000000000000000815250602001945050505050602060405180830381600087803b1580156201447857600080fd5b505af11580156201448d573d6000803e3d6000fd5b505050506040513d6020811015620144a457600080fd5b8101908080519060200190929190505050506000809054906101000a900473ffffffffffffffffffffffffffffffffffffffff1673ffffffffffffffffffffffffffffffffffffffff1663214d9b2b6111c26040518263ffffffff1660e01b815260040180806020018060200180602001858152602001848103845260088152602001807f434f5649442d31390000000000000000000000000000000000000000000000008152506020018481038352600c8152602001807f536f757468204166726963610000000000000000000000000000000000000000815250602001848103825260108152602001807f2d33302e353539352c32322e3933373500000000000000000000000000000000815250602001945050505050602060405180830381600087803b158015620145d857600080fd5b505af1158015620145ed573d6000803e3d6000fd5b505050506040513d60208110156201460457600080fd5b8101908080519060200190929190505050506000809054906101000a900473ffffffffffffffffffffffffffffffffffffffff1673ffffffffffffffffffffffffffffffffffffffff1663214d9b2b620375456040518263ffffffff1660e01b815260040180806020018060200180602001858152602001848103845260088152602001807f434f5649442d3139000000000000000000000000000000000000000000000000815250602001848103835260058152602001807f537061696e000000000000000000000000000000000000000000000000000000815250602001848103825260058152602001807f34302c2d34000000000000000000000000000000000000000000000000000000815250602001945050505050602060405180830381600087803b1580156201473957600080fd5b505af11580156201474e573d6000803e3d6000fd5b505050506040513d60208110156201476557600080fd5b8101908080519060200190929190505050506000809054906101000a900473ffffffffffffffffffffffffffffffffffffffff1673ffffffffffffffffffffffffffffffffffffffff1663214d9b2b61020b6040518263ffffffff1660e01b815260040180806020018060200180602001858152602001848103845260088152602001807f434f5649442d3139000000000000000000000000000000000000000000000000815250602001848103835260098152602001807f537269204c616e6b610000000000000000000000000000000000000000000000815250602001848103825260048152602001807f372c383100000000000000000000000000000000000000000000000000000000815250602001945050505050602060405180830381600087803b1580156201489957600080fd5b505af1158015620148ae573d6000803e3d6000fd5b505050506040513d6020811015620148c557600080fd5b8101908080519060200190929190505050506000809054906101000a900473ffffffffffffffffffffffffffffffffffffffff1673ffffffffffffffffffffffffffffffffffffffff1663214d9b2b60ed6040518263ffffffff1660e01b815260040180806020018060200180602001858152602001848103845260088152602001807f434f5649442d3139000000000000000000000000000000000000000000000000815250602001848103835260058152602001807f537564616e0000000000000000000000000000000000000000000000000000008152506020018481038252600f8152602001807f31322e383632382c33302e323137360000000000000000000000000000000000815250602001945050505050602060405180830381600087803b158015620149f857600080fd5b505af115801562014a0d573d6000803e3d6000fd5b505050506040513d602081101562014a2457600080fd5b8101908080519060200190929190505050506000809054906101000a900473ffffffffffffffffffffffffffffffffffffffff1673ffffffffffffffffffffffffffffffffffffffff1663214d9b2b600a6040518263ffffffff1660e01b815260040180806020018060200180602001858152602001848103845260088152602001807f434f5649442d3139000000000000000000000000000000000000000000000000815250602001848103835260088152602001807f537572696e616d650000000000000000000000000000000000000000000000008152506020018481038252600f8152602001807f332e393139332c2d35362e303237380000000000000000000000000000000000815250602001945050505050602060405180830381600087803b15801562014b5757600080fd5b505af115801562014b6c573d6000803e3d6000fd5b505050506040513d602081101562014b8357600080fd5b8101908080519060200190929190505050506000809054906101000a900473ffffffffffffffffffffffffffffffffffffffff1673ffffffffffffffffffffffffffffffffffffffff1663214d9b2b6148d06040518263ffffffff1660e01b815260040180806020018060200180602001858152602001848103845260088152602001807f434f5649442d3139000000000000000000000000000000000000000000000000815250602001848103835260068152602001807f53776564656e0000000000000000000000000000000000000000000000000000815250602001848103825260058152602001807f36332c3136000000000000000000000000000000000000000000000000000000815250602001945050505050602060405180830381600087803b15801562014cb757600080fd5b505af115801562014ccc573d6000803e3d6000fd5b505050506040513d602081101562014ce357600080fd5b8101908080519060200190929190505050506000809054906101000a900473ffffffffffffffffffffffffffffffffffffffff1673ffffffffffffffffffffffffffffffffffffffff1663214d9b2b6171856040518263ffffffff1660e01b815260040180806020018060200180602001858152602001848103845260088152602001807f434f5649442d31390000000000000000000000000000000000000000000000008152506020018481038352600b8152602001807f537769747a65726c616e640000000000000000000000000000000000000000008152506020018481038252600e8152602001807f34362e383138322c382e32323735000000000000000000000000000000000000815250602001945050505050602060405180830381600087803b15801562014e1757600080fd5b505af115801562014e2c573d6000803e3d6000fd5b505050506040513d602081101562014e4357600080fd5b8101908080519060200190929190505050506000809054906101000a900473ffffffffffffffffffffffffffffffffffffffff1673ffffffffffffffffffffffffffffffffffffffff1663214d9b2b6101ad6040518263ffffffff1660e01b815260040180806020018060200180602001858152602001848103845260088152602001807f434f5649442d3139000000000000000000000000000000000000000000000000815250602001848103835260078152602001807f54616977616e2a00000000000000000000000000000000000000000000000000815250602001848103825260088152602001807f32332e372c313231000000000000000000000000000000000000000000000000815250602001945050505050602060405180830381600087803b15801562014f7757600080fd5b505af115801562014f8c573d6000803e3d6000fd5b505050506040513d602081101562014fa357600080fd5b8101908080519060200190929190505050506000809054906101000a900473ffffffffffffffffffffffffffffffffffffffff1673ffffffffffffffffffffffffffffffffffffffff1663214d9b2b61012b6040518263ffffffff1660e01b815260040180806020018060200180602001858152602001848103845260088152602001807f434f5649442d3139000000000000000000000000000000000000000000000000815250602001848103835260088152602001807f54616e7a616e69610000000000000000000000000000000000000000000000008152506020018481038252600e8152602001807f2d362e3336392c33342e38383838000000000000000000000000000000000000815250602001945050505050602060405180830381600087803b158015620150d757600080fd5b505af1158015620150ec573d6000803e3d6000fd5b505050506040513d60208110156201510357600080fd5b8101908080519060200190929190505050506000809054906101000a900473ffffffffffffffffffffffffffffffffffffffff1673ffffffffffffffffffffffffffffffffffffffff1663214d9b2b610b6a6040518263ffffffff1660e01b815260040180806020018060200180602001858152602001848103845260088152602001807f434f5649442d3139000000000000000000000000000000000000000000000000815250602001848103835260088152602001807f546861696c616e64000000000000000000000000000000000000000000000000815250602001848103825260068152602001807f31352c3130310000000000000000000000000000000000000000000000000000815250602001945050505050602060405180830381600087803b1580156201523757600080fd5b505af11580156201524c573d6000803e3d6000fd5b505050506040513d60208110156201526357600080fd5b8101908080519060200190929190505050506000809054906101000a900473ffffffffffffffffffffffffffffffffffffffff1673ffffffffffffffffffffffffffffffffffffffff1663214d9b2b60626040518263ffffffff1660e01b815260040180806020018060200180602001858152602001848103845260088152602001807f434f5649442d3139000000000000000000000000000000000000000000000000815250602001848103835260048152602001807f546f676f000000000000000000000000000000000000000000000000000000008152506020018481038252600d8152602001807f382e363139352c302e3832343800000000000000000000000000000000000000815250602001945050505050602060405180830381600087803b1580156201539657600080fd5b505af1158015620153ab573d6000803e3d6000fd5b505050506040513d6020811015620153c257600080fd5b8101908080519060200190929190505050506000809054906101000a900473ffffffffffffffffffffffffffffffffffffffff1673ffffffffffffffffffffffffffffffffffffffff1663214d9b2b60736040518263ffffffff1660e01b815260040180806020018060200180602001858152602001848103845260088152602001807f434f5649442d3139000000000000000000000000000000000000000000000000815250602001848103835260138152602001807f5472696e6964616420616e6420546f6261676f00000000000000000000000000815250602001848103825260108152602001807f31302e363931382c2d36312e3232323500000000000000000000000000000000815250602001945050505050602060405180830381600087803b158015620154f557600080fd5b505af11580156201550a573d6000803e3d6000fd5b505050506040513d60208110156201552157600080fd5b8101908080519060200190929190505050506000809054906101000a900473ffffffffffffffffffffffffffffffffffffffff1673ffffffffffffffffffffffffffffffffffffffff1663214d9b2b6103b56040518263ffffffff1660e01b815260040180806020018060200180602001858152602001848103845260088152602001807f434f5649442d3139000000000000000000000000000000000000000000000000815250602001848103835260078152602001807f54756e6973696100000000000000000000000000000000000000000000000000815250602001848103825260048152602001807f33342c3900000000000000000000000000000000000000000000000000000000815250602001945050505050602060405180830381600087803b1580156201565557600080fd5b505af11580156201566a573d6000803e3d6000fd5b505050506040513d60208110156201568157600080fd5b8101908080519060200190929190505050506000809054906101000a900473ffffffffffffffffffffffffffffffffffffffff1673ffffffffffffffffffffffffffffffffffffffff1663214d9b2b6201ae326040518263ffffffff1660e01b815260040180806020018060200180602001858152602001848103845260088152602001807f434f5649442d3139000000000000000000000000000000000000000000000000815250602001848103835260068152602001807f5475726b657900000000000000000000000000000000000000000000000000008152506020018481038252600f8152602001807f33382e393633372c33352e323433330000000000000000000000000000000000815250602001945050505050602060405180830381600087803b158015620157b657600080fd5b505af1158015620157cb573d6000803e3d6000fd5b505050506040513d6020811015620157e257600080fd5b810190808051906020019092919050505050565b600073ffffffffffffffffffffffffffffffffffffffff16600160009054906101000a900473ffffffffffffffffffffffffffffffffffffffff1673ffffffffffffffffffffffffffffffffffffffff161415620158a0576040517f08c379a0000000000000000000000000000000000000000000000000000000008152600401808060200182810382526033815260200180620172b16033913960400191505060405180910390fd5b6000809054906101000a900473ffffffffffffffffffffffffffffffffffffffff1673ffffffffffffffffffffffffffffffffffffffff1663214d9b2b60056040518263ffffffff1660e01b815260040180806020018060200180602001858152602001848103845260088152602001807f434f5649442d3139000000000000000000000000000000000000000000000000815250602001848103835260068152602001807f43616e6164610000000000000000000000000000000000000000000000000000815250602001848103825260118152602001807f36342e383235352c2d3132342e38343537000000000000000000000000000000815250602001945050505050602060405180830381600087803b158015620159c157600080fd5b505af1158015620159d6573d6000803e3d6000fd5b505050506040513d6020811015620159ed57600080fd5b8101908080519060200190929190505050506000809054906101000a900473ffffffffffffffffffffffffffffffffffffffff1673ffffffffffffffffffffffffffffffffffffffff1663214d9b2b600b6040518263ffffffff1660e01b815260040180806020018060200180602001858152602001848103845260088152602001807f434f5649442d3139000000000000000000000000000000000000000000000000815250602001848103835260068152602001807f43616e61646100000000000000000000000000000000000000000000000000008152506020018481038252600c8152602001807f36342e323832332c2d3133350000000000000000000000000000000000000000815250602001945050505050602060405180830381600087803b15801562015b2057600080fd5b505af115801562015b35573d6000803e3d6000fd5b505050506040513d602081101562015b4c57600080fd5b8101908080519060200190929190505050506000809054906101000a900473ffffffffffffffffffffffffffffffffffffffff1673ffffffffffffffffffffffffffffffffffffffff1663214d9b2b6101fe6040518263ffffffff1660e01b815260040180806020018060200180602001858152602001848103845260088152602001807f434f5649442d3139000000000000000000000000000000000000000000000000815250602001848103835260068152602001807f4b6f736f766f0000000000000000000000000000000000000000000000000000815250602001848103825260138152602001807f34322e3630323633362c32302e39303239373700000000000000000000000000815250602001945050505050602060405180830381600087803b15801562015c8057600080fd5b505af115801562015c95573d6000803e3d6000fd5b505050506040513d602081101562015cac57600080fd5b8101908080519060200190929190505050506000809054906101000a900473ffffffffffffffffffffffffffffffffffffffff1673ffffffffffffffffffffffffffffffffffffffff1663214d9b2b60926040518263ffffffff1660e01b815260040180806020018060200180602001858152602001848103845260088152602001807f434f5649442d3139000000000000000000000000000000000000000000000000815250602001848103835260058152602001807f4275726d610000000000000000000000000000000000000000000000000000008152506020018481038252600e8152602001807f32312e393136322c39352e393536000000000000000000000000000000000000815250602001945050505050602060405180830381600087803b15801562015ddf57600080fd5b505af115801562015df4573d6000803e3d6000fd5b505050506040513d602081101562015e0b57600080fd5b8101908080519060200190929190505050506000809054906101000a900473ffffffffffffffffffffffffffffffffffffffff1673ffffffffffffffffffffffffffffffffffffffff1663214d9b2b60036040518263ffffffff1660e01b815260040180806020018060200180602001858152602001848103845260088152602001807f434f5649442d31390000000000000000000000000000000000000000000000008152506020018481038352600e8152602001807f556e69746564204b696e67646f6d000000000000000000000000000000000000815250602001848103825260108152602001807f31382e323230362c2d36332e3036383600000000000000000000000000000000815250602001945050505050602060405180830381600087803b15801562015f3e57600080fd5b505af115801562015f53573d6000803e3d6000fd5b505050506040513d602081101562015f6a57600080fd5b8101908080519060200190929190505050506000809054906101000a900473ffffffffffffffffffffffffffffffffffffffff1673ffffffffffffffffffffffffffffffffffffffff1663214d9b2b60066040518263ffffffff1660e01b815260040180806020018060200180602001858152602001848103845260088152602001807f434f5649442d31390000000000000000000000000000000000000000000000008152506020018481038352600e8152602001807f556e69746564204b696e67646f6d0000000000000000000000000000000000008152506020018481038252600e8152602001807f31382e343230372c2d36342e3634000000000000000000000000000000000000815250602001945050505050602060405180830381600087803b1580156201609d57600080fd5b505af1158015620160b2573d6000803e3d6000fd5b505050506040513d6020811015620160c957600080fd5b8101908080519060200190929190505050506000809054906101000a900473ffffffffffffffffffffffffffffffffffffffff1673ffffffffffffffffffffffffffffffffffffffff1663214d9b2b600b6040518263ffffffff1660e01b815260040180806020018060200180602001858152602001848103845260088152602001807f434f5649442d31390000000000000000000000000000000000000000000000008152506020018481038352600e8152602001807f556e69746564204b696e67646f6d0000000000000000000000000000000000008152506020018481038252600f8152602001807f32312e3639342c2d37312e373937390000000000000000000000000000000000815250602001945050505050602060405180830381600087803b158015620161fc57600080fd5b505af115801562016211573d6000803e3d6000fd5b505050506040513d60208110156201622857600080fd5b8101908080519060200190929190505050506000809054906101000a900473ffffffffffffffffffffffffffffffffffffffff1673ffffffffffffffffffffffffffffffffffffffff1663214d9b2b60096040518263ffffffff1660e01b815260040180806020018060200180602001858152602001848103845260088152602001807f434f5649442d31390000000000000000000000000000000000000000000000008152506020018481038352600a8152602001807f4d53205a61616e64616d00000000000000000000000000000000000000000000815250602001848103825260038152602001807f302c300000000000000000000000000000000000000000000000000000000000815250602001945050505050602060405180830381600087803b1580156201635b57600080fd5b505af115801562016370573d6000803e3d6000fd5b505050506040513d60208110156201638757600080fd5b8101908080519060200190929190505050506000809054906101000a900473ffffffffffffffffffffffffffffffffffffffff1673ffffffffffffffffffffffffffffffffffffffff1663214d9b2b60166040518263ffffffff1660e01b815260040180806020018060200180602001858152602001848103845260088152602001807f434f5649442d3139000000000000000000000000000000000000000000000000815250602001848103835260088152602001807f426f747377616e61000000000000000000000000000000000000000000000000815250602001848103825260108152602001807f2d32322e333238352c32342e3638343900000000000000000000000000000000815250602001945050505050602060405180830381600087803b158015620164ba57600080fd5b505af1158015620164cf573d6000803e3d6000fd5b505050506040513d6020811015620164e657600080fd5b8101908080519060200190929190505050506000809054906101000a900473ffffffffffffffffffffffffffffffffffffffff1673ffffffffffffffffffffffffffffffffffffffff1663214d9b2b600b6040518263ffffffff1660e01b815260040180806020018060200180602001858152602001848103845260088152602001807f434f5649442d3139000000000000000000000000000000000000000000000000815250602001848103835260078152602001807f427572756e6469000000000000000000000000000000000000000000000000008152506020018481038252600f8152602001807f2d332e333733312c32392e393138390000000000000000000000000000000000815250602001945050505050602060405180830381600087803b1580156201661957600080fd5b505af11580156201662e573d6000803e3d6000fd5b505050506040513d60208110156201664557600080fd5b8101908080519060200190929190505050506000809054906101000a900473ffffffffffffffffffffffffffffffffffffffff1673ffffffffffffffffffffffffffffffffffffffff1663214d9b2b605d6040518263ffffffff1660e01b815260040180806020018060200180602001858152602001848103845260088152602001807f434f5649442d31390000000000000000000000000000000000000000000000008152506020018481038352600c8152602001807f536965727261204c656f6e650000000000000000000000000000000000000000815250602001848103825260138152602001807f382e3436303535352c2d31312e37373938383900000000000000000000000000815250602001945050505050602060405180830381600087803b1580156201677857600080fd5b505af11580156201678d573d6000803e3d6000fd5b505050506040513d6020811015620167a457600080fd5b8101908080519060200190929190505050506000809054906101000a900473ffffffffffffffffffffffffffffffffffffffff1673ffffffffffffffffffffffffffffffffffffffff1663214d9b2b60056040518263ffffffff1660e01b815260040180806020018060200180602001858152602001848103845260088152602001807f434f5649442d31390000000000000000000000000000000000000000000000008152506020018481038352600b8152602001807f4e65746865726c616e6473000000000000000000000000000000000000000000815250602001848103825260108152602001807f31322e313738342c2d36382e3233383500000000000000000000000000000000815250602001945050505050602060405180830381600087803b158015620168d757600080fd5b505af1158015620168ec573d6000803e3d6000fd5b505050506040513d60208110156201690357600080fd5b8101908080519060200190929190505050506000809054906101000a900473ffffffffffffffffffffffffffffffffffffffff1673ffffffffffffffffffffffffffffffffffffffff1663214d9b2b60226040518263ffffffff1660e01b815260040180806020018060200180602001858152602001848103845260088152602001807f434f5649442d3139000000000000000000000000000000000000000000000000815250602001848103835260068152602001807f4d616c6177690000000000000000000000000000000000000000000000000000815250602001848103825260148152602001807f2d31332e3235343330382c33342e333031353235000000000000000000000000815250602001945050505050602060405180830381600087803b15801562016a3657600080fd5b505af115801562016a4b573d6000803e3d6000fd5b505050506040513d602081101562016a6257600080fd5b8101908080519060200190929190505050506000809054906101000a900473ffffffffffffffffffffffffffffffffffffffff1673ffffffffffffffffffffffffffffffffffffffff1663214d9b2b600d6040518263ffffffff1660e01b815260040180806020018060200180602001858152602001848103845260088152602001807f434f5649442d31390000000000000000000000000000000000000000000000008152506020018481038352600e8152602001807f556e69746564204b696e67646f6d000000000000000000000000000000000000815250602001848103825260118152602001807f2d35312e373936332c2d35392e35323336000000000000000000000000000000815250602001945050505050602060405180830381600087803b15801562016b9557600080fd5b505af115801562016baa573d6000803e3d6000fd5b505050506040513d602081101562016bc157600080fd5b8101908080519060200190929190505050506000809054906101000a900473ffffffffffffffffffffffffffffffffffffffff1673ffffffffffffffffffffffffffffffffffffffff1663214d9b2b60016040518263ffffffff1660e01b815260040180806020018060200180602001858152602001848103845260088152602001807f434f5649442d3139000000000000000000000000000000000000000000000000815250602001848103835260068152602001807f4672616e63650000000000000000000000000000000000000000000000000000815250602001848103825260108152602001807f34362e383835322c2d35362e3331353900000000000000000000000000000000815250602001945050505050602060405180830381600087803b15801562016cf457600080fd5b505af115801562016d09573d6000803e3d6000fd5b505050506040513d602081101562016d2057600080fd5b8101908080519060200190929190505050506000809054906101000a900473ffffffffffffffffffffffffffffffffffffffff1673ffffffffffffffffffffffffffffffffffffffff1663214d9b2b60066040518263ffffffff1660e01b815260040180806020018060200180602001858152602001848103845260088152602001807f434f5649442d31390000000000000000000000000000000000000000000000008152506020018481038352600b8152602001807f536f75746820537564616e0000000000000000000000000000000000000000008152506020018481038252600c8152602001807f362e3837372c33312e3330370000000000000000000000000000000000000000815250602001945050505050602060405180830381600087803b15801562016e5357600080fd5b505af115801562016e68573d6000803e3d6000fd5b505050506040513d602081101562016e7f57600080fd5b8101908080519060200190929190505050506000809054906101000a900473ffffffffffffffffffffffffffffffffffffffff1673ffffffffffffffffffffffffffffffffffffffff1663214d9b2b60066040518263ffffffff1660e01b815260040180806020018060200180602001858152602001848103845260088152602001807f434f5649442d31390000000000000000000000000000000000000000000000008152506020018481038352600e8152602001807f5765737465726e20536168617261000000000000000000000000000000000000815250602001848103825260108152602001807f32342e323135352c2d31322e3838353800000000000000000000000000000000815250602001945050505050602060405180830381600087803b15801562016fb257600080fd5b505af115801562016fc7573d6000803e3d6000fd5b505050506040513d602081101562016fde57600080fd5b8101908080519060200190929190505050506000809054906101000a900473ffffffffffffffffffffffffffffffffffffffff1673ffffffffffffffffffffffffffffffffffffffff1663214d9b2b60046040518263ffffffff1660e01b815260040180806020018060200180602001858152602001848103845260088152602001807f434f5649442d3139000000000000000000000000000000000000000000000000815250602001848103835260158152602001807f53616f20546f6d6520616e64205072696e636970650000000000000000000000815250602001848103825260108152602001807f302e31383633362c362e36313330383100000000000000000000000000000000815250602001945050505050602060405180830381600087803b1580156201711157600080fd5b505af115801562017126573d6000803e3d6000fd5b505050506040513d60208110156201713d57600080fd5b8101908080519060200190929190505050506000809054906101000a900473ffffffffffffffffffffffffffffffffffffffff1673ffffffffffffffffffffffffffffffffffffffff1663214d9b2b60016040518263ffffffff1660e01b815260040180806020018060200180602001858152602001848103845260088152602001807f434f5649442d3139000000000000000000000000000000000000000000000000815250602001848103835260058152602001807f59656d656e000000000000000000000000000000000000000000000000000000815250602001848103825260138152602001807f31352e3535323732372c34382e35313633383800000000000000000000000000815250602001945050505050602060405180830381600087803b1580156201727057600080fd5b505af115801562017285573d6000803e3d6000fd5b505050506040513d60208110156201729c57600080fd5b81019080805190602001909291905050505056fe596f75206861766520746f20736574207468652073746f7261676520636f6e747261637420616464726573732066697273742ea265627a7a72315820eba89c3f01ccef7af2994689f10b03f9a7661c04bb084a3757dd3a284492423464736f6c63430005100032",
  "source": "pragma solidity >=0.5.0 <0.6.0;\n\nimport \"../Storage.sol\";\n\n/*\n    Note: this entire contract is embarassing\n    All of this nonsense is an attempt to get around the various limitations of the underlying technology.\n    Contract length limitations, gas cost per transaction limitations\n    \n    IMPORTANT:\n        1) You must update storageContractAddress by calling _setStorageContract if necessary\n        2) You will need to copy/paste functions f1-f9 individually such that you are deploying only one of these functions at a time\n        Otherwise you will exceed contract length and transaction limitations.\n        3) The contract at 0x7AF30bdddBD23EFbe533d27e89c4b8c6eC5D149B has historical data through 4/28.\n        PLEASE DO NOT ADD TO IT UNLESS ADDING NEW DAYS. Otherwise we will need to deploy 9 versions of this contract to rebuild the dataset on chain.\n    \n    Data Source: Johns Hopkins School of Public Health\n    https://data.humdata.org/dataset/novel-coronavirus-2019-ncov-cases\n*/\n\ncontract massEntry {\n\n    Storage storageContract;\n    address storageContractAddress; // You probably want to initialize this here rather than calling _setStorageContract for every deployment...\n\n    /*constructor() public{\n        storageContract = Storage(storageContractAddress);\n    }*/\n\n    constructor (address storageAddr) public {\n        _setStorageContract(storageAddr);\n    }\n\n    function _setStorageContract(address _newStorageContractAddress) public {\n        storageContractAddress = _newStorageContractAddress;\n        storageContract = Storage(storageContractAddress);\n    }\n\n    function f1() public {\n        require(storageContractAddress != address(0), \"You have to set the storage contract address first.\");\n\n        storageContract.addHistoricalRecord(\"COVID-19\",\"Afghanistan\",\"33,65\",1531);\n        storageContract.addHistoricalRecord(\"COVID-19\",\"Albania\",\"41.1533,20.1683\",726);\n        storageContract.addHistoricalRecord(\"COVID-19\",\"Algeria\",\"28.0339,1.6596\",3382);\n        storageContract.addHistoricalRecord(\"COVID-19\",\"Andorra\",\"42.5063,1.5218\",738);\n        storageContract.addHistoricalRecord(\"COVID-19\",\"Angola\",\"-11.2027,17.8739\",26);\n        storageContract.addHistoricalRecord(\"COVID-19\",\"Antigua and Barbuda\",\"17.0608,-61.7964\",24);\n        storageContract.addHistoricalRecord(\"COVID-19\",\"Argentina\",\"-38.4161,-63.6167\",3892);\n        storageContract.addHistoricalRecord(\"COVID-19\",\"Armenia\",\"40.0691,45.0382\",1746);\n        storageContract.addHistoricalRecord(\"COVID-19\",\"Australia\",\"-35.4735,149.0124\",106);\n        storageContract.addHistoricalRecord(\"COVID-19\",\"Australia\",\"-33.8688,151.2093\",3002);\n        storageContract.addHistoricalRecord(\"COVID-19\",\"Australia\",\"-12.4634,130.8456\",28);\n        storageContract.addHistoricalRecord(\"COVID-19\",\"Australia\",\"-28.0167,153.4\",1030);\n        storageContract.addHistoricalRecord(\"COVID-19\",\"Australia\",\"-34.9285,138.6007\",438);\n        storageContract.addHistoricalRecord(\"COVID-19\",\"Australia\",\"-41.4545,145.9707\",212);\n        storageContract.addHistoricalRecord(\"COVID-19\",\"Australia\",\"-37.8136,144.9631\",1349);\n        storageContract.addHistoricalRecord(\"COVID-19\",\"Australia\",\"-31.9505,115.8605\",549);\n        storageContract.addHistoricalRecord(\"COVID-19\",\"Austria\",\"47.5162,14.5501\",15225);\n        storageContract.addHistoricalRecord(\"COVID-19\",\"Azerbaijan\",\"40.1431,47.5769\",1645);\n        storageContract.addHistoricalRecord(\"COVID-19\",\"Bahamas\",\"25.0343,-77.3963\",80);\n        storageContract.addHistoricalRecord(\"COVID-19\",\"Bahrain\",\"26.0275,50.55\",2647);\n        storageContract.addHistoricalRecord(\"COVID-19\",\"Bangladesh\",\"23.685,90.3563\",5416);\n        storageContract.addHistoricalRecord(\"COVID-19\",\"Barbados\",\"13.1939,-59.5432\",79);\n        storageContract.addHistoricalRecord(\"COVID-19\",\"Belarus\",\"53.7098,27.9534\",10463);\n        storageContract.addHistoricalRecord(\"COVID-19\",\"Belgium\",\"50.8333,4\",46134);\n        storageContract.addHistoricalRecord(\"COVID-19\",\"Benin\",\"9.3077,2.3158\",64);\n        storageContract.addHistoricalRecord(\"COVID-19\",\"Bhutan\",\"27.5142,90.4336\",7);\n        storageContract.addHistoricalRecord(\"COVID-19\",\"Bolivia\",\"-16.2902,-63.5887\",950);\n        storageContract.addHistoricalRecord(\"COVID-19\",\"Bosnia and Herzegovina\",\"43.9159,17.6791\",1516);\n    }\n\n    function f2() public {\n        require(storageContractAddress != address(0), \"You have to set the storage contract address first.\");\n\n        storageContract.addHistoricalRecord(\"COVID-19\",\"Brazil\",\"-14.235,-51.9253\",63100);\n        storageContract.addHistoricalRecord(\"COVID-19\",\"Brunei\",\"4.5353,114.7277\",138);\n        storageContract.addHistoricalRecord(\"COVID-19\",\"Bulgaria\",\"42.7339,25.4858\",1300);\n        storageContract.addHistoricalRecord(\"COVID-19\",\"Burkina Faso\",\"12.2383,-1.5616\",632);\n        storageContract.addHistoricalRecord(\"COVID-19\",\"Cabo Verde\",\"16.5388,-23.0418\",106);\n        storageContract.addHistoricalRecord(\"COVID-19\",\"Cambodia\",\"11.55,104.9167\",122);\n        storageContract.addHistoricalRecord(\"COVID-19\",\"Cameroon\",\"3.848,11.5021\",1621);\n        storageContract.addHistoricalRecord(\"COVID-19\",\"Canada\",\"53.9333,-116.5765\",4480);\n        storageContract.addHistoricalRecord(\"COVID-19\",\"Canada\",\"49.2827,-123.1207\",1948);\n        storageContract.addHistoricalRecord(\"COVID-19\",\"Canada\",\"37.6489,-122.6655\",13);\n        storageContract.addHistoricalRecord(\"COVID-19\",\"Canada\",\"53.7609,-98.8139\",271);\n        storageContract.addHistoricalRecord(\"COVID-19\",\"Canada\",\"46.5653,-66.4619\",118);\n        storageContract.addHistoricalRecord(\"COVID-19\",\"Canada\",\"53.1355,-57.6604\",258);\n        storageContract.addHistoricalRecord(\"COVID-19\",\"Canada\",\"44.682,-63.7443\",873);\n        storageContract.addHistoricalRecord(\"COVID-19\",\"Canada\",\"51.2538,-85.3232\",15568);\n        storageContract.addHistoricalRecord(\"COVID-19\",\"Canada\",\"46.5107,-63.4168\",26);\n        storageContract.addHistoricalRecord(\"COVID-19\",\"Canada\",\"52.9399,-73.5491\",24109);\n        storageContract.addHistoricalRecord(\"COVID-19\",\"Canada\",\"52.9399,-106.4509\",353);\n        storageContract.addHistoricalRecord(\"COVID-19\",\"Central African Republic\",\"6.6111,20.9394\",19);\n        storageContract.addHistoricalRecord(\"COVID-19\",\"Chad\",\"15.4542,18.7322\",46);\n        storageContract.addHistoricalRecord(\"COVID-19\",\"Chile\",\"-35.6751,-71.543\",13331);\n        storageContract.addHistoricalRecord(\"COVID-19\",\"China\",\"31.8257,117.2264\",991);\n        storageContract.addHistoricalRecord(\"COVID-19\",\"China\",\"40.1824,116.4142\",593);\n        storageContract.addHistoricalRecord(\"COVID-19\",\"China\",\"30.0572,107.874\",579);\n        storageContract.addHistoricalRecord(\"COVID-19\",\"China\",\"26.0789,117.9874\",355);\n        storageContract.addHistoricalRecord(\"COVID-19\",\"China\",\"37.8099,101.0583\",139);\n        storageContract.addHistoricalRecord(\"COVID-19\",\"China\",\"23.3417,113.4244\",1587);\n        storageContract.addHistoricalRecord(\"COVID-19\",\"China\",\"23.8298,108.7881\",254);\n        storageContract.addHistoricalRecord(\"COVID-19\",\"China\",\"26.8154,106.8748\",147);\n        storageContract.addHistoricalRecord(\"COVID-19\",\"China\",\"19.1959,109.7453\",168);\n        storageContract.addHistoricalRecord(\"COVID-19\",\"China\",\"39.549,116.1306\",328);\n    }\n\n    function f3() public {\n        require(storageContractAddress != address(0), \"You have to set the storage contract address first.\");\n\n        storageContract.addHistoricalRecord(\"COVID-19\",\"China\",\"47.862,127.7615\",936);\n        storageContract.addHistoricalRecord(\"COVID-19\",\"China\",\"33.882,113.614\",1276);\n        storageContract.addHistoricalRecord(\"COVID-19\",\"China\",\"22.3,114.2\",1037);\n        storageContract.addHistoricalRecord(\"COVID-19\",\"China\",\"30.9756,112.2707\",68128);\n        storageContract.addHistoricalRecord(\"COVID-19\",\"China\",\"27.6104,111.7088\",1019);\n        storageContract.addHistoricalRecord(\"COVID-19\",\"China\",\"44.0935,113.9448\",198);\n        storageContract.addHistoricalRecord(\"COVID-19\",\"China\",\"32.9711,119.455\",653);\n        storageContract.addHistoricalRecord(\"COVID-19\",\"China\",\"27.614,115.7221\",937);\n        storageContract.addHistoricalRecord(\"COVID-19\",\"China\",\"43.6661,126.1923\",110);\n        storageContract.addHistoricalRecord(\"COVID-19\",\"China\",\"41.2956,122.6085\",146);\n        storageContract.addHistoricalRecord(\"COVID-19\",\"China\",\"22.1667,113.55\",45);\n        storageContract.addHistoricalRecord(\"COVID-19\",\"China\",\"37.2692,106.1655\",75);\n        storageContract.addHistoricalRecord(\"COVID-19\",\"China\",\"35.7452,95.9956\",18);\n        storageContract.addHistoricalRecord(\"COVID-19\",\"China\",\"35.1917,108.8701\",286);\n        storageContract.addHistoricalRecord(\"COVID-19\",\"China\",\"36.3427,118.1498\",787);\n        storageContract.addHistoricalRecord(\"COVID-19\",\"China\",\"31.202,121.4491\",642);\n        storageContract.addHistoricalRecord(\"COVID-19\",\"China\",\"37.5777,112.2922\",197);\n        storageContract.addHistoricalRecord(\"COVID-19\",\"China\",\"30.6171,102.7103\",561);\n        storageContract.addHistoricalRecord(\"COVID-19\",\"China\",\"39.3054,117.323\",190);\n        storageContract.addHistoricalRecord(\"COVID-19\",\"China\",\"31.6927,88.0924\",1);\n        storageContract.addHistoricalRecord(\"COVID-19\",\"China\",\"41.1129,85.2401\",76);\n        storageContract.addHistoricalRecord(\"COVID-19\",\"China\",\"24.974,101.487\",185);\n        storageContract.addHistoricalRecord(\"COVID-19\",\"China\",\"29.1832,120.0934\",1268);\n        storageContract.addHistoricalRecord(\"COVID-19\",\"Colombia\",\"4.5709,-74.2973\",5379);\n        storageContract.addHistoricalRecord(\"COVID-19\",\"Congo (Brazzaville)\",\"-4.0383,21.7587\",200);\n        storageContract.addHistoricalRecord(\"COVID-19\",\"Congo (Kinshasa)\",\"-4.0383,21.7587\",442);\n        storageContract.addHistoricalRecord(\"COVID-19\",\"Costa Rica\",\"9.7489,-83.7534\",695);\n        storageContract.addHistoricalRecord(\"COVID-19\",\"Cote d'Ivoire\",\"7.54,-5.5471\",1150);\n        storageContract.addHistoricalRecord(\"COVID-19\",\"Croatia\",\"45.1,15.2\",2030);\n        storageContract.addHistoricalRecord(\"COVID-19\",\"Diamond Princess\",\"0,0\",712);\n        storageContract.addHistoricalRecord(\"COVID-19\",\"Cuba\",\"22,-80\",1369);\n    }\n\n    function f4() public {\n        require(storageContractAddress != address(0), \"You have to set the storage contract address first.\");\n\n        storageContract.addHistoricalRecord(\"COVID-19\",\"Cyprus\",\"35.1264,33.4299\",817);\n        storageContract.addHistoricalRecord(\"COVID-19\",\"Czechia\",\"49.8175,15.473\",7404);\n        storageContract.addHistoricalRecord(\"COVID-19\",\"Denmark\",\"61.8926,-6.9118\",187);\n        storageContract.addHistoricalRecord(\"COVID-19\",\"Denmark\",\"71.7069,-42.6043\",11);\n        storageContract.addHistoricalRecord(\"COVID-19\",\"Denmark\",\"56.2639,9.5018\",8575);\n        storageContract.addHistoricalRecord(\"COVID-19\",\"Djibouti\",\"11.8251,42.5903\",1023);\n        storageContract.addHistoricalRecord(\"COVID-19\",\"Dominican Republic\",\"18.7357,-70.1627\",6135);\n        storageContract.addHistoricalRecord(\"COVID-19\",\"Ecuador\",\"-1.8312,-78.1834\",22719);\n        storageContract.addHistoricalRecord(\"COVID-19\",\"Egypt\",\"26,30\",4534);\n        storageContract.addHistoricalRecord(\"COVID-19\",\"El Salvador\",\"13.7942,-88.8965\",298);\n        storageContract.addHistoricalRecord(\"COVID-19\",\"Equatorial Guinea\",\"1.5,10\",258);\n        storageContract.addHistoricalRecord(\"COVID-19\",\"Eritrea\",\"15.1794,39.7823\",39);\n        storageContract.addHistoricalRecord(\"COVID-19\",\"Estonia\",\"58.5953,25.0136\",1643);\n        storageContract.addHistoricalRecord(\"COVID-19\",\"Eswatini\",\"-26.5225,31.4659\",59);\n        storageContract.addHistoricalRecord(\"COVID-19\",\"Ethiopia\",\"9.145,40.4897\",123);\n        storageContract.addHistoricalRecord(\"COVID-19\",\"Fiji\",\"-17.7134,178.065\",18);\n        storageContract.addHistoricalRecord(\"COVID-19\",\"Finland\",\"64,26\",4576);\n        storageContract.addHistoricalRecord(\"COVID-19\",\"France\",\"3.9339,-53.1258\",111);\n        storageContract.addHistoricalRecord(\"COVID-19\",\"France\",\"-17.6797,149.4068\",57);\n        storageContract.addHistoricalRecord(\"COVID-19\",\"France\",\"16.25,-61.5833\",149);\n        storageContract.addHistoricalRecord(\"COVID-19\",\"France\",\"-12.8275,45.1662\",401);\n        storageContract.addHistoricalRecord(\"COVID-19\",\"France\",\"-20.9043,165.618\",18);\n        storageContract.addHistoricalRecord(\"COVID-19\",\"France\",\"-21.1351,55.2471\",417);\n        storageContract.addHistoricalRecord(\"COVID-19\",\"France\",\"17.9,-62.8333\",6);\n        storageContract.addHistoricalRecord(\"COVID-19\",\"France\",\"18.0708,-63.0501\",38);\n        storageContract.addHistoricalRecord(\"COVID-19\",\"France\",\"14.6415,-61.0242\",175);\n        storageContract.addHistoricalRecord(\"COVID-19\",\"France\",\"46.2276,2.2137\",160847);\n        storageContract.addHistoricalRecord(\"COVID-19\",\"Gabon\",\"-0.8037,11.6094\",176);\n        storageContract.addHistoricalRecord(\"COVID-19\",\"Gambia\",\"13.4432,-15.3101\",10);\n        storageContract.addHistoricalRecord(\"COVID-19\",\"Georgia\",\"42.3154,43.3569\",486);\n        storageContract.addHistoricalRecord(\"COVID-19\",\"Germany\",\"51,9\",157770);\n    }\n\n    function f5() public {\n        require(storageContractAddress != address(0), \"You have to set the storage contract address first.\");\n\n        storageContract.addHistoricalRecord(\"COVID-19\",\"Ghana\",\"7.9465,-1.0232\",1550);\n        storageContract.addHistoricalRecord(\"COVID-19\",\"Greece\",\"39.0742,21.8243\",2517);\n        storageContract.addHistoricalRecord(\"COVID-19\",\"Guatemala\",\"15.7835,-90.2308\",500);\n        storageContract.addHistoricalRecord(\"COVID-19\",\"Guinea\",\"9.9456,-9.6966\",996);\n        storageContract.addHistoricalRecord(\"COVID-19\",\"Guyana\",\"5,-58.75\",74);\n        storageContract.addHistoricalRecord(\"COVID-19\",\"Haiti\",\"18.9712,-72.2852\",74);\n        storageContract.addHistoricalRecord(\"COVID-19\",\"Holy See\",\"41.9029,12.4534\",9);\n        storageContract.addHistoricalRecord(\"COVID-19\",\"Honduras\",\"15.2,-86.2419\",627);\n        storageContract.addHistoricalRecord(\"COVID-19\",\"Hungary\",\"47.1625,19.5033\",2500);\n        storageContract.addHistoricalRecord(\"COVID-19\",\"Iceland\",\"64.9631,-19.0208\",1792);\n        storageContract.addHistoricalRecord(\"COVID-19\",\"India\",\"21,78\",27890);\n        storageContract.addHistoricalRecord(\"COVID-19\",\"Indonesia\",\"-0.7893,113.9213\",8882);\n        storageContract.addHistoricalRecord(\"COVID-19\",\"Iran\",\"32,53\",90481);\n        storageContract.addHistoricalRecord(\"COVID-19\",\"Iraq\",\"33,44\",1820);\n        storageContract.addHistoricalRecord(\"COVID-19\",\"Ireland\",\"53.1424,-7.6921\",19262);\n        storageContract.addHistoricalRecord(\"COVID-19\",\"Israel\",\"31,35\",15443);\n        storageContract.addHistoricalRecord(\"COVID-19\",\"Italy\",\"43,12\",197675);\n        storageContract.addHistoricalRecord(\"COVID-19\",\"Jamaica\",\"18.1096,-77.2975\",350);\n        storageContract.addHistoricalRecord(\"COVID-19\",\"Japan\",\"36,138\",13441);\n        storageContract.addHistoricalRecord(\"COVID-19\",\"Jordan\",\"31.24,36.51\",447);\n        storageContract.addHistoricalRecord(\"COVID-19\",\"Kazakhstan\",\"48.0196,66.9237\",2717);\n        storageContract.addHistoricalRecord(\"COVID-19\",\"Kenya\",\"-0.0236,37.9062\",355);\n        storageContract.addHistoricalRecord(\"COVID-19\",\"Korea, South\",\"36,128\",10738);\n        storageContract.addHistoricalRecord(\"COVID-19\",\"Kuwait\",\"29.5,47.75\",3075);\n        storageContract.addHistoricalRecord(\"COVID-19\",\"Kyrgyzstan\",\"41.2044,74.7661\",682);\n        storageContract.addHistoricalRecord(\"COVID-19\",\"Latvia\",\"56.8796,24.6032\",812);\n        storageContract.addHistoricalRecord(\"COVID-19\",\"Lebanon\",\"33.8547,35.8623\",707);\n        storageContract.addHistoricalRecord(\"COVID-19\",\"Liberia\",\"6.4281,-9.4295\",124);\n        storageContract.addHistoricalRecord(\"COVID-19\",\"Liechtenstein\",\"47.14,9.55\",82);\n        storageContract.addHistoricalRecord(\"COVID-19\",\"Lithuania\",\"55.1694,23.8813\",1438);\n        storageContract.addHistoricalRecord(\"COVID-19\",\"Luxembourg\",\"49.8153,6.1296\",3723);\n    }\n\n    function f6() public {\n        require(storageContractAddress != address(0), \"You have to set the storage contract address first.\");\n\n        storageContract.addHistoricalRecord(\"COVID-19\",\"Madagascar\",\"-18.7669,46.8691\",124);\n        storageContract.addHistoricalRecord(\"COVID-19\",\"Malaysia\",\"2.5,112.5\",5780);\n        storageContract.addHistoricalRecord(\"COVID-19\",\"Maldives\",\"3.2028,73.2207\",214);\n        storageContract.addHistoricalRecord(\"COVID-19\",\"Malta\",\"35.9375,14.3754\",448);\n        storageContract.addHistoricalRecord(\"COVID-19\",\"Mauritania\",\"21.0079,10.9408\",7);\n        storageContract.addHistoricalRecord(\"COVID-19\",\"Mauritius\",\"-20.2,57.5\",332);\n        storageContract.addHistoricalRecord(\"COVID-19\",\"Mexico\",\"23.6345,-102.5528\",14677);\n        storageContract.addHistoricalRecord(\"COVID-19\",\"Moldova\",\"47.4116,28.3699\",3408);\n        storageContract.addHistoricalRecord(\"COVID-19\",\"Monaco\",\"43.7333,7.4167\",94);\n        storageContract.addHistoricalRecord(\"COVID-19\",\"Mongolia\",\"46.8625,103.8467\",38);\n        storageContract.addHistoricalRecord(\"COVID-19\",\"Montenegro\",\"42.5,19.3\",321);\n        storageContract.addHistoricalRecord(\"COVID-19\",\"Morocco\",\"31.7917,-7.0926\",4065);\n        storageContract.addHistoricalRecord(\"COVID-19\",\"Namibia\",\"-22.9576,18.4904\",16);\n        storageContract.addHistoricalRecord(\"COVID-19\",\"Nepal\",\"28.1667,84.25\",52);\n        storageContract.addHistoricalRecord(\"COVID-19\",\"Netherlands\",\"12.5186,-70.0358\",100);\n        storageContract.addHistoricalRecord(\"COVID-19\",\"Netherlands\",\"12.1696,-68.99\",16);\n        storageContract.addHistoricalRecord(\"COVID-19\",\"Netherlands\",\"18.0425,-63.0548\",74);\n        storageContract.addHistoricalRecord(\"COVID-19\",\"Netherlands\",\"52.1326,5.2913\",37845);\n        storageContract.addHistoricalRecord(\"COVID-19\",\"New Zealand\",\"-40.9006,174.886\",1469);\n        storageContract.addHistoricalRecord(\"COVID-19\",\"Nicaragua\",\"12.8654,-85.2072\",13);\n        storageContract.addHistoricalRecord(\"COVID-19\",\"Niger\",\"17.6078,8.0817\",696);\n        storageContract.addHistoricalRecord(\"COVID-19\",\"Nigeria\",\"9.082,8.6753\",1273);\n        storageContract.addHistoricalRecord(\"COVID-19\",\"North Macedonia\",\"41.6086,21.7453\",1386);\n        storageContract.addHistoricalRecord(\"COVID-19\",\"Norway\",\"60.472,8.4689\",7527);\n        storageContract.addHistoricalRecord(\"COVID-19\",\"Oman\",\"21,57\",1998);\n        storageContract.addHistoricalRecord(\"COVID-19\",\"Pakistan\",\"30.3753,69.3451\",13328);\n        storageContract.addHistoricalRecord(\"COVID-19\",\"Panama\",\"8.538,-80.7821\",5779);\n        storageContract.addHistoricalRecord(\"COVID-19\",\"Papua New Guinea\",\"-6.315,143.9555\",8);\n        storageContract.addHistoricalRecord(\"COVID-19\",\"Paraguay\",\"-23.4425,-58.4438\",228);\n        storageContract.addHistoricalRecord(\"COVID-19\",\"Peru\",\"-9.19,-75.0152\",27517);\n        storageContract.addHistoricalRecord(\"COVID-19\",\"Philippines\",\"13,122\",7579);\n    }\n\n    function f7() public {\n        require(storageContractAddress != address(0), \"You have to set the storage contract address first.\");\n\n        storageContract.addHistoricalRecord(\"COVID-19\",\"Poland\",\"51.9194,19.1451\",11617);\n        storageContract.addHistoricalRecord(\"COVID-19\",\"Portugal\",\"39.3999,-8.2245\",23864);\n        storageContract.addHistoricalRecord(\"COVID-19\",\"Qatar\",\"25.3548,51.1839\",10287);\n        storageContract.addHistoricalRecord(\"COVID-19\",\"Romania\",\"45.9432,24.9668\",11036);\n        storageContract.addHistoricalRecord(\"COVID-19\",\"Russia\",\"60,90\",80949);\n        storageContract.addHistoricalRecord(\"COVID-19\",\"Rwanda\",\"-1.9403,29.8739\",191);\n        storageContract.addHistoricalRecord(\"COVID-19\",\"Saint Lucia\",\"13.9094,-60.9789\",15);\n        storageContract.addHistoricalRecord(\"COVID-19\",\"Saint Vincent and the Grenadines\",\"12.9843,-61.2872\",14);\n        storageContract.addHistoricalRecord(\"COVID-19\",\"San Marino\",\"43.9424,12.4578\",538);\n        storageContract.addHistoricalRecord(\"COVID-19\",\"Saudi Arabia\",\"24,45\",17522);\n        storageContract.addHistoricalRecord(\"COVID-19\",\"Senegal\",\"14.4974,-14.4524\",671);\n        storageContract.addHistoricalRecord(\"COVID-19\",\"Serbia\",\"44.0165,21.0059\",6630);\n        storageContract.addHistoricalRecord(\"COVID-19\",\"Seychelles\",\"-4.6796,55.492\",11);\n        storageContract.addHistoricalRecord(\"COVID-19\",\"Singapore\",\"1.2833,103.8333\",13624);\n        storageContract.addHistoricalRecord(\"COVID-19\",\"Slovakia\",\"48.669,19.699\",1379);\n        storageContract.addHistoricalRecord(\"COVID-19\",\"Slovenia\",\"46.1512,14.9955\",1396);\n        storageContract.addHistoricalRecord(\"COVID-19\",\"Somalia\",\"5.1521,46.1996\",436);\n        storageContract.addHistoricalRecord(\"COVID-19\",\"South Africa\",\"-30.5595,22.9375\",4546);\n        storageContract.addHistoricalRecord(\"COVID-19\",\"Spain\",\"40,-4\",226629);\n        storageContract.addHistoricalRecord(\"COVID-19\",\"Sri Lanka\",\"7,81\",523);\n        storageContract.addHistoricalRecord(\"COVID-19\",\"Sudan\",\"12.8628,30.2176\",237);\n        storageContract.addHistoricalRecord(\"COVID-19\",\"Suriname\",\"3.9193,-56.0278\",10);\n        storageContract.addHistoricalRecord(\"COVID-19\",\"Sweden\",\"63,16\",18640);\n        storageContract.addHistoricalRecord(\"COVID-19\",\"Switzerland\",\"46.8182,8.2275\",29061);\n        storageContract.addHistoricalRecord(\"COVID-19\",\"Taiwan*\",\"23.7,121\",429);\n        storageContract.addHistoricalRecord(\"COVID-19\",\"Tanzania\",\"-6.369,34.8888\",299);\n        storageContract.addHistoricalRecord(\"COVID-19\",\"Thailand\",\"15,101\",2922);\n        storageContract.addHistoricalRecord(\"COVID-19\",\"Togo\",\"8.6195,0.8248\",98);\n        storageContract.addHistoricalRecord(\"COVID-19\",\"Trinidad and Tobago\",\"10.6918,-61.2225\",115);\n        storageContract.addHistoricalRecord(\"COVID-19\",\"Tunisia\",\"34,9\",949);\n        storageContract.addHistoricalRecord(\"COVID-19\",\"Turkey\",\"38.9637,35.2433\",110130);\n    }\n\n    function f8() public {\n        require(storageContractAddress != address(0), \"You have to set the storage contract address first.\");\n\n        storageContract.addHistoricalRecord(\"COVID-19\",\"Uganda\",\"1,32\",79);\n        storageContract.addHistoricalRecord(\"COVID-19\",\"Ukraine\",\"48.3794,31.1656\",8617);\n        storageContract.addHistoricalRecord(\"COVID-19\",\"United Arab Emirates\",\"24,54\",10349);\n        storageContract.addHistoricalRecord(\"COVID-19\",\"United Kingdom\",\"32.3078,-64.7505\",109);\n        storageContract.addHistoricalRecord(\"COVID-19\",\"United Kingdom\",\"19.3133,-81.2546\",70);\n        storageContract.addHistoricalRecord(\"COVID-19\",\"United Kingdom\",\"49.3723,-2.3644\",525);\n        storageContract.addHistoricalRecord(\"COVID-19\",\"United Kingdom\",\"36.1408,-5.3536\",141);\n        storageContract.addHistoricalRecord(\"COVID-19\",\"United Kingdom\",\"54.2361,-4.5481\",308);\n        storageContract.addHistoricalRecord(\"COVID-19\",\"United Kingdom\",\"16.7425,-62.1874\",11);\n        storageContract.addHistoricalRecord(\"COVID-19\",\"United Kingdom\",\"55.3781,-3.436\",152840);\n        storageContract.addHistoricalRecord(\"COVID-19\",\"Uruguay\",\"-32.5228,-55.7658\",606);\n        storageContract.addHistoricalRecord(\"COVID-19\",\"US\",\"37.0902,-95.7129\",965785);\n        storageContract.addHistoricalRecord(\"COVID-19\",\"Uzbekistan\",\"41.3775,64.5853\",1869);\n        storageContract.addHistoricalRecord(\"COVID-19\",\"Venezuela\",\"6.4238,-66.5897\",325);\n        storageContract.addHistoricalRecord(\"COVID-19\",\"Vietnam\",\"16,108\",270);\n        storageContract.addHistoricalRecord(\"COVID-19\",\"Zambia\",\"-15.4167,28.2833\",88);\n        storageContract.addHistoricalRecord(\"COVID-19\",\"Zimbabwe\",\"-20,30\",31);\n        storageContract.addHistoricalRecord(\"COVID-19\",\"Canada\",\"0,0\",0);\n        storageContract.addHistoricalRecord(\"COVID-19\",\"Dominica\",\"15.415,-61.371\",16);\n        storageContract.addHistoricalRecord(\"COVID-19\",\"Grenada\",\"12.1165,-61.679\",18);\n        storageContract.addHistoricalRecord(\"COVID-19\",\"Mozambique\",\"-18.665695,35.529562\",76);\n        storageContract.addHistoricalRecord(\"COVID-19\",\"Syria\",\"34.802075,38.996815\",43);\n        storageContract.addHistoricalRecord(\"COVID-19\",\"Timor-Leste\",\"-8.874217,125.727539\",24);\n        storageContract.addHistoricalRecord(\"COVID-19\",\"Belize\",\"13.1939,-59.5432\",18);\n        storageContract.addHistoricalRecord(\"COVID-19\",\"Canada\",\"0,0\",0);\n        storageContract.addHistoricalRecord(\"COVID-19\",\"Laos\",\"19.85627,102.495496\",19);\n        storageContract.addHistoricalRecord(\"COVID-19\",\"Libya\",\"26.3351,17.228331\",61);\n        storageContract.addHistoricalRecord(\"COVID-19\",\"West Bank and Gaza\",\"31.9522,35.2332\",342);\n        storageContract.addHistoricalRecord(\"COVID-19\",\"Guinea-Bissau\",\"11.8037,-15.1804\",53);\n        storageContract.addHistoricalRecord(\"COVID-19\",\"Mali\",\"17.570692,-3.996166\",389);\n        storageContract.addHistoricalRecord(\"COVID-19\",\"Saint Kitts and Nevis\",\"17.357822,-62.782998\",15);\n    }\n\n    function f9() public {\n        require(storageContractAddress != address(0), \"You have to set the storage contract address first.\");\n\n        storageContract.addHistoricalRecord(\"COVID-19\",\"Canada\",\"64.8255,-124.8457\",5);\n        storageContract.addHistoricalRecord(\"COVID-19\",\"Canada\",\"64.2823,-135\",11);\n        storageContract.addHistoricalRecord(\"COVID-19\",\"Kosovo\",\"42.602636,20.902977\",510);\n        storageContract.addHistoricalRecord(\"COVID-19\",\"Burma\",\"21.9162,95.956\",146);\n        storageContract.addHistoricalRecord(\"COVID-19\",\"United Kingdom\",\"18.2206,-63.0686\",3);\n        storageContract.addHistoricalRecord(\"COVID-19\",\"United Kingdom\",\"18.4207,-64.64\",6);\n        storageContract.addHistoricalRecord(\"COVID-19\",\"United Kingdom\",\"21.694,-71.7979\",11);\n        storageContract.addHistoricalRecord(\"COVID-19\",\"MS Zaandam\",\"0,0\",9);\n        storageContract.addHistoricalRecord(\"COVID-19\",\"Botswana\",\"-22.3285,24.6849\",22);\n        storageContract.addHistoricalRecord(\"COVID-19\",\"Burundi\",\"-3.3731,29.9189\",11);\n        storageContract.addHistoricalRecord(\"COVID-19\",\"Sierra Leone\",\"8.460555,-11.779889\",93);\n        storageContract.addHistoricalRecord(\"COVID-19\",\"Netherlands\",\"12.1784,-68.2385\",5);\n        storageContract.addHistoricalRecord(\"COVID-19\",\"Malawi\",\"-13.254308,34.301525\",34);\n        storageContract.addHistoricalRecord(\"COVID-19\",\"United Kingdom\",\"-51.7963,-59.5236\",13);\n        storageContract.addHistoricalRecord(\"COVID-19\",\"France\",\"46.8852,-56.3159\",1);\n        storageContract.addHistoricalRecord(\"COVID-19\",\"South Sudan\",\"6.877,31.307\",6);\n        storageContract.addHistoricalRecord(\"COVID-19\",\"Western Sahara\",\"24.2155,-12.8858\",6);\n        storageContract.addHistoricalRecord(\"COVID-19\",\"Sao Tome and Principe\",\"0.18636,6.613081\",4);\n        storageContract.addHistoricalRecord(\"COVID-19\",\"Yemen\",\"15.552727,48.516388\",1);\n    }\n}",
  "sourcePath": "/home/t8/WebstormProjects/cs481a3TermProject/contracts/MassDataEntry/MassEntry.sol",
  "compiler": {
    "name": "solc",
    "version": "0.5.16+commit.9c3226ce.Emscripten.clang"
  },
  "schemaVersion": "3.1.0",
  "updatedAt": "2020-05-03T15:43:02.870Z",
  "devdoc": {
    "methods": {}
  },
  "userdoc": {
    "methods": {}
  }
}