{
  "contractName": "massEntry",
  "abi": [
    {
      "inputs": [],
      "payable": false,
      "stateMutability": "nonpayable",
      "type": "constructor"
    },
    {
      "constant": false,
      "inputs": [
        {
          "internalType": "address",
          "name": "_newStorageContractAddress",
          "type": "address"
        }
      ],
      "name": "_setStorageContract",
      "outputs": [],
      "payable": false,
      "stateMutability": "nonpayable",
      "type": "function"
    },
    {
      "constant": false,
      "inputs": [],
      "name": "f1",
      "outputs": [],
      "payable": false,
      "stateMutability": "nonpayable",
      "type": "function"
    },
    {
      "constant": false,
      "inputs": [],
      "name": "f2",
      "outputs": [],
      "payable": false,
      "stateMutability": "nonpayable",
      "type": "function"
    },
    {
      "constant": false,
      "inputs": [],
      "name": "f3",
      "outputs": [],
      "payable": false,
      "stateMutability": "nonpayable",
      "type": "function"
    },
    {
      "constant": false,
      "inputs": [],
      "name": "f4",
      "outputs": [],
      "payable": false,
      "stateMutability": "nonpayable",
      "type": "function"
    },
    {
      "constant": false,
      "inputs": [],
      "name": "f5",
      "outputs": [],
      "payable": false,
      "stateMutability": "nonpayable",
      "type": "function"
    },
    {
      "constant": false,
      "inputs": [],
      "name": "f6",
      "outputs": [],
      "payable": false,
      "stateMutability": "nonpayable",
      "type": "function"
    },
    {
      "constant": false,
      "inputs": [],
      "name": "f7",
      "outputs": [],
      "payable": false,
      "stateMutability": "nonpayable",
      "type": "function"
    },
    {
      "constant": false,
      "inputs": [],
      "name": "f8",
      "outputs": [],
      "payable": false,
      "stateMutability": "nonpayable",
      "type": "function"
    },
    {
      "constant": false,
      "inputs": [],
      "name": "f9",
      "outputs": [],
      "payable": false,
      "stateMutability": "nonpayable",
      "type": "function"
    }
  ],
  "bytecode": "0x6080604052600080553480156200001557600080fd5b50600260009054906101000a900473ffffffffffffffffffffffffffffffffffffffff16600160006101000a81548173ffffffffffffffffffffffffffffffffffffffff021916908373ffffffffffffffffffffffffffffffffffffffff16021790555062016df4806200008a6000396000f3fe60806040523480156200001157600080fd5b5060043610620000ac5760003560e01c8063c27fc305116200006f578063c27fc3051462000128578063c3f902021462000134578063c9ff79aa1462000140578063df2025dc146200014c578063e7025593146200015857620000ac565b80633c9d377d14620000b15780637c396b8314620000bd5780639942ec6f14620000c9578063a473c61014620000d5578063aaf05f3d146200011c575b600080fd5b620000bb62000164565b005b620000c762002c22565b005b620000d3620056d6565b005b6200011a60048036036020811015620000ed57600080fd5b81019080803573ffffffffffffffffffffffffffffffffffffffff1690602001909291905050506200818b565b005b6200012662008232565b005b620001326200ace8565b005b6200013e6200d37c565b005b6200014a6200fe30565b005b62000156620128e0565b005b620001626201539c565b005b600160009054906101000a900473ffffffffffffffffffffffffffffffffffffffff1673ffffffffffffffffffffffffffffffffffffffff1663214d9b2b61060e6040518263ffffffff1660e01b815260040180806020018060200180602001858152602001848103845260088152602001807f434f5649442d3139000000000000000000000000000000000000000000000000815250602001848103835260058152602001807f4768616e610000000000000000000000000000000000000000000000000000008152506020018481038252600e8152602001807f372e393436352c2d312e30323332000000000000000000000000000000000000815250602001945050505050602060405180830381600087803b1580156200028757600080fd5b505af11580156200029c573d6000803e3d6000fd5b505050506040513d6020811015620002b357600080fd5b810190808051906020019092919050505050600160009054906101000a900473ffffffffffffffffffffffffffffffffffffffff1673ffffffffffffffffffffffffffffffffffffffff1663214d9b2b6109d56040518263ffffffff1660e01b815260040180806020018060200180602001858152602001848103845260088152602001807f434f5649442d3139000000000000000000000000000000000000000000000000815250602001848103835260068152602001807f47726565636500000000000000000000000000000000000000000000000000008152506020018481038252600f8152602001807f33392e303734322c32312e383234330000000000000000000000000000000000815250602001945050505050602060405180830381600087803b158015620003e857600080fd5b505af1158015620003fd573d6000803e3d6000fd5b505050506040513d60208110156200041457600080fd5b810190808051906020019092919050505050600160009054906101000a900473ffffffffffffffffffffffffffffffffffffffff1673ffffffffffffffffffffffffffffffffffffffff1663214d9b2b6101f46040518263ffffffff1660e01b815260040180806020018060200180602001858152602001848103845260088152602001807f434f5649442d3139000000000000000000000000000000000000000000000000815250602001848103835260098152602001807f47756174656d616c610000000000000000000000000000000000000000000000815250602001848103825260108152602001807f31352e373833352c2d39302e3233303800000000000000000000000000000000815250602001945050505050602060405180830381600087803b1580156200054957600080fd5b505af11580156200055e573d6000803e3d6000fd5b505050506040513d60208110156200057557600080fd5b810190808051906020019092919050505050600160009054906101000a900473ffffffffffffffffffffffffffffffffffffffff1673ffffffffffffffffffffffffffffffffffffffff1663214d9b2b6103e46040518263ffffffff1660e01b815260040180806020018060200180602001858152602001848103845260088152602001807f434f5649442d3139000000000000000000000000000000000000000000000000815250602001848103835260068152602001807f4775696e656100000000000000000000000000000000000000000000000000008152506020018481038252600e8152602001807f392e393435362c2d392e36393636000000000000000000000000000000000000815250602001945050505050602060405180830381600087803b158015620006aa57600080fd5b505af1158015620006bf573d6000803e3d6000fd5b505050506040513d6020811015620006d657600080fd5b810190808051906020019092919050505050600160009054906101000a900473ffffffffffffffffffffffffffffffffffffffff1673ffffffffffffffffffffffffffffffffffffffff1663214d9b2b604a6040518263ffffffff1660e01b815260040180806020018060200180602001858152602001848103845260088152602001807f434f5649442d3139000000000000000000000000000000000000000000000000815250602001848103835260068152602001807f477579616e610000000000000000000000000000000000000000000000000000815250602001848103825260088152602001807f352c2d35382e3735000000000000000000000000000000000000000000000000815250602001945050505050602060405180830381600087803b1580156200080a57600080fd5b505af11580156200081f573d6000803e3d6000fd5b505050506040513d60208110156200083657600080fd5b810190808051906020019092919050505050600160009054906101000a900473ffffffffffffffffffffffffffffffffffffffff1673ffffffffffffffffffffffffffffffffffffffff1663214d9b2b604a6040518263ffffffff1660e01b815260040180806020018060200180602001858152602001848103845260088152602001807f434f5649442d3139000000000000000000000000000000000000000000000000815250602001848103835260058152602001807f4861697469000000000000000000000000000000000000000000000000000000815250602001848103825260108152602001807f31382e393731322c2d37322e3238353200000000000000000000000000000000815250602001945050505050602060405180830381600087803b1580156200096a57600080fd5b505af11580156200097f573d6000803e3d6000fd5b505050506040513d60208110156200099657600080fd5b810190808051906020019092919050505050600160009054906101000a900473ffffffffffffffffffffffffffffffffffffffff1673ffffffffffffffffffffffffffffffffffffffff1663214d9b2b60096040518263ffffffff1660e01b815260040180806020018060200180602001858152602001848103845260088152602001807f434f5649442d3139000000000000000000000000000000000000000000000000815250602001848103835260088152602001807f486f6c79205365650000000000000000000000000000000000000000000000008152506020018481038252600f8152602001807f34312e393032392c31322e343533340000000000000000000000000000000000815250602001945050505050602060405180830381600087803b15801562000aca57600080fd5b505af115801562000adf573d6000803e3d6000fd5b505050506040513d602081101562000af657600080fd5b810190808051906020019092919050505050600160009054906101000a900473ffffffffffffffffffffffffffffffffffffffff1673ffffffffffffffffffffffffffffffffffffffff1663214d9b2b6102736040518263ffffffff1660e01b815260040180806020018060200180602001858152602001848103845260088152602001807f434f5649442d3139000000000000000000000000000000000000000000000000815250602001848103835260088152602001807f486f6e64757261730000000000000000000000000000000000000000000000008152506020018481038252600d8152602001807f31352e322c2d38362e3234313900000000000000000000000000000000000000815250602001945050505050602060405180830381600087803b15801562000c2b57600080fd5b505af115801562000c40573d6000803e3d6000fd5b505050506040513d602081101562000c5757600080fd5b810190808051906020019092919050505050600160009054906101000a900473ffffffffffffffffffffffffffffffffffffffff1673ffffffffffffffffffffffffffffffffffffffff1663214d9b2b6109c46040518263ffffffff1660e01b815260040180806020018060200180602001858152602001848103845260088152602001807f434f5649442d3139000000000000000000000000000000000000000000000000815250602001848103835260078152602001807f48756e67617279000000000000000000000000000000000000000000000000008152506020018481038252600f8152602001807f34372e313632352c31392e353033330000000000000000000000000000000000815250602001945050505050602060405180830381600087803b15801562000d8c57600080fd5b505af115801562000da1573d6000803e3d6000fd5b505050506040513d602081101562000db857600080fd5b810190808051906020019092919050505050600160009054906101000a900473ffffffffffffffffffffffffffffffffffffffff1673ffffffffffffffffffffffffffffffffffffffff1663214d9b2b6107006040518263ffffffff1660e01b815260040180806020018060200180602001858152602001848103845260088152602001807f434f5649442d3139000000000000000000000000000000000000000000000000815250602001848103835260078152602001807f4963656c616e6400000000000000000000000000000000000000000000000000815250602001848103825260108152602001807f36342e393633312c2d31392e3032303800000000000000000000000000000000815250602001945050505050602060405180830381600087803b15801562000eed57600080fd5b505af115801562000f02573d6000803e3d6000fd5b505050506040513d602081101562000f1957600080fd5b810190808051906020019092919050505050600160009054906101000a900473ffffffffffffffffffffffffffffffffffffffff1673ffffffffffffffffffffffffffffffffffffffff1663214d9b2b616cf26040518263ffffffff1660e01b815260040180806020018060200180602001858152602001848103845260088152602001807f434f5649442d3139000000000000000000000000000000000000000000000000815250602001848103835260058152602001807f496e646961000000000000000000000000000000000000000000000000000000815250602001848103825260058152602001807f32312c3738000000000000000000000000000000000000000000000000000000815250602001945050505050602060405180830381600087803b1580156200104e57600080fd5b505af115801562001063573d6000803e3d6000fd5b505050506040513d60208110156200107a57600080fd5b810190808051906020019092919050505050600160009054906101000a900473ffffffffffffffffffffffffffffffffffffffff1673ffffffffffffffffffffffffffffffffffffffff1663214d9b2b6122b26040518263ffffffff1660e01b815260040180806020018060200180602001858152602001848103845260088152602001807f434f5649442d3139000000000000000000000000000000000000000000000000815250602001848103835260098152602001807f496e646f6e657369610000000000000000000000000000000000000000000000815250602001848103825260108152602001807f2d302e373839332c3131332e3932313300000000000000000000000000000000815250602001945050505050602060405180830381600087803b158015620011af57600080fd5b505af1158015620011c4573d6000803e3d6000fd5b505050506040513d6020811015620011db57600080fd5b810190808051906020019092919050505050600160009054906101000a900473ffffffffffffffffffffffffffffffffffffffff1673ffffffffffffffffffffffffffffffffffffffff1663214d9b2b620161716040518263ffffffff1660e01b815260040180806020018060200180602001858152602001848103845260088152602001807f434f5649442d3139000000000000000000000000000000000000000000000000815250602001848103835260048152602001807f4972616e00000000000000000000000000000000000000000000000000000000815250602001848103825260058152602001807f33322c3533000000000000000000000000000000000000000000000000000000815250602001945050505050602060405180830381600087803b1580156200131157600080fd5b505af115801562001326573d6000803e3d6000fd5b505050506040513d60208110156200133d57600080fd5b810190808051906020019092919050505050600160009054906101000a900473ffffffffffffffffffffffffffffffffffffffff1673ffffffffffffffffffffffffffffffffffffffff1663214d9b2b61071c6040518263ffffffff1660e01b815260040180806020018060200180602001858152602001848103845260088152602001807f434f5649442d3139000000000000000000000000000000000000000000000000815250602001848103835260048152602001807f4972617100000000000000000000000000000000000000000000000000000000815250602001848103825260058152602001807f33332c3434000000000000000000000000000000000000000000000000000000815250602001945050505050602060405180830381600087803b1580156200147257600080fd5b505af115801562001487573d6000803e3d6000fd5b505050506040513d60208110156200149e57600080fd5b810190808051906020019092919050505050600160009054906101000a900473ffffffffffffffffffffffffffffffffffffffff1673ffffffffffffffffffffffffffffffffffffffff1663214d9b2b614b3e6040518263ffffffff1660e01b815260040180806020018060200180602001858152602001848103845260088152602001807f434f5649442d3139000000000000000000000000000000000000000000000000815250602001848103835260078152602001807f4972656c616e64000000000000000000000000000000000000000000000000008152506020018481038252600f8152602001807f35332e313432342c2d372e363932310000000000000000000000000000000000815250602001945050505050602060405180830381600087803b158015620015d357600080fd5b505af1158015620015e8573d6000803e3d6000fd5b505050506040513d6020811015620015ff57600080fd5b810190808051906020019092919050505050600160009054906101000a900473ffffffffffffffffffffffffffffffffffffffff1673ffffffffffffffffffffffffffffffffffffffff1663214d9b2b613c536040518263ffffffff1660e01b815260040180806020018060200180602001858152602001848103845260088152602001807f434f5649442d3139000000000000000000000000000000000000000000000000815250602001848103835260068152602001807f49737261656c0000000000000000000000000000000000000000000000000000815250602001848103825260058152602001807f33312c3335000000000000000000000000000000000000000000000000000000815250602001945050505050602060405180830381600087803b1580156200173457600080fd5b505af115801562001749573d6000803e3d6000fd5b505050506040513d60208110156200176057600080fd5b810190808051906020019092919050505050600160009054906101000a900473ffffffffffffffffffffffffffffffffffffffff1673ffffffffffffffffffffffffffffffffffffffff1663214d9b2b6203042b6040518263ffffffff1660e01b815260040180806020018060200180602001858152602001848103845260088152602001807f434f5649442d3139000000000000000000000000000000000000000000000000815250602001848103835260058152602001807f4974616c79000000000000000000000000000000000000000000000000000000815250602001848103825260058152602001807f34332c3132000000000000000000000000000000000000000000000000000000815250602001945050505050602060405180830381600087803b1580156200189657600080fd5b505af1158015620018ab573d6000803e3d6000fd5b505050506040513d6020811015620018c257600080fd5b810190808051906020019092919050505050600160009054906101000a900473ffffffffffffffffffffffffffffffffffffffff1673ffffffffffffffffffffffffffffffffffffffff1663214d9b2b61015e6040518263ffffffff1660e01b815260040180806020018060200180602001858152602001848103845260088152602001807f434f5649442d3139000000000000000000000000000000000000000000000000815250602001848103835260078152602001807f4a616d6169636100000000000000000000000000000000000000000000000000815250602001848103825260108152602001807f31382e313039362c2d37372e3239373500000000000000000000000000000000815250602001945050505050602060405180830381600087803b158015620019f757600080fd5b505af115801562001a0c573d6000803e3d6000fd5b505050506040513d602081101562001a2357600080fd5b810190808051906020019092919050505050600160009054906101000a900473ffffffffffffffffffffffffffffffffffffffff1673ffffffffffffffffffffffffffffffffffffffff1663214d9b2b6134816040518263ffffffff1660e01b815260040180806020018060200180602001858152602001848103845260088152602001807f434f5649442d3139000000000000000000000000000000000000000000000000815250602001848103835260058152602001807f4a6170616e000000000000000000000000000000000000000000000000000000815250602001848103825260068152602001807f33362c3133380000000000000000000000000000000000000000000000000000815250602001945050505050602060405180830381600087803b15801562001b5857600080fd5b505af115801562001b6d573d6000803e3d6000fd5b505050506040513d602081101562001b8457600080fd5b810190808051906020019092919050505050600160009054906101000a900473ffffffffffffffffffffffffffffffffffffffff1673ffffffffffffffffffffffffffffffffffffffff1663214d9b2b6101bf6040518263ffffffff1660e01b815260040180806020018060200180602001858152602001848103845260088152602001807f434f5649442d3139000000000000000000000000000000000000000000000000815250602001848103835260068152602001807f4a6f7264616e00000000000000000000000000000000000000000000000000008152506020018481038252600b8152602001807f33312e32342c33362e3531000000000000000000000000000000000000000000815250602001945050505050602060405180830381600087803b15801562001cb957600080fd5b505af115801562001cce573d6000803e3d6000fd5b505050506040513d602081101562001ce557600080fd5b810190808051906020019092919050505050600160009054906101000a900473ffffffffffffffffffffffffffffffffffffffff1673ffffffffffffffffffffffffffffffffffffffff1663214d9b2b610a9d6040518263ffffffff1660e01b815260040180806020018060200180602001858152602001848103845260088152602001807f434f5649442d31390000000000000000000000000000000000000000000000008152506020018481038352600a8152602001807f4b617a616b687374616e000000000000000000000000000000000000000000008152506020018481038252600f8152602001807f34382e303139362c36362e393233370000000000000000000000000000000000815250602001945050505050602060405180830381600087803b15801562001e1a57600080fd5b505af115801562001e2f573d6000803e3d6000fd5b505050506040513d602081101562001e4657600080fd5b810190808051906020019092919050505050600160009054906101000a900473ffffffffffffffffffffffffffffffffffffffff1673ffffffffffffffffffffffffffffffffffffffff1663214d9b2b6101636040518263ffffffff1660e01b815260040180806020018060200180602001858152602001848103845260088152602001807f434f5649442d3139000000000000000000000000000000000000000000000000815250602001848103835260058152602001807f4b656e79610000000000000000000000000000000000000000000000000000008152506020018481038252600f8152602001807f2d302e303233362c33372e393036320000000000000000000000000000000000815250602001945050505050602060405180830381600087803b15801562001f7b57600080fd5b505af115801562001f90573d6000803e3d6000fd5b505050506040513d602081101562001fa757600080fd5b810190808051906020019092919050505050600160009054906101000a900473ffffffffffffffffffffffffffffffffffffffff1673ffffffffffffffffffffffffffffffffffffffff1663214d9b2b6129f26040518263ffffffff1660e01b815260040180806020018060200180602001858152602001848103845260088152602001807f434f5649442d31390000000000000000000000000000000000000000000000008152506020018481038352600c8152602001807f4b6f7265612c20536f7574680000000000000000000000000000000000000000815250602001848103825260068152602001807f33362c3132380000000000000000000000000000000000000000000000000000815250602001945050505050602060405180830381600087803b158015620020dc57600080fd5b505af1158015620020f1573d6000803e3d6000fd5b505050506040513d60208110156200210857600080fd5b810190808051906020019092919050505050600160009054906101000a900473ffffffffffffffffffffffffffffffffffffffff1673ffffffffffffffffffffffffffffffffffffffff1663214d9b2b610c036040518263ffffffff1660e01b815260040180806020018060200180602001858152602001848103845260088152602001807f434f5649442d3139000000000000000000000000000000000000000000000000815250602001848103835260068152602001807f4b757761697400000000000000000000000000000000000000000000000000008152506020018481038252600a8152602001807f32392e352c34372e373500000000000000000000000000000000000000000000815250602001945050505050602060405180830381600087803b1580156200223d57600080fd5b505af115801562002252573d6000803e3d6000fd5b505050506040513d60208110156200226957600080fd5b810190808051906020019092919050505050600160009054906101000a900473ffffffffffffffffffffffffffffffffffffffff1673ffffffffffffffffffffffffffffffffffffffff1663214d9b2b6102aa6040518263ffffffff1660e01b815260040180806020018060200180602001858152602001848103845260088152602001807f434f5649442d31390000000000000000000000000000000000000000000000008152506020018481038352600a8152602001807f4b797267797a7374616e000000000000000000000000000000000000000000008152506020018481038252600f8152602001807f34312e323034342c37342e373636310000000000000000000000000000000000815250602001945050505050602060405180830381600087803b1580156200239e57600080fd5b505af1158015620023b3573d6000803e3d6000fd5b505050506040513d6020811015620023ca57600080fd5b810190808051906020019092919050505050600160009054906101000a900473ffffffffffffffffffffffffffffffffffffffff1673ffffffffffffffffffffffffffffffffffffffff1663214d9b2b61032c6040518263ffffffff1660e01b815260040180806020018060200180602001858152602001848103845260088152602001807f434f5649442d3139000000000000000000000000000000000000000000000000815250602001848103835260068152602001807f4c617476696100000000000000000000000000000000000000000000000000008152506020018481038252600f8152602001807f35362e383739362c32342e363033320000000000000000000000000000000000815250602001945050505050602060405180830381600087803b158015620024ff57600080fd5b505af115801562002514573d6000803e3d6000fd5b505050506040513d60208110156200252b57600080fd5b810190808051906020019092919050505050600160009054906101000a900473ffffffffffffffffffffffffffffffffffffffff1673ffffffffffffffffffffffffffffffffffffffff1663214d9b2b6102c36040518263ffffffff1660e01b815260040180806020018060200180602001858152602001848103845260088152602001807f434f5649442d3139000000000000000000000000000000000000000000000000815250602001848103835260078152602001807f4c6562616e6f6e000000000000000000000000000000000000000000000000008152506020018481038252600f8152602001807f33332e383534372c33352e383632330000000000000000000000000000000000815250602001945050505050602060405180830381600087803b1580156200266057600080fd5b505af115801562002675573d6000803e3d6000fd5b505050506040513d60208110156200268c57600080fd5b810190808051906020019092919050505050600160009054906101000a900473ffffffffffffffffffffffffffffffffffffffff1673ffffffffffffffffffffffffffffffffffffffff1663214d9b2b607c6040518263ffffffff1660e01b815260040180806020018060200180602001858152602001848103845260088152602001807f434f5649442d3139000000000000000000000000000000000000000000000000815250602001848103835260078152602001807f4c696265726961000000000000000000000000000000000000000000000000008152506020018481038252600e8152602001807f362e343238312c2d392e34323935000000000000000000000000000000000000815250602001945050505050602060405180830381600087803b158015620027c057600080fd5b505af1158015620027d5573d6000803e3d6000fd5b505050506040513d6020811015620027ec57600080fd5b810190808051906020019092919050505050600160009054906101000a900473ffffffffffffffffffffffffffffffffffffffff1673ffffffffffffffffffffffffffffffffffffffff1663214d9b2b60526040518263ffffffff1660e01b815260040180806020018060200180602001858152602001848103845260088152602001807f434f5649442d31390000000000000000000000000000000000000000000000008152506020018481038352600d8152602001807f4c6965636874656e737465696e000000000000000000000000000000000000008152506020018481038252600a8152602001807f34372e31342c392e353500000000000000000000000000000000000000000000815250602001945050505050602060405180830381600087803b1580156200292057600080fd5b505af115801562002935573d6000803e3d6000fd5b505050506040513d60208110156200294c57600080fd5b810190808051906020019092919050505050600160009054906101000a900473ffffffffffffffffffffffffffffffffffffffff1673ffffffffffffffffffffffffffffffffffffffff1663214d9b2b61059e6040518263ffffffff1660e01b815260040180806020018060200180602001858152602001848103845260088152602001807f434f5649442d3139000000000000000000000000000000000000000000000000815250602001848103835260098152602001807f4c69746875616e696100000000000000000000000000000000000000000000008152506020018481038252600f8152602001807f35352e313639342c32332e383831330000000000000000000000000000000000815250602001945050505050602060405180830381600087803b15801562002a8157600080fd5b505af115801562002a96573d6000803e3d6000fd5b505050506040513d602081101562002aad57600080fd5b810190808051906020019092919050505050600160009054906101000a900473ffffffffffffffffffffffffffffffffffffffff1673ffffffffffffffffffffffffffffffffffffffff1663214d9b2b610e8b6040518263ffffffff1660e01b815260040180806020018060200180602001858152602001848103845260088152602001807f434f5649442d31390000000000000000000000000000000000000000000000008152506020018481038352600a8152602001807f4c7578656d626f757267000000000000000000000000000000000000000000008152506020018481038252600e8152602001807f34392e383135332c362e31323936000000000000000000000000000000000000815250602001945050505050602060405180830381600087803b15801562002be257600080fd5b505af115801562002bf7573d6000803e3d6000fd5b505050506040513d602081101562002c0e57600080fd5b810190808051906020019092919050505050565b600160009054906101000a900473ffffffffffffffffffffffffffffffffffffffff1673ffffffffffffffffffffffffffffffffffffffff1663214d9b2b607c6040518263ffffffff1660e01b815260040180806020018060200180602001858152602001848103845260088152602001807f434f5649442d31390000000000000000000000000000000000000000000000008152506020018481038352600a8152602001807f4d61646167617363617200000000000000000000000000000000000000000000815250602001848103825260108152602001807f2d31382e373636392c34362e3836393100000000000000000000000000000000815250602001945050505050602060405180830381600087803b15801562002d4457600080fd5b505af115801562002d59573d6000803e3d6000fd5b505050506040513d602081101562002d7057600080fd5b810190808051906020019092919050505050600160009054906101000a900473ffffffffffffffffffffffffffffffffffffffff1673ffffffffffffffffffffffffffffffffffffffff1663214d9b2b6116946040518263ffffffff1660e01b815260040180806020018060200180602001858152602001848103845260088152602001807f434f5649442d3139000000000000000000000000000000000000000000000000815250602001848103835260088152602001807f4d616c6179736961000000000000000000000000000000000000000000000000815250602001848103825260098152602001807f322e352c3131322e350000000000000000000000000000000000000000000000815250602001945050505050602060405180830381600087803b15801562002ea557600080fd5b505af115801562002eba573d6000803e3d6000fd5b505050506040513d602081101562002ed157600080fd5b810190808051906020019092919050505050600160009054906101000a900473ffffffffffffffffffffffffffffffffffffffff1673ffffffffffffffffffffffffffffffffffffffff1663214d9b2b60d66040518263ffffffff1660e01b815260040180806020018060200180602001858152602001848103845260088152602001807f434f5649442d3139000000000000000000000000000000000000000000000000815250602001848103835260088152602001807f4d616c64697665730000000000000000000000000000000000000000000000008152506020018481038252600e8152602001807f332e323032382c37332e32323037000000000000000000000000000000000000815250602001945050505050602060405180830381600087803b1580156200300557600080fd5b505af11580156200301a573d6000803e3d6000fd5b505050506040513d60208110156200303157600080fd5b810190808051906020019092919050505050600160009054906101000a900473ffffffffffffffffffffffffffffffffffffffff1673ffffffffffffffffffffffffffffffffffffffff1663214d9b2b6101c06040518263ffffffff1660e01b815260040180806020018060200180602001858152602001848103845260088152602001807f434f5649442d3139000000000000000000000000000000000000000000000000815250602001848103835260058152602001807f4d616c74610000000000000000000000000000000000000000000000000000008152506020018481038252600f8152602001807f33352e393337352c31342e333735340000000000000000000000000000000000815250602001945050505050602060405180830381600087803b1580156200316657600080fd5b505af11580156200317b573d6000803e3d6000fd5b505050506040513d60208110156200319257600080fd5b810190808051906020019092919050505050600160009054906101000a900473ffffffffffffffffffffffffffffffffffffffff1673ffffffffffffffffffffffffffffffffffffffff1663214d9b2b60076040518263ffffffff1660e01b815260040180806020018060200180602001858152602001848103845260088152602001807f434f5649442d31390000000000000000000000000000000000000000000000008152506020018481038352600a8152602001807f4d6175726974616e6961000000000000000000000000000000000000000000008152506020018481038252600f8152602001807f32312e303037392c31302e393430380000000000000000000000000000000000815250602001945050505050602060405180830381600087803b158015620032c657600080fd5b505af1158015620032db573d6000803e3d6000fd5b505050506040513d6020811015620032f257600080fd5b810190808051906020019092919050505050600160009054906101000a900473ffffffffffffffffffffffffffffffffffffffff1673ffffffffffffffffffffffffffffffffffffffff1663214d9b2b61014c6040518263ffffffff1660e01b815260040180806020018060200180602001858152602001848103845260088152602001807f434f5649442d3139000000000000000000000000000000000000000000000000815250602001848103835260098152602001807f4d617572697469757300000000000000000000000000000000000000000000008152506020018481038252600a8152602001807f2d32302e322c35372e3500000000000000000000000000000000000000000000815250602001945050505050602060405180830381600087803b1580156200342757600080fd5b505af11580156200343c573d6000803e3d6000fd5b505050506040513d60208110156200345357600080fd5b810190808051906020019092919050505050600160009054906101000a900473ffffffffffffffffffffffffffffffffffffffff1673ffffffffffffffffffffffffffffffffffffffff1663214d9b2b6139556040518263ffffffff1660e01b815260040180806020018060200180602001858152602001848103845260088152602001807f434f5649442d3139000000000000000000000000000000000000000000000000815250602001848103835260068152602001807f4d657869636f0000000000000000000000000000000000000000000000000000815250602001848103825260118152602001807f32332e363334352c2d3130322e35353238000000000000000000000000000000815250602001945050505050602060405180830381600087803b1580156200358857600080fd5b505af11580156200359d573d6000803e3d6000fd5b505050506040513d6020811015620035b457600080fd5b810190808051906020019092919050505050600160009054906101000a900473ffffffffffffffffffffffffffffffffffffffff1673ffffffffffffffffffffffffffffffffffffffff1663214d9b2b610d506040518263ffffffff1660e01b815260040180806020018060200180602001858152602001848103845260088152602001807f434f5649442d3139000000000000000000000000000000000000000000000000815250602001848103835260078152602001807f4d6f6c646f7661000000000000000000000000000000000000000000000000008152506020018481038252600f8152602001807f34372e343131362c32382e333639390000000000000000000000000000000000815250602001945050505050602060405180830381600087803b158015620036e957600080fd5b505af1158015620036fe573d6000803e3d6000fd5b505050506040513d60208110156200371557600080fd5b810190808051906020019092919050505050600160009054906101000a900473ffffffffffffffffffffffffffffffffffffffff1673ffffffffffffffffffffffffffffffffffffffff1663214d9b2b605e6040518263ffffffff1660e01b815260040180806020018060200180602001858152602001848103845260088152602001807f434f5649442d3139000000000000000000000000000000000000000000000000815250602001848103835260068152602001807f4d6f6e61636f00000000000000000000000000000000000000000000000000008152506020018481038252600e8152602001807f34332e373333332c372e34313637000000000000000000000000000000000000815250602001945050505050602060405180830381600087803b1580156200384957600080fd5b505af11580156200385e573d6000803e3d6000fd5b505050506040513d60208110156200387557600080fd5b810190808051906020019092919050505050600160009054906101000a900473ffffffffffffffffffffffffffffffffffffffff1673ffffffffffffffffffffffffffffffffffffffff1663214d9b2b60266040518263ffffffff1660e01b815260040180806020018060200180602001858152602001848103845260088152602001807f434f5649442d3139000000000000000000000000000000000000000000000000815250602001848103835260088152602001807f4d6f6e676f6c6961000000000000000000000000000000000000000000000000815250602001848103825260108152602001807f34362e383632352c3130332e3834363700000000000000000000000000000000815250602001945050505050602060405180830381600087803b158015620039a957600080fd5b505af1158015620039be573d6000803e3d6000fd5b505050506040513d6020811015620039d557600080fd5b810190808051906020019092919050505050600160009054906101000a900473ffffffffffffffffffffffffffffffffffffffff1673ffffffffffffffffffffffffffffffffffffffff1663214d9b2b6101416040518263ffffffff1660e01b815260040180806020018060200180602001858152602001848103845260088152602001807f434f5649442d31390000000000000000000000000000000000000000000000008152506020018481038352600a8152602001807f4d6f6e74656e6567726f00000000000000000000000000000000000000000000815250602001848103825260098152602001807f34322e352c31392e330000000000000000000000000000000000000000000000815250602001945050505050602060405180830381600087803b15801562003b0a57600080fd5b505af115801562003b1f573d6000803e3d6000fd5b505050506040513d602081101562003b3657600080fd5b810190808051906020019092919050505050600160009054906101000a900473ffffffffffffffffffffffffffffffffffffffff1673ffffffffffffffffffffffffffffffffffffffff1663214d9b2b610fe16040518263ffffffff1660e01b815260040180806020018060200180602001858152602001848103845260088152602001807f434f5649442d3139000000000000000000000000000000000000000000000000815250602001848103835260078152602001807f4d6f726f63636f000000000000000000000000000000000000000000000000008152506020018481038252600f8152602001807f33312e373931372c2d372e303932360000000000000000000000000000000000815250602001945050505050602060405180830381600087803b15801562003c6b57600080fd5b505af115801562003c80573d6000803e3d6000fd5b505050506040513d602081101562003c9757600080fd5b810190808051906020019092919050505050600160009054906101000a900473ffffffffffffffffffffffffffffffffffffffff1673ffffffffffffffffffffffffffffffffffffffff1663214d9b2b60106040518263ffffffff1660e01b815260040180806020018060200180602001858152602001848103845260088152602001807f434f5649442d3139000000000000000000000000000000000000000000000000815250602001848103835260078152602001807f4e616d6962696100000000000000000000000000000000000000000000000000815250602001848103825260108152602001807f2d32322e393537362c31382e3439303400000000000000000000000000000000815250602001945050505050602060405180830381600087803b15801562003dcb57600080fd5b505af115801562003de0573d6000803e3d6000fd5b505050506040513d602081101562003df757600080fd5b810190808051906020019092919050505050600160009054906101000a900473ffffffffffffffffffffffffffffffffffffffff1673ffffffffffffffffffffffffffffffffffffffff1663214d9b2b60346040518263ffffffff1660e01b815260040180806020018060200180602001858152602001848103845260088152602001807f434f5649442d3139000000000000000000000000000000000000000000000000815250602001848103835260058152602001807f4e6570616c0000000000000000000000000000000000000000000000000000008152506020018481038252600d8152602001807f32382e313636372c38342e323500000000000000000000000000000000000000815250602001945050505050602060405180830381600087803b15801562003f2b57600080fd5b505af115801562003f40573d6000803e3d6000fd5b505050506040513d602081101562003f5757600080fd5b810190808051906020019092919050505050600160009054906101000a900473ffffffffffffffffffffffffffffffffffffffff1673ffffffffffffffffffffffffffffffffffffffff1663214d9b2b60646040518263ffffffff1660e01b815260040180806020018060200180602001858152602001848103845260088152602001807f434f5649442d31390000000000000000000000000000000000000000000000008152506020018481038352600b8152602001807f4e65746865726c616e6473000000000000000000000000000000000000000000815250602001848103825260108152602001807f31322e353138362c2d37302e3033353800000000000000000000000000000000815250602001945050505050602060405180830381600087803b1580156200408b57600080fd5b505af1158015620040a0573d6000803e3d6000fd5b505050506040513d6020811015620040b757600080fd5b810190808051906020019092919050505050600160009054906101000a900473ffffffffffffffffffffffffffffffffffffffff1673ffffffffffffffffffffffffffffffffffffffff1663214d9b2b60106040518263ffffffff1660e01b815260040180806020018060200180602001858152602001848103845260088152602001807f434f5649442d31390000000000000000000000000000000000000000000000008152506020018481038352600b8152602001807f4e65746865726c616e64730000000000000000000000000000000000000000008152506020018481038252600e8152602001807f31322e313639362c2d36382e3939000000000000000000000000000000000000815250602001945050505050602060405180830381600087803b158015620041eb57600080fd5b505af115801562004200573d6000803e3d6000fd5b505050506040513d60208110156200421757600080fd5b810190808051906020019092919050505050600160009054906101000a900473ffffffffffffffffffffffffffffffffffffffff1673ffffffffffffffffffffffffffffffffffffffff1663214d9b2b604a6040518263ffffffff1660e01b815260040180806020018060200180602001858152602001848103845260088152602001807f434f5649442d31390000000000000000000000000000000000000000000000008152506020018481038352600b8152602001807f4e65746865726c616e6473000000000000000000000000000000000000000000815250602001848103825260108152602001807f31382e303432352c2d36332e3035343800000000000000000000000000000000815250602001945050505050602060405180830381600087803b1580156200434b57600080fd5b505af115801562004360573d6000803e3d6000fd5b505050506040513d60208110156200437757600080fd5b810190808051906020019092919050505050600160009054906101000a900473ffffffffffffffffffffffffffffffffffffffff1673ffffffffffffffffffffffffffffffffffffffff1663214d9b2b6193d56040518263ffffffff1660e01b815260040180806020018060200180602001858152602001848103845260088152602001807f434f5649442d31390000000000000000000000000000000000000000000000008152506020018481038352600b8152602001807f4e65746865726c616e64730000000000000000000000000000000000000000008152506020018481038252600e8152602001807f35322e313332362c352e32393133000000000000000000000000000000000000815250602001945050505050602060405180830381600087803b158015620044ac57600080fd5b505af1158015620044c1573d6000803e3d6000fd5b505050506040513d6020811015620044d857600080fd5b810190808051906020019092919050505050600160009054906101000a900473ffffffffffffffffffffffffffffffffffffffff1673ffffffffffffffffffffffffffffffffffffffff1663214d9b2b6105bd6040518263ffffffff1660e01b815260040180806020018060200180602001858152602001848103845260088152602001807f434f5649442d31390000000000000000000000000000000000000000000000008152506020018481038352600b8152602001807f4e6577205a65616c616e64000000000000000000000000000000000000000000815250602001848103825260108152602001807f2d34302e393030362c3137342e38383600000000000000000000000000000000815250602001945050505050602060405180830381600087803b1580156200460d57600080fd5b505af115801562004622573d6000803e3d6000fd5b505050506040513d60208110156200463957600080fd5b810190808051906020019092919050505050600160009054906101000a900473ffffffffffffffffffffffffffffffffffffffff1673ffffffffffffffffffffffffffffffffffffffff1663214d9b2b600d6040518263ffffffff1660e01b815260040180806020018060200180602001858152602001848103845260088152602001807f434f5649442d3139000000000000000000000000000000000000000000000000815250602001848103835260098152602001807f4e69636172616775610000000000000000000000000000000000000000000000815250602001848103825260108152602001807f31322e383635342c2d38352e3230373200000000000000000000000000000000815250602001945050505050602060405180830381600087803b1580156200476d57600080fd5b505af115801562004782573d6000803e3d6000fd5b505050506040513d60208110156200479957600080fd5b810190808051906020019092919050505050600160009054906101000a900473ffffffffffffffffffffffffffffffffffffffff1673ffffffffffffffffffffffffffffffffffffffff1663214d9b2b6102b86040518263ffffffff1660e01b815260040180806020018060200180602001858152602001848103845260088152602001807f434f5649442d3139000000000000000000000000000000000000000000000000815250602001848103835260058152602001807f4e696765720000000000000000000000000000000000000000000000000000008152506020018481038252600e8152602001807f31372e363037382c382e30383137000000000000000000000000000000000000815250602001945050505050602060405180830381600087803b158015620048ce57600080fd5b505af1158015620048e3573d6000803e3d6000fd5b505050506040513d6020811015620048fa57600080fd5b810190808051906020019092919050505050600160009054906101000a900473ffffffffffffffffffffffffffffffffffffffff1673ffffffffffffffffffffffffffffffffffffffff1663214d9b2b6104f96040518263ffffffff1660e01b815260040180806020018060200180602001858152602001848103845260088152602001807f434f5649442d3139000000000000000000000000000000000000000000000000815250602001848103835260078152602001807f4e696765726961000000000000000000000000000000000000000000000000008152506020018481038252600c8152602001807f392e3038322c382e363735330000000000000000000000000000000000000000815250602001945050505050602060405180830381600087803b15801562004a2f57600080fd5b505af115801562004a44573d6000803e3d6000fd5b505050506040513d602081101562004a5b57600080fd5b810190808051906020019092919050505050600160009054906101000a900473ffffffffffffffffffffffffffffffffffffffff1673ffffffffffffffffffffffffffffffffffffffff1663214d9b2b61056a6040518263ffffffff1660e01b815260040180806020018060200180602001858152602001848103845260088152602001807f434f5649442d31390000000000000000000000000000000000000000000000008152506020018481038352600f8152602001807f4e6f727468204d616365646f6e696100000000000000000000000000000000008152506020018481038252600f8152602001807f34312e363038362c32312e373435330000000000000000000000000000000000815250602001945050505050602060405180830381600087803b15801562004b9057600080fd5b505af115801562004ba5573d6000803e3d6000fd5b505050506040513d602081101562004bbc57600080fd5b810190808051906020019092919050505050600160009054906101000a900473ffffffffffffffffffffffffffffffffffffffff1673ffffffffffffffffffffffffffffffffffffffff1663214d9b2b611d676040518263ffffffff1660e01b815260040180806020018060200180602001858152602001848103845260088152602001807f434f5649442d3139000000000000000000000000000000000000000000000000815250602001848103835260068152602001807f4e6f7277617900000000000000000000000000000000000000000000000000008152506020018481038252600d8152602001807f36302e3437322c382e3436383900000000000000000000000000000000000000815250602001945050505050602060405180830381600087803b15801562004cf157600080fd5b505af115801562004d06573d6000803e3d6000fd5b505050506040513d602081101562004d1d57600080fd5b810190808051906020019092919050505050600160009054906101000a900473ffffffffffffffffffffffffffffffffffffffff1673ffffffffffffffffffffffffffffffffffffffff1663214d9b2b6107ce6040518263ffffffff1660e01b815260040180806020018060200180602001858152602001848103845260088152602001807f434f5649442d3139000000000000000000000000000000000000000000000000815250602001848103835260048152602001807f4f6d616e00000000000000000000000000000000000000000000000000000000815250602001848103825260058152602001807f32312c3537000000000000000000000000000000000000000000000000000000815250602001945050505050602060405180830381600087803b15801562004e5257600080fd5b505af115801562004e67573d6000803e3d6000fd5b505050506040513d602081101562004e7e57600080fd5b810190808051906020019092919050505050600160009054906101000a900473ffffffffffffffffffffffffffffffffffffffff1673ffffffffffffffffffffffffffffffffffffffff1663214d9b2b6134106040518263ffffffff1660e01b815260040180806020018060200180602001858152602001848103845260088152602001807f434f5649442d3139000000000000000000000000000000000000000000000000815250602001848103835260088152602001807f50616b697374616e0000000000000000000000000000000000000000000000008152506020018481038252600f8152602001807f33302e333735332c36392e333435310000000000000000000000000000000000815250602001945050505050602060405180830381600087803b15801562004fb357600080fd5b505af115801562004fc8573d6000803e3d6000fd5b505050506040513d602081101562004fdf57600080fd5b810190808051906020019092919050505050600160009054906101000a900473ffffffffffffffffffffffffffffffffffffffff1673ffffffffffffffffffffffffffffffffffffffff1663214d9b2b6116936040518263ffffffff1660e01b815260040180806020018060200180602001858152602001848103845260088152602001807f434f5649442d3139000000000000000000000000000000000000000000000000815250602001848103835260068152602001807f50616e616d6100000000000000000000000000000000000000000000000000008152506020018481038252600e8152602001807f382e3533382c2d38302e37383231000000000000000000000000000000000000815250602001945050505050602060405180830381600087803b1580156200511457600080fd5b505af115801562005129573d6000803e3d6000fd5b505050506040513d60208110156200514057600080fd5b810190808051906020019092919050505050600160009054906101000a900473ffffffffffffffffffffffffffffffffffffffff1673ffffffffffffffffffffffffffffffffffffffff1663214d9b2b60086040518263ffffffff1660e01b815260040180806020018060200180602001858152602001848103845260088152602001807f434f5649442d3139000000000000000000000000000000000000000000000000815250602001848103835260108152602001807f5061707561204e6577204775696e6561000000000000000000000000000000008152506020018481038252600f8152602001807f2d362e3331352c3134332e393535350000000000000000000000000000000000815250602001945050505050602060405180830381600087803b1580156200527457600080fd5b505af115801562005289573d6000803e3d6000fd5b505050506040513d6020811015620052a057600080fd5b810190808051906020019092919050505050600160009054906101000a900473ffffffffffffffffffffffffffffffffffffffff1673ffffffffffffffffffffffffffffffffffffffff1663214d9b2b60e46040518263ffffffff1660e01b815260040180806020018060200180602001858152602001848103845260088152602001807f434f5649442d3139000000000000000000000000000000000000000000000000815250602001848103835260088152602001807f5061726167756179000000000000000000000000000000000000000000000000815250602001848103825260118152602001807f2d32332e343432352c2d35382e34343338000000000000000000000000000000815250602001945050505050602060405180830381600087803b158015620053d457600080fd5b505af1158015620053e9573d6000803e3d6000fd5b505050506040513d60208110156200540057600080fd5b810190808051906020019092919050505050600160009054906101000a900473ffffffffffffffffffffffffffffffffffffffff1673ffffffffffffffffffffffffffffffffffffffff1663214d9b2b616b7d6040518263ffffffff1660e01b815260040180806020018060200180602001858152602001848103845260088152602001807f434f5649442d3139000000000000000000000000000000000000000000000000815250602001848103835260048152602001807f50657275000000000000000000000000000000000000000000000000000000008152506020018481038252600e8152602001807f2d392e31392c2d37352e30313532000000000000000000000000000000000000815250602001945050505050602060405180830381600087803b1580156200553557600080fd5b505af11580156200554a573d6000803e3d6000fd5b505050506040513d60208110156200556157600080fd5b810190808051906020019092919050505050600160009054906101000a900473ffffffffffffffffffffffffffffffffffffffff1673ffffffffffffffffffffffffffffffffffffffff1663214d9b2b611d9b6040518263ffffffff1660e01b815260040180806020018060200180602001858152602001848103845260088152602001807f434f5649442d31390000000000000000000000000000000000000000000000008152506020018481038352600b8152602001807f5068696c697070696e6573000000000000000000000000000000000000000000815250602001848103825260068152602001807f31332c3132320000000000000000000000000000000000000000000000000000815250602001945050505050602060405180830381600087803b1580156200569657600080fd5b505af1158015620056ab573d6000803e3d6000fd5b505050506040513d6020811015620056c257600080fd5b810190808051906020019092919050505050565b600160009054906101000a900473ffffffffffffffffffffffffffffffffffffffff1673ffffffffffffffffffffffffffffffffffffffff1663214d9b2b61f67c6040518263ffffffff1660e01b815260040180806020018060200180602001858152602001848103845260088152602001807f434f5649442d3139000000000000000000000000000000000000000000000000815250602001848103835260068152602001807f4272617a696c0000000000000000000000000000000000000000000000000000815250602001848103825260108152602001807f2d31342e3233352c2d35312e3932353300000000000000000000000000000000815250602001945050505050602060405180830381600087803b158015620057f957600080fd5b505af11580156200580e573d6000803e3d6000fd5b505050506040513d60208110156200582557600080fd5b810190808051906020019092919050505050600160009054906101000a900473ffffffffffffffffffffffffffffffffffffffff1673ffffffffffffffffffffffffffffffffffffffff1663214d9b2b608a6040518263ffffffff1660e01b815260040180806020018060200180602001858152602001848103845260088152602001807f434f5649442d3139000000000000000000000000000000000000000000000000815250602001848103835260068152602001807f4272756e656900000000000000000000000000000000000000000000000000008152506020018481038252600f8152602001807f342e353335332c3131342e373237370000000000000000000000000000000000815250602001945050505050602060405180830381600087803b1580156200595957600080fd5b505af11580156200596e573d6000803e3d6000fd5b505050506040513d60208110156200598557600080fd5b810190808051906020019092919050505050600160009054906101000a900473ffffffffffffffffffffffffffffffffffffffff1673ffffffffffffffffffffffffffffffffffffffff1663214d9b2b6105146040518263ffffffff1660e01b815260040180806020018060200180602001858152602001848103845260088152602001807f434f5649442d3139000000000000000000000000000000000000000000000000815250602001848103835260088152602001807f42756c67617269610000000000000000000000000000000000000000000000008152506020018481038252600f8152602001807f34322e373333392c32352e343835380000000000000000000000000000000000815250602001945050505050602060405180830381600087803b15801562005aba57600080fd5b505af115801562005acf573d6000803e3d6000fd5b505050506040513d602081101562005ae657600080fd5b810190808051906020019092919050505050600160009054906101000a900473ffffffffffffffffffffffffffffffffffffffff1673ffffffffffffffffffffffffffffffffffffffff1663214d9b2b6102786040518263ffffffff1660e01b815260040180806020018060200180602001858152602001848103845260088152602001807f434f5649442d31390000000000000000000000000000000000000000000000008152506020018481038352600c8152602001807f4275726b696e61204661736f00000000000000000000000000000000000000008152506020018481038252600f8152602001807f31322e323338332c2d312e353631360000000000000000000000000000000000815250602001945050505050602060405180830381600087803b15801562005c1b57600080fd5b505af115801562005c30573d6000803e3d6000fd5b505050506040513d602081101562005c4757600080fd5b810190808051906020019092919050505050600160009054906101000a900473ffffffffffffffffffffffffffffffffffffffff1673ffffffffffffffffffffffffffffffffffffffff1663214d9b2b606a6040518263ffffffff1660e01b815260040180806020018060200180602001858152602001848103845260088152602001807f434f5649442d31390000000000000000000000000000000000000000000000008152506020018481038352600a8152602001807f4361626f20566572646500000000000000000000000000000000000000000000815250602001848103825260108152602001807f31362e353338382c2d32332e3034313800000000000000000000000000000000815250602001945050505050602060405180830381600087803b15801562005d7b57600080fd5b505af115801562005d90573d6000803e3d6000fd5b505050506040513d602081101562005da757600080fd5b810190808051906020019092919050505050600160009054906101000a900473ffffffffffffffffffffffffffffffffffffffff1673ffffffffffffffffffffffffffffffffffffffff1663214d9b2b607a6040518263ffffffff1660e01b815260040180806020018060200180602001858152602001848103845260088152602001807f434f5649442d3139000000000000000000000000000000000000000000000000815250602001848103835260088152602001807f43616d626f6469610000000000000000000000000000000000000000000000008152506020018481038252600e8152602001807f31312e35352c3130342e39313637000000000000000000000000000000000000815250602001945050505050602060405180830381600087803b15801562005edb57600080fd5b505af115801562005ef0573d6000803e3d6000fd5b505050506040513d602081101562005f0757600080fd5b810190808051906020019092919050505050600160009054906101000a900473ffffffffffffffffffffffffffffffffffffffff1673ffffffffffffffffffffffffffffffffffffffff1663214d9b2b6106556040518263ffffffff1660e01b815260040180806020018060200180602001858152602001848103845260088152602001807f434f5649442d3139000000000000000000000000000000000000000000000000815250602001848103835260088152602001807f43616d65726f6f6e0000000000000000000000000000000000000000000000008152506020018481038252600d8152602001807f332e3834382c31312e3530323100000000000000000000000000000000000000815250602001945050505050602060405180830381600087803b1580156200603c57600080fd5b505af115801562006051573d6000803e3d6000fd5b505050506040513d60208110156200606857600080fd5b810190808051906020019092919050505050600160009054906101000a900473ffffffffffffffffffffffffffffffffffffffff1673ffffffffffffffffffffffffffffffffffffffff1663214d9b2b6111806040518263ffffffff1660e01b815260040180806020018060200180602001858152602001848103845260088152602001807f434f5649442d3139000000000000000000000000000000000000000000000000815250602001848103835260068152602001807f43616e6164610000000000000000000000000000000000000000000000000000815250602001848103825260118152602001807f35332e393333332c2d3131362e35373635000000000000000000000000000000815250602001945050505050602060405180830381600087803b1580156200619d57600080fd5b505af1158015620061b2573d6000803e3d6000fd5b505050506040513d6020811015620061c957600080fd5b810190808051906020019092919050505050600160009054906101000a900473ffffffffffffffffffffffffffffffffffffffff1673ffffffffffffffffffffffffffffffffffffffff1663214d9b2b61079c6040518263ffffffff1660e01b815260040180806020018060200180602001858152602001848103845260088152602001807f434f5649442d3139000000000000000000000000000000000000000000000000815250602001848103835260068152602001807f43616e6164610000000000000000000000000000000000000000000000000000815250602001848103825260118152602001807f34392e323832372c2d3132332e31323037000000000000000000000000000000815250602001945050505050602060405180830381600087803b158015620062fe57600080fd5b505af115801562006313573d6000803e3d6000fd5b505050506040513d60208110156200632a57600080fd5b810190808051906020019092919050505050600160009054906101000a900473ffffffffffffffffffffffffffffffffffffffff1673ffffffffffffffffffffffffffffffffffffffff1663214d9b2b600d6040518263ffffffff1660e01b815260040180806020018060200180602001858152602001848103845260088152602001807f434f5649442d3139000000000000000000000000000000000000000000000000815250602001848103835260068152602001807f43616e6164610000000000000000000000000000000000000000000000000000815250602001848103825260118152602001807f33372e363438392c2d3132322e36363535000000000000000000000000000000815250602001945050505050602060405180830381600087803b1580156200645e57600080fd5b505af115801562006473573d6000803e3d6000fd5b505050506040513d60208110156200648a57600080fd5b810190808051906020019092919050505050600160009054906101000a900473ffffffffffffffffffffffffffffffffffffffff1673ffffffffffffffffffffffffffffffffffffffff1663214d9b2b61010f6040518263ffffffff1660e01b815260040180806020018060200180602001858152602001848103845260088152602001807f434f5649442d3139000000000000000000000000000000000000000000000000815250602001848103835260068152602001807f43616e6164610000000000000000000000000000000000000000000000000000815250602001848103825260108152602001807f35332e373630392c2d39382e3831333900000000000000000000000000000000815250602001945050505050602060405180830381600087803b158015620065bf57600080fd5b505af1158015620065d4573d6000803e3d6000fd5b505050506040513d6020811015620065eb57600080fd5b810190808051906020019092919050505050600160009054906101000a900473ffffffffffffffffffffffffffffffffffffffff1673ffffffffffffffffffffffffffffffffffffffff1663214d9b2b60766040518263ffffffff1660e01b815260040180806020018060200180602001858152602001848103845260088152602001807f434f5649442d3139000000000000000000000000000000000000000000000000815250602001848103835260068152602001807f43616e6164610000000000000000000000000000000000000000000000000000815250602001848103825260108152602001807f34362e353635332c2d36362e3436313900000000000000000000000000000000815250602001945050505050602060405180830381600087803b1580156200671f57600080fd5b505af115801562006734573d6000803e3d6000fd5b505050506040513d60208110156200674b57600080fd5b810190808051906020019092919050505050600160009054906101000a900473ffffffffffffffffffffffffffffffffffffffff1673ffffffffffffffffffffffffffffffffffffffff1663214d9b2b6101026040518263ffffffff1660e01b815260040180806020018060200180602001858152602001848103845260088152602001807f434f5649442d3139000000000000000000000000000000000000000000000000815250602001848103835260068152602001807f43616e6164610000000000000000000000000000000000000000000000000000815250602001848103825260108152602001807f35332e313335352c2d35372e3636303400000000000000000000000000000000815250602001945050505050602060405180830381600087803b1580156200688057600080fd5b505af115801562006895573d6000803e3d6000fd5b505050506040513d6020811015620068ac57600080fd5b810190808051906020019092919050505050600160009054906101000a900473ffffffffffffffffffffffffffffffffffffffff1673ffffffffffffffffffffffffffffffffffffffff1663214d9b2b6103696040518263ffffffff1660e01b815260040180806020018060200180602001858152602001848103845260088152602001807f434f5649442d3139000000000000000000000000000000000000000000000000815250602001848103835260068152602001807f43616e61646100000000000000000000000000000000000000000000000000008152506020018481038252600f8152602001807f34342e3638322c2d36332e373434330000000000000000000000000000000000815250602001945050505050602060405180830381600087803b158015620069e157600080fd5b505af1158015620069f6573d6000803e3d6000fd5b505050506040513d602081101562006a0d57600080fd5b810190808051906020019092919050505050600160009054906101000a900473ffffffffffffffffffffffffffffffffffffffff1673ffffffffffffffffffffffffffffffffffffffff1663214d9b2b613cd06040518263ffffffff1660e01b815260040180806020018060200180602001858152602001848103845260088152602001807f434f5649442d3139000000000000000000000000000000000000000000000000815250602001848103835260068152602001807f43616e6164610000000000000000000000000000000000000000000000000000815250602001848103825260108152602001807f35312e323533382c2d38352e3332333200000000000000000000000000000000815250602001945050505050602060405180830381600087803b15801562006b4257600080fd5b505af115801562006b57573d6000803e3d6000fd5b505050506040513d602081101562006b6e57600080fd5b810190808051906020019092919050505050600160009054906101000a900473ffffffffffffffffffffffffffffffffffffffff1673ffffffffffffffffffffffffffffffffffffffff1663214d9b2b601a6040518263ffffffff1660e01b815260040180806020018060200180602001858152602001848103845260088152602001807f434f5649442d3139000000000000000000000000000000000000000000000000815250602001848103835260068152602001807f43616e6164610000000000000000000000000000000000000000000000000000815250602001848103825260108152602001807f34362e353130372c2d36332e3431363800000000000000000000000000000000815250602001945050505050602060405180830381600087803b15801562006ca257600080fd5b505af115801562006cb7573d6000803e3d6000fd5b505050506040513d602081101562006cce57600080fd5b810190808051906020019092919050505050600160009054906101000a900473ffffffffffffffffffffffffffffffffffffffff1673ffffffffffffffffffffffffffffffffffffffff1663214d9b2b615e2d6040518263ffffffff1660e01b815260040180806020018060200180602001858152602001848103845260088152602001807f434f5649442d3139000000000000000000000000000000000000000000000000815250602001848103835260068152602001807f43616e6164610000000000000000000000000000000000000000000000000000815250602001848103825260108152602001807f35322e393339392c2d37332e3534393100000000000000000000000000000000815250602001945050505050602060405180830381600087803b15801562006e0357600080fd5b505af115801562006e18573d6000803e3d6000fd5b505050506040513d602081101562006e2f57600080fd5b810190808051906020019092919050505050600160009054906101000a900473ffffffffffffffffffffffffffffffffffffffff1673ffffffffffffffffffffffffffffffffffffffff1663214d9b2b6101616040518263ffffffff1660e01b815260040180806020018060200180602001858152602001848103845260088152602001807f434f5649442d3139000000000000000000000000000000000000000000000000815250602001848103835260068152602001807f43616e6164610000000000000000000000000000000000000000000000000000815250602001848103825260118152602001807f35322e393339392c2d3130362e34353039000000000000000000000000000000815250602001945050505050602060405180830381600087803b15801562006f6457600080fd5b505af115801562006f79573d6000803e3d6000fd5b505050506040513d602081101562006f9057600080fd5b810190808051906020019092919050505050600160009054906101000a900473ffffffffffffffffffffffffffffffffffffffff1673ffffffffffffffffffffffffffffffffffffffff1663214d9b2b60136040518263ffffffff1660e01b815260040180806020018060200180602001858152602001848103845260088152602001807f434f5649442d3139000000000000000000000000000000000000000000000000815250602001848103835260188152602001807f43656e7472616c204166726963616e2052657075626c696300000000000000008152506020018481038252600e8152602001807f362e363131312c32302e39333934000000000000000000000000000000000000815250602001945050505050602060405180830381600087803b158015620070c457600080fd5b505af1158015620070d9573d6000803e3d6000fd5b505050506040513d6020811015620070f057600080fd5b810190808051906020019092919050505050600160009054906101000a900473ffffffffffffffffffffffffffffffffffffffff1673ffffffffffffffffffffffffffffffffffffffff1663214d9b2b602e6040518263ffffffff1660e01b815260040180806020018060200180602001858152602001848103845260088152602001807f434f5649442d3139000000000000000000000000000000000000000000000000815250602001848103835260048152602001807f43686164000000000000000000000000000000000000000000000000000000008152506020018481038252600f8152602001807f31352e343534322c31382e373332320000000000000000000000000000000000815250602001945050505050602060405180830381600087803b1580156200722457600080fd5b505af115801562007239573d6000803e3d6000fd5b505050506040513d60208110156200725057600080fd5b810190808051906020019092919050505050600160009054906101000a900473ffffffffffffffffffffffffffffffffffffffff1673ffffffffffffffffffffffffffffffffffffffff1663214d9b2b6134136040518263ffffffff1660e01b815260040180806020018060200180602001858152602001848103845260088152602001807f434f5649442d3139000000000000000000000000000000000000000000000000815250602001848103835260058152602001807f4368696c65000000000000000000000000000000000000000000000000000000815250602001848103825260108152602001807f2d33352e363735312c2d37312e35343300000000000000000000000000000000815250602001945050505050602060405180830381600087803b1580156200738557600080fd5b505af11580156200739a573d6000803e3d6000fd5b505050506040513d6020811015620073b157600080fd5b810190808051906020019092919050505050600160009054906101000a900473ffffffffffffffffffffffffffffffffffffffff1673ffffffffffffffffffffffffffffffffffffffff1663214d9b2b6103df6040518263ffffffff1660e01b815260040180806020018060200180602001858152602001848103845260088152602001807f434f5649442d3139000000000000000000000000000000000000000000000000815250602001848103835260058152602001807f4368696e61000000000000000000000000000000000000000000000000000000815250602001848103825260108152602001807f33312e383235372c3131372e3232363400000000000000000000000000000000815250602001945050505050602060405180830381600087803b158015620074e657600080fd5b505af1158015620074fb573d6000803e3d6000fd5b505050506040513d60208110156200751257600080fd5b810190808051906020019092919050505050600160009054906101000a900473ffffffffffffffffffffffffffffffffffffffff1673ffffffffffffffffffffffffffffffffffffffff1663214d9b2b6102516040518263ffffffff1660e01b815260040180806020018060200180602001858152602001848103845260088152602001807f434f5649442d3139000000000000000000000000000000000000000000000000815250602001848103835260058152602001807f4368696e61000000000000000000000000000000000000000000000000000000815250602001848103825260108152602001807f34302e313832342c3131362e3431343200000000000000000000000000000000815250602001945050505050602060405180830381600087803b1580156200764757600080fd5b505af11580156200765c573d6000803e3d6000fd5b505050506040513d60208110156200767357600080fd5b810190808051906020019092919050505050600160009054906101000a900473ffffffffffffffffffffffffffffffffffffffff1673ffffffffffffffffffffffffffffffffffffffff1663214d9b2b6102436040518263ffffffff1660e01b815260040180806020018060200180602001858152602001848103845260088152602001807f434f5649442d3139000000000000000000000000000000000000000000000000815250602001848103835260058152602001807f4368696e610000000000000000000000000000000000000000000000000000008152506020018481038252600f8152602001807f33302e303537322c3130372e3837340000000000000000000000000000000000815250602001945050505050602060405180830381600087803b158015620077a857600080fd5b505af1158015620077bd573d6000803e3d6000fd5b505050506040513d6020811015620077d457600080fd5b810190808051906020019092919050505050600160009054906101000a900473ffffffffffffffffffffffffffffffffffffffff1673ffffffffffffffffffffffffffffffffffffffff1663214d9b2b6101636040518263ffffffff1660e01b815260040180806020018060200180602001858152602001848103845260088152602001807f434f5649442d3139000000000000000000000000000000000000000000000000815250602001848103835260058152602001807f4368696e61000000000000000000000000000000000000000000000000000000815250602001848103825260108152602001807f32362e303738392c3131372e3938373400000000000000000000000000000000815250602001945050505050602060405180830381600087803b1580156200790957600080fd5b505af11580156200791e573d6000803e3d6000fd5b505050506040513d60208110156200793557600080fd5b810190808051906020019092919050505050600160009054906101000a900473ffffffffffffffffffffffffffffffffffffffff1673ffffffffffffffffffffffffffffffffffffffff1663214d9b2b608b6040518263ffffffff1660e01b815260040180806020018060200180602001858152602001848103845260088152602001807f434f5649442d3139000000000000000000000000000000000000000000000000815250602001848103835260058152602001807f4368696e61000000000000000000000000000000000000000000000000000000815250602001848103825260108152602001807f33372e383039392c3130312e3035383300000000000000000000000000000000815250602001945050505050602060405180830381600087803b15801562007a6957600080fd5b505af115801562007a7e573d6000803e3d6000fd5b505050506040513d602081101562007a9557600080fd5b810190808051906020019092919050505050600160009054906101000a900473ffffffffffffffffffffffffffffffffffffffff1673ffffffffffffffffffffffffffffffffffffffff1663214d9b2b6106336040518263ffffffff1660e01b815260040180806020018060200180602001858152602001848103845260088152602001807f434f5649442d3139000000000000000000000000000000000000000000000000815250602001848103835260058152602001807f4368696e61000000000000000000000000000000000000000000000000000000815250602001848103825260108152602001807f32332e333431372c3131332e3432343400000000000000000000000000000000815250602001945050505050602060405180830381600087803b15801562007bca57600080fd5b505af115801562007bdf573d6000803e3d6000fd5b505050506040513d602081101562007bf657600080fd5b810190808051906020019092919050505050600160009054906101000a900473ffffffffffffffffffffffffffffffffffffffff1673ffffffffffffffffffffffffffffffffffffffff1663214d9b2b60fe6040518263ffffffff1660e01b815260040180806020018060200180602001858152602001848103845260088152602001807f434f5649442d3139000000000000000000000000000000000000000000000000815250602001848103835260058152602001807f4368696e61000000000000000000000000000000000000000000000000000000815250602001848103825260108152602001807f32332e383239382c3130382e3738383100000000000000000000000000000000815250602001945050505050602060405180830381600087803b15801562007d2a57600080fd5b505af115801562007d3f573d6000803e3d6000fd5b505050506040513d602081101562007d5657600080fd5b810190808051906020019092919050505050600160009054906101000a900473ffffffffffffffffffffffffffffffffffffffff1673ffffffffffffffffffffffffffffffffffffffff1663214d9b2b60936040518263ffffffff1660e01b815260040180806020018060200180602001858152602001848103845260088152602001807f434f5649442d3139000000000000000000000000000000000000000000000000815250602001848103835260058152602001807f4368696e61000000000000000000000000000000000000000000000000000000815250602001848103825260108152602001807f32362e383135342c3130362e3837343800000000000000000000000000000000815250602001945050505050602060405180830381600087803b15801562007e8a57600080fd5b505af115801562007e9f573d6000803e3d6000fd5b505050506040513d602081101562007eb657600080fd5b810190808051906020019092919050505050600160009054906101000a900473ffffffffffffffffffffffffffffffffffffffff1673ffffffffffffffffffffffffffffffffffffffff1663214d9b2b60a86040518263ffffffff1660e01b815260040180806020018060200180602001858152602001848103845260088152602001807f434f5649442d3139000000000000000000000000000000000000000000000000815250602001848103835260058152602001807f4368696e61000000000000000000000000000000000000000000000000000000815250602001848103825260108152602001807f31392e313935392c3130392e3734353300000000000000000000000000000000815250602001945050505050602060405180830381600087803b15801562007fea57600080fd5b505af115801562007fff573d6000803e3d6000fd5b505050506040513d60208110156200801657600080fd5b810190808051906020019092919050505050600160009054906101000a900473ffffffffffffffffffffffffffffffffffffffff1673ffffffffffffffffffffffffffffffffffffffff1663214d9b2b6101486040518263ffffffff1660e01b815260040180806020018060200180602001858152602001848103845260088152602001807f434f5649442d3139000000000000000000000000000000000000000000000000815250602001848103835260058152602001807f4368696e610000000000000000000000000000000000000000000000000000008152506020018481038252600f8152602001807f33392e3534392c3131362e313330360000000000000000000000000000000000815250602001945050505050602060405180830381600087803b1580156200814b57600080fd5b505af115801562008160573d6000803e3d6000fd5b505050506040513d60208110156200817757600080fd5b810190808051906020019092919050505050565b80600260006101000a81548173ffffffffffffffffffffffffffffffffffffffff021916908373ffffffffffffffffffffffffffffffffffffffff160217905550600260009054906101000a900473ffffffffffffffffffffffffffffffffffffffff16600160006101000a81548173ffffffffffffffffffffffffffffffffffffffff021916908373ffffffffffffffffffffffffffffffffffffffff16021790555050565b600160009054906101000a900473ffffffffffffffffffffffffffffffffffffffff1673ffffffffffffffffffffffffffffffffffffffff1663214d9b2b6103a86040518263ffffffff1660e01b815260040180806020018060200180602001858152602001848103845260088152602001807f434f5649442d3139000000000000000000000000000000000000000000000000815250602001848103835260058152602001807f4368696e610000000000000000000000000000000000000000000000000000008152506020018481038252600f8152602001807f34372e3836322c3132372e373631350000000000000000000000000000000000815250602001945050505050602060405180830381600087803b1580156200835557600080fd5b505af11580156200836a573d6000803e3d6000fd5b505050506040513d60208110156200838157600080fd5b810190808051906020019092919050505050600160009054906101000a900473ffffffffffffffffffffffffffffffffffffffff1673ffffffffffffffffffffffffffffffffffffffff1663214d9b2b6104fc6040518263ffffffff1660e01b815260040180806020018060200180602001858152602001848103845260088152602001807f434f5649442d3139000000000000000000000000000000000000000000000000815250602001848103835260058152602001807f4368696e610000000000000000000000000000000000000000000000000000008152506020018481038252600e8152602001807f33332e3838322c3131332e363134000000000000000000000000000000000000815250602001945050505050602060405180830381600087803b158015620084b657600080fd5b505af1158015620084cb573d6000803e3d6000fd5b505050506040513d6020811015620084e257600080fd5b810190808051906020019092919050505050600160009054906101000a900473ffffffffffffffffffffffffffffffffffffffff1673ffffffffffffffffffffffffffffffffffffffff1663214d9b2b61040d6040518263ffffffff1660e01b815260040180806020018060200180602001858152602001848103845260088152602001807f434f5649442d3139000000000000000000000000000000000000000000000000815250602001848103835260058152602001807f4368696e610000000000000000000000000000000000000000000000000000008152506020018481038252600a8152602001807f32322e332c3131342e3200000000000000000000000000000000000000000000815250602001945050505050602060405180830381600087803b1580156200861757600080fd5b505af11580156200862c573d6000803e3d6000fd5b505050506040513d60208110156200864357600080fd5b810190808051906020019092919050505050600160009054906101000a900473ffffffffffffffffffffffffffffffffffffffff1673ffffffffffffffffffffffffffffffffffffffff1663214d9b2b62010a206040518263ffffffff1660e01b815260040180806020018060200180602001858152602001848103845260088152602001807f434f5649442d3139000000000000000000000000000000000000000000000000815250602001848103835260058152602001807f4368696e61000000000000000000000000000000000000000000000000000000815250602001848103825260108152602001807f33302e393735362c3131322e3237303700000000000000000000000000000000815250602001945050505050602060405180830381600087803b1580156200877957600080fd5b505af11580156200878e573d6000803e3d6000fd5b505050506040513d6020811015620087a557600080fd5b810190808051906020019092919050505050600160009054906101000a900473ffffffffffffffffffffffffffffffffffffffff1673ffffffffffffffffffffffffffffffffffffffff1663214d9b2b6103fb6040518263ffffffff1660e01b815260040180806020018060200180602001858152602001848103845260088152602001807f434f5649442d3139000000000000000000000000000000000000000000000000815250602001848103835260058152602001807f4368696e61000000000000000000000000000000000000000000000000000000815250602001848103825260108152602001807f32372e363130342c3131312e3730383800000000000000000000000000000000815250602001945050505050602060405180830381600087803b158015620088da57600080fd5b505af1158015620088ef573d6000803e3d6000fd5b505050506040513d60208110156200890657600080fd5b810190808051906020019092919050505050600160009054906101000a900473ffffffffffffffffffffffffffffffffffffffff1673ffffffffffffffffffffffffffffffffffffffff1663214d9b2b60c66040518263ffffffff1660e01b815260040180806020018060200180602001858152602001848103845260088152602001807f434f5649442d3139000000000000000000000000000000000000000000000000815250602001848103835260058152602001807f4368696e61000000000000000000000000000000000000000000000000000000815250602001848103825260108152602001807f34342e303933352c3131332e3934343800000000000000000000000000000000815250602001945050505050602060405180830381600087803b15801562008a3a57600080fd5b505af115801562008a4f573d6000803e3d6000fd5b505050506040513d602081101562008a6657600080fd5b810190808051906020019092919050505050600160009054906101000a900473ffffffffffffffffffffffffffffffffffffffff1673ffffffffffffffffffffffffffffffffffffffff1663214d9b2b61028d6040518263ffffffff1660e01b815260040180806020018060200180602001858152602001848103845260088152602001807f434f5649442d3139000000000000000000000000000000000000000000000000815250602001848103835260058152602001807f4368696e610000000000000000000000000000000000000000000000000000008152506020018481038252600f8152602001807f33322e393731312c3131392e3435350000000000000000000000000000000000815250602001945050505050602060405180830381600087803b15801562008b9b57600080fd5b505af115801562008bb0573d6000803e3d6000fd5b505050506040513d602081101562008bc757600080fd5b810190808051906020019092919050505050600160009054906101000a900473ffffffffffffffffffffffffffffffffffffffff1673ffffffffffffffffffffffffffffffffffffffff1663214d9b2b6103a96040518263ffffffff1660e01b815260040180806020018060200180602001858152602001848103845260088152602001807f434f5649442d3139000000000000000000000000000000000000000000000000815250602001848103835260058152602001807f4368696e610000000000000000000000000000000000000000000000000000008152506020018481038252600f8152602001807f32372e3631342c3131352e373232310000000000000000000000000000000000815250602001945050505050602060405180830381600087803b15801562008cfc57600080fd5b505af115801562008d11573d6000803e3d6000fd5b505050506040513d602081101562008d2857600080fd5b810190808051906020019092919050505050600160009054906101000a900473ffffffffffffffffffffffffffffffffffffffff1673ffffffffffffffffffffffffffffffffffffffff1663214d9b2b606e6040518263ffffffff1660e01b815260040180806020018060200180602001858152602001848103845260088152602001807f434f5649442d3139000000000000000000000000000000000000000000000000815250602001848103835260058152602001807f4368696e61000000000000000000000000000000000000000000000000000000815250602001848103825260108152602001807f34332e363636312c3132362e3139323300000000000000000000000000000000815250602001945050505050602060405180830381600087803b15801562008e5c57600080fd5b505af115801562008e71573d6000803e3d6000fd5b505050506040513d602081101562008e8857600080fd5b810190808051906020019092919050505050600160009054906101000a900473ffffffffffffffffffffffffffffffffffffffff1673ffffffffffffffffffffffffffffffffffffffff1663214d9b2b60926040518263ffffffff1660e01b815260040180806020018060200180602001858152602001848103845260088152602001807f434f5649442d3139000000000000000000000000000000000000000000000000815250602001848103835260058152602001807f4368696e61000000000000000000000000000000000000000000000000000000815250602001848103825260108152602001807f34312e323935362c3132322e3630383500000000000000000000000000000000815250602001945050505050602060405180830381600087803b15801562008fbc57600080fd5b505af115801562008fd1573d6000803e3d6000fd5b505050506040513d602081101562008fe857600080fd5b810190808051906020019092919050505050600160009054906101000a900473ffffffffffffffffffffffffffffffffffffffff1673ffffffffffffffffffffffffffffffffffffffff1663214d9b2b602d6040518263ffffffff1660e01b815260040180806020018060200180602001858152602001848103845260088152602001807f434f5649442d3139000000000000000000000000000000000000000000000000815250602001848103835260058152602001807f4368696e610000000000000000000000000000000000000000000000000000008152506020018481038252600e8152602001807f32322e313636372c3131332e3535000000000000000000000000000000000000815250602001945050505050602060405180830381600087803b1580156200911c57600080fd5b505af115801562009131573d6000803e3d6000fd5b505050506040513d60208110156200914857600080fd5b810190808051906020019092919050505050600160009054906101000a900473ffffffffffffffffffffffffffffffffffffffff1673ffffffffffffffffffffffffffffffffffffffff1663214d9b2b604b6040518263ffffffff1660e01b815260040180806020018060200180602001858152602001848103845260088152602001807f434f5649442d3139000000000000000000000000000000000000000000000000815250602001848103835260058152602001807f4368696e61000000000000000000000000000000000000000000000000000000815250602001848103825260108152602001807f33372e323639322c3130362e3136353500000000000000000000000000000000815250602001945050505050602060405180830381600087803b1580156200927c57600080fd5b505af115801562009291573d6000803e3d6000fd5b505050506040513d6020811015620092a857600080fd5b810190808051906020019092919050505050600160009054906101000a900473ffffffffffffffffffffffffffffffffffffffff1673ffffffffffffffffffffffffffffffffffffffff1663214d9b2b60126040518263ffffffff1660e01b815260040180806020018060200180602001858152602001848103845260088152602001807f434f5649442d3139000000000000000000000000000000000000000000000000815250602001848103835260058152602001807f4368696e610000000000000000000000000000000000000000000000000000008152506020018481038252600f8152602001807f33352e373435322c39352e393935360000000000000000000000000000000000815250602001945050505050602060405180830381600087803b158015620093dc57600080fd5b505af1158015620093f1573d6000803e3d6000fd5b505050506040513d60208110156200940857600080fd5b810190808051906020019092919050505050600160009054906101000a900473ffffffffffffffffffffffffffffffffffffffff1673ffffffffffffffffffffffffffffffffffffffff1663214d9b2b61011e6040518263ffffffff1660e01b815260040180806020018060200180602001858152602001848103845260088152602001807f434f5649442d3139000000000000000000000000000000000000000000000000815250602001848103835260058152602001807f4368696e61000000000000000000000000000000000000000000000000000000815250602001848103825260108152602001807f33352e313931372c3130382e3837303100000000000000000000000000000000815250602001945050505050602060405180830381600087803b1580156200953d57600080fd5b505af115801562009552573d6000803e3d6000fd5b505050506040513d60208110156200956957600080fd5b810190808051906020019092919050505050600160009054906101000a900473ffffffffffffffffffffffffffffffffffffffff1673ffffffffffffffffffffffffffffffffffffffff1663214d9b2b6103136040518263ffffffff1660e01b815260040180806020018060200180602001858152602001848103845260088152602001807f434f5649442d3139000000000000000000000000000000000000000000000000815250602001848103835260058152602001807f4368696e61000000000000000000000000000000000000000000000000000000815250602001848103825260108152602001807f33362e333432372c3131382e3134393800000000000000000000000000000000815250602001945050505050602060405180830381600087803b1580156200969e57600080fd5b505af1158015620096b3573d6000803e3d6000fd5b505050506040513d6020811015620096ca57600080fd5b810190808051906020019092919050505050600160009054906101000a900473ffffffffffffffffffffffffffffffffffffffff1673ffffffffffffffffffffffffffffffffffffffff1663214d9b2b6102826040518263ffffffff1660e01b815260040180806020018060200180602001858152602001848103845260088152602001807f434f5649442d3139000000000000000000000000000000000000000000000000815250602001848103835260058152602001807f4368696e610000000000000000000000000000000000000000000000000000008152506020018481038252600f8152602001807f33312e3230322c3132312e343439310000000000000000000000000000000000815250602001945050505050602060405180830381600087803b158015620097ff57600080fd5b505af115801562009814573d6000803e3d6000fd5b505050506040513d60208110156200982b57600080fd5b810190808051906020019092919050505050600160009054906101000a900473ffffffffffffffffffffffffffffffffffffffff1673ffffffffffffffffffffffffffffffffffffffff1663214d9b2b60c56040518263ffffffff1660e01b815260040180806020018060200180602001858152602001848103845260088152602001807f434f5649442d3139000000000000000000000000000000000000000000000000815250602001848103835260058152602001807f4368696e61000000000000000000000000000000000000000000000000000000815250602001848103825260108152602001807f33372e353737372c3131322e3239323200000000000000000000000000000000815250602001945050505050602060405180830381600087803b1580156200995f57600080fd5b505af115801562009974573d6000803e3d6000fd5b505050506040513d60208110156200998b57600080fd5b810190808051906020019092919050505050600160009054906101000a900473ffffffffffffffffffffffffffffffffffffffff1673ffffffffffffffffffffffffffffffffffffffff1663214d9b2b6102316040518263ffffffff1660e01b815260040180806020018060200180602001858152602001848103845260088152602001807f434f5649442d3139000000000000000000000000000000000000000000000000815250602001848103835260058152602001807f4368696e61000000000000000000000000000000000000000000000000000000815250602001848103825260108152602001807f33302e363137312c3130322e3731303300000000000000000000000000000000815250602001945050505050602060405180830381600087803b15801562009ac057600080fd5b505af115801562009ad5573d6000803e3d6000fd5b505050506040513d602081101562009aec57600080fd5b810190808051906020019092919050505050600160009054906101000a900473ffffffffffffffffffffffffffffffffffffffff1673ffffffffffffffffffffffffffffffffffffffff1663214d9b2b60be6040518263ffffffff1660e01b815260040180806020018060200180602001858152602001848103845260088152602001807f434f5649442d3139000000000000000000000000000000000000000000000000815250602001848103835260058152602001807f4368696e610000000000000000000000000000000000000000000000000000008152506020018481038252600f8152602001807f33392e333035342c3131372e3332330000000000000000000000000000000000815250602001945050505050602060405180830381600087803b15801562009c2057600080fd5b505af115801562009c35573d6000803e3d6000fd5b505050506040513d602081101562009c4c57600080fd5b810190808051906020019092919050505050600160009054906101000a900473ffffffffffffffffffffffffffffffffffffffff1673ffffffffffffffffffffffffffffffffffffffff1663214d9b2b60016040518263ffffffff1660e01b815260040180806020018060200180602001858152602001848103845260088152602001807f434f5649442d3139000000000000000000000000000000000000000000000000815250602001848103835260058152602001807f4368696e610000000000000000000000000000000000000000000000000000008152506020018481038252600f8152602001807f33312e363932372c38382e303932340000000000000000000000000000000000815250602001945050505050602060405180830381600087803b15801562009d8057600080fd5b505af115801562009d95573d6000803e3d6000fd5b505050506040513d602081101562009dac57600080fd5b810190808051906020019092919050505050600160009054906101000a900473ffffffffffffffffffffffffffffffffffffffff1673ffffffffffffffffffffffffffffffffffffffff1663214d9b2b604c6040518263ffffffff1660e01b815260040180806020018060200180602001858152602001848103845260088152602001807f434f5649442d3139000000000000000000000000000000000000000000000000815250602001848103835260058152602001807f4368696e610000000000000000000000000000000000000000000000000000008152506020018481038252600f8152602001807f34312e313132392c38352e323430310000000000000000000000000000000000815250602001945050505050602060405180830381600087803b15801562009ee057600080fd5b505af115801562009ef5573d6000803e3d6000fd5b505050506040513d602081101562009f0c57600080fd5b810190808051906020019092919050505050600160009054906101000a900473ffffffffffffffffffffffffffffffffffffffff1673ffffffffffffffffffffffffffffffffffffffff1663214d9b2b60b96040518263ffffffff1660e01b815260040180806020018060200180602001858152602001848103845260088152602001807f434f5649442d3139000000000000000000000000000000000000000000000000815250602001848103835260058152602001807f4368696e610000000000000000000000000000000000000000000000000000008152506020018481038252600e8152602001807f32342e3937342c3130312e343837000000000000000000000000000000000000815250602001945050505050602060405180830381600087803b1580156200a04057600080fd5b505af11580156200a055573d6000803e3d6000fd5b505050506040513d60208110156200a06c57600080fd5b810190808051906020019092919050505050600160009054906101000a900473ffffffffffffffffffffffffffffffffffffffff1673ffffffffffffffffffffffffffffffffffffffff1663214d9b2b6104f46040518263ffffffff1660e01b815260040180806020018060200180602001858152602001848103845260088152602001807f434f5649442d3139000000000000000000000000000000000000000000000000815250602001848103835260058152602001807f4368696e61000000000000000000000000000000000000000000000000000000815250602001848103825260108152602001807f32392e313833322c3132302e3039333400000000000000000000000000000000815250602001945050505050602060405180830381600087803b1580156200a1a157600080fd5b505af11580156200a1b6573d6000803e3d6000fd5b505050506040513d60208110156200a1cd57600080fd5b810190808051906020019092919050505050600160009054906101000a900473ffffffffffffffffffffffffffffffffffffffff1673ffffffffffffffffffffffffffffffffffffffff1663214d9b2b6115036040518263ffffffff1660e01b815260040180806020018060200180602001858152602001848103845260088152602001807f434f5649442d3139000000000000000000000000000000000000000000000000815250602001848103835260088152602001807f436f6c6f6d6269610000000000000000000000000000000000000000000000008152506020018481038252600f8152602001807f342e353730392c2d37342e323937330000000000000000000000000000000000815250602001945050505050602060405180830381600087803b1580156200a30257600080fd5b505af11580156200a317573d6000803e3d6000fd5b505050506040513d60208110156200a32e57600080fd5b810190808051906020019092919050505050600160009054906101000a900473ffffffffffffffffffffffffffffffffffffffff1673ffffffffffffffffffffffffffffffffffffffff1663214d9b2b60c86040518263ffffffff1660e01b815260040180806020018060200180602001858152602001848103845260088152602001807f434f5649442d3139000000000000000000000000000000000000000000000000815250602001848103835260138152602001807f436f6e676f20284272617a7a6176696c6c6529000000000000000000000000008152506020018481038252600f8152602001807f2d342e303338332c32312e373538370000000000000000000000000000000000815250602001945050505050602060405180830381600087803b1580156200a46257600080fd5b505af11580156200a477573d6000803e3d6000fd5b505050506040513d60208110156200a48e57600080fd5b810190808051906020019092919050505050600160009054906101000a900473ffffffffffffffffffffffffffffffffffffffff1673ffffffffffffffffffffffffffffffffffffffff1663214d9b2b6101ba6040518263ffffffff1660e01b815260040180806020018060200180602001858152602001848103845260088152602001807f434f5649442d3139000000000000000000000000000000000000000000000000815250602001848103835260108152602001807f436f6e676f20284b696e736861736129000000000000000000000000000000008152506020018481038252600f8152602001807f2d342e303338332c32312e373538370000000000000000000000000000000000815250602001945050505050602060405180830381600087803b1580156200a5c357600080fd5b505af11580156200a5d8573d6000803e3d6000fd5b505050506040513d60208110156200a5ef57600080fd5b810190808051906020019092919050505050600160009054906101000a900473ffffffffffffffffffffffffffffffffffffffff1673ffffffffffffffffffffffffffffffffffffffff1663214d9b2b6102b76040518263ffffffff1660e01b815260040180806020018060200180602001858152602001848103845260088152602001807f434f5649442d31390000000000000000000000000000000000000000000000008152506020018481038352600a8152602001807f436f7374612052696361000000000000000000000000000000000000000000008152506020018481038252600f8152602001807f392e373438392c2d38332e373533340000000000000000000000000000000000815250602001945050505050602060405180830381600087803b1580156200a72457600080fd5b505af11580156200a739573d6000803e3d6000fd5b505050506040513d60208110156200a75057600080fd5b810190808051906020019092919050505050600160009054906101000a900473ffffffffffffffffffffffffffffffffffffffff1673ffffffffffffffffffffffffffffffffffffffff1663214d9b2b61047e6040518263ffffffff1660e01b815260040180806020018060200180602001858152602001848103845260088152602001807f434f5649442d31390000000000000000000000000000000000000000000000008152506020018481038352600d8152602001807f436f746520642749766f697265000000000000000000000000000000000000008152506020018481038252600c8152602001807f372e35342c2d352e353437310000000000000000000000000000000000000000815250602001945050505050602060405180830381600087803b1580156200a88557600080fd5b505af11580156200a89a573d6000803e3d6000fd5b505050506040513d60208110156200a8b157600080fd5b810190808051906020019092919050505050600160009054906101000a900473ffffffffffffffffffffffffffffffffffffffff1673ffffffffffffffffffffffffffffffffffffffff1663214d9b2b6107ee6040518263ffffffff1660e01b815260040180806020018060200180602001858152602001848103845260088152602001807f434f5649442d3139000000000000000000000000000000000000000000000000815250602001848103835260078152602001807f43726f6174696100000000000000000000000000000000000000000000000000815250602001848103825260098152602001807f34352e312c31352e320000000000000000000000000000000000000000000000815250602001945050505050602060405180830381600087803b1580156200a9e657600080fd5b505af11580156200a9fb573d6000803e3d6000fd5b505050506040513d60208110156200aa1257600080fd5b810190808051906020019092919050505050600160009054906101000a900473ffffffffffffffffffffffffffffffffffffffff1673ffffffffffffffffffffffffffffffffffffffff1663214d9b2b6102c86040518263ffffffff1660e01b815260040180806020018060200180602001858152602001848103845260088152602001807f434f5649442d3139000000000000000000000000000000000000000000000000815250602001848103835260108152602001807f4469616d6f6e64205072696e6365737300000000000000000000000000000000815250602001848103825260038152602001807f302c300000000000000000000000000000000000000000000000000000000000815250602001945050505050602060405180830381600087803b1580156200ab4757600080fd5b505af11580156200ab5c573d6000803e3d6000fd5b505050506040513d60208110156200ab7357600080fd5b810190808051906020019092919050505050600160009054906101000a900473ffffffffffffffffffffffffffffffffffffffff1673ffffffffffffffffffffffffffffffffffffffff1663214d9b2b6105596040518263ffffffff1660e01b815260040180806020018060200180602001858152602001848103845260088152602001807f434f5649442d3139000000000000000000000000000000000000000000000000815250602001848103835260048152602001807f4375626100000000000000000000000000000000000000000000000000000000815250602001848103825260068152602001807f32322c2d38300000000000000000000000000000000000000000000000000000815250602001945050505050602060405180830381600087803b1580156200aca857600080fd5b505af11580156200acbd573d6000803e3d6000fd5b505050506040513d60208110156200acd457600080fd5b810190808051906020019092919050505050565b600160009054906101000a900473ffffffffffffffffffffffffffffffffffffffff1673ffffffffffffffffffffffffffffffffffffffff1663214d9b2b6105fb6040518263ffffffff1660e01b815260040180806020018060200180602001858152602001848103845260088152602001807f434f5649442d31390000000000000000000000000000000000000000000000008152506020018481038352600b8152602001807f41666768616e697374616e000000000000000000000000000000000000000000815250602001848103825260058152602001807f33332c3635000000000000000000000000000000000000000000000000000000815250602001945050505050602060405180830381600087803b1580156200ae0b57600080fd5b505af11580156200ae20573d6000803e3d6000fd5b505050506040513d60208110156200ae3757600080fd5b810190808051906020019092919050505050600160009054906101000a900473ffffffffffffffffffffffffffffffffffffffff1673ffffffffffffffffffffffffffffffffffffffff1663214d9b2b6102d66040518263ffffffff1660e01b815260040180806020018060200180602001858152602001848103845260088152602001807f434f5649442d3139000000000000000000000000000000000000000000000000815250602001848103835260078152602001807f416c62616e6961000000000000000000000000000000000000000000000000008152506020018481038252600f8152602001807f34312e313533332c32302e313638330000000000000000000000000000000000815250602001945050505050602060405180830381600087803b1580156200af6c57600080fd5b505af11580156200af81573d6000803e3d6000fd5b505050506040513d60208110156200af9857600080fd5b810190808051906020019092919050505050600160009054906101000a900473ffffffffffffffffffffffffffffffffffffffff1673ffffffffffffffffffffffffffffffffffffffff1663214d9b2b610d366040518263ffffffff1660e01b815260040180806020018060200180602001858152602001848103845260088152602001807f434f5649442d3139000000000000000000000000000000000000000000000000815250602001848103835260078152602001807f416c6765726961000000000000000000000000000000000000000000000000008152506020018481038252600e8152602001807f32382e303333392c312e36353936000000000000000000000000000000000000815250602001945050505050602060405180830381600087803b1580156200b0cd57600080fd5b505af11580156200b0e2573d6000803e3d6000fd5b505050506040513d60208110156200b0f957600080fd5b810190808051906020019092919050505050600160009054906101000a900473ffffffffffffffffffffffffffffffffffffffff1673ffffffffffffffffffffffffffffffffffffffff1663214d9b2b6102e26040518263ffffffff1660e01b815260040180806020018060200180602001858152602001848103845260088152602001807f434f5649442d3139000000000000000000000000000000000000000000000000815250602001848103835260078152602001807f416e646f727261000000000000000000000000000000000000000000000000008152506020018481038252600e8152602001807f34322e353036332c312e35323138000000000000000000000000000000000000815250602001945050505050602060405180830381600087803b1580156200b22e57600080fd5b505af11580156200b243573d6000803e3d6000fd5b505050506040513d60208110156200b25a57600080fd5b810190808051906020019092919050505050600160009054906101000a900473ffffffffffffffffffffffffffffffffffffffff1673ffffffffffffffffffffffffffffffffffffffff1663214d9b2b601a6040518263ffffffff1660e01b815260040180806020018060200180602001858152602001848103845260088152602001807f434f5649442d3139000000000000000000000000000000000000000000000000815250602001848103835260068152602001807f416e676f6c610000000000000000000000000000000000000000000000000000815250602001848103825260108152602001807f2d31312e323032372c31372e3837333900000000000000000000000000000000815250602001945050505050602060405180830381600087803b1580156200b38e57600080fd5b505af11580156200b3a3573d6000803e3d6000fd5b505050506040513d60208110156200b3ba57600080fd5b810190808051906020019092919050505050600160009054906101000a900473ffffffffffffffffffffffffffffffffffffffff1673ffffffffffffffffffffffffffffffffffffffff1663214d9b2b60186040518263ffffffff1660e01b815260040180806020018060200180602001858152602001848103845260088152602001807f434f5649442d3139000000000000000000000000000000000000000000000000815250602001848103835260138152602001807f416e746967756120616e64204261726275646100000000000000000000000000815250602001848103825260108152602001807f31372e303630382c2d36312e3739363400000000000000000000000000000000815250602001945050505050602060405180830381600087803b1580156200b4ee57600080fd5b505af11580156200b503573d6000803e3d6000fd5b505050506040513d60208110156200b51a57600080fd5b810190808051906020019092919050505050600160009054906101000a900473ffffffffffffffffffffffffffffffffffffffff1673ffffffffffffffffffffffffffffffffffffffff1663214d9b2b610f346040518263ffffffff1660e01b815260040180806020018060200180602001858152602001848103845260088152602001807f434f5649442d3139000000000000000000000000000000000000000000000000815250602001848103835260098152602001807f417267656e74696e610000000000000000000000000000000000000000000000815250602001848103825260118152602001807f2d33382e343136312c2d36332e36313637000000000000000000000000000000815250602001945050505050602060405180830381600087803b1580156200b64f57600080fd5b505af11580156200b664573d6000803e3d6000fd5b505050506040513d60208110156200b67b57600080fd5b810190808051906020019092919050505050600160009054906101000a900473ffffffffffffffffffffffffffffffffffffffff1673ffffffffffffffffffffffffffffffffffffffff1663214d9b2b6106d26040518263ffffffff1660e01b815260040180806020018060200180602001858152602001848103845260088152602001807f434f5649442d3139000000000000000000000000000000000000000000000000815250602001848103835260078152602001807f41726d656e6961000000000000000000000000000000000000000000000000008152506020018481038252600f8152602001807f34302e303639312c34352e303338320000000000000000000000000000000000815250602001945050505050602060405180830381600087803b1580156200b7b057600080fd5b505af11580156200b7c5573d6000803e3d6000fd5b505050506040513d60208110156200b7dc57600080fd5b810190808051906020019092919050505050600160009054906101000a900473ffffffffffffffffffffffffffffffffffffffff1673ffffffffffffffffffffffffffffffffffffffff1663214d9b2b606a6040518263ffffffff1660e01b815260040180806020018060200180602001858152602001848103845260088152602001807f434f5649442d3139000000000000000000000000000000000000000000000000815250602001848103835260098152602001807f4175737472616c69610000000000000000000000000000000000000000000000815250602001848103825260118152602001807f2d33352e343733352c3134392e30313234000000000000000000000000000000815250602001945050505050602060405180830381600087803b1580156200b91057600080fd5b505af11580156200b925573d6000803e3d6000fd5b505050506040513d60208110156200b93c57600080fd5b810190808051906020019092919050505050600160009054906101000a900473ffffffffffffffffffffffffffffffffffffffff1673ffffffffffffffffffffffffffffffffffffffff1663214d9b2b610bba6040518263ffffffff1660e01b815260040180806020018060200180602001858152602001848103845260088152602001807f434f5649442d3139000000000000000000000000000000000000000000000000815250602001848103835260098152602001807f4175737472616c69610000000000000000000000000000000000000000000000815250602001848103825260118152602001807f2d33332e383638382c3135312e32303933000000000000000000000000000000815250602001945050505050602060405180830381600087803b1580156200ba7157600080fd5b505af11580156200ba86573d6000803e3d6000fd5b505050506040513d60208110156200ba9d57600080fd5b810190808051906020019092919050505050600160009054906101000a900473ffffffffffffffffffffffffffffffffffffffff1673ffffffffffffffffffffffffffffffffffffffff1663214d9b2b601c6040518263ffffffff1660e01b815260040180806020018060200180602001858152602001848103845260088152602001807f434f5649442d3139000000000000000000000000000000000000000000000000815250602001848103835260098152602001807f4175737472616c69610000000000000000000000000000000000000000000000815250602001848103825260118152602001807f2d31322e343633342c3133302e38343536000000000000000000000000000000815250602001945050505050602060405180830381600087803b1580156200bbd157600080fd5b505af11580156200bbe6573d6000803e3d6000fd5b505050506040513d60208110156200bbfd57600080fd5b810190808051906020019092919050505050600160009054906101000a900473ffffffffffffffffffffffffffffffffffffffff1673ffffffffffffffffffffffffffffffffffffffff1663214d9b2b6104066040518263ffffffff1660e01b815260040180806020018060200180602001858152602001848103845260088152602001807f434f5649442d3139000000000000000000000000000000000000000000000000815250602001848103835260098152602001807f4175737472616c696100000000000000000000000000000000000000000000008152506020018481038252600e8152602001807f2d32382e303136372c3135332e34000000000000000000000000000000000000815250602001945050505050602060405180830381600087803b1580156200bd3257600080fd5b505af11580156200bd47573d6000803e3d6000fd5b505050506040513d60208110156200bd5e57600080fd5b810190808051906020019092919050505050600160009054906101000a900473ffffffffffffffffffffffffffffffffffffffff1673ffffffffffffffffffffffffffffffffffffffff1663214d9b2b6101b66040518263ffffffff1660e01b815260040180806020018060200180602001858152602001848103845260088152602001807f434f5649442d3139000000000000000000000000000000000000000000000000815250602001848103835260098152602001807f4175737472616c69610000000000000000000000000000000000000000000000815250602001848103825260118152602001807f2d33342e393238352c3133382e36303037000000000000000000000000000000815250602001945050505050602060405180830381600087803b1580156200be9357600080fd5b505af11580156200bea8573d6000803e3d6000fd5b505050506040513d60208110156200bebf57600080fd5b810190808051906020019092919050505050600160009054906101000a900473ffffffffffffffffffffffffffffffffffffffff1673ffffffffffffffffffffffffffffffffffffffff1663214d9b2b60d46040518263ffffffff1660e01b815260040180806020018060200180602001858152602001848103845260088152602001807f434f5649442d3139000000000000000000000000000000000000000000000000815250602001848103835260098152602001807f4175737472616c69610000000000000000000000000000000000000000000000815250602001848103825260118152602001807f2d34312e343534352c3134352e39373037000000000000000000000000000000815250602001945050505050602060405180830381600087803b1580156200bff357600080fd5b505af11580156200c008573d6000803e3d6000fd5b505050506040513d60208110156200c01f57600080fd5b810190808051906020019092919050505050600160009054906101000a900473ffffffffffffffffffffffffffffffffffffffff1673ffffffffffffffffffffffffffffffffffffffff1663214d9b2b6105456040518263ffffffff1660e01b815260040180806020018060200180602001858152602001848103845260088152602001807f434f5649442d3139000000000000000000000000000000000000000000000000815250602001848103835260098152602001807f4175737472616c69610000000000000000000000000000000000000000000000815250602001848103825260118152602001807f2d33372e383133362c3134342e39363331000000000000000000000000000000815250602001945050505050602060405180830381600087803b1580156200c15457600080fd5b505af11580156200c169573d6000803e3d6000fd5b505050506040513d60208110156200c18057600080fd5b810190808051906020019092919050505050600160009054906101000a900473ffffffffffffffffffffffffffffffffffffffff1673ffffffffffffffffffffffffffffffffffffffff1663214d9b2b6102256040518263ffffffff1660e01b815260040180806020018060200180602001858152602001848103845260088152602001807f434f5649442d3139000000000000000000000000000000000000000000000000815250602001848103835260098152602001807f4175737472616c69610000000000000000000000000000000000000000000000815250602001848103825260118152602001807f2d33312e393530352c3131352e38363035000000000000000000000000000000815250602001945050505050602060405180830381600087803b1580156200c2b557600080fd5b505af11580156200c2ca573d6000803e3d6000fd5b505050506040513d60208110156200c2e157600080fd5b810190808051906020019092919050505050600160009054906101000a900473ffffffffffffffffffffffffffffffffffffffff1673ffffffffffffffffffffffffffffffffffffffff1663214d9b2b613b796040518263ffffffff1660e01b815260040180806020018060200180602001858152602001848103845260088152602001807f434f5649442d3139000000000000000000000000000000000000000000000000815250602001848103835260078152602001807f41757374726961000000000000000000000000000000000000000000000000008152506020018481038252600f8152602001807f34372e353136322c31342e353530310000000000000000000000000000000000815250602001945050505050602060405180830381600087803b1580156200c41657600080fd5b505af11580156200c42b573d6000803e3d6000fd5b505050506040513d60208110156200c44257600080fd5b810190808051906020019092919050505050600160009054906101000a900473ffffffffffffffffffffffffffffffffffffffff1673ffffffffffffffffffffffffffffffffffffffff1663214d9b2b61066d6040518263ffffffff1660e01b815260040180806020018060200180602001858152602001848103845260088152602001807f434f5649442d31390000000000000000000000000000000000000000000000008152506020018481038352600a8152602001807f417a65726261696a616e000000000000000000000000000000000000000000008152506020018481038252600f8152602001807f34302e313433312c34372e353736390000000000000000000000000000000000815250602001945050505050602060405180830381600087803b1580156200c57757600080fd5b505af11580156200c58c573d6000803e3d6000fd5b505050506040513d60208110156200c5a357600080fd5b810190808051906020019092919050505050600160009054906101000a900473ffffffffffffffffffffffffffffffffffffffff1673ffffffffffffffffffffffffffffffffffffffff1663214d9b2b60506040518263ffffffff1660e01b815260040180806020018060200180602001858152602001848103845260088152602001807f434f5649442d3139000000000000000000000000000000000000000000000000815250602001848103835260078152602001807f426168616d617300000000000000000000000000000000000000000000000000815250602001848103825260108152602001807f32352e303334332c2d37372e3339363300000000000000000000000000000000815250602001945050505050602060405180830381600087803b1580156200c6d757600080fd5b505af11580156200c6ec573d6000803e3d6000fd5b505050506040513d60208110156200c70357600080fd5b810190808051906020019092919050505050600160009054906101000a900473ffffffffffffffffffffffffffffffffffffffff1673ffffffffffffffffffffffffffffffffffffffff1663214d9b2b610a576040518263ffffffff1660e01b815260040180806020018060200180602001858152602001848103845260088152602001807f434f5649442d3139000000000000000000000000000000000000000000000000815250602001848103835260078152602001807f4261687261696e000000000000000000000000000000000000000000000000008152506020018481038252600d8152602001807f32362e303237352c35302e353500000000000000000000000000000000000000815250602001945050505050602060405180830381600087803b1580156200c83857600080fd5b505af11580156200c84d573d6000803e3d6000fd5b505050506040513d60208110156200c86457600080fd5b810190808051906020019092919050505050600160009054906101000a900473ffffffffffffffffffffffffffffffffffffffff1673ffffffffffffffffffffffffffffffffffffffff1663214d9b2b6115286040518263ffffffff1660e01b815260040180806020018060200180602001858152602001848103845260088152602001807f434f5649442d31390000000000000000000000000000000000000000000000008152506020018481038352600a8152602001807f42616e676c6164657368000000000000000000000000000000000000000000008152506020018481038252600e8152602001807f32332e3638352c39302e33353633000000000000000000000000000000000000815250602001945050505050602060405180830381600087803b1580156200c99957600080fd5b505af11580156200c9ae573d6000803e3d6000fd5b505050506040513d60208110156200c9c557600080fd5b810190808051906020019092919050505050600160009054906101000a900473ffffffffffffffffffffffffffffffffffffffff1673ffffffffffffffffffffffffffffffffffffffff1663214d9b2b604f6040518263ffffffff1660e01b815260040180806020018060200180602001858152602001848103845260088152602001807f434f5649442d3139000000000000000000000000000000000000000000000000815250602001848103835260088152602001807f4261726261646f73000000000000000000000000000000000000000000000000815250602001848103825260108152602001807f31332e313933392c2d35392e3534333200000000000000000000000000000000815250602001945050505050602060405180830381600087803b1580156200caf957600080fd5b505af11580156200cb0e573d6000803e3d6000fd5b505050506040513d60208110156200cb2557600080fd5b810190808051906020019092919050505050600160009054906101000a900473ffffffffffffffffffffffffffffffffffffffff1673ffffffffffffffffffffffffffffffffffffffff1663214d9b2b6128df6040518263ffffffff1660e01b815260040180806020018060200180602001858152602001848103845260088152602001807f434f5649442d3139000000000000000000000000000000000000000000000000815250602001848103835260078152602001807f42656c61727573000000000000000000000000000000000000000000000000008152506020018481038252600f8152602001807f35332e373039382c32372e393533340000000000000000000000000000000000815250602001945050505050602060405180830381600087803b1580156200cc5a57600080fd5b505af11580156200cc6f573d6000803e3d6000fd5b505050506040513d60208110156200cc8657600080fd5b810190808051906020019092919050505050600160009054906101000a900473ffffffffffffffffffffffffffffffffffffffff1673ffffffffffffffffffffffffffffffffffffffff1663214d9b2b61b4366040518263ffffffff1660e01b815260040180806020018060200180602001858152602001848103845260088152602001807f434f5649442d3139000000000000000000000000000000000000000000000000815250602001848103835260078152602001807f42656c6769756d00000000000000000000000000000000000000000000000000815250602001848103825260098152602001807f35302e383333332c340000000000000000000000000000000000000000000000815250602001945050505050602060405180830381600087803b1580156200cdbb57600080fd5b505af11580156200cdd0573d6000803e3d6000fd5b505050506040513d60208110156200cde757600080fd5b810190808051906020019092919050505050600160009054906101000a900473ffffffffffffffffffffffffffffffffffffffff1673ffffffffffffffffffffffffffffffffffffffff1663214d9b2b604080518263ffffffff1660e01b815260040180806020018060200180602001858152602001848103845260088152602001807f434f5649442d3139000000000000000000000000000000000000000000000000815250602001848103835260058152602001807f42656e696e0000000000000000000000000000000000000000000000000000008152506020018481038252600d8152602001807f392e333037372c322e3331353800000000000000000000000000000000000000815250602001945050505050602060405180830381600087803b1580156200cf1a57600080fd5b505af11580156200cf2f573d6000803e3d6000fd5b505050506040513d60208110156200cf4657600080fd5b810190808051906020019092919050505050600160009054906101000a900473ffffffffffffffffffffffffffffffffffffffff1673ffffffffffffffffffffffffffffffffffffffff1663214d9b2b60076040518263ffffffff1660e01b815260040180806020018060200180602001858152602001848103845260088152602001807f434f5649442d3139000000000000000000000000000000000000000000000000815250602001848103835260068152602001807f42687574616e00000000000000000000000000000000000000000000000000008152506020018481038252600f8152602001807f32372e353134322c39302e343333360000000000000000000000000000000000815250602001945050505050602060405180830381600087803b1580156200d07a57600080fd5b505af11580156200d08f573d6000803e3d6000fd5b505050506040513d60208110156200d0a657600080fd5b810190808051906020019092919050505050600160009054906101000a900473ffffffffffffffffffffffffffffffffffffffff1673ffffffffffffffffffffffffffffffffffffffff1663214d9b2b6103b66040518263ffffffff1660e01b815260040180806020018060200180602001858152602001848103845260088152602001807f434f5649442d3139000000000000000000000000000000000000000000000000815250602001848103835260078152602001807f426f6c6976696100000000000000000000000000000000000000000000000000815250602001848103825260118152602001807f2d31362e323930322c2d36332e35383837000000000000000000000000000000815250602001945050505050602060405180830381600087803b1580156200d1db57600080fd5b505af11580156200d1f0573d6000803e3d6000fd5b505050506040513d60208110156200d20757600080fd5b810190808051906020019092919050505050600160009054906101000a900473ffffffffffffffffffffffffffffffffffffffff1673ffffffffffffffffffffffffffffffffffffffff1663214d9b2b6105ec6040518263ffffffff1660e01b815260040180806020018060200180602001858152602001848103845260088152602001807f434f5649442d3139000000000000000000000000000000000000000000000000815250602001848103835260168152602001807f426f736e696120616e64204865727a65676f76696e61000000000000000000008152506020018481038252600f8152602001807f34332e393135392c31372e363739310000000000000000000000000000000000815250602001945050505050602060405180830381600087803b1580156200d33c57600080fd5b505af11580156200d351573d6000803e3d6000fd5b505050506040513d60208110156200d36857600080fd5b810190808051906020019092919050505050565b600160009054906101000a900473ffffffffffffffffffffffffffffffffffffffff1673ffffffffffffffffffffffffffffffffffffffff1663214d9b2b6103316040518263ffffffff1660e01b815260040180806020018060200180602001858152602001848103845260088152602001807f434f5649442d3139000000000000000000000000000000000000000000000000815250602001848103835260068152602001807f43797072757300000000000000000000000000000000000000000000000000008152506020018481038252600f8152602001807f33352e313236342c33332e343239390000000000000000000000000000000000815250602001945050505050602060405180830381600087803b1580156200d49f57600080fd5b505af11580156200d4b4573d6000803e3d6000fd5b505050506040513d60208110156200d4cb57600080fd5b810190808051906020019092919050505050600160009054906101000a900473ffffffffffffffffffffffffffffffffffffffff1673ffffffffffffffffffffffffffffffffffffffff1663214d9b2b611cec6040518263ffffffff1660e01b815260040180806020018060200180602001858152602001848103845260088152602001807f434f5649442d3139000000000000000000000000000000000000000000000000815250602001848103835260078152602001807f437a6563686961000000000000000000000000000000000000000000000000008152506020018481038252600e8152602001807f34392e383137352c31352e343733000000000000000000000000000000000000815250602001945050505050602060405180830381600087803b1580156200d60057600080fd5b505af11580156200d615573d6000803e3d6000fd5b505050506040513d60208110156200d62c57600080fd5b810190808051906020019092919050505050600160009054906101000a900473ffffffffffffffffffffffffffffffffffffffff1673ffffffffffffffffffffffffffffffffffffffff1663214d9b2b60bb6040518263ffffffff1660e01b815260040180806020018060200180602001858152602001848103845260088152602001807f434f5649442d3139000000000000000000000000000000000000000000000000815250602001848103835260078152602001807f44656e6d61726b000000000000000000000000000000000000000000000000008152506020018481038252600f8152602001807f36312e383932362c2d362e393131380000000000000000000000000000000000815250602001945050505050602060405180830381600087803b1580156200d76057600080fd5b505af11580156200d775573d6000803e3d6000fd5b505050506040513d60208110156200d78c57600080fd5b810190808051906020019092919050505050600160009054906101000a900473ffffffffffffffffffffffffffffffffffffffff1673ffffffffffffffffffffffffffffffffffffffff1663214d9b2b600b6040518263ffffffff1660e01b815260040180806020018060200180602001858152602001848103845260088152602001807f434f5649442d3139000000000000000000000000000000000000000000000000815250602001848103835260078152602001807f44656e6d61726b00000000000000000000000000000000000000000000000000815250602001848103825260108152602001807f37312e373036392c2d34322e3630343300000000000000000000000000000000815250602001945050505050602060405180830381600087803b1580156200d8c057600080fd5b505af11580156200d8d5573d6000803e3d6000fd5b505050506040513d60208110156200d8ec57600080fd5b810190808051906020019092919050505050600160009054906101000a900473ffffffffffffffffffffffffffffffffffffffff1673ffffffffffffffffffffffffffffffffffffffff1663214d9b2b61217f6040518263ffffffff1660e01b815260040180806020018060200180602001858152602001848103845260088152602001807f434f5649442d3139000000000000000000000000000000000000000000000000815250602001848103835260078152602001807f44656e6d61726b000000000000000000000000000000000000000000000000008152506020018481038252600e8152602001807f35362e323633392c392e35303138000000000000000000000000000000000000815250602001945050505050602060405180830381600087803b1580156200da2157600080fd5b505af11580156200da36573d6000803e3d6000fd5b505050506040513d60208110156200da4d57600080fd5b810190808051906020019092919050505050600160009054906101000a900473ffffffffffffffffffffffffffffffffffffffff1673ffffffffffffffffffffffffffffffffffffffff1663214d9b2b6103ff6040518263ffffffff1660e01b815260040180806020018060200180602001858152602001848103845260088152602001807f434f5649442d3139000000000000000000000000000000000000000000000000815250602001848103835260088152602001807f446a69626f7574690000000000000000000000000000000000000000000000008152506020018481038252600f8152602001807f31312e383235312c34322e353930330000000000000000000000000000000000815250602001945050505050602060405180830381600087803b1580156200db8257600080fd5b505af11580156200db97573d6000803e3d6000fd5b505050506040513d60208110156200dbae57600080fd5b810190808051906020019092919050505050600160009054906101000a900473ffffffffffffffffffffffffffffffffffffffff1673ffffffffffffffffffffffffffffffffffffffff1663214d9b2b6117f76040518263ffffffff1660e01b815260040180806020018060200180602001858152602001848103845260088152602001807f434f5649442d3139000000000000000000000000000000000000000000000000815250602001848103835260128152602001807f446f6d696e6963616e2052657075626c69630000000000000000000000000000815250602001848103825260108152602001807f31382e373335372c2d37302e3136323700000000000000000000000000000000815250602001945050505050602060405180830381600087803b1580156200dce357600080fd5b505af11580156200dcf8573d6000803e3d6000fd5b505050506040513d60208110156200dd0f57600080fd5b810190808051906020019092919050505050600160009054906101000a900473ffffffffffffffffffffffffffffffffffffffff1673ffffffffffffffffffffffffffffffffffffffff1663214d9b2b6158bf6040518263ffffffff1660e01b815260040180806020018060200180602001858152602001848103845260088152602001807f434f5649442d3139000000000000000000000000000000000000000000000000815250602001848103835260078152602001807f45637561646f7200000000000000000000000000000000000000000000000000815250602001848103825260108152602001807f2d312e383331322c2d37382e3138333400000000000000000000000000000000815250602001945050505050602060405180830381600087803b1580156200de4457600080fd5b505af11580156200de59573d6000803e3d6000fd5b505050506040513d60208110156200de7057600080fd5b810190808051906020019092919050505050600160009054906101000a900473ffffffffffffffffffffffffffffffffffffffff1673ffffffffffffffffffffffffffffffffffffffff1663214d9b2b6111b66040518263ffffffff1660e01b815260040180806020018060200180602001858152602001848103845260088152602001807f434f5649442d3139000000000000000000000000000000000000000000000000815250602001848103835260058152602001807f4567797074000000000000000000000000000000000000000000000000000000815250602001848103825260058152602001807f32362c3330000000000000000000000000000000000000000000000000000000815250602001945050505050602060405180830381600087803b1580156200dfa557600080fd5b505af11580156200dfba573d6000803e3d6000fd5b505050506040513d60208110156200dfd157600080fd5b810190808051906020019092919050505050600160009054906101000a900473ffffffffffffffffffffffffffffffffffffffff1673ffffffffffffffffffffffffffffffffffffffff1663214d9b2b61012a6040518263ffffffff1660e01b815260040180806020018060200180602001858152602001848103845260088152602001807f434f5649442d31390000000000000000000000000000000000000000000000008152506020018481038352600b8152602001807f456c2053616c7661646f72000000000000000000000000000000000000000000815250602001848103825260108152602001807f31332e373934322c2d38382e3839363500000000000000000000000000000000815250602001945050505050602060405180830381600087803b1580156200e10657600080fd5b505af11580156200e11b573d6000803e3d6000fd5b505050506040513d60208110156200e13257600080fd5b810190808051906020019092919050505050600160009054906101000a900473ffffffffffffffffffffffffffffffffffffffff1673ffffffffffffffffffffffffffffffffffffffff1663214d9b2b6101026040518263ffffffff1660e01b815260040180806020018060200180602001858152602001848103845260088152602001807f434f5649442d3139000000000000000000000000000000000000000000000000815250602001848103835260118152602001807f45717561746f7269616c204775696e6561000000000000000000000000000000815250602001848103825260068152602001807f312e352c31300000000000000000000000000000000000000000000000000000815250602001945050505050602060405180830381600087803b1580156200e26757600080fd5b505af11580156200e27c573d6000803e3d6000fd5b505050506040513d60208110156200e29357600080fd5b810190808051906020019092919050505050600160009054906101000a900473ffffffffffffffffffffffffffffffffffffffff1673ffffffffffffffffffffffffffffffffffffffff1663214d9b2b60276040518263ffffffff1660e01b815260040180806020018060200180602001858152602001848103845260088152602001807f434f5649442d3139000000000000000000000000000000000000000000000000815250602001848103835260078152602001807f45726974726561000000000000000000000000000000000000000000000000008152506020018481038252600f8152602001807f31352e313739342c33392e373832330000000000000000000000000000000000815250602001945050505050602060405180830381600087803b1580156200e3c757600080fd5b505af11580156200e3dc573d6000803e3d6000fd5b505050506040513d60208110156200e3f357600080fd5b810190808051906020019092919050505050600160009054906101000a900473ffffffffffffffffffffffffffffffffffffffff1673ffffffffffffffffffffffffffffffffffffffff1663214d9b2b61066b6040518263ffffffff1660e01b815260040180806020018060200180602001858152602001848103845260088152602001807f434f5649442d3139000000000000000000000000000000000000000000000000815250602001848103835260078152602001807f4573746f6e6961000000000000000000000000000000000000000000000000008152506020018481038252600f8152602001807f35382e353935332c32352e303133360000000000000000000000000000000000815250602001945050505050602060405180830381600087803b1580156200e52857600080fd5b505af11580156200e53d573d6000803e3d6000fd5b505050506040513d60208110156200e55457600080fd5b810190808051906020019092919050505050600160009054906101000a900473ffffffffffffffffffffffffffffffffffffffff1673ffffffffffffffffffffffffffffffffffffffff1663214d9b2b603b6040518263ffffffff1660e01b815260040180806020018060200180602001858152602001848103845260088152602001807f434f5649442d3139000000000000000000000000000000000000000000000000815250602001848103835260088152602001807f4573776174696e69000000000000000000000000000000000000000000000000815250602001848103825260108152602001807f2d32362e353232352c33312e3436353900000000000000000000000000000000815250602001945050505050602060405180830381600087803b1580156200e68857600080fd5b505af11580156200e69d573d6000803e3d6000fd5b505050506040513d60208110156200e6b457600080fd5b810190808051906020019092919050505050600160009054906101000a900473ffffffffffffffffffffffffffffffffffffffff1673ffffffffffffffffffffffffffffffffffffffff1663214d9b2b607b6040518263ffffffff1660e01b815260040180806020018060200180602001858152602001848103845260088152602001807f434f5649442d3139000000000000000000000000000000000000000000000000815250602001848103835260088152602001807f457468696f7069610000000000000000000000000000000000000000000000008152506020018481038252600d8152602001807f392e3134352c34302e3438393700000000000000000000000000000000000000815250602001945050505050602060405180830381600087803b1580156200e7e857600080fd5b505af11580156200e7fd573d6000803e3d6000fd5b505050506040513d60208110156200e81457600080fd5b810190808051906020019092919050505050600160009054906101000a900473ffffffffffffffffffffffffffffffffffffffff1673ffffffffffffffffffffffffffffffffffffffff1663214d9b2b60126040518263ffffffff1660e01b815260040180806020018060200180602001858152602001848103845260088152602001807f434f5649442d3139000000000000000000000000000000000000000000000000815250602001848103835260048152602001807f46696a6900000000000000000000000000000000000000000000000000000000815250602001848103825260108152602001807f2d31372e373133342c3137382e30363500000000000000000000000000000000815250602001945050505050602060405180830381600087803b1580156200e94857600080fd5b505af11580156200e95d573d6000803e3d6000fd5b505050506040513d60208110156200e97457600080fd5b810190808051906020019092919050505050600160009054906101000a900473ffffffffffffffffffffffffffffffffffffffff1673ffffffffffffffffffffffffffffffffffffffff1663214d9b2b6111e06040518263ffffffff1660e01b815260040180806020018060200180602001858152602001848103845260088152602001807f434f5649442d3139000000000000000000000000000000000000000000000000815250602001848103835260078152602001807f46696e6c616e6400000000000000000000000000000000000000000000000000815250602001848103825260058152602001807f36342c3236000000000000000000000000000000000000000000000000000000815250602001945050505050602060405180830381600087803b1580156200eaa957600080fd5b505af11580156200eabe573d6000803e3d6000fd5b505050506040513d60208110156200ead557600080fd5b810190808051906020019092919050505050600160009054906101000a900473ffffffffffffffffffffffffffffffffffffffff1673ffffffffffffffffffffffffffffffffffffffff1663214d9b2b606f6040518263ffffffff1660e01b815260040180806020018060200180602001858152602001848103845260088152602001807f434f5649442d3139000000000000000000000000000000000000000000000000815250602001848103835260068152602001807f4672616e636500000000000000000000000000000000000000000000000000008152506020018481038252600f8152602001807f332e393333392c2d35332e313235380000000000000000000000000000000000815250602001945050505050602060405180830381600087803b1580156200ec0957600080fd5b505af11580156200ec1e573d6000803e3d6000fd5b505050506040513d60208110156200ec3557600080fd5b810190808051906020019092919050505050600160009054906101000a900473ffffffffffffffffffffffffffffffffffffffff1673ffffffffffffffffffffffffffffffffffffffff1663214d9b2b60396040518263ffffffff1660e01b815260040180806020018060200180602001858152602001848103845260088152602001807f434f5649442d3139000000000000000000000000000000000000000000000000815250602001848103835260068152602001807f4672616e63650000000000000000000000000000000000000000000000000000815250602001848103825260118152602001807f2d31372e363739372c3134392e34303638000000000000000000000000000000815250602001945050505050602060405180830381600087803b1580156200ed6957600080fd5b505af11580156200ed7e573d6000803e3d6000fd5b505050506040513d60208110156200ed9557600080fd5b810190808051906020019092919050505050600160009054906101000a900473ffffffffffffffffffffffffffffffffffffffff1673ffffffffffffffffffffffffffffffffffffffff1663214d9b2b60956040518263ffffffff1660e01b815260040180806020018060200180602001858152602001848103845260088152602001807f434f5649442d3139000000000000000000000000000000000000000000000000815250602001848103835260068152602001807f4672616e636500000000000000000000000000000000000000000000000000008152506020018481038252600e8152602001807f31362e32352c2d36312e35383333000000000000000000000000000000000000815250602001945050505050602060405180830381600087803b1580156200eec957600080fd5b505af11580156200eede573d6000803e3d6000fd5b505050506040513d60208110156200eef557600080fd5b810190808051906020019092919050505050600160009054906101000a900473ffffffffffffffffffffffffffffffffffffffff1673ffffffffffffffffffffffffffffffffffffffff1663214d9b2b6101916040518263ffffffff1660e01b815260040180806020018060200180602001858152602001848103845260088152602001807f434f5649442d3139000000000000000000000000000000000000000000000000815250602001848103835260068152602001807f4672616e63650000000000000000000000000000000000000000000000000000815250602001848103825260108152602001807f2d31322e383237352c34352e3136363200000000000000000000000000000000815250602001945050505050602060405180830381600087803b1580156200f02a57600080fd5b505af11580156200f03f573d6000803e3d6000fd5b505050506040513d60208110156200f05657600080fd5b810190808051906020019092919050505050600160009054906101000a900473ffffffffffffffffffffffffffffffffffffffff1673ffffffffffffffffffffffffffffffffffffffff1663214d9b2b60126040518263ffffffff1660e01b815260040180806020018060200180602001858152602001848103845260088152602001807f434f5649442d3139000000000000000000000000000000000000000000000000815250602001848103835260068152602001807f4672616e63650000000000000000000000000000000000000000000000000000815250602001848103825260108152602001807f2d32302e393034332c3136352e36313800000000000000000000000000000000815250602001945050505050602060405180830381600087803b1580156200f18a57600080fd5b505af11580156200f19f573d6000803e3d6000fd5b505050506040513d60208110156200f1b657600080fd5b810190808051906020019092919050505050600160009054906101000a900473ffffffffffffffffffffffffffffffffffffffff1673ffffffffffffffffffffffffffffffffffffffff1663214d9b2b6101a16040518263ffffffff1660e01b815260040180806020018060200180602001858152602001848103845260088152602001807f434f5649442d3139000000000000000000000000000000000000000000000000815250602001848103835260068152602001807f4672616e63650000000000000000000000000000000000000000000000000000815250602001848103825260108152602001807f2d32312e313335312c35352e3234373100000000000000000000000000000000815250602001945050505050602060405180830381600087803b1580156200f2eb57600080fd5b505af11580156200f300573d6000803e3d6000fd5b505050506040513d60208110156200f31757600080fd5b810190808051906020019092919050505050600160009054906101000a900473ffffffffffffffffffffffffffffffffffffffff1673ffffffffffffffffffffffffffffffffffffffff1663214d9b2b60066040518263ffffffff1660e01b815260040180806020018060200180602001858152602001848103845260088152602001807f434f5649442d3139000000000000000000000000000000000000000000000000815250602001848103835260068152602001807f4672616e636500000000000000000000000000000000000000000000000000008152506020018481038252600d8152602001807f31372e392c2d36322e3833333300000000000000000000000000000000000000815250602001945050505050602060405180830381600087803b1580156200f44b57600080fd5b505af11580156200f460573d6000803e3d6000fd5b505050506040513d60208110156200f47757600080fd5b810190808051906020019092919050505050600160009054906101000a900473ffffffffffffffffffffffffffffffffffffffff1673ffffffffffffffffffffffffffffffffffffffff1663214d9b2b60266040518263ffffffff1660e01b815260040180806020018060200180602001858152602001848103845260088152602001807f434f5649442d3139000000000000000000000000000000000000000000000000815250602001848103835260068152602001807f4672616e63650000000000000000000000000000000000000000000000000000815250602001848103825260108152602001807f31382e303730382c2d36332e3035303100000000000000000000000000000000815250602001945050505050602060405180830381600087803b1580156200f5ab57600080fd5b505af11580156200f5c0573d6000803e3d6000fd5b505050506040513d60208110156200f5d757600080fd5b810190808051906020019092919050505050600160009054906101000a900473ffffffffffffffffffffffffffffffffffffffff1673ffffffffffffffffffffffffffffffffffffffff1663214d9b2b60af6040518263ffffffff1660e01b815260040180806020018060200180602001858152602001848103845260088152602001807f434f5649442d3139000000000000000000000000000000000000000000000000815250602001848103835260068152602001807f4672616e63650000000000000000000000000000000000000000000000000000815250602001848103825260108152602001807f31342e363431352c2d36312e3032343200000000000000000000000000000000815250602001945050505050602060405180830381600087803b1580156200f70b57600080fd5b505af11580156200f720573d6000803e3d6000fd5b505050506040513d60208110156200f73757600080fd5b810190808051906020019092919050505050600160009054906101000a900473ffffffffffffffffffffffffffffffffffffffff1673ffffffffffffffffffffffffffffffffffffffff1663214d9b2b6202744f6040518263ffffffff1660e01b815260040180806020018060200180602001858152602001848103845260088152602001807f434f5649442d3139000000000000000000000000000000000000000000000000815250602001848103835260068152602001807f4672616e636500000000000000000000000000000000000000000000000000008152506020018481038252600e8152602001807f34362e323237362c322e32313337000000000000000000000000000000000000815250602001945050505050602060405180830381600087803b1580156200f86d57600080fd5b505af11580156200f882573d6000803e3d6000fd5b505050506040513d60208110156200f89957600080fd5b810190808051906020019092919050505050600160009054906101000a900473ffffffffffffffffffffffffffffffffffffffff1673ffffffffffffffffffffffffffffffffffffffff1663214d9b2b60b06040518263ffffffff1660e01b815260040180806020018060200180602001858152602001848103845260088152602001807f434f5649442d3139000000000000000000000000000000000000000000000000815250602001848103835260058152602001807f4761626f6e0000000000000000000000000000000000000000000000000000008152506020018481038252600f8152602001807f2d302e383033372c31312e363039340000000000000000000000000000000000815250602001945050505050602060405180830381600087803b1580156200f9cd57600080fd5b505af11580156200f9e2573d6000803e3d6000fd5b505050506040513d60208110156200f9f957600080fd5b810190808051906020019092919050505050600160009054906101000a900473ffffffffffffffffffffffffffffffffffffffff1673ffffffffffffffffffffffffffffffffffffffff1663214d9b2b600a6040518263ffffffff1660e01b815260040180806020018060200180602001858152602001848103845260088152602001807f434f5649442d3139000000000000000000000000000000000000000000000000815250602001848103835260068152602001807f47616d6269610000000000000000000000000000000000000000000000000000815250602001848103825260108152602001807f31332e343433322c2d31352e3331303100000000000000000000000000000000815250602001945050505050602060405180830381600087803b1580156200fb2d57600080fd5b505af11580156200fb42573d6000803e3d6000fd5b505050506040513d60208110156200fb5957600080fd5b810190808051906020019092919050505050600160009054906101000a900473ffffffffffffffffffffffffffffffffffffffff1673ffffffffffffffffffffffffffffffffffffffff1663214d9b2b6101e66040518263ffffffff1660e01b815260040180806020018060200180602001858152602001848103845260088152602001807f434f5649442d3139000000000000000000000000000000000000000000000000815250602001848103835260078152602001807f47656f72676961000000000000000000000000000000000000000000000000008152506020018481038252600f8152602001807f34322e333135342c34332e333536390000000000000000000000000000000000815250602001945050505050602060405180830381600087803b1580156200fc8e57600080fd5b505af11580156200fca3573d6000803e3d6000fd5b505050506040513d60208110156200fcba57600080fd5b810190808051906020019092919050505050600160009054906101000a900473ffffffffffffffffffffffffffffffffffffffff1673ffffffffffffffffffffffffffffffffffffffff1663214d9b2b6202684a6040518263ffffffff1660e01b815260040180806020018060200180602001858152602001848103845260088152602001807f434f5649442d3139000000000000000000000000000000000000000000000000815250602001848103835260078152602001807f4765726d616e7900000000000000000000000000000000000000000000000000815250602001848103825260048152602001807f35312c3900000000000000000000000000000000000000000000000000000000815250602001945050505050602060405180830381600087803b1580156200fdf057600080fd5b505af11580156200fe05573d6000803e3d6000fd5b505050506040513d60208110156200fe1c57600080fd5b810190808051906020019092919050505050565b600160009054906101000a900473ffffffffffffffffffffffffffffffffffffffff1673ffffffffffffffffffffffffffffffffffffffff1663214d9b2b604f6040518263ffffffff1660e01b815260040180806020018060200180602001858152602001848103845260088152602001807f434f5649442d3139000000000000000000000000000000000000000000000000815250602001848103835260068152602001807f5567616e64610000000000000000000000000000000000000000000000000000815250602001848103825260048152602001807f312c333200000000000000000000000000000000000000000000000000000000815250602001945050505050602060405180830381600087803b1580156200ff5257600080fd5b505af11580156200ff67573d6000803e3d6000fd5b505050506040513d60208110156200ff7e57600080fd5b810190808051906020019092919050505050600160009054906101000a900473ffffffffffffffffffffffffffffffffffffffff1673ffffffffffffffffffffffffffffffffffffffff1663214d9b2b6121a96040518263ffffffff1660e01b815260040180806020018060200180602001858152602001848103845260088152602001807f434f5649442d3139000000000000000000000000000000000000000000000000815250602001848103835260078152602001807f556b7261696e65000000000000000000000000000000000000000000000000008152506020018481038252600f8152602001807f34382e333739342c33312e313635360000000000000000000000000000000000815250602001945050505050602060405180830381600087803b158015620100b357600080fd5b505af1158015620100c8573d6000803e3d6000fd5b505050506040513d6020811015620100df57600080fd5b810190808051906020019092919050505050600160009054906101000a900473ffffffffffffffffffffffffffffffffffffffff1673ffffffffffffffffffffffffffffffffffffffff1663214d9b2b61286d6040518263ffffffff1660e01b815260040180806020018060200180602001858152602001848103845260088152602001807f434f5649442d3139000000000000000000000000000000000000000000000000815250602001848103835260148152602001807f556e69746564204172616220456d697261746573000000000000000000000000815250602001848103825260058152602001807f32342c3534000000000000000000000000000000000000000000000000000000815250602001945050505050602060405180830381600087803b1580156201021457600080fd5b505af115801562010229573d6000803e3d6000fd5b505050506040513d60208110156201024057600080fd5b810190808051906020019092919050505050600160009054906101000a900473ffffffffffffffffffffffffffffffffffffffff1673ffffffffffffffffffffffffffffffffffffffff1663214d9b2b606d6040518263ffffffff1660e01b815260040180806020018060200180602001858152602001848103845260088152602001807f434f5649442d31390000000000000000000000000000000000000000000000008152506020018481038352600e8152602001807f556e69746564204b696e67646f6d000000000000000000000000000000000000815250602001848103825260108152602001807f33322e333037382c2d36342e3735303500000000000000000000000000000000815250602001945050505050602060405180830381600087803b1580156201037457600080fd5b505af115801562010389573d6000803e3d6000fd5b505050506040513d6020811015620103a057600080fd5b810190808051906020019092919050505050600160009054906101000a900473ffffffffffffffffffffffffffffffffffffffff1673ffffffffffffffffffffffffffffffffffffffff1663214d9b2b60466040518263ffffffff1660e01b815260040180806020018060200180602001858152602001848103845260088152602001807f434f5649442d31390000000000000000000000000000000000000000000000008152506020018481038352600e8152602001807f556e69746564204b696e67646f6d000000000000000000000000000000000000815250602001848103825260108152602001807f31392e333133332c2d38312e3235343600000000000000000000000000000000815250602001945050505050602060405180830381600087803b158015620104d457600080fd5b505af1158015620104e9573d6000803e3d6000fd5b505050506040513d60208110156201050057600080fd5b810190808051906020019092919050505050600160009054906101000a900473ffffffffffffffffffffffffffffffffffffffff1673ffffffffffffffffffffffffffffffffffffffff1663214d9b2b61020d6040518263ffffffff1660e01b815260040180806020018060200180602001858152602001848103845260088152602001807f434f5649442d31390000000000000000000000000000000000000000000000008152506020018481038352600e8152602001807f556e69746564204b696e67646f6d0000000000000000000000000000000000008152506020018481038252600f8152602001807f34392e333732332c2d322e333634340000000000000000000000000000000000815250602001945050505050602060405180830381600087803b1580156201063557600080fd5b505af11580156201064a573d6000803e3d6000fd5b505050506040513d60208110156201066157600080fd5b810190808051906020019092919050505050600160009054906101000a900473ffffffffffffffffffffffffffffffffffffffff1673ffffffffffffffffffffffffffffffffffffffff1663214d9b2b608d6040518263ffffffff1660e01b815260040180806020018060200180602001858152602001848103845260088152602001807f434f5649442d31390000000000000000000000000000000000000000000000008152506020018481038352600e8152602001807f556e69746564204b696e67646f6d0000000000000000000000000000000000008152506020018481038252600f8152602001807f33362e313430382c2d352e333533360000000000000000000000000000000000815250602001945050505050602060405180830381600087803b1580156201079557600080fd5b505af1158015620107aa573d6000803e3d6000fd5b505050506040513d6020811015620107c157600080fd5b810190808051906020019092919050505050600160009054906101000a900473ffffffffffffffffffffffffffffffffffffffff1673ffffffffffffffffffffffffffffffffffffffff1663214d9b2b6101346040518263ffffffff1660e01b815260040180806020018060200180602001858152602001848103845260088152602001807f434f5649442d31390000000000000000000000000000000000000000000000008152506020018481038352600e8152602001807f556e69746564204b696e67646f6d0000000000000000000000000000000000008152506020018481038252600f8152602001807f35342e323336312c2d342e353438310000000000000000000000000000000000815250602001945050505050602060405180830381600087803b158015620108f657600080fd5b505af11580156201090b573d6000803e3d6000fd5b505050506040513d60208110156201092257600080fd5b810190808051906020019092919050505050600160009054906101000a900473ffffffffffffffffffffffffffffffffffffffff1673ffffffffffffffffffffffffffffffffffffffff1663214d9b2b600b6040518263ffffffff1660e01b815260040180806020018060200180602001858152602001848103845260088152602001807f434f5649442d31390000000000000000000000000000000000000000000000008152506020018481038352600e8152602001807f556e69746564204b696e67646f6d000000000000000000000000000000000000815250602001848103825260108152602001807f31362e373432352c2d36322e3138373400000000000000000000000000000000815250602001945050505050602060405180830381600087803b15801562010a5657600080fd5b505af115801562010a6b573d6000803e3d6000fd5b505050506040513d602081101562010a8257600080fd5b810190808051906020019092919050505050600160009054906101000a900473ffffffffffffffffffffffffffffffffffffffff1673ffffffffffffffffffffffffffffffffffffffff1663214d9b2b620255086040518263ffffffff1660e01b815260040180806020018060200180602001858152602001848103845260088152602001807f434f5649442d31390000000000000000000000000000000000000000000000008152506020018481038352600e8152602001807f556e69746564204b696e67646f6d0000000000000000000000000000000000008152506020018481038252600e8152602001807f35352e333738312c2d332e343336000000000000000000000000000000000000815250602001945050505050602060405180830381600087803b15801562010bb857600080fd5b505af115801562010bcd573d6000803e3d6000fd5b505050506040513d602081101562010be457600080fd5b810190808051906020019092919050505050600160009054906101000a900473ffffffffffffffffffffffffffffffffffffffff1673ffffffffffffffffffffffffffffffffffffffff1663214d9b2b61025e6040518263ffffffff1660e01b815260040180806020018060200180602001858152602001848103845260088152602001807f434f5649442d3139000000000000000000000000000000000000000000000000815250602001848103835260078152602001807f5572756775617900000000000000000000000000000000000000000000000000815250602001848103825260118152602001807f2d33322e353232382c2d35352e37363538000000000000000000000000000000815250602001945050505050602060405180830381600087803b15801562010d1957600080fd5b505af115801562010d2e573d6000803e3d6000fd5b505050506040513d602081101562010d4557600080fd5b810190808051906020019092919050505050600160009054906101000a900473ffffffffffffffffffffffffffffffffffffffff1673ffffffffffffffffffffffffffffffffffffffff1663214d9b2b620ebc996040518263ffffffff1660e01b815260040180806020018060200180602001858152602001848103845260088152602001807f434f5649442d3139000000000000000000000000000000000000000000000000815250602001848103835260028152602001807f5553000000000000000000000000000000000000000000000000000000000000815250602001848103825260108152602001807f33372e303930322c2d39352e3731323900000000000000000000000000000000815250602001945050505050602060405180830381600087803b15801562010e7b57600080fd5b505af115801562010e90573d6000803e3d6000fd5b505050506040513d602081101562010ea757600080fd5b810190808051906020019092919050505050600160009054906101000a900473ffffffffffffffffffffffffffffffffffffffff1673ffffffffffffffffffffffffffffffffffffffff1663214d9b2b61074d6040518263ffffffff1660e01b815260040180806020018060200180602001858152602001848103845260088152602001807f434f5649442d31390000000000000000000000000000000000000000000000008152506020018481038352600a8152602001807f557a62656b697374616e000000000000000000000000000000000000000000008152506020018481038252600f8152602001807f34312e333737352c36342e353835330000000000000000000000000000000000815250602001945050505050602060405180830381600087803b15801562010fdc57600080fd5b505af115801562010ff1573d6000803e3d6000fd5b505050506040513d60208110156201100857600080fd5b810190808051906020019092919050505050600160009054906101000a900473ffffffffffffffffffffffffffffffffffffffff1673ffffffffffffffffffffffffffffffffffffffff1663214d9b2b6101456040518263ffffffff1660e01b815260040180806020018060200180602001858152602001848103845260088152602001807f434f5649442d3139000000000000000000000000000000000000000000000000815250602001848103835260098152602001807f56656e657a75656c6100000000000000000000000000000000000000000000008152506020018481038252600f8152602001807f362e343233382c2d36362e353839370000000000000000000000000000000000815250602001945050505050602060405180830381600087803b1580156201113d57600080fd5b505af115801562011152573d6000803e3d6000fd5b505050506040513d60208110156201116957600080fd5b810190808051906020019092919050505050600160009054906101000a900473ffffffffffffffffffffffffffffffffffffffff1673ffffffffffffffffffffffffffffffffffffffff1663214d9b2b61010e6040518263ffffffff1660e01b815260040180806020018060200180602001858152602001848103845260088152602001807f434f5649442d3139000000000000000000000000000000000000000000000000815250602001848103835260078152602001807f566965746e616d00000000000000000000000000000000000000000000000000815250602001848103825260068152602001807f31362c3130380000000000000000000000000000000000000000000000000000815250602001945050505050602060405180830381600087803b1580156201129e57600080fd5b505af1158015620112b3573d6000803e3d6000fd5b505050506040513d6020811015620112ca57600080fd5b810190808051906020019092919050505050600160009054906101000a900473ffffffffffffffffffffffffffffffffffffffff1673ffffffffffffffffffffffffffffffffffffffff1663214d9b2b60586040518263ffffffff1660e01b815260040180806020018060200180602001858152602001848103845260088152602001807f434f5649442d3139000000000000000000000000000000000000000000000000815250602001848103835260068152602001807f5a616d6269610000000000000000000000000000000000000000000000000000815250602001848103825260108152602001807f2d31352e343136372c32382e3238333300000000000000000000000000000000815250602001945050505050602060405180830381600087803b158015620113fe57600080fd5b505af115801562011413573d6000803e3d6000fd5b505050506040513d60208110156201142a57600080fd5b810190808051906020019092919050505050600160009054906101000a900473ffffffffffffffffffffffffffffffffffffffff1673ffffffffffffffffffffffffffffffffffffffff1663214d9b2b601f6040518263ffffffff1660e01b815260040180806020018060200180602001858152602001848103845260088152602001807f434f5649442d3139000000000000000000000000000000000000000000000000815250602001848103835260088152602001807f5a696d6261627765000000000000000000000000000000000000000000000000815250602001848103825260068152602001807f2d32302c33300000000000000000000000000000000000000000000000000000815250602001945050505050602060405180830381600087803b1580156201155e57600080fd5b505af115801562011573573d6000803e3d6000fd5b505050506040513d60208110156201158a57600080fd5b810190808051906020019092919050505050600160009054906101000a900473ffffffffffffffffffffffffffffffffffffffff1673ffffffffffffffffffffffffffffffffffffffff1663214d9b2b60006040518263ffffffff1660e01b815260040180806020018060200180602001858152602001848103845260088152602001807f434f5649442d3139000000000000000000000000000000000000000000000000815250602001848103835260068152602001807f43616e6164610000000000000000000000000000000000000000000000000000815250602001848103825260038152602001807f302c300000000000000000000000000000000000000000000000000000000000815250602001945050505050602060405180830381600087803b158015620116be57600080fd5b505af1158015620116d3573d6000803e3d6000fd5b505050506040513d6020811015620116ea57600080fd5b810190808051906020019092919050505050600160009054906101000a900473ffffffffffffffffffffffffffffffffffffffff1673ffffffffffffffffffffffffffffffffffffffff1663214d9b2b60106040518263ffffffff1660e01b815260040180806020018060200180602001858152602001848103845260088152602001807f434f5649442d3139000000000000000000000000000000000000000000000000815250602001848103835260088152602001807f446f6d696e6963610000000000000000000000000000000000000000000000008152506020018481038252600e8152602001807f31352e3431352c2d36312e333731000000000000000000000000000000000000815250602001945050505050602060405180830381600087803b1580156201181e57600080fd5b505af115801562011833573d6000803e3d6000fd5b505050506040513d60208110156201184a57600080fd5b810190808051906020019092919050505050600160009054906101000a900473ffffffffffffffffffffffffffffffffffffffff1673ffffffffffffffffffffffffffffffffffffffff1663214d9b2b60126040518263ffffffff1660e01b815260040180806020018060200180602001858152602001848103845260088152602001807f434f5649442d3139000000000000000000000000000000000000000000000000815250602001848103835260078152602001807f4772656e616461000000000000000000000000000000000000000000000000008152506020018481038252600f8152602001807f31322e313136352c2d36312e3637390000000000000000000000000000000000815250602001945050505050602060405180830381600087803b1580156201197e57600080fd5b505af115801562011993573d6000803e3d6000fd5b505050506040513d6020811015620119aa57600080fd5b810190808051906020019092919050505050600160009054906101000a900473ffffffffffffffffffffffffffffffffffffffff1673ffffffffffffffffffffffffffffffffffffffff1663214d9b2b604c6040518263ffffffff1660e01b815260040180806020018060200180602001858152602001848103845260088152602001807f434f5649442d31390000000000000000000000000000000000000000000000008152506020018481038352600a8152602001807f4d6f7a616d626971756500000000000000000000000000000000000000000000815250602001848103825260148152602001807f2d31382e3636353639352c33352e353239353632000000000000000000000000815250602001945050505050602060405180830381600087803b15801562011ade57600080fd5b505af115801562011af3573d6000803e3d6000fd5b505050506040513d602081101562011b0a57600080fd5b810190808051906020019092919050505050600160009054906101000a900473ffffffffffffffffffffffffffffffffffffffff1673ffffffffffffffffffffffffffffffffffffffff1663214d9b2b602b6040518263ffffffff1660e01b815260040180806020018060200180602001858152602001848103845260088152602001807f434f5649442d3139000000000000000000000000000000000000000000000000815250602001848103835260058152602001807f5379726961000000000000000000000000000000000000000000000000000000815250602001848103825260138152602001807f33342e3830323037352c33382e39393638313500000000000000000000000000815250602001945050505050602060405180830381600087803b15801562011c3e57600080fd5b505af115801562011c53573d6000803e3d6000fd5b505050506040513d602081101562011c6a57600080fd5b810190808051906020019092919050505050600160009054906101000a900473ffffffffffffffffffffffffffffffffffffffff1673ffffffffffffffffffffffffffffffffffffffff1663214d9b2b60186040518263ffffffff1660e01b815260040180806020018060200180602001858152602001848103845260088152602001807f434f5649442d31390000000000000000000000000000000000000000000000008152506020018481038352600b8152602001807f54696d6f722d4c65737465000000000000000000000000000000000000000000815250602001848103825260148152602001807f2d382e3837343231372c3132352e373237353339000000000000000000000000815250602001945050505050602060405180830381600087803b15801562011d9e57600080fd5b505af115801562011db3573d6000803e3d6000fd5b505050506040513d602081101562011dca57600080fd5b810190808051906020019092919050505050600160009054906101000a900473ffffffffffffffffffffffffffffffffffffffff1673ffffffffffffffffffffffffffffffffffffffff1663214d9b2b60126040518263ffffffff1660e01b815260040180806020018060200180602001858152602001848103845260088152602001807f434f5649442d3139000000000000000000000000000000000000000000000000815250602001848103835260068152602001807f42656c697a650000000000000000000000000000000000000000000000000000815250602001848103825260108152602001807f31332e313933392c2d35392e3534333200000000000000000000000000000000815250602001945050505050602060405180830381600087803b15801562011efe57600080fd5b505af115801562011f13573d6000803e3d6000fd5b505050506040513d602081101562011f2a57600080fd5b810190808051906020019092919050505050600160009054906101000a900473ffffffffffffffffffffffffffffffffffffffff1673ffffffffffffffffffffffffffffffffffffffff1663214d9b2b60006040518263ffffffff1660e01b815260040180806020018060200180602001858152602001848103845260088152602001807f434f5649442d3139000000000000000000000000000000000000000000000000815250602001848103835260068152602001807f43616e6164610000000000000000000000000000000000000000000000000000815250602001848103825260038152602001807f302c300000000000000000000000000000000000000000000000000000000000815250602001945050505050602060405180830381600087803b1580156201205e57600080fd5b505af115801562012073573d6000803e3d6000fd5b505050506040513d60208110156201208a57600080fd5b810190808051906020019092919050505050600160009054906101000a900473ffffffffffffffffffffffffffffffffffffffff1673ffffffffffffffffffffffffffffffffffffffff1663214d9b2b60136040518263ffffffff1660e01b815260040180806020018060200180602001858152602001848103845260088152602001807f434f5649442d3139000000000000000000000000000000000000000000000000815250602001848103835260048152602001807f4c616f7300000000000000000000000000000000000000000000000000000000815250602001848103825260138152602001807f31392e38353632372c3130322e34393534393600000000000000000000000000815250602001945050505050602060405180830381600087803b158015620121be57600080fd5b505af1158015620121d3573d6000803e3d6000fd5b505050506040513d6020811015620121ea57600080fd5b810190808051906020019092919050505050600160009054906101000a900473ffffffffffffffffffffffffffffffffffffffff1673ffffffffffffffffffffffffffffffffffffffff1663214d9b2b603d6040518263ffffffff1660e01b815260040180806020018060200180602001858152602001848103845260088152602001807f434f5649442d3139000000000000000000000000000000000000000000000000815250602001848103835260058152602001807f4c69627961000000000000000000000000000000000000000000000000000000815250602001848103825260118152602001807f32362e333335312c31372e323238333331000000000000000000000000000000815250602001945050505050602060405180830381600087803b1580156201231e57600080fd5b505af115801562012333573d6000803e3d6000fd5b505050506040513d60208110156201234a57600080fd5b810190808051906020019092919050505050600160009054906101000a900473ffffffffffffffffffffffffffffffffffffffff1673ffffffffffffffffffffffffffffffffffffffff1663214d9b2b6101566040518263ffffffff1660e01b815260040180806020018060200180602001858152602001848103845260088152602001807f434f5649442d3139000000000000000000000000000000000000000000000000815250602001848103835260128152602001807f576573742042616e6b20616e642047617a6100000000000000000000000000008152506020018481038252600f8152602001807f33312e393532322c33352e323333320000000000000000000000000000000000815250602001945050505050602060405180830381600087803b1580156201247f57600080fd5b505af115801562012494573d6000803e3d6000fd5b505050506040513d6020811015620124ab57600080fd5b810190808051906020019092919050505050600160009054906101000a900473ffffffffffffffffffffffffffffffffffffffff1673ffffffffffffffffffffffffffffffffffffffff1663214d9b2b60356040518263ffffffff1660e01b815260040180806020018060200180602001858152602001848103845260088152602001807f434f5649442d31390000000000000000000000000000000000000000000000008152506020018481038352600d8152602001807f4775696e65612d42697373617500000000000000000000000000000000000000815250602001848103825260108152602001807f31312e383033372c2d31352e3138303400000000000000000000000000000000815250602001945050505050602060405180830381600087803b158015620125df57600080fd5b505af1158015620125f4573d6000803e3d6000fd5b505050506040513d60208110156201260b57600080fd5b810190808051906020019092919050505050600160009054906101000a900473ffffffffffffffffffffffffffffffffffffffff1673ffffffffffffffffffffffffffffffffffffffff1663214d9b2b6101856040518263ffffffff1660e01b815260040180806020018060200180602001858152602001848103845260088152602001807f434f5649442d3139000000000000000000000000000000000000000000000000815250602001848103835260048152602001807f4d616c6900000000000000000000000000000000000000000000000000000000815250602001848103825260138152602001807f31372e3537303639322c2d332e39393631363600000000000000000000000000815250602001945050505050602060405180830381600087803b1580156201274057600080fd5b505af115801562012755573d6000803e3d6000fd5b505050506040513d60208110156201276c57600080fd5b810190808051906020019092919050505050600160009054906101000a900473ffffffffffffffffffffffffffffffffffffffff1673ffffffffffffffffffffffffffffffffffffffff1663214d9b2b600f6040518263ffffffff1660e01b815260040180806020018060200180602001858152602001848103845260088152602001807f434f5649442d3139000000000000000000000000000000000000000000000000815250602001848103835260158152602001807f5361696e74204b6974747320616e64204e657669730000000000000000000000815250602001848103825260148152602001807f31372e3335373832322c2d36322e373832393938000000000000000000000000815250602001945050505050602060405180830381600087803b158015620128a057600080fd5b505af1158015620128b5573d6000803e3d6000fd5b505050506040513d6020811015620128cc57600080fd5b810190808051906020019092919050505050565b600160009054906101000a900473ffffffffffffffffffffffffffffffffffffffff1673ffffffffffffffffffffffffffffffffffffffff1663214d9b2b612d616040518263ffffffff1660e01b815260040180806020018060200180602001858152602001848103845260088152602001807f434f5649442d3139000000000000000000000000000000000000000000000000815250602001848103835260068152602001807f506f6c616e6400000000000000000000000000000000000000000000000000008152506020018481038252600f8152602001807f35312e393139342c31392e313435310000000000000000000000000000000000815250602001945050505050602060405180830381600087803b15801562012a0357600080fd5b505af115801562012a18573d6000803e3d6000fd5b505050506040513d602081101562012a2f57600080fd5b810190808051906020019092919050505050600160009054906101000a900473ffffffffffffffffffffffffffffffffffffffff1673ffffffffffffffffffffffffffffffffffffffff1663214d9b2b615d386040518263ffffffff1660e01b815260040180806020018060200180602001858152602001848103845260088152602001807f434f5649442d3139000000000000000000000000000000000000000000000000815250602001848103835260088152602001807f506f72747567616c0000000000000000000000000000000000000000000000008152506020018481038252600f8152602001807f33392e333939392c2d382e323234350000000000000000000000000000000000815250602001945050505050602060405180830381600087803b15801562012b6457600080fd5b505af115801562012b79573d6000803e3d6000fd5b505050506040513d602081101562012b9057600080fd5b810190808051906020019092919050505050600160009054906101000a900473ffffffffffffffffffffffffffffffffffffffff1673ffffffffffffffffffffffffffffffffffffffff1663214d9b2b61282f6040518263ffffffff1660e01b815260040180806020018060200180602001858152602001848103845260088152602001807f434f5649442d3139000000000000000000000000000000000000000000000000815250602001848103835260058152602001807f51617461720000000000000000000000000000000000000000000000000000008152506020018481038252600f8152602001807f32352e333534382c35312e313833390000000000000000000000000000000000815250602001945050505050602060405180830381600087803b15801562012cc557600080fd5b505af115801562012cda573d6000803e3d6000fd5b505050506040513d602081101562012cf157600080fd5b810190808051906020019092919050505050600160009054906101000a900473ffffffffffffffffffffffffffffffffffffffff1673ffffffffffffffffffffffffffffffffffffffff1663214d9b2b612b1c6040518263ffffffff1660e01b815260040180806020018060200180602001858152602001848103845260088152602001807f434f5649442d3139000000000000000000000000000000000000000000000000815250602001848103835260078152602001807f526f6d616e6961000000000000000000000000000000000000000000000000008152506020018481038252600f8152602001807f34352e393433322c32342e393636380000000000000000000000000000000000815250602001945050505050602060405180830381600087803b15801562012e2657600080fd5b505af115801562012e3b573d6000803e3d6000fd5b505050506040513d602081101562012e5257600080fd5b810190808051906020019092919050505050600160009054906101000a900473ffffffffffffffffffffffffffffffffffffffff1673ffffffffffffffffffffffffffffffffffffffff1663214d9b2b62013c356040518263ffffffff1660e01b815260040180806020018060200180602001858152602001848103845260088152602001807f434f5649442d3139000000000000000000000000000000000000000000000000815250602001848103835260068152602001807f5275737369610000000000000000000000000000000000000000000000000000815250602001848103825260058152602001807f36302c3930000000000000000000000000000000000000000000000000000000815250602001945050505050602060405180830381600087803b15801562012f8857600080fd5b505af115801562012f9d573d6000803e3d6000fd5b505050506040513d602081101562012fb457600080fd5b810190808051906020019092919050505050600160009054906101000a900473ffffffffffffffffffffffffffffffffffffffff1673ffffffffffffffffffffffffffffffffffffffff1663214d9b2b60bf6040518263ffffffff1660e01b815260040180806020018060200180602001858152602001848103845260088152602001807f434f5649442d3139000000000000000000000000000000000000000000000000815250602001848103835260068152602001807f5277616e646100000000000000000000000000000000000000000000000000008152506020018481038252600f8152602001807f2d312e393430332c32392e383733390000000000000000000000000000000000815250602001945050505050602060405180830381600087803b158015620130e857600080fd5b505af1158015620130fd573d6000803e3d6000fd5b505050506040513d60208110156201311457600080fd5b810190808051906020019092919050505050600160009054906101000a900473ffffffffffffffffffffffffffffffffffffffff1673ffffffffffffffffffffffffffffffffffffffff1663214d9b2b600f6040518263ffffffff1660e01b815260040180806020018060200180602001858152602001848103845260088152602001807f434f5649442d31390000000000000000000000000000000000000000000000008152506020018481038352600b8152602001807f5361696e74204c75636961000000000000000000000000000000000000000000815250602001848103825260108152602001807f31332e393039342c2d36302e3937383900000000000000000000000000000000815250602001945050505050602060405180830381600087803b1580156201324857600080fd5b505af11580156201325d573d6000803e3d6000fd5b505050506040513d60208110156201327457600080fd5b810190808051906020019092919050505050600160009054906101000a900473ffffffffffffffffffffffffffffffffffffffff1673ffffffffffffffffffffffffffffffffffffffff1663214d9b2b600e6040518263ffffffff1660e01b815260040180806020018060200180602001858152602001848103845260088152602001807f434f5649442d3139000000000000000000000000000000000000000000000000815250602001848103835260208152602001807f5361696e742056696e63656e7420616e6420746865204772656e6164696e6573815250602001848103825260108152602001807f31322e393834332c2d36312e3238373200000000000000000000000000000000815250602001945050505050602060405180830381600087803b158015620133a857600080fd5b505af1158015620133bd573d6000803e3d6000fd5b505050506040513d6020811015620133d457600080fd5b810190808051906020019092919050505050600160009054906101000a900473ffffffffffffffffffffffffffffffffffffffff1673ffffffffffffffffffffffffffffffffffffffff1663214d9b2b61021a6040518263ffffffff1660e01b815260040180806020018060200180602001858152602001848103845260088152602001807f434f5649442d31390000000000000000000000000000000000000000000000008152506020018481038352600a8152602001807f53616e204d6172696e6f000000000000000000000000000000000000000000008152506020018481038252600f8152602001807f34332e393432342c31322e343537380000000000000000000000000000000000815250602001945050505050602060405180830381600087803b1580156201350957600080fd5b505af11580156201351e573d6000803e3d6000fd5b505050506040513d60208110156201353557600080fd5b810190808051906020019092919050505050600160009054906101000a900473ffffffffffffffffffffffffffffffffffffffff1673ffffffffffffffffffffffffffffffffffffffff1663214d9b2b6144726040518263ffffffff1660e01b815260040180806020018060200180602001858152602001848103845260088152602001807f434f5649442d31390000000000000000000000000000000000000000000000008152506020018481038352600c8152602001807f5361756469204172616269610000000000000000000000000000000000000000815250602001848103825260058152602001807f32342c3435000000000000000000000000000000000000000000000000000000815250602001945050505050602060405180830381600087803b1580156201366a57600080fd5b505af11580156201367f573d6000803e3d6000fd5b505050506040513d60208110156201369657600080fd5b810190808051906020019092919050505050600160009054906101000a900473ffffffffffffffffffffffffffffffffffffffff1673ffffffffffffffffffffffffffffffffffffffff1663214d9b2b61029f6040518263ffffffff1660e01b815260040180806020018060200180602001858152602001848103845260088152602001807f434f5649442d3139000000000000000000000000000000000000000000000000815250602001848103835260078152602001807f53656e6567616c00000000000000000000000000000000000000000000000000815250602001848103825260108152602001807f31342e343937342c2d31342e3435323400000000000000000000000000000000815250602001945050505050602060405180830381600087803b158015620137cb57600080fd5b505af1158015620137e0573d6000803e3d6000fd5b505050506040513d6020811015620137f757600080fd5b810190808051906020019092919050505050600160009054906101000a900473ffffffffffffffffffffffffffffffffffffffff1673ffffffffffffffffffffffffffffffffffffffff1663214d9b2b6119e66040518263ffffffff1660e01b815260040180806020018060200180602001858152602001848103845260088152602001807f434f5649442d3139000000000000000000000000000000000000000000000000815250602001848103835260068152602001807f53657262696100000000000000000000000000000000000000000000000000008152506020018481038252600f8152602001807f34342e303136352c32312e303035390000000000000000000000000000000000815250602001945050505050602060405180830381600087803b1580156201392c57600080fd5b505af115801562013941573d6000803e3d6000fd5b505050506040513d60208110156201395857600080fd5b810190808051906020019092919050505050600160009054906101000a900473ffffffffffffffffffffffffffffffffffffffff1673ffffffffffffffffffffffffffffffffffffffff1663214d9b2b600b6040518263ffffffff1660e01b815260040180806020018060200180602001858152602001848103845260088152602001807f434f5649442d31390000000000000000000000000000000000000000000000008152506020018481038352600a8152602001807f5365796368656c6c6573000000000000000000000000000000000000000000008152506020018481038252600e8152602001807f2d342e363739362c35352e343932000000000000000000000000000000000000815250602001945050505050602060405180830381600087803b15801562013a8c57600080fd5b505af115801562013aa1573d6000803e3d6000fd5b505050506040513d602081101562013ab857600080fd5b810190808051906020019092919050505050600160009054906101000a900473ffffffffffffffffffffffffffffffffffffffff1673ffffffffffffffffffffffffffffffffffffffff1663214d9b2b6135386040518263ffffffff1660e01b815260040180806020018060200180602001858152602001848103845260088152602001807f434f5649442d3139000000000000000000000000000000000000000000000000815250602001848103835260098152602001807f53696e6761706f726500000000000000000000000000000000000000000000008152506020018481038252600f8152602001807f312e323833332c3130332e383333330000000000000000000000000000000000815250602001945050505050602060405180830381600087803b15801562013bed57600080fd5b505af115801562013c02573d6000803e3d6000fd5b505050506040513d602081101562013c1957600080fd5b810190808051906020019092919050505050600160009054906101000a900473ffffffffffffffffffffffffffffffffffffffff1673ffffffffffffffffffffffffffffffffffffffff1663214d9b2b6105636040518263ffffffff1660e01b815260040180806020018060200180602001858152602001848103845260088152602001807f434f5649442d3139000000000000000000000000000000000000000000000000815250602001848103835260088152602001807f536c6f76616b69610000000000000000000000000000000000000000000000008152506020018481038252600d8152602001807f34382e3636392c31392e36393900000000000000000000000000000000000000815250602001945050505050602060405180830381600087803b15801562013d4e57600080fd5b505af115801562013d63573d6000803e3d6000fd5b505050506040513d602081101562013d7a57600080fd5b810190808051906020019092919050505050600160009054906101000a900473ffffffffffffffffffffffffffffffffffffffff1673ffffffffffffffffffffffffffffffffffffffff1663214d9b2b6105746040518263ffffffff1660e01b815260040180806020018060200180602001858152602001848103845260088152602001807f434f5649442d3139000000000000000000000000000000000000000000000000815250602001848103835260088152602001807f536c6f76656e69610000000000000000000000000000000000000000000000008152506020018481038252600f8152602001807f34362e313531322c31342e393935350000000000000000000000000000000000815250602001945050505050602060405180830381600087803b15801562013eaf57600080fd5b505af115801562013ec4573d6000803e3d6000fd5b505050506040513d602081101562013edb57600080fd5b810190808051906020019092919050505050600160009054906101000a900473ffffffffffffffffffffffffffffffffffffffff1673ffffffffffffffffffffffffffffffffffffffff1663214d9b2b6101b46040518263ffffffff1660e01b815260040180806020018060200180602001858152602001848103845260088152602001807f434f5649442d3139000000000000000000000000000000000000000000000000815250602001848103835260078152602001807f536f6d616c6961000000000000000000000000000000000000000000000000008152506020018481038252600e8152602001807f352e313532312c34362e31393936000000000000000000000000000000000000815250602001945050505050602060405180830381600087803b1580156201401057600080fd5b505af115801562014025573d6000803e3d6000fd5b505050506040513d60208110156201403c57600080fd5b810190808051906020019092919050505050600160009054906101000a900473ffffffffffffffffffffffffffffffffffffffff1673ffffffffffffffffffffffffffffffffffffffff1663214d9b2b6111c26040518263ffffffff1660e01b815260040180806020018060200180602001858152602001848103845260088152602001807f434f5649442d31390000000000000000000000000000000000000000000000008152506020018481038352600c8152602001807f536f757468204166726963610000000000000000000000000000000000000000815250602001848103825260108152602001807f2d33302e353539352c32322e3933373500000000000000000000000000000000815250602001945050505050602060405180830381600087803b1580156201417157600080fd5b505af115801562014186573d6000803e3d6000fd5b505050506040513d60208110156201419d57600080fd5b810190808051906020019092919050505050600160009054906101000a900473ffffffffffffffffffffffffffffffffffffffff1673ffffffffffffffffffffffffffffffffffffffff1663214d9b2b620375456040518263ffffffff1660e01b815260040180806020018060200180602001858152602001848103845260088152602001807f434f5649442d3139000000000000000000000000000000000000000000000000815250602001848103835260058152602001807f537061696e000000000000000000000000000000000000000000000000000000815250602001848103825260058152602001807f34302c2d34000000000000000000000000000000000000000000000000000000815250602001945050505050602060405180830381600087803b158015620142d357600080fd5b505af1158015620142e8573d6000803e3d6000fd5b505050506040513d6020811015620142ff57600080fd5b810190808051906020019092919050505050600160009054906101000a900473ffffffffffffffffffffffffffffffffffffffff1673ffffffffffffffffffffffffffffffffffffffff1663214d9b2b61020b6040518263ffffffff1660e01b815260040180806020018060200180602001858152602001848103845260088152602001807f434f5649442d3139000000000000000000000000000000000000000000000000815250602001848103835260098152602001807f537269204c616e6b610000000000000000000000000000000000000000000000815250602001848103825260048152602001807f372c383100000000000000000000000000000000000000000000000000000000815250602001945050505050602060405180830381600087803b1580156201443457600080fd5b505af115801562014449573d6000803e3d6000fd5b505050506040513d60208110156201446057600080fd5b810190808051906020019092919050505050600160009054906101000a900473ffffffffffffffffffffffffffffffffffffffff1673ffffffffffffffffffffffffffffffffffffffff1663214d9b2b60ed6040518263ffffffff1660e01b815260040180806020018060200180602001858152602001848103845260088152602001807f434f5649442d3139000000000000000000000000000000000000000000000000815250602001848103835260058152602001807f537564616e0000000000000000000000000000000000000000000000000000008152506020018481038252600f8152602001807f31322e383632382c33302e323137360000000000000000000000000000000000815250602001945050505050602060405180830381600087803b1580156201459457600080fd5b505af1158015620145a9573d6000803e3d6000fd5b505050506040513d6020811015620145c057600080fd5b810190808051906020019092919050505050600160009054906101000a900473ffffffffffffffffffffffffffffffffffffffff1673ffffffffffffffffffffffffffffffffffffffff1663214d9b2b600a6040518263ffffffff1660e01b815260040180806020018060200180602001858152602001848103845260088152602001807f434f5649442d3139000000000000000000000000000000000000000000000000815250602001848103835260088152602001807f537572696e616d650000000000000000000000000000000000000000000000008152506020018481038252600f8152602001807f332e393139332c2d35362e303237380000000000000000000000000000000000815250602001945050505050602060405180830381600087803b158015620146f457600080fd5b505af115801562014709573d6000803e3d6000fd5b505050506040513d60208110156201472057600080fd5b810190808051906020019092919050505050600160009054906101000a900473ffffffffffffffffffffffffffffffffffffffff1673ffffffffffffffffffffffffffffffffffffffff1663214d9b2b6148d06040518263ffffffff1660e01b815260040180806020018060200180602001858152602001848103845260088152602001807f434f5649442d3139000000000000000000000000000000000000000000000000815250602001848103835260068152602001807f53776564656e0000000000000000000000000000000000000000000000000000815250602001848103825260058152602001807f36332c3136000000000000000000000000000000000000000000000000000000815250602001945050505050602060405180830381600087803b1580156201485557600080fd5b505af11580156201486a573d6000803e3d6000fd5b505050506040513d60208110156201488157600080fd5b810190808051906020019092919050505050600160009054906101000a900473ffffffffffffffffffffffffffffffffffffffff1673ffffffffffffffffffffffffffffffffffffffff1663214d9b2b6171856040518263ffffffff1660e01b815260040180806020018060200180602001858152602001848103845260088152602001807f434f5649442d31390000000000000000000000000000000000000000000000008152506020018481038352600b8152602001807f537769747a65726c616e640000000000000000000000000000000000000000008152506020018481038252600e8152602001807f34362e383138322c382e32323735000000000000000000000000000000000000815250602001945050505050602060405180830381600087803b158015620149b657600080fd5b505af1158015620149cb573d6000803e3d6000fd5b505050506040513d6020811015620149e257600080fd5b810190808051906020019092919050505050600160009054906101000a900473ffffffffffffffffffffffffffffffffffffffff1673ffffffffffffffffffffffffffffffffffffffff1663214d9b2b6101ad6040518263ffffffff1660e01b815260040180806020018060200180602001858152602001848103845260088152602001807f434f5649442d3139000000000000000000000000000000000000000000000000815250602001848103835260078152602001807f54616977616e2a00000000000000000000000000000000000000000000000000815250602001848103825260088152602001807f32332e372c313231000000000000000000000000000000000000000000000000815250602001945050505050602060405180830381600087803b15801562014b1757600080fd5b505af115801562014b2c573d6000803e3d6000fd5b505050506040513d602081101562014b4357600080fd5b810190808051906020019092919050505050600160009054906101000a900473ffffffffffffffffffffffffffffffffffffffff1673ffffffffffffffffffffffffffffffffffffffff1663214d9b2b61012b6040518263ffffffff1660e01b815260040180806020018060200180602001858152602001848103845260088152602001807f434f5649442d3139000000000000000000000000000000000000000000000000815250602001848103835260088152602001807f54616e7a616e69610000000000000000000000000000000000000000000000008152506020018481038252600e8152602001807f2d362e3336392c33342e38383838000000000000000000000000000000000000815250602001945050505050602060405180830381600087803b15801562014c7857600080fd5b505af115801562014c8d573d6000803e3d6000fd5b505050506040513d602081101562014ca457600080fd5b810190808051906020019092919050505050600160009054906101000a900473ffffffffffffffffffffffffffffffffffffffff1673ffffffffffffffffffffffffffffffffffffffff1663214d9b2b610b6a6040518263ffffffff1660e01b815260040180806020018060200180602001858152602001848103845260088152602001807f434f5649442d3139000000000000000000000000000000000000000000000000815250602001848103835260088152602001807f546861696c616e64000000000000000000000000000000000000000000000000815250602001848103825260068152602001807f31352c3130310000000000000000000000000000000000000000000000000000815250602001945050505050602060405180830381600087803b15801562014dd957600080fd5b505af115801562014dee573d6000803e3d6000fd5b505050506040513d602081101562014e0557600080fd5b810190808051906020019092919050505050600160009054906101000a900473ffffffffffffffffffffffffffffffffffffffff1673ffffffffffffffffffffffffffffffffffffffff1663214d9b2b60626040518263ffffffff1660e01b815260040180806020018060200180602001858152602001848103845260088152602001807f434f5649442d3139000000000000000000000000000000000000000000000000815250602001848103835260048152602001807f546f676f000000000000000000000000000000000000000000000000000000008152506020018481038252600d8152602001807f382e363139352c302e3832343800000000000000000000000000000000000000815250602001945050505050602060405180830381600087803b15801562014f3957600080fd5b505af115801562014f4e573d6000803e3d6000fd5b505050506040513d602081101562014f6557600080fd5b810190808051906020019092919050505050600160009054906101000a900473ffffffffffffffffffffffffffffffffffffffff1673ffffffffffffffffffffffffffffffffffffffff1663214d9b2b60736040518263ffffffff1660e01b815260040180806020018060200180602001858152602001848103845260088152602001807f434f5649442d3139000000000000000000000000000000000000000000000000815250602001848103835260138152602001807f5472696e6964616420616e6420546f6261676f00000000000000000000000000815250602001848103825260108152602001807f31302e363931382c2d36312e3232323500000000000000000000000000000000815250602001945050505050602060405180830381600087803b1580156201509957600080fd5b505af1158015620150ae573d6000803e3d6000fd5b505050506040513d6020811015620150c557600080fd5b810190808051906020019092919050505050600160009054906101000a900473ffffffffffffffffffffffffffffffffffffffff1673ffffffffffffffffffffffffffffffffffffffff1663214d9b2b6103b56040518263ffffffff1660e01b815260040180806020018060200180602001858152602001848103845260088152602001807f434f5649442d3139000000000000000000000000000000000000000000000000815250602001848103835260078152602001807f54756e6973696100000000000000000000000000000000000000000000000000815250602001848103825260048152602001807f33342c3900000000000000000000000000000000000000000000000000000000815250602001945050505050602060405180830381600087803b158015620151fa57600080fd5b505af11580156201520f573d6000803e3d6000fd5b505050506040513d60208110156201522657600080fd5b810190808051906020019092919050505050600160009054906101000a900473ffffffffffffffffffffffffffffffffffffffff1673ffffffffffffffffffffffffffffffffffffffff1663214d9b2b6201ae326040518263ffffffff1660e01b815260040180806020018060200180602001858152602001848103845260088152602001807f434f5649442d3139000000000000000000000000000000000000000000000000815250602001848103835260068152602001807f5475726b657900000000000000000000000000000000000000000000000000008152506020018481038252600f8152602001807f33382e393633372c33352e323433330000000000000000000000000000000000815250602001945050505050602060405180830381600087803b1580156201535c57600080fd5b505af115801562015371573d6000803e3d6000fd5b505050506040513d60208110156201538857600080fd5b810190808051906020019092919050505050565b600160009054906101000a900473ffffffffffffffffffffffffffffffffffffffff1673ffffffffffffffffffffffffffffffffffffffff1663214d9b2b60056040518263ffffffff1660e01b815260040180806020018060200180602001858152602001848103845260088152602001807f434f5649442d3139000000000000000000000000000000000000000000000000815250602001848103835260068152602001807f43616e6164610000000000000000000000000000000000000000000000000000815250602001848103825260118152602001807f36342e383235352c2d3132342e38343537000000000000000000000000000000815250602001945050505050602060405180830381600087803b158015620154be57600080fd5b505af1158015620154d3573d6000803e3d6000fd5b505050506040513d6020811015620154ea57600080fd5b810190808051906020019092919050505050600160009054906101000a900473ffffffffffffffffffffffffffffffffffffffff1673ffffffffffffffffffffffffffffffffffffffff1663214d9b2b600b6040518263ffffffff1660e01b815260040180806020018060200180602001858152602001848103845260088152602001807f434f5649442d3139000000000000000000000000000000000000000000000000815250602001848103835260068152602001807f43616e61646100000000000000000000000000000000000000000000000000008152506020018481038252600c8152602001807f36342e323832332c2d3133350000000000000000000000000000000000000000815250602001945050505050602060405180830381600087803b1580156201561e57600080fd5b505af115801562015633573d6000803e3d6000fd5b505050506040513d60208110156201564a57600080fd5b810190808051906020019092919050505050600160009054906101000a900473ffffffffffffffffffffffffffffffffffffffff1673ffffffffffffffffffffffffffffffffffffffff1663214d9b2b6101fe6040518263ffffffff1660e01b815260040180806020018060200180602001858152602001848103845260088152602001807f434f5649442d3139000000000000000000000000000000000000000000000000815250602001848103835260068152602001807f4b6f736f766f0000000000000000000000000000000000000000000000000000815250602001848103825260138152602001807f34322e3630323633362c32302e39303239373700000000000000000000000000815250602001945050505050602060405180830381600087803b1580156201577f57600080fd5b505af115801562015794573d6000803e3d6000fd5b505050506040513d6020811015620157ab57600080fd5b810190808051906020019092919050505050600160009054906101000a900473ffffffffffffffffffffffffffffffffffffffff1673ffffffffffffffffffffffffffffffffffffffff1663214d9b2b60926040518263ffffffff1660e01b815260040180806020018060200180602001858152602001848103845260088152602001807f434f5649442d3139000000000000000000000000000000000000000000000000815250602001848103835260058152602001807f4275726d610000000000000000000000000000000000000000000000000000008152506020018481038252600e8152602001807f32312e393136322c39352e393536000000000000000000000000000000000000815250602001945050505050602060405180830381600087803b158015620158df57600080fd5b505af1158015620158f4573d6000803e3d6000fd5b505050506040513d60208110156201590b57600080fd5b810190808051906020019092919050505050600160009054906101000a900473ffffffffffffffffffffffffffffffffffffffff1673ffffffffffffffffffffffffffffffffffffffff1663214d9b2b60036040518263ffffffff1660e01b815260040180806020018060200180602001858152602001848103845260088152602001807f434f5649442d31390000000000000000000000000000000000000000000000008152506020018481038352600e8152602001807f556e69746564204b696e67646f6d000000000000000000000000000000000000815250602001848103825260108152602001807f31382e323230362c2d36332e3036383600000000000000000000000000000000815250602001945050505050602060405180830381600087803b15801562015a3f57600080fd5b505af115801562015a54573d6000803e3d6000fd5b505050506040513d602081101562015a6b57600080fd5b810190808051906020019092919050505050600160009054906101000a900473ffffffffffffffffffffffffffffffffffffffff1673ffffffffffffffffffffffffffffffffffffffff1663214d9b2b60066040518263ffffffff1660e01b815260040180806020018060200180602001858152602001848103845260088152602001807f434f5649442d31390000000000000000000000000000000000000000000000008152506020018481038352600e8152602001807f556e69746564204b696e67646f6d0000000000000000000000000000000000008152506020018481038252600e8152602001807f31382e343230372c2d36342e3634000000000000000000000000000000000000815250602001945050505050602060405180830381600087803b15801562015b9f57600080fd5b505af115801562015bb4573d6000803e3d6000fd5b505050506040513d602081101562015bcb57600080fd5b810190808051906020019092919050505050600160009054906101000a900473ffffffffffffffffffffffffffffffffffffffff1673ffffffffffffffffffffffffffffffffffffffff1663214d9b2b600b6040518263ffffffff1660e01b815260040180806020018060200180602001858152602001848103845260088152602001807f434f5649442d31390000000000000000000000000000000000000000000000008152506020018481038352600e8152602001807f556e69746564204b696e67646f6d0000000000000000000000000000000000008152506020018481038252600f8152602001807f32312e3639342c2d37312e373937390000000000000000000000000000000000815250602001945050505050602060405180830381600087803b15801562015cff57600080fd5b505af115801562015d14573d6000803e3d6000fd5b505050506040513d602081101562015d2b57600080fd5b810190808051906020019092919050505050600160009054906101000a900473ffffffffffffffffffffffffffffffffffffffff1673ffffffffffffffffffffffffffffffffffffffff1663214d9b2b60096040518263ffffffff1660e01b815260040180806020018060200180602001858152602001848103845260088152602001807f434f5649442d31390000000000000000000000000000000000000000000000008152506020018481038352600a8152602001807f4d53205a61616e64616d00000000000000000000000000000000000000000000815250602001848103825260038152602001807f302c300000000000000000000000000000000000000000000000000000000000815250602001945050505050602060405180830381600087803b15801562015e5f57600080fd5b505af115801562015e74573d6000803e3d6000fd5b505050506040513d602081101562015e8b57600080fd5b810190808051906020019092919050505050600160009054906101000a900473ffffffffffffffffffffffffffffffffffffffff1673ffffffffffffffffffffffffffffffffffffffff1663214d9b2b60166040518263ffffffff1660e01b815260040180806020018060200180602001858152602001848103845260088152602001807f434f5649442d3139000000000000000000000000000000000000000000000000815250602001848103835260088152602001807f426f747377616e61000000000000000000000000000000000000000000000000815250602001848103825260108152602001807f2d32322e333238352c32342e3638343900000000000000000000000000000000815250602001945050505050602060405180830381600087803b15801562015fbf57600080fd5b505af115801562015fd4573d6000803e3d6000fd5b505050506040513d602081101562015feb57600080fd5b810190808051906020019092919050505050600160009054906101000a900473ffffffffffffffffffffffffffffffffffffffff1673ffffffffffffffffffffffffffffffffffffffff1663214d9b2b600b6040518263ffffffff1660e01b815260040180806020018060200180602001858152602001848103845260088152602001807f434f5649442d3139000000000000000000000000000000000000000000000000815250602001848103835260078152602001807f427572756e6469000000000000000000000000000000000000000000000000008152506020018481038252600f8152602001807f2d332e333733312c32392e393138390000000000000000000000000000000000815250602001945050505050602060405180830381600087803b1580156201611f57600080fd5b505af115801562016134573d6000803e3d6000fd5b505050506040513d60208110156201614b57600080fd5b810190808051906020019092919050505050600160009054906101000a900473ffffffffffffffffffffffffffffffffffffffff1673ffffffffffffffffffffffffffffffffffffffff1663214d9b2b605d6040518263ffffffff1660e01b815260040180806020018060200180602001858152602001848103845260088152602001807f434f5649442d31390000000000000000000000000000000000000000000000008152506020018481038352600c8152602001807f536965727261204c656f6e650000000000000000000000000000000000000000815250602001848103825260138152602001807f382e3436303535352c2d31312e37373938383900000000000000000000000000815250602001945050505050602060405180830381600087803b1580156201627f57600080fd5b505af115801562016294573d6000803e3d6000fd5b505050506040513d6020811015620162ab57600080fd5b810190808051906020019092919050505050600160009054906101000a900473ffffffffffffffffffffffffffffffffffffffff1673ffffffffffffffffffffffffffffffffffffffff1663214d9b2b60056040518263ffffffff1660e01b815260040180806020018060200180602001858152602001848103845260088152602001807f434f5649442d31390000000000000000000000000000000000000000000000008152506020018481038352600b8152602001807f4e65746865726c616e6473000000000000000000000000000000000000000000815250602001848103825260108152602001807f31322e313738342c2d36382e3233383500000000000000000000000000000000815250602001945050505050602060405180830381600087803b158015620163df57600080fd5b505af1158015620163f4573d6000803e3d6000fd5b505050506040513d60208110156201640b57600080fd5b810190808051906020019092919050505050600160009054906101000a900473ffffffffffffffffffffffffffffffffffffffff1673ffffffffffffffffffffffffffffffffffffffff1663214d9b2b60226040518263ffffffff1660e01b815260040180806020018060200180602001858152602001848103845260088152602001807f434f5649442d3139000000000000000000000000000000000000000000000000815250602001848103835260068152602001807f4d616c6177690000000000000000000000000000000000000000000000000000815250602001848103825260148152602001807f2d31332e3235343330382c33342e333031353235000000000000000000000000815250602001945050505050602060405180830381600087803b1580156201653f57600080fd5b505af115801562016554573d6000803e3d6000fd5b505050506040513d60208110156201656b57600080fd5b810190808051906020019092919050505050600160009054906101000a900473ffffffffffffffffffffffffffffffffffffffff1673ffffffffffffffffffffffffffffffffffffffff1663214d9b2b600d6040518263ffffffff1660e01b815260040180806020018060200180602001858152602001848103845260088152602001807f434f5649442d31390000000000000000000000000000000000000000000000008152506020018481038352600e8152602001807f556e69746564204b696e67646f6d000000000000000000000000000000000000815250602001848103825260118152602001807f2d35312e373936332c2d35392e35323336000000000000000000000000000000815250602001945050505050602060405180830381600087803b1580156201669f57600080fd5b505af1158015620166b4573d6000803e3d6000fd5b505050506040513d6020811015620166cb57600080fd5b810190808051906020019092919050505050600160009054906101000a900473ffffffffffffffffffffffffffffffffffffffff1673ffffffffffffffffffffffffffffffffffffffff1663214d9b2b60016040518263ffffffff1660e01b815260040180806020018060200180602001858152602001848103845260088152602001807f434f5649442d3139000000000000000000000000000000000000000000000000815250602001848103835260068152602001807f4672616e63650000000000000000000000000000000000000000000000000000815250602001848103825260108152602001807f34362e383835322c2d35362e3331353900000000000000000000000000000000815250602001945050505050602060405180830381600087803b158015620167ff57600080fd5b505af115801562016814573d6000803e3d6000fd5b505050506040513d60208110156201682b57600080fd5b810190808051906020019092919050505050600160009054906101000a900473ffffffffffffffffffffffffffffffffffffffff1673ffffffffffffffffffffffffffffffffffffffff1663214d9b2b60066040518263ffffffff1660e01b815260040180806020018060200180602001858152602001848103845260088152602001807f434f5649442d31390000000000000000000000000000000000000000000000008152506020018481038352600b8152602001807f536f75746820537564616e0000000000000000000000000000000000000000008152506020018481038252600c8152602001807f362e3837372c33312e3330370000000000000000000000000000000000000000815250602001945050505050602060405180830381600087803b1580156201695f57600080fd5b505af115801562016974573d6000803e3d6000fd5b505050506040513d60208110156201698b57600080fd5b810190808051906020019092919050505050600160009054906101000a900473ffffffffffffffffffffffffffffffffffffffff1673ffffffffffffffffffffffffffffffffffffffff1663214d9b2b60066040518263ffffffff1660e01b815260040180806020018060200180602001858152602001848103845260088152602001807f434f5649442d31390000000000000000000000000000000000000000000000008152506020018481038352600e8152602001807f5765737465726e20536168617261000000000000000000000000000000000000815250602001848103825260108152602001807f32342e323135352c2d31322e3838353800000000000000000000000000000000815250602001945050505050602060405180830381600087803b15801562016abf57600080fd5b505af115801562016ad4573d6000803e3d6000fd5b505050506040513d602081101562016aeb57600080fd5b810190808051906020019092919050505050600160009054906101000a900473ffffffffffffffffffffffffffffffffffffffff1673ffffffffffffffffffffffffffffffffffffffff1663214d9b2b60046040518263ffffffff1660e01b815260040180806020018060200180602001858152602001848103845260088152602001807f434f5649442d3139000000000000000000000000000000000000000000000000815250602001848103835260158152602001807f53616f20546f6d6520616e64205072696e636970650000000000000000000000815250602001848103825260108152602001807f302e31383633362c362e36313330383100000000000000000000000000000000815250602001945050505050602060405180830381600087803b15801562016c1f57600080fd5b505af115801562016c34573d6000803e3d6000fd5b505050506040513d602081101562016c4b57600080fd5b810190808051906020019092919050505050600160009054906101000a900473ffffffffffffffffffffffffffffffffffffffff1673ffffffffffffffffffffffffffffffffffffffff1663214d9b2b60016040518263ffffffff1660e01b815260040180806020018060200180602001858152602001848103845260088152602001807f434f5649442d3139000000000000000000000000000000000000000000000000815250602001848103835260058152602001807f59656d656e000000000000000000000000000000000000000000000000000000815250602001848103825260138152602001807f31352e3535323732372c34382e35313633383800000000000000000000000000815250602001945050505050602060405180830381600087803b15801562016d7f57600080fd5b505af115801562016d94573d6000803e3d6000fd5b505050506040513d602081101562016dab57600080fd5b81019080805190602001909291905050505056fea265627a7a723158200dd26e5d61fd8ce4f8562099bdb5016478076ebc5c8ffb4496bf76e220234f0f64736f6c63430005100032",
  "source": "pragma solidity >=0.5.0 <0.6.0;\n\nimport \"./Storage.sol\";\n\n/*\n    Note: this entire contract is embarassing\n    All of this nonsense is an attempt to get around the various limitations of the underlying technology.\n    Contract length limitations, gas cost per transaction limitations\n    \n    IMPORTANT:\n        1) You must update storageContractAddress by calling _setStorageContract if necessary\n        2) You will need to copy/paste functions f1-f9 individually such that you are deploying only one of these functions at a time\n        Otherwise you will exceed contract length and transaction limitations.\n        3) The contract at 0x704446b9Cc003259EB3B0A080c3356970d3B218c has historical data through 4/28.\n        PLEASE DO NOT ADD TO IT UNLESS ADDING NEW DAYS. Otherwise we will need to deploy 9 versions of this contract to rebuild the dataset on chain.\n    \n    Data Source: Johns Hopkins School of Public Health\n    https://data.humdata.org/dataset/novel-coronavirus-2019-ncov-cases\n*/\n\ncontract massEntry {\n    uint rand = 0;\n    Storage storageContract;\n    \n    // You probably want to initialize this here once the final storage contract is deployed (so you don't have to manually update by calling _setStorageContract each deployment...)\n    address storageContractAddress;\n    \n    constructor() public{\n        storageContract = Storage(storageContractAddress);\n    }\n    \n    function _setStorageContract(address _newStorageContractAddress) public {\n        storageContractAddress = _newStorageContractAddress;\n        storageContract = Storage(storageContractAddress);\n    }\n    \n    function f1() public {\n        storageContract.addHistoricalRecord(\"COVID-19\",\"Afghanistan\",\"33,65\",1531);\n        storageContract.addHistoricalRecord(\"COVID-19\",\"Albania\",\"41.1533,20.1683\",726);\n        storageContract.addHistoricalRecord(\"COVID-19\",\"Algeria\",\"28.0339,1.6596\",3382);\n        storageContract.addHistoricalRecord(\"COVID-19\",\"Andorra\",\"42.5063,1.5218\",738);\n        storageContract.addHistoricalRecord(\"COVID-19\",\"Angola\",\"-11.2027,17.8739\",26);\n        storageContract.addHistoricalRecord(\"COVID-19\",\"Antigua and Barbuda\",\"17.0608,-61.7964\",24);\n        storageContract.addHistoricalRecord(\"COVID-19\",\"Argentina\",\"-38.4161,-63.6167\",3892);\n        storageContract.addHistoricalRecord(\"COVID-19\",\"Armenia\",\"40.0691,45.0382\",1746);\n        storageContract.addHistoricalRecord(\"COVID-19\",\"Australia\",\"-35.4735,149.0124\",106);\n        storageContract.addHistoricalRecord(\"COVID-19\",\"Australia\",\"-33.8688,151.2093\",3002);\n        storageContract.addHistoricalRecord(\"COVID-19\",\"Australia\",\"-12.4634,130.8456\",28);\n        storageContract.addHistoricalRecord(\"COVID-19\",\"Australia\",\"-28.0167,153.4\",1030);\n        storageContract.addHistoricalRecord(\"COVID-19\",\"Australia\",\"-34.9285,138.6007\",438);\n        storageContract.addHistoricalRecord(\"COVID-19\",\"Australia\",\"-41.4545,145.9707\",212);\n        storageContract.addHistoricalRecord(\"COVID-19\",\"Australia\",\"-37.8136,144.9631\",1349);\n        storageContract.addHistoricalRecord(\"COVID-19\",\"Australia\",\"-31.9505,115.8605\",549);\n        storageContract.addHistoricalRecord(\"COVID-19\",\"Austria\",\"47.5162,14.5501\",15225);\n        storageContract.addHistoricalRecord(\"COVID-19\",\"Azerbaijan\",\"40.1431,47.5769\",1645);\n        storageContract.addHistoricalRecord(\"COVID-19\",\"Bahamas\",\"25.0343,-77.3963\",80);\n        storageContract.addHistoricalRecord(\"COVID-19\",\"Bahrain\",\"26.0275,50.55\",2647);\n        storageContract.addHistoricalRecord(\"COVID-19\",\"Bangladesh\",\"23.685,90.3563\",5416);\n        storageContract.addHistoricalRecord(\"COVID-19\",\"Barbados\",\"13.1939,-59.5432\",79);\n        storageContract.addHistoricalRecord(\"COVID-19\",\"Belarus\",\"53.7098,27.9534\",10463);\n        storageContract.addHistoricalRecord(\"COVID-19\",\"Belgium\",\"50.8333,4\",46134);\n        storageContract.addHistoricalRecord(\"COVID-19\",\"Benin\",\"9.3077,2.3158\",64);\n        storageContract.addHistoricalRecord(\"COVID-19\",\"Bhutan\",\"27.5142,90.4336\",7);\n        storageContract.addHistoricalRecord(\"COVID-19\",\"Bolivia\",\"-16.2902,-63.5887\",950);\n        storageContract.addHistoricalRecord(\"COVID-19\",\"Bosnia and Herzegovina\",\"43.9159,17.6791\",1516);\n    }\n    \n    function f2() public {\n        storageContract.addHistoricalRecord(\"COVID-19\",\"Brazil\",\"-14.235,-51.9253\",63100);\n        storageContract.addHistoricalRecord(\"COVID-19\",\"Brunei\",\"4.5353,114.7277\",138);\n        storageContract.addHistoricalRecord(\"COVID-19\",\"Bulgaria\",\"42.7339,25.4858\",1300);\n        storageContract.addHistoricalRecord(\"COVID-19\",\"Burkina Faso\",\"12.2383,-1.5616\",632);\n        storageContract.addHistoricalRecord(\"COVID-19\",\"Cabo Verde\",\"16.5388,-23.0418\",106);\n        storageContract.addHistoricalRecord(\"COVID-19\",\"Cambodia\",\"11.55,104.9167\",122);\n        storageContract.addHistoricalRecord(\"COVID-19\",\"Cameroon\",\"3.848,11.5021\",1621);\n        storageContract.addHistoricalRecord(\"COVID-19\",\"Canada\",\"53.9333,-116.5765\",4480);\n        storageContract.addHistoricalRecord(\"COVID-19\",\"Canada\",\"49.2827,-123.1207\",1948);\n        storageContract.addHistoricalRecord(\"COVID-19\",\"Canada\",\"37.6489,-122.6655\",13);\n        storageContract.addHistoricalRecord(\"COVID-19\",\"Canada\",\"53.7609,-98.8139\",271);\n        storageContract.addHistoricalRecord(\"COVID-19\",\"Canada\",\"46.5653,-66.4619\",118);\n        storageContract.addHistoricalRecord(\"COVID-19\",\"Canada\",\"53.1355,-57.6604\",258);\n        storageContract.addHistoricalRecord(\"COVID-19\",\"Canada\",\"44.682,-63.7443\",873);\n        storageContract.addHistoricalRecord(\"COVID-19\",\"Canada\",\"51.2538,-85.3232\",15568);\n        storageContract.addHistoricalRecord(\"COVID-19\",\"Canada\",\"46.5107,-63.4168\",26);\n        storageContract.addHistoricalRecord(\"COVID-19\",\"Canada\",\"52.9399,-73.5491\",24109);\n        storageContract.addHistoricalRecord(\"COVID-19\",\"Canada\",\"52.9399,-106.4509\",353);\n        storageContract.addHistoricalRecord(\"COVID-19\",\"Central African Republic\",\"6.6111,20.9394\",19);\n        storageContract.addHistoricalRecord(\"COVID-19\",\"Chad\",\"15.4542,18.7322\",46);\n        storageContract.addHistoricalRecord(\"COVID-19\",\"Chile\",\"-35.6751,-71.543\",13331);\n        storageContract.addHistoricalRecord(\"COVID-19\",\"China\",\"31.8257,117.2264\",991);\n        storageContract.addHistoricalRecord(\"COVID-19\",\"China\",\"40.1824,116.4142\",593);\n        storageContract.addHistoricalRecord(\"COVID-19\",\"China\",\"30.0572,107.874\",579);\n        storageContract.addHistoricalRecord(\"COVID-19\",\"China\",\"26.0789,117.9874\",355);\n        storageContract.addHistoricalRecord(\"COVID-19\",\"China\",\"37.8099,101.0583\",139);\n        storageContract.addHistoricalRecord(\"COVID-19\",\"China\",\"23.3417,113.4244\",1587);\n        storageContract.addHistoricalRecord(\"COVID-19\",\"China\",\"23.8298,108.7881\",254);\n        storageContract.addHistoricalRecord(\"COVID-19\",\"China\",\"26.8154,106.8748\",147);\n        storageContract.addHistoricalRecord(\"COVID-19\",\"China\",\"19.1959,109.7453\",168);\n        storageContract.addHistoricalRecord(\"COVID-19\",\"China\",\"39.549,116.1306\",328);\n    }\n    \n    function f3() public {\n        storageContract.addHistoricalRecord(\"COVID-19\",\"China\",\"47.862,127.7615\",936);\n        storageContract.addHistoricalRecord(\"COVID-19\",\"China\",\"33.882,113.614\",1276);\n        storageContract.addHistoricalRecord(\"COVID-19\",\"China\",\"22.3,114.2\",1037);\n        storageContract.addHistoricalRecord(\"COVID-19\",\"China\",\"30.9756,112.2707\",68128);\n        storageContract.addHistoricalRecord(\"COVID-19\",\"China\",\"27.6104,111.7088\",1019);\n        storageContract.addHistoricalRecord(\"COVID-19\",\"China\",\"44.0935,113.9448\",198);\n        storageContract.addHistoricalRecord(\"COVID-19\",\"China\",\"32.9711,119.455\",653);\n        storageContract.addHistoricalRecord(\"COVID-19\",\"China\",\"27.614,115.7221\",937);\n        storageContract.addHistoricalRecord(\"COVID-19\",\"China\",\"43.6661,126.1923\",110);\n        storageContract.addHistoricalRecord(\"COVID-19\",\"China\",\"41.2956,122.6085\",146);\n        storageContract.addHistoricalRecord(\"COVID-19\",\"China\",\"22.1667,113.55\",45);\n        storageContract.addHistoricalRecord(\"COVID-19\",\"China\",\"37.2692,106.1655\",75);\n        storageContract.addHistoricalRecord(\"COVID-19\",\"China\",\"35.7452,95.9956\",18);\n        storageContract.addHistoricalRecord(\"COVID-19\",\"China\",\"35.1917,108.8701\",286);\n        storageContract.addHistoricalRecord(\"COVID-19\",\"China\",\"36.3427,118.1498\",787);\n        storageContract.addHistoricalRecord(\"COVID-19\",\"China\",\"31.202,121.4491\",642);\n        storageContract.addHistoricalRecord(\"COVID-19\",\"China\",\"37.5777,112.2922\",197);\n        storageContract.addHistoricalRecord(\"COVID-19\",\"China\",\"30.6171,102.7103\",561);\n        storageContract.addHistoricalRecord(\"COVID-19\",\"China\",\"39.3054,117.323\",190);\n        storageContract.addHistoricalRecord(\"COVID-19\",\"China\",\"31.6927,88.0924\",1);\n        storageContract.addHistoricalRecord(\"COVID-19\",\"China\",\"41.1129,85.2401\",76);\n        storageContract.addHistoricalRecord(\"COVID-19\",\"China\",\"24.974,101.487\",185);\n        storageContract.addHistoricalRecord(\"COVID-19\",\"China\",\"29.1832,120.0934\",1268);\n        storageContract.addHistoricalRecord(\"COVID-19\",\"Colombia\",\"4.5709,-74.2973\",5379);\n        storageContract.addHistoricalRecord(\"COVID-19\",\"Congo (Brazzaville)\",\"-4.0383,21.7587\",200);\n        storageContract.addHistoricalRecord(\"COVID-19\",\"Congo (Kinshasa)\",\"-4.0383,21.7587\",442);\n        storageContract.addHistoricalRecord(\"COVID-19\",\"Costa Rica\",\"9.7489,-83.7534\",695);\n        storageContract.addHistoricalRecord(\"COVID-19\",\"Cote d'Ivoire\",\"7.54,-5.5471\",1150);\n        storageContract.addHistoricalRecord(\"COVID-19\",\"Croatia\",\"45.1,15.2\",2030);\n        storageContract.addHistoricalRecord(\"COVID-19\",\"Diamond Princess\",\"0,0\",712);\n        storageContract.addHistoricalRecord(\"COVID-19\",\"Cuba\",\"22,-80\",1369);\n    }\n    \n    function f4() public {\n        storageContract.addHistoricalRecord(\"COVID-19\",\"Cyprus\",\"35.1264,33.4299\",817);\n        storageContract.addHistoricalRecord(\"COVID-19\",\"Czechia\",\"49.8175,15.473\",7404);\n        storageContract.addHistoricalRecord(\"COVID-19\",\"Denmark\",\"61.8926,-6.9118\",187);\n        storageContract.addHistoricalRecord(\"COVID-19\",\"Denmark\",\"71.7069,-42.6043\",11);\n        storageContract.addHistoricalRecord(\"COVID-19\",\"Denmark\",\"56.2639,9.5018\",8575);\n        storageContract.addHistoricalRecord(\"COVID-19\",\"Djibouti\",\"11.8251,42.5903\",1023);\n        storageContract.addHistoricalRecord(\"COVID-19\",\"Dominican Republic\",\"18.7357,-70.1627\",6135);\n        storageContract.addHistoricalRecord(\"COVID-19\",\"Ecuador\",\"-1.8312,-78.1834\",22719);\n        storageContract.addHistoricalRecord(\"COVID-19\",\"Egypt\",\"26,30\",4534);\n        storageContract.addHistoricalRecord(\"COVID-19\",\"El Salvador\",\"13.7942,-88.8965\",298);\n        storageContract.addHistoricalRecord(\"COVID-19\",\"Equatorial Guinea\",\"1.5,10\",258);\n        storageContract.addHistoricalRecord(\"COVID-19\",\"Eritrea\",\"15.1794,39.7823\",39);\n        storageContract.addHistoricalRecord(\"COVID-19\",\"Estonia\",\"58.5953,25.0136\",1643);\n        storageContract.addHistoricalRecord(\"COVID-19\",\"Eswatini\",\"-26.5225,31.4659\",59);\n        storageContract.addHistoricalRecord(\"COVID-19\",\"Ethiopia\",\"9.145,40.4897\",123);\n        storageContract.addHistoricalRecord(\"COVID-19\",\"Fiji\",\"-17.7134,178.065\",18);\n        storageContract.addHistoricalRecord(\"COVID-19\",\"Finland\",\"64,26\",4576);\n        storageContract.addHistoricalRecord(\"COVID-19\",\"France\",\"3.9339,-53.1258\",111);\n        storageContract.addHistoricalRecord(\"COVID-19\",\"France\",\"-17.6797,149.4068\",57);\n        storageContract.addHistoricalRecord(\"COVID-19\",\"France\",\"16.25,-61.5833\",149);\n        storageContract.addHistoricalRecord(\"COVID-19\",\"France\",\"-12.8275,45.1662\",401);\n        storageContract.addHistoricalRecord(\"COVID-19\",\"France\",\"-20.9043,165.618\",18);\n        storageContract.addHistoricalRecord(\"COVID-19\",\"France\",\"-21.1351,55.2471\",417);\n        storageContract.addHistoricalRecord(\"COVID-19\",\"France\",\"17.9,-62.8333\",6);\n        storageContract.addHistoricalRecord(\"COVID-19\",\"France\",\"18.0708,-63.0501\",38);\n        storageContract.addHistoricalRecord(\"COVID-19\",\"France\",\"14.6415,-61.0242\",175);\n        storageContract.addHistoricalRecord(\"COVID-19\",\"France\",\"46.2276,2.2137\",160847);\n        storageContract.addHistoricalRecord(\"COVID-19\",\"Gabon\",\"-0.8037,11.6094\",176);\n        storageContract.addHistoricalRecord(\"COVID-19\",\"Gambia\",\"13.4432,-15.3101\",10);\n        storageContract.addHistoricalRecord(\"COVID-19\",\"Georgia\",\"42.3154,43.3569\",486);\n        storageContract.addHistoricalRecord(\"COVID-19\",\"Germany\",\"51,9\",157770);\n    }\n    \n    function f5() public {\n        storageContract.addHistoricalRecord(\"COVID-19\",\"Ghana\",\"7.9465,-1.0232\",1550);\n        storageContract.addHistoricalRecord(\"COVID-19\",\"Greece\",\"39.0742,21.8243\",2517);\n        storageContract.addHistoricalRecord(\"COVID-19\",\"Guatemala\",\"15.7835,-90.2308\",500);\n        storageContract.addHistoricalRecord(\"COVID-19\",\"Guinea\",\"9.9456,-9.6966\",996);\n        storageContract.addHistoricalRecord(\"COVID-19\",\"Guyana\",\"5,-58.75\",74);\n        storageContract.addHistoricalRecord(\"COVID-19\",\"Haiti\",\"18.9712,-72.2852\",74);\n        storageContract.addHistoricalRecord(\"COVID-19\",\"Holy See\",\"41.9029,12.4534\",9);\n        storageContract.addHistoricalRecord(\"COVID-19\",\"Honduras\",\"15.2,-86.2419\",627);\n        storageContract.addHistoricalRecord(\"COVID-19\",\"Hungary\",\"47.1625,19.5033\",2500);\n        storageContract.addHistoricalRecord(\"COVID-19\",\"Iceland\",\"64.9631,-19.0208\",1792);\n        storageContract.addHistoricalRecord(\"COVID-19\",\"India\",\"21,78\",27890);\n        storageContract.addHistoricalRecord(\"COVID-19\",\"Indonesia\",\"-0.7893,113.9213\",8882);\n        storageContract.addHistoricalRecord(\"COVID-19\",\"Iran\",\"32,53\",90481);\n        storageContract.addHistoricalRecord(\"COVID-19\",\"Iraq\",\"33,44\",1820);\n        storageContract.addHistoricalRecord(\"COVID-19\",\"Ireland\",\"53.1424,-7.6921\",19262);\n        storageContract.addHistoricalRecord(\"COVID-19\",\"Israel\",\"31,35\",15443);\n        storageContract.addHistoricalRecord(\"COVID-19\",\"Italy\",\"43,12\",197675);\n        storageContract.addHistoricalRecord(\"COVID-19\",\"Jamaica\",\"18.1096,-77.2975\",350);\n        storageContract.addHistoricalRecord(\"COVID-19\",\"Japan\",\"36,138\",13441);\n        storageContract.addHistoricalRecord(\"COVID-19\",\"Jordan\",\"31.24,36.51\",447);\n        storageContract.addHistoricalRecord(\"COVID-19\",\"Kazakhstan\",\"48.0196,66.9237\",2717);\n        storageContract.addHistoricalRecord(\"COVID-19\",\"Kenya\",\"-0.0236,37.9062\",355);\n        storageContract.addHistoricalRecord(\"COVID-19\",\"Korea, South\",\"36,128\",10738);\n        storageContract.addHistoricalRecord(\"COVID-19\",\"Kuwait\",\"29.5,47.75\",3075);\n        storageContract.addHistoricalRecord(\"COVID-19\",\"Kyrgyzstan\",\"41.2044,74.7661\",682);\n        storageContract.addHistoricalRecord(\"COVID-19\",\"Latvia\",\"56.8796,24.6032\",812);\n        storageContract.addHistoricalRecord(\"COVID-19\",\"Lebanon\",\"33.8547,35.8623\",707);\n        storageContract.addHistoricalRecord(\"COVID-19\",\"Liberia\",\"6.4281,-9.4295\",124);\n        storageContract.addHistoricalRecord(\"COVID-19\",\"Liechtenstein\",\"47.14,9.55\",82);\n        storageContract.addHistoricalRecord(\"COVID-19\",\"Lithuania\",\"55.1694,23.8813\",1438);\n        storageContract.addHistoricalRecord(\"COVID-19\",\"Luxembourg\",\"49.8153,6.1296\",3723);\n    }\n    \n    function f6() public {\n        storageContract.addHistoricalRecord(\"COVID-19\",\"Madagascar\",\"-18.7669,46.8691\",124);\n        storageContract.addHistoricalRecord(\"COVID-19\",\"Malaysia\",\"2.5,112.5\",5780);\n        storageContract.addHistoricalRecord(\"COVID-19\",\"Maldives\",\"3.2028,73.2207\",214);\n        storageContract.addHistoricalRecord(\"COVID-19\",\"Malta\",\"35.9375,14.3754\",448);\n        storageContract.addHistoricalRecord(\"COVID-19\",\"Mauritania\",\"21.0079,10.9408\",7);\n        storageContract.addHistoricalRecord(\"COVID-19\",\"Mauritius\",\"-20.2,57.5\",332);\n        storageContract.addHistoricalRecord(\"COVID-19\",\"Mexico\",\"23.6345,-102.5528\",14677);\n        storageContract.addHistoricalRecord(\"COVID-19\",\"Moldova\",\"47.4116,28.3699\",3408);\n        storageContract.addHistoricalRecord(\"COVID-19\",\"Monaco\",\"43.7333,7.4167\",94);\n        storageContract.addHistoricalRecord(\"COVID-19\",\"Mongolia\",\"46.8625,103.8467\",38);\n        storageContract.addHistoricalRecord(\"COVID-19\",\"Montenegro\",\"42.5,19.3\",321);\n        storageContract.addHistoricalRecord(\"COVID-19\",\"Morocco\",\"31.7917,-7.0926\",4065);\n        storageContract.addHistoricalRecord(\"COVID-19\",\"Namibia\",\"-22.9576,18.4904\",16);\n        storageContract.addHistoricalRecord(\"COVID-19\",\"Nepal\",\"28.1667,84.25\",52);\n        storageContract.addHistoricalRecord(\"COVID-19\",\"Netherlands\",\"12.5186,-70.0358\",100);\n        storageContract.addHistoricalRecord(\"COVID-19\",\"Netherlands\",\"12.1696,-68.99\",16);\n        storageContract.addHistoricalRecord(\"COVID-19\",\"Netherlands\",\"18.0425,-63.0548\",74);\n        storageContract.addHistoricalRecord(\"COVID-19\",\"Netherlands\",\"52.1326,5.2913\",37845);\n        storageContract.addHistoricalRecord(\"COVID-19\",\"New Zealand\",\"-40.9006,174.886\",1469);\n        storageContract.addHistoricalRecord(\"COVID-19\",\"Nicaragua\",\"12.8654,-85.2072\",13);\n        storageContract.addHistoricalRecord(\"COVID-19\",\"Niger\",\"17.6078,8.0817\",696);\n        storageContract.addHistoricalRecord(\"COVID-19\",\"Nigeria\",\"9.082,8.6753\",1273);\n        storageContract.addHistoricalRecord(\"COVID-19\",\"North Macedonia\",\"41.6086,21.7453\",1386);\n        storageContract.addHistoricalRecord(\"COVID-19\",\"Norway\",\"60.472,8.4689\",7527);\n        storageContract.addHistoricalRecord(\"COVID-19\",\"Oman\",\"21,57\",1998);\n        storageContract.addHistoricalRecord(\"COVID-19\",\"Pakistan\",\"30.3753,69.3451\",13328);\n        storageContract.addHistoricalRecord(\"COVID-19\",\"Panama\",\"8.538,-80.7821\",5779);\n        storageContract.addHistoricalRecord(\"COVID-19\",\"Papua New Guinea\",\"-6.315,143.9555\",8);\n        storageContract.addHistoricalRecord(\"COVID-19\",\"Paraguay\",\"-23.4425,-58.4438\",228);\n        storageContract.addHistoricalRecord(\"COVID-19\",\"Peru\",\"-9.19,-75.0152\",27517);\n        storageContract.addHistoricalRecord(\"COVID-19\",\"Philippines\",\"13,122\",7579);\n    }\n    \n    function f7() public {\n        storageContract.addHistoricalRecord(\"COVID-19\",\"Poland\",\"51.9194,19.1451\",11617);\n        storageContract.addHistoricalRecord(\"COVID-19\",\"Portugal\",\"39.3999,-8.2245\",23864);\n        storageContract.addHistoricalRecord(\"COVID-19\",\"Qatar\",\"25.3548,51.1839\",10287);\n        storageContract.addHistoricalRecord(\"COVID-19\",\"Romania\",\"45.9432,24.9668\",11036);\n        storageContract.addHistoricalRecord(\"COVID-19\",\"Russia\",\"60,90\",80949);\n        storageContract.addHistoricalRecord(\"COVID-19\",\"Rwanda\",\"-1.9403,29.8739\",191);\n        storageContract.addHistoricalRecord(\"COVID-19\",\"Saint Lucia\",\"13.9094,-60.9789\",15);\n        storageContract.addHistoricalRecord(\"COVID-19\",\"Saint Vincent and the Grenadines\",\"12.9843,-61.2872\",14);\n        storageContract.addHistoricalRecord(\"COVID-19\",\"San Marino\",\"43.9424,12.4578\",538);\n        storageContract.addHistoricalRecord(\"COVID-19\",\"Saudi Arabia\",\"24,45\",17522);\n        storageContract.addHistoricalRecord(\"COVID-19\",\"Senegal\",\"14.4974,-14.4524\",671);\n        storageContract.addHistoricalRecord(\"COVID-19\",\"Serbia\",\"44.0165,21.0059\",6630);\n        storageContract.addHistoricalRecord(\"COVID-19\",\"Seychelles\",\"-4.6796,55.492\",11);\n        storageContract.addHistoricalRecord(\"COVID-19\",\"Singapore\",\"1.2833,103.8333\",13624);\n        storageContract.addHistoricalRecord(\"COVID-19\",\"Slovakia\",\"48.669,19.699\",1379);\n        storageContract.addHistoricalRecord(\"COVID-19\",\"Slovenia\",\"46.1512,14.9955\",1396);\n        storageContract.addHistoricalRecord(\"COVID-19\",\"Somalia\",\"5.1521,46.1996\",436);\n        storageContract.addHistoricalRecord(\"COVID-19\",\"South Africa\",\"-30.5595,22.9375\",4546);\n        storageContract.addHistoricalRecord(\"COVID-19\",\"Spain\",\"40,-4\",226629);\n        storageContract.addHistoricalRecord(\"COVID-19\",\"Sri Lanka\",\"7,81\",523);\n        storageContract.addHistoricalRecord(\"COVID-19\",\"Sudan\",\"12.8628,30.2176\",237);\n        storageContract.addHistoricalRecord(\"COVID-19\",\"Suriname\",\"3.9193,-56.0278\",10);\n        storageContract.addHistoricalRecord(\"COVID-19\",\"Sweden\",\"63,16\",18640);\n        storageContract.addHistoricalRecord(\"COVID-19\",\"Switzerland\",\"46.8182,8.2275\",29061);\n        storageContract.addHistoricalRecord(\"COVID-19\",\"Taiwan*\",\"23.7,121\",429);\n        storageContract.addHistoricalRecord(\"COVID-19\",\"Tanzania\",\"-6.369,34.8888\",299);\n        storageContract.addHistoricalRecord(\"COVID-19\",\"Thailand\",\"15,101\",2922);\n        storageContract.addHistoricalRecord(\"COVID-19\",\"Togo\",\"8.6195,0.8248\",98);\n        storageContract.addHistoricalRecord(\"COVID-19\",\"Trinidad and Tobago\",\"10.6918,-61.2225\",115);\n        storageContract.addHistoricalRecord(\"COVID-19\",\"Tunisia\",\"34,9\",949);\n        storageContract.addHistoricalRecord(\"COVID-19\",\"Turkey\",\"38.9637,35.2433\",110130);\n    }\n    \n    function f8() public {\n        storageContract.addHistoricalRecord(\"COVID-19\",\"Uganda\",\"1,32\",79);\n        storageContract.addHistoricalRecord(\"COVID-19\",\"Ukraine\",\"48.3794,31.1656\",8617);\n        storageContract.addHistoricalRecord(\"COVID-19\",\"United Arab Emirates\",\"24,54\",10349);\n        storageContract.addHistoricalRecord(\"COVID-19\",\"United Kingdom\",\"32.3078,-64.7505\",109);\n        storageContract.addHistoricalRecord(\"COVID-19\",\"United Kingdom\",\"19.3133,-81.2546\",70);\n        storageContract.addHistoricalRecord(\"COVID-19\",\"United Kingdom\",\"49.3723,-2.3644\",525);\n        storageContract.addHistoricalRecord(\"COVID-19\",\"United Kingdom\",\"36.1408,-5.3536\",141);\n        storageContract.addHistoricalRecord(\"COVID-19\",\"United Kingdom\",\"54.2361,-4.5481\",308);\n        storageContract.addHistoricalRecord(\"COVID-19\",\"United Kingdom\",\"16.7425,-62.1874\",11);\n        storageContract.addHistoricalRecord(\"COVID-19\",\"United Kingdom\",\"55.3781,-3.436\",152840);\n        storageContract.addHistoricalRecord(\"COVID-19\",\"Uruguay\",\"-32.5228,-55.7658\",606);\n        storageContract.addHistoricalRecord(\"COVID-19\",\"US\",\"37.0902,-95.7129\",965785);\n        storageContract.addHistoricalRecord(\"COVID-19\",\"Uzbekistan\",\"41.3775,64.5853\",1869);\n        storageContract.addHistoricalRecord(\"COVID-19\",\"Venezuela\",\"6.4238,-66.5897\",325);\n        storageContract.addHistoricalRecord(\"COVID-19\",\"Vietnam\",\"16,108\",270);\n        storageContract.addHistoricalRecord(\"COVID-19\",\"Zambia\",\"-15.4167,28.2833\",88);\n        storageContract.addHistoricalRecord(\"COVID-19\",\"Zimbabwe\",\"-20,30\",31);\n        storageContract.addHistoricalRecord(\"COVID-19\",\"Canada\",\"0,0\",0);\n        storageContract.addHistoricalRecord(\"COVID-19\",\"Dominica\",\"15.415,-61.371\",16);\n        storageContract.addHistoricalRecord(\"COVID-19\",\"Grenada\",\"12.1165,-61.679\",18);\n        storageContract.addHistoricalRecord(\"COVID-19\",\"Mozambique\",\"-18.665695,35.529562\",76);\n        storageContract.addHistoricalRecord(\"COVID-19\",\"Syria\",\"34.802075,38.996815\",43);\n        storageContract.addHistoricalRecord(\"COVID-19\",\"Timor-Leste\",\"-8.874217,125.727539\",24);\n        storageContract.addHistoricalRecord(\"COVID-19\",\"Belize\",\"13.1939,-59.5432\",18);\n        storageContract.addHistoricalRecord(\"COVID-19\",\"Canada\",\"0,0\",0);\n        storageContract.addHistoricalRecord(\"COVID-19\",\"Laos\",\"19.85627,102.495496\",19);\n        storageContract.addHistoricalRecord(\"COVID-19\",\"Libya\",\"26.3351,17.228331\",61);\n        storageContract.addHistoricalRecord(\"COVID-19\",\"West Bank and Gaza\",\"31.9522,35.2332\",342);\n        storageContract.addHistoricalRecord(\"COVID-19\",\"Guinea-Bissau\",\"11.8037,-15.1804\",53);\n        storageContract.addHistoricalRecord(\"COVID-19\",\"Mali\",\"17.570692,-3.996166\",389);\n        storageContract.addHistoricalRecord(\"COVID-19\",\"Saint Kitts and Nevis\",\"17.357822,-62.782998\",15);\n    }\n    \n    function f9() public {\n        storageContract.addHistoricalRecord(\"COVID-19\",\"Canada\",\"64.8255,-124.8457\",5);\n        storageContract.addHistoricalRecord(\"COVID-19\",\"Canada\",\"64.2823,-135\",11);\n        storageContract.addHistoricalRecord(\"COVID-19\",\"Kosovo\",\"42.602636,20.902977\",510);\n        storageContract.addHistoricalRecord(\"COVID-19\",\"Burma\",\"21.9162,95.956\",146);\n        storageContract.addHistoricalRecord(\"COVID-19\",\"United Kingdom\",\"18.2206,-63.0686\",3);\n        storageContract.addHistoricalRecord(\"COVID-19\",\"United Kingdom\",\"18.4207,-64.64\",6);\n        storageContract.addHistoricalRecord(\"COVID-19\",\"United Kingdom\",\"21.694,-71.7979\",11);\n        storageContract.addHistoricalRecord(\"COVID-19\",\"MS Zaandam\",\"0,0\",9);\n        storageContract.addHistoricalRecord(\"COVID-19\",\"Botswana\",\"-22.3285,24.6849\",22);\n        storageContract.addHistoricalRecord(\"COVID-19\",\"Burundi\",\"-3.3731,29.9189\",11);\n        storageContract.addHistoricalRecord(\"COVID-19\",\"Sierra Leone\",\"8.460555,-11.779889\",93);\n        storageContract.addHistoricalRecord(\"COVID-19\",\"Netherlands\",\"12.1784,-68.2385\",5);\n        storageContract.addHistoricalRecord(\"COVID-19\",\"Malawi\",\"-13.254308,34.301525\",34);\n        storageContract.addHistoricalRecord(\"COVID-19\",\"United Kingdom\",\"-51.7963,-59.5236\",13);\n        storageContract.addHistoricalRecord(\"COVID-19\",\"France\",\"46.8852,-56.3159\",1);\n        storageContract.addHistoricalRecord(\"COVID-19\",\"South Sudan\",\"6.877,31.307\",6);\n        storageContract.addHistoricalRecord(\"COVID-19\",\"Western Sahara\",\"24.2155,-12.8858\",6);\n        storageContract.addHistoricalRecord(\"COVID-19\",\"Sao Tome and Principe\",\"0.18636,6.613081\",4);\n        storageContract.addHistoricalRecord(\"COVID-19\",\"Yemen\",\"15.552727,48.516388\",1);\n    }\n}\n",
  "sourcePath": "/home/t8/WebstormProjects/cs481a3TermProject/contracts/MassEntry.sol",
  "compiler": {
    "name": "solc",
    "version": "0.5.16+commit.9c3226ce.Emscripten.clang"
  },
  "schemaVersion": "3.1.0",
  "updatedAt": "2020-05-02T19:42:38.354Z",
  "devdoc": {
    "methods": {}
  },
  "userdoc": {
    "methods": {}
  }
}