{
  "contractName": "Storage",
  "abi": [
    {
      "inputs": [],
      "payable": false,
      "stateMutability": "nonpayable",
      "type": "constructor"
    },
    {
      "constant": true,
      "inputs": [
        {
          "internalType": "string",
          "name": "",
          "type": "string"
        }
      ],
      "name": "recordByLatLon",
      "outputs": [
        {
          "internalType": "uint256",
          "name": "",
          "type": "uint256"
        }
      ],
      "payable": false,
      "stateMutability": "view",
      "type": "function"
    },
    {
      "constant": true,
      "inputs": [
        {
          "internalType": "uint256",
          "name": "",
          "type": "uint256"
        }
      ],
      "name": "records",
      "outputs": [
        {
          "internalType": "string",
          "name": "virus",
          "type": "string"
        },
        {
          "internalType": "string",
          "name": "location",
          "type": "string"
        },
        {
          "internalType": "string",
          "name": "latLon",
          "type": "string"
        },
        {
          "internalType": "uint256",
          "name": "count",
          "type": "uint256"
        }
      ],
      "payable": false,
      "stateMutability": "view",
      "type": "function"
    },
    {
      "constant": true,
      "inputs": [
        {
          "internalType": "string",
          "name": "",
          "type": "string"
        },
        {
          "internalType": "uint256",
          "name": "",
          "type": "uint256"
        }
      ],
      "name": "recordsByLocation",
      "outputs": [
        {
          "internalType": "uint256",
          "name": "",
          "type": "uint256"
        }
      ],
      "payable": false,
      "stateMutability": "view",
      "type": "function"
    },
    {
      "constant": true,
      "inputs": [
        {
          "internalType": "string",
          "name": "",
          "type": "string"
        },
        {
          "internalType": "uint256",
          "name": "",
          "type": "uint256"
        }
      ],
      "name": "recordsByVirus",
      "outputs": [
        {
          "internalType": "uint256",
          "name": "",
          "type": "uint256"
        }
      ],
      "payable": false,
      "stateMutability": "view",
      "type": "function"
    },
    {
      "constant": false,
      "inputs": [
        {
          "internalType": "address",
          "name": "newInputContract",
          "type": "address"
        }
      ],
      "name": "changeInputContractAddress",
      "outputs": [],
      "payable": false,
      "stateMutability": "nonpayable",
      "type": "function"
    },
    {
      "constant": false,
      "inputs": [
        {
          "internalType": "string",
          "name": "_virus",
          "type": "string"
        },
        {
          "internalType": "string",
          "name": "_location",
          "type": "string"
        },
        {
          "internalType": "string",
          "name": "_latlon",
          "type": "string"
        }
      ],
      "name": "addRecord",
      "outputs": [
        {
          "internalType": "uint256",
          "name": "",
          "type": "uint256"
        }
      ],
      "payable": false,
      "stateMutability": "nonpayable",
      "type": "function"
    },
    {
      "constant": false,
      "inputs": [
        {
          "internalType": "string",
          "name": "_virus",
          "type": "string"
        },
        {
          "internalType": "string",
          "name": "_location",
          "type": "string"
        },
        {
          "internalType": "string",
          "name": "_latlon",
          "type": "string"
        },
        {
          "internalType": "uint256",
          "name": "_recordCount",
          "type": "uint256"
        }
      ],
      "name": "addHistoricalRecord",
      "outputs": [
        {
          "internalType": "uint256",
          "name": "",
          "type": "uint256"
        }
      ],
      "payable": false,
      "stateMutability": "nonpayable",
      "type": "function"
    },
    {
      "constant": true,
      "inputs": [
        {
          "internalType": "string",
          "name": "_location",
          "type": "string"
        }
      ],
      "name": "totalPatientsPerLocation",
      "outputs": [
        {
          "internalType": "uint256",
          "name": "",
          "type": "uint256"
        }
      ],
      "payable": false,
      "stateMutability": "view",
      "type": "function"
    },
    {
      "constant": true,
      "inputs": [
        {
          "internalType": "string",
          "name": "_virus",
          "type": "string"
        }
      ],
      "name": "totalPatientsPerVirus",
      "outputs": [
        {
          "internalType": "uint256",
          "name": "",
          "type": "uint256"
        }
      ],
      "payable": false,
      "stateMutability": "view",
      "type": "function"
    },
    {
      "constant": true,
      "inputs": [],
      "name": "getRecords",
      "outputs": [
        {
          "components": [
            {
              "internalType": "string",
              "name": "virus",
              "type": "string"
            },
            {
              "internalType": "string",
              "name": "location",
              "type": "string"
            },
            {
              "internalType": "string",
              "name": "latLon",
              "type": "string"
            },
            {
              "internalType": "uint256",
              "name": "count",
              "type": "uint256"
            }
          ],
          "internalType": "struct Storage.Record[]",
          "name": "",
          "type": "tuple[]"
        }
      ],
      "payable": false,
      "stateMutability": "view",
      "type": "function"
    }
  ],
  "bytecode": "0x60806040523480156200001157600080fd5b50600060405180608001604052806040518060400160405280600481526020017f6e6f6e650000000000000000000000000000000000000000000000000000000081525081526020016040518060400160405280600481526020017f6e6f6e650000000000000000000000000000000000000000000000000000000081525081526020016040518060400160405280600481526020017f6e6f6e6500000000000000000000000000000000000000000000000000000000815250815260200160008152509080600181540180825580915050906001820390600052602060002090600402016000909192909190915060008201518160000190805190602001906200011e92919062000170565b5060208201518160010190805190602001906200013d92919062000170565b5060408201518160020190805190602001906200015c92919062000170565b50606082015181600301555050506200021f565b828054600181600116156101000203166002900490600052602060002090601f016020900481019282601f10620001b357805160ff1916838001178555620001e4565b82800160010185558215620001e4579182015b82811115620001e3578251825591602001919060010190620001c6565b5b509050620001f39190620001f7565b5090565b6200021c91905b8082111562000218576000816000905550600101620001fe565b5090565b90565b6114f7806200022f6000396000f3fe608060405234801561001057600080fd5b506004361061009e5760003560e01c8063620c23c011610066578063620c23c01461019657806381b86a21146101c6578063848786a6146101f65780638eff3c2914610226578063e486f813146102445761009e565b8063214d9b2b146100a357806334461067146100d35780633f723c62146101065780635329109214610136578063609d1bea14610166575b600080fd5b6100bd60048036036100b89190810190610f65565b610260565b6040516100ca91906112db565b60405180910390f35b6100ed60048036036100e89190810190611064565b61037b565b6040516100fd9493929190611281565b60405180910390f35b610120600480360361011b9190810190610ece565b610580565b60405161012d91906112db565b60405180910390f35b610150600480360361014b9190810190610e8d565b6107d5565b60405161015d91906112db565b60405180910390f35b610180600480360361017b9190810190610e8d565b61088e565b60405161018d91906112db565b60405180910390f35b6101b060048036036101ab9190810190611010565b610947565b6040516101bd91906112db565b60405180910390f35b6101e060048036036101db9190810190610e4c565b61098b565b6040516101ed91906112db565b60405180910390f35b610210600480360361020b9190810190611010565b6109b9565b60405161021d91906112db565b60405180910390f35b61022e6109fd565b60405161023b919061125f565b60405180910390f35b61025e60048036036102599190810190610e23565b610c4c565b005b6000806001846040516102739190611248565b9081526020016040518091039020541461033c576102d682600060018660405161029d9190611248565b908152602001604051809103902054815481106102b657fe5b906000526020600020906004020160030154610c9090919063ffffffff16565b60006001856040516102e89190611248565b9081526020016040518091039020548154811061030157fe5b9060005260206000209060040201600301819055506001836040516103269190611248565b9081526020016040518091039020549050610373565b6000610349868686610580565b9050826000828154811061035957fe5b906000526020600020906004020160030181905550809150505b949350505050565b6000818154811061038857fe5b9060005260206000209060040201600091509050806000018054600181600116156101000203166002900480601f0160208091040260200160405190810160405280929190818152602001828054600181600116156101000203166002900480156104345780601f1061040957610100808354040283529160200191610434565b820191906000526020600020905b81548152906001019060200180831161041757829003601f168201915b505050505090806001018054600181600116156101000203166002900480601f0160208091040260200160405190810160405280929190818152602001828054600181600116156101000203166002900480156104d25780601f106104a7576101008083540402835291602001916104d2565b820191906000526020600020905b8154815290600101906020018083116104b557829003601f168201915b505050505090806002018054600181600116156101000203166002900480601f0160208091040260200160405190810160405280929190818152602001828054600181600116156101000203166002900480156105705780601f1061054557610100808354040283529160200191610570565b820191906000526020600020905b81548152906001019060200180831161055357829003601f168201915b5050505050908060030154905084565b6000806001836040516105939190611248565b9081526020016040518091039020541461065d576105f7600160006001856040516105be9190611248565b908152602001604051809103902054815481106105d757fe5b906000526020600020906004020160030154610c9090919063ffffffff16565b60006001846040516106099190611248565b9081526020016040518091039020548154811061062257fe5b9060005260206000209060040201600301819055506001826040516106479190611248565b90815260200160405180910390205490506107ce565b600060016000604051806080016040528088815260200187815260200186815260200160018152509080600181540180825580915050906001820390600052602060002090600402016000909192909190915060008201518160000190805190602001906106cc929190610cac565b5060208201518160010190805190602001906106e9929190610cac565b506040820151816002019080519060200190610706929190610cac565b506060820151816003015550500390506002846040516107269190611248565b908152602001604051809103902081908060018154018082558091505090600182039060005260206000200160009091929091909150555060038560405161076e9190611248565b9081526020016040518091039020819080600181540180825580915050906001820390600052602060002001600090919290919091505550806001846040516107b79190611248565b908152602001604051809103902081905550809150505b9392505050565b6000806000905060008090505b6003846040516107f29190611248565b90815260200160405180910390208054905081101561088457600060038560405161081d9190611248565b9081526020016040518091039020828154811061083657fe5b906000526020600020015490506108746000828154811061085357fe5b90600052602060002090600402016003015484610c9090919063ffffffff16565b92505080806001019150506107e2565b5080915050919050565b6000806000905060008090505b6002846040516108ab9190611248565b90815260200160405180910390208054905081101561093d5760006002856040516108d69190611248565b908152602001604051809103902082815481106108ef57fe5b9060005260206000200154905061092d6000828154811061090c57fe5b90600052602060002090600402016003015484610c9090919063ffffffff16565b925050808060010191505061089b565b5080915050919050565b600282805160208101820180518482526020830160208501208183528095505050505050818154811061097657fe5b90600052602060002001600091509150505481565b6001818051602081018201805184825260208301602085012081835280955050505050506000915090505481565b60038280516020810182018051848252602083016020850120818352809550505050505081815481106109e857fe5b90600052602060002001600091509150505481565b60606000805480602002602001604051908101604052809291908181526020016000905b82821015610c435783829060005260206000209060040201604051806080016040529081600082018054600181600116156101000203166002900480601f016020809104026020016040519081016040528092919081815260200182805460018160011615610100020316600290048015610add5780601f10610ab257610100808354040283529160200191610add565b820191906000526020600020905b815481529060010190602001808311610ac057829003601f168201915b50505050508152602001600182018054600181600116156101000203166002900480601f016020809104026020016040519081016040528092919081815260200182805460018160011615610100020316600290048015610b7f5780601f10610b5457610100808354040283529160200191610b7f565b820191906000526020600020905b815481529060010190602001808311610b6257829003601f168201915b50505050508152602001600282018054600181600116156101000203166002900480601f016020809104026020016040519081016040528092919081815260200182805460018160011615610100020316600290048015610c215780601f10610bf657610100808354040283529160200191610c21565b820191906000526020600020905b815481529060010190602001808311610c0457829003601f168201915b5050505050815260200160038201548152505081526020019060010190610a21565b50505050905090565b80600460006101000a81548173ffffffffffffffffffffffffffffffffffffffff021916908373ffffffffffffffffffffffffffffffffffffffff16021790555050565b600080828401905083811015610ca257fe5b8091505092915050565b828054600181600116156101000203166002900490600052602060002090601f016020900481019282601f10610ced57805160ff1916838001178555610d1b565b82800160010185558215610d1b579182015b82811115610d1a578251825591602001919060010190610cff565b5b509050610d289190610d2c565b5090565b610d4e91905b80821115610d4a576000816000905550600101610d32565b5090565b90565b600081359050610d6081611486565b92915050565b600082601f830112610d7757600080fd5b8135610d8a610d8582611323565b6112f6565b91508082526020830160208301858383011115610da657600080fd5b610db1838284611433565b50505092915050565b600082601f830112610dcb57600080fd5b8135610dde610dd98261134f565b6112f6565b91508082526020830160208301858383011115610dfa57600080fd5b610e05838284611433565b50505092915050565b600081359050610e1d8161149d565b92915050565b600060208284031215610e3557600080fd5b6000610e4384828501610d51565b91505092915050565b600060208284031215610e5e57600080fd5b600082013567ffffffffffffffff811115610e7857600080fd5b610e8484828501610d66565b91505092915050565b600060208284031215610e9f57600080fd5b600082013567ffffffffffffffff811115610eb957600080fd5b610ec584828501610dba565b91505092915050565b600080600060608486031215610ee357600080fd5b600084013567ffffffffffffffff811115610efd57600080fd5b610f0986828701610dba565b935050602084013567ffffffffffffffff811115610f2657600080fd5b610f3286828701610dba565b925050604084013567ffffffffffffffff811115610f4f57600080fd5b610f5b86828701610dba565b9150509250925092565b60008060008060808587031215610f7b57600080fd5b600085013567ffffffffffffffff811115610f9557600080fd5b610fa187828801610dba565b945050602085013567ffffffffffffffff811115610fbe57600080fd5b610fca87828801610dba565b935050604085013567ffffffffffffffff811115610fe757600080fd5b610ff387828801610dba565b925050606061100487828801610e0e565b91505092959194509250565b6000806040838503121561102357600080fd5b600083013567ffffffffffffffff81111561103d57600080fd5b61104985828601610d66565b925050602061105a85828601610e0e565b9150509250929050565b60006020828403121561107657600080fd5b600061108484828501610e0e565b91505092915050565b600061109983836111b9565b905092915050565b60006110ac8261138b565b6110b681856113b9565b9350836020820285016110c88561137b565b8060005b8581101561110457848403895281516110e5858261108d565b94506110f0836113ac565b925060208a019950506001810190506110cc565b50829750879550505050505092915050565b6000611121826113a1565b61112b81856113ec565b935061113b818560208601611442565b80840191505092915050565b600061115282611396565b61115c81856113ca565b935061116c818560208601611442565b61117581611475565b840191505092915050565b600061118b82611396565b61119581856113db565b93506111a5818560208601611442565b6111ae81611475565b840191505092915050565b600060808301600083015184820360008601526111d68282611147565b915050602083015184820360208601526111f08282611147565b9150506040830151848203604086015261120a8282611147565b915050606083015161121f606086018261122a565b508091505092915050565b61123381611429565b82525050565b61124281611429565b82525050565b60006112548284611116565b915081905092915050565b6000602082019050818103600083015261127981846110a1565b905092915050565b6000608082019050818103600083015261129b8187611180565b905081810360208301526112af8186611180565b905081810360408301526112c38185611180565b90506112d26060830184611239565b95945050505050565b60006020820190506112f06000830184611239565b92915050565b6000604051905081810181811067ffffffffffffffff8211171561131957600080fd5b8060405250919050565b600067ffffffffffffffff82111561133a57600080fd5b601f19601f8301169050602081019050919050565b600067ffffffffffffffff82111561136657600080fd5b601f19601f8301169050602081019050919050565b6000819050602082019050919050565b600081519050919050565b600081519050919050565b600081519050919050565b6000602082019050919050565b600082825260208201905092915050565b600082825260208201905092915050565b600082825260208201905092915050565b600081905092915050565b600061140282611409565b9050919050565b600073ffffffffffffffffffffffffffffffffffffffff82169050919050565b6000819050919050565b82818337600083830152505050565b60005b83811015611460578082015181840152602081019050611445565b8381111561146f576000848401525b50505050565b6000601f19601f8301169050919050565b61148f816113f7565b811461149a57600080fd5b50565b6114a681611429565b81146114b157600080fd5b5056fea365627a7a723158205d17af82d1728af23bf4be90462de234ce53b9284cc4b00d41023b34a8496ecd6c6578706572696d656e74616cf564736f6c63430005100040",
  "source": "pragma solidity >=0.5.0 <0.6.0;\npragma experimental ABIEncoderV2;\n\nimport \"./safemath.sol\";\n\ncontract Storage {\n    \n    using SafeMath for uint256;\n    using SafeMath for uint32;\n    using SafeMath for uint16;\n    \n    /*\n        AgeGroup { 1 = 0-10,\n                   2 = 11-20,\n                   3 = 21-30,\n                   4 = 40-60,\n                   5 = 60+\n                   }\n         gender true = male, false = female\n    */\n    \n    struct Demographic {\n        uint16 ageGroup;\n        bool gender;\n    }\n    \n    struct Record {\n        string virus;\n        string location;\n        string latLon;\n        uint count;\n        // Demographic[] patients;\n    }\n    \n    // These all need to be private before deployment, but leaving them public makes testing easier\n    Record[] public records;\n    mapping(string => uint) public recordByLatLon;          // \"Lat/Lon\" => THE index in records[]\n    mapping(string => uint[]) public recordsByLocation;     // \"region\" => indices in records[]\n    mapping(string => uint[]) public recordsByVirus;        // \"virus\" => indices in records[]\n    \n    address private authorizedInputContract;\n    \n    modifier isAuthorized(){\n        require(msg.sender == authorizedInputContract, \"You must be authorized to add to this record set.\");\n        _;\n    }\n    \n    // Necessary for 1 indexed records array in order to properly update infection counts at preexisting Lat/Lon records\n    // This way if we lookup lat/lon in recordByLatLon mapping and it maps to index 0 (default value), we know: no record for the given lat/lon\n    constructor () public {\n        records.push(Record(\"none\", \"none\", \"none\", 0));\n    }\n    \n    // This needs to be onlyOwner but is not enforced in this version\n    function changeInputContractAddress(address newInputContract) public {\n        // This code is misleading. Need to figure out how to separate calling contract from calling user address\n        authorizedInputContract = newInputContract;\n    }\n    \n    // This needs an authorization modifier\n    // The return value is the index of the record that was either added or updated\n    function addRecord(string memory _virus, string memory _location, string memory _latlon) public returns (uint) {\n        \n        // Record exists for the given Lat/Lon\n        if (recordByLatLon[_latlon] != 0){\n            // Increment existing record's count by 1\n            records[recordByLatLon[_latlon]].count = records[recordByLatLon[_latlon]].count.add(1); // Update patient count on preexisting record\n            return recordByLatLon[_latlon];\n        }\n        \n        // Create new record and set count to 1\n        uint newRecordIndex = records.push(Record(_virus, _location, _latlon, 1)) - 1;\n        recordsByLocation[_location].push(newRecordIndex);\n        recordsByVirus[_virus].push(newRecordIndex);\n        recordByLatLon[_latlon] = newRecordIndex;\n        \n        return newRecordIndex;\n        \n    }\n    \n    // This needs an authorization modifier\n    // The return value is the index of the record that was either added or updated\n    function addHistoricalRecord(string memory _virus, string memory _location, string memory _latlon, uint _recordCount) public returns (uint) {\n        \n        // Record exists for the given Lat/Lon\n        if (recordByLatLon[_latlon] != 0){\n            // Increment existing record's count by _recordCount\n            records[recordByLatLon[_latlon]].count = records[recordByLatLon[_latlon]].count.add(_recordCount);  // Update patient count on preexisting record\n            return recordByLatLon[_latlon];\n        }\n        \n        // Create new record and set count to _recordCount\n        uint newRecordIndex = addRecord(_virus, _location, _latlon);\n        records[newRecordIndex].count = _recordCount;\n        return newRecordIndex;\n        \n    }\n    \n    // Returns the current case count for the given location (note: NOT for the given Lat/Lon)\n    function totalPatientsPerLocation(string memory _location) public view returns (uint) {\n        uint total = 0;\n        \n        for (uint i = 0; i < recordsByLocation[_location].length; i++){\n            uint recordIndex = recordsByLocation[_location][i];\n            total = total.add(records[recordIndex].count);\n        }\n        \n        return total;\n    }\n    \n    // Returns the current case count for the given virus\n    function totalPatientsPerVirus(string memory _virus) public view returns (uint) {\n        uint total = 0;\n        \n        for (uint i = 0; i < recordsByVirus[_virus].length; i++){\n            uint recordIndex = recordsByVirus[_virus][i];\n            total = total.add(records[recordIndex].count);\n        }\n        \n        return total;\n    }\n    \n    // Returns all records in the array (godspeed)\n    function getRecords() public view returns (Record[] memory){\n        return records;\n    }\n    \n}\n",
  "sourcePath": "/home/t8/WebstormProjects/cs481a3TermProject/contracts/Storage.sol",
  "compiler": {
    "name": "solc",
    "version": "0.5.16+commit.9c3226ce.Emscripten.clang"
  },
  "schemaVersion": "3.1.0",
  "updatedAt": "2020-05-02T19:42:38.393Z",
  "devdoc": {
    "methods": {}
  },
  "userdoc": {
    "methods": {}
  }
}